{
  "_format": "hh-sol-artifact-1",
  "contractName": "KortanaPool",
  "sourceName": "contracts/KortanaPool.sol",
  "abi": [
    {
      "inputs": [],
      "stateMutability": "nonpayable",
      "type": "constructor"
    },
    {
      "anonymous": false,
      "inputs": [
        {
          "indexed": true,
          "internalType": "address",
          "name": "owner",
          "type": "address"
        },
        {
          "indexed": true,
          "internalType": "int24",
          "name": "tickLower",
          "type": "int24"
        },
        {
          "indexed": true,
          "internalType": "int24",
          "name": "tickUpper",
          "type": "int24"
        },
        {
          "indexed": false,
          "internalType": "uint128",
          "name": "amount",
          "type": "uint128"
        },
        {
          "indexed": false,
          "internalType": "uint256",
          "name": "amount0",
          "type": "uint256"
        },
        {
          "indexed": false,
          "internalType": "uint256",
          "name": "amount1",
          "type": "uint256"
        }
      ],
      "name": "Burn",
      "type": "event"
    },
    {
      "anonymous": false,
      "inputs": [
        {
          "indexed": true,
          "internalType": "address",
          "name": "owner",
          "type": "address"
        },
        {
          "indexed": false,
          "internalType": "address",
          "name": "recipient",
          "type": "address"
        },
        {
          "indexed": true,
          "internalType": "int24",
          "name": "tickLower",
          "type": "int24"
        },
        {
          "indexed": true,
          "internalType": "int24",
          "name": "tickUpper",
          "type": "int24"
        },
        {
          "indexed": false,
          "internalType": "uint128",
          "name": "amount0",
          "type": "uint128"
        },
        {
          "indexed": false,
          "internalType": "uint128",
          "name": "amount1",
          "type": "uint128"
        }
      ],
      "name": "Collect",
      "type": "event"
    },
    {
      "anonymous": false,
      "inputs": [
        {
          "indexed": true,
          "internalType": "address",
          "name": "sender",
          "type": "address"
        },
        {
          "indexed": true,
          "internalType": "address",
          "name": "recipient",
          "type": "address"
        },
        {
          "indexed": false,
          "internalType": "uint128",
          "name": "amount0",
          "type": "uint128"
        },
        {
          "indexed": false,
          "internalType": "uint128",
          "name": "amount1",
          "type": "uint128"
        }
      ],
      "name": "CollectProtocol",
      "type": "event"
    },
    {
      "anonymous": false,
      "inputs": [
        {
          "indexed": true,
          "internalType": "address",
          "name": "sender",
          "type": "address"
        },
        {
          "indexed": true,
          "internalType": "address",
          "name": "recipient",
          "type": "address"
        },
        {
          "indexed": false,
          "internalType": "uint256",
          "name": "amount0",
          "type": "uint256"
        },
        {
          "indexed": false,
          "internalType": "uint256",
          "name": "amount1",
          "type": "uint256"
        },
        {
          "indexed": false,
          "internalType": "uint256",
          "name": "paid0",
          "type": "uint256"
        },
        {
          "indexed": false,
          "internalType": "uint256",
          "name": "paid1",
          "type": "uint256"
        }
      ],
      "name": "Flash",
      "type": "event"
    },
    {
      "anonymous": false,
      "inputs": [
        {
          "indexed": false,
          "internalType": "uint16",
          "name": "observationCardinalityNextOld",
          "type": "uint16"
        },
        {
          "indexed": false,
          "internalType": "uint16",
          "name": "observationCardinalityNextNew",
          "type": "uint16"
        }
      ],
      "name": "IncreaseObservationCardinalityNext",
      "type": "event"
    },
    {
      "anonymous": false,
      "inputs": [
        {
          "indexed": false,
          "internalType": "uint160",
          "name": "sqrtPriceX96",
          "type": "uint160"
        },
        {
          "indexed": false,
          "internalType": "int24",
          "name": "tick",
          "type": "int24"
        }
      ],
      "name": "Initialize",
      "type": "event"
    },
    {
      "anonymous": false,
      "inputs": [
        {
          "indexed": false,
          "internalType": "address",
          "name": "sender",
          "type": "address"
        },
        {
          "indexed": true,
          "internalType": "address",
          "name": "owner",
          "type": "address"
        },
        {
          "indexed": true,
          "internalType": "int24",
          "name": "tickLower",
          "type": "int24"
        },
        {
          "indexed": true,
          "internalType": "int24",
          "name": "tickUpper",
          "type": "int24"
        },
        {
          "indexed": false,
          "internalType": "uint128",
          "name": "amount",
          "type": "uint128"
        },
        {
          "indexed": false,
          "internalType": "uint256",
          "name": "amount0",
          "type": "uint256"
        },
        {
          "indexed": false,
          "internalType": "uint256",
          "name": "amount1",
          "type": "uint256"
        }
      ],
      "name": "Mint",
      "type": "event"
    },
    {
      "anonymous": false,
      "inputs": [
        {
          "indexed": false,
          "internalType": "uint8",
          "name": "feeProtocol0Old",
          "type": "uint8"
        },
        {
          "indexed": false,
          "internalType": "uint8",
          "name": "feeProtocol1Old",
          "type": "uint8"
        },
        {
          "indexed": false,
          "internalType": "uint8",
          "name": "feeProtocol0New",
          "type": "uint8"
        },
        {
          "indexed": false,
          "internalType": "uint8",
          "name": "feeProtocol1New",
          "type": "uint8"
        }
      ],
      "name": "SetFeeProtocol",
      "type": "event"
    },
    {
      "anonymous": false,
      "inputs": [
        {
          "indexed": true,
          "internalType": "address",
          "name": "sender",
          "type": "address"
        },
        {
          "indexed": true,
          "internalType": "address",
          "name": "recipient",
          "type": "address"
        },
        {
          "indexed": false,
          "internalType": "int256",
          "name": "amount0",
          "type": "int256"
        },
        {
          "indexed": false,
          "internalType": "int256",
          "name": "amount1",
          "type": "int256"
        },
        {
          "indexed": false,
          "internalType": "uint160",
          "name": "sqrtPriceX96",
          "type": "uint160"
        },
        {
          "indexed": false,
          "internalType": "uint128",
          "name": "liquidity",
          "type": "uint128"
        },
        {
          "indexed": false,
          "internalType": "int24",
          "name": "tick",
          "type": "int24"
        }
      ],
      "name": "Swap",
      "type": "event"
    },
    {
      "inputs": [
        {
          "internalType": "int24",
          "name": "tickLower",
          "type": "int24"
        },
        {
          "internalType": "int24",
          "name": "tickUpper",
          "type": "int24"
        },
        {
          "internalType": "uint128",
          "name": "amount",
          "type": "uint128"
        }
      ],
      "name": "burn",
      "outputs": [
        {
          "internalType": "uint256",
          "name": "amount0",
          "type": "uint256"
        },
        {
          "internalType": "uint256",
          "name": "amount1",
          "type": "uint256"
        }
      ],
      "stateMutability": "nonpayable",
      "type": "function"
    },
    {
      "inputs": [
        {
          "internalType": "address",
          "name": "recipient",
          "type": "address"
        },
        {
          "internalType": "int24",
          "name": "tickLower",
          "type": "int24"
        },
        {
          "internalType": "int24",
          "name": "tickUpper",
          "type": "int24"
        },
        {
          "internalType": "uint128",
          "name": "amount0Requested",
          "type": "uint128"
        },
        {
          "internalType": "uint128",
          "name": "amount1Requested",
          "type": "uint128"
        }
      ],
      "name": "collect",
      "outputs": [
        {
          "internalType": "uint128",
          "name": "amount0",
          "type": "uint128"
        },
        {
          "internalType": "uint128",
          "name": "amount1",
          "type": "uint128"
        }
      ],
      "stateMutability": "nonpayable",
      "type": "function"
    },
    {
      "inputs": [
        {
          "internalType": "address",
          "name": "recipient",
          "type": "address"
        },
        {
          "internalType": "uint128",
          "name": "amount0Requested",
          "type": "uint128"
        },
        {
          "internalType": "uint128",
          "name": "amount1Requested",
          "type": "uint128"
        }
      ],
      "name": "collectProtocol",
      "outputs": [
        {
          "internalType": "uint128",
          "name": "amount0",
          "type": "uint128"
        },
        {
          "internalType": "uint128",
          "name": "amount1",
          "type": "uint128"
        }
      ],
      "stateMutability": "nonpayable",
      "type": "function"
    },
    {
      "inputs": [],
      "name": "factory",
      "outputs": [
        {
          "internalType": "address",
          "name": "",
          "type": "address"
        }
      ],
      "stateMutability": "view",
      "type": "function"
    },
    {
      "inputs": [],
      "name": "fee",
      "outputs": [
        {
          "internalType": "uint24",
          "name": "",
          "type": "uint24"
        }
      ],
      "stateMutability": "view",
      "type": "function"
    },
    {
      "inputs": [],
      "name": "feeGrowthGlobal0X128",
      "outputs": [
        {
          "internalType": "uint256",
          "name": "",
          "type": "uint256"
        }
      ],
      "stateMutability": "view",
      "type": "function"
    },
    {
      "inputs": [],
      "name": "feeGrowthGlobal1X128",
      "outputs": [
        {
          "internalType": "uint256",
          "name": "",
          "type": "uint256"
        }
      ],
      "stateMutability": "view",
      "type": "function"
    },
    {
      "inputs": [
        {
          "internalType": "address",
          "name": "recipient",
          "type": "address"
        },
        {
          "internalType": "uint256",
          "name": "amount0",
          "type": "uint256"
        },
        {
          "internalType": "uint256",
          "name": "amount1",
          "type": "uint256"
        },
        {
          "internalType": "bytes",
          "name": "data",
          "type": "bytes"
        }
      ],
      "name": "flash",
      "outputs": [],
      "stateMutability": "nonpayable",
      "type": "function"
    },
    {
      "inputs": [
        {
          "internalType": "uint16",
          "name": "observationCardinalityNext",
          "type": "uint16"
        }
      ],
      "name": "increaseObservationCardinalityNext",
      "outputs": [],
      "stateMutability": "nonpayable",
      "type": "function"
    },
    {
      "inputs": [
        {
          "internalType": "uint160",
          "name": "sqrtPriceX96",
          "type": "uint160"
        }
      ],
      "name": "initialize",
      "outputs": [],
      "stateMutability": "nonpayable",
      "type": "function"
    },
    {
      "inputs": [],
      "name": "liquidity",
      "outputs": [
        {
          "internalType": "uint128",
          "name": "",
          "type": "uint128"
        }
      ],
      "stateMutability": "view",
      "type": "function"
    },
    {
      "inputs": [],
      "name": "maxLiquidityPerTick",
      "outputs": [
        {
          "internalType": "uint128",
          "name": "",
          "type": "uint128"
        }
      ],
      "stateMutability": "view",
      "type": "function"
    },
    {
      "inputs": [
        {
          "internalType": "address",
          "name": "recipient",
          "type": "address"
        },
        {
          "internalType": "int24",
          "name": "tickLower",
          "type": "int24"
        },
        {
          "internalType": "int24",
          "name": "tickUpper",
          "type": "int24"
        },
        {
          "internalType": "uint128",
          "name": "amount",
          "type": "uint128"
        },
        {
          "internalType": "bytes",
          "name": "data",
          "type": "bytes"
        }
      ],
      "name": "mint",
      "outputs": [
        {
          "internalType": "uint256",
          "name": "amount0",
          "type": "uint256"
        },
        {
          "internalType": "uint256",
          "name": "amount1",
          "type": "uint256"
        }
      ],
      "stateMutability": "nonpayable",
      "type": "function"
    },
    {
      "inputs": [
        {
          "internalType": "uint256",
          "name": "",
          "type": "uint256"
        }
      ],
      "name": "observations",
      "outputs": [
        {
          "internalType": "uint32",
          "name": "blockTimestamp",
          "type": "uint32"
        },
        {
          "internalType": "int56",
          "name": "tickCumulative",
          "type": "int56"
        },
        {
          "internalType": "uint160",
          "name": "secondsPerLiquidityCumulativeX128",
          "type": "uint160"
        },
        {
          "internalType": "bool",
          "name": "initialized",
          "type": "bool"
        }
      ],
      "stateMutability": "view",
      "type": "function"
    },
    {
      "inputs": [
        {
          "internalType": "uint32[]",
          "name": "secondsAgos",
          "type": "uint32[]"
        }
      ],
      "name": "observe",
      "outputs": [
        {
          "internalType": "int56[]",
          "name": "tickCumulatives",
          "type": "int56[]"
        },
        {
          "internalType": "uint160[]",
          "name": "secondsPerLiquidityCumulativeX128s",
          "type": "uint160[]"
        }
      ],
      "stateMutability": "view",
      "type": "function"
    },
    {
      "inputs": [
        {
          "internalType": "bytes32",
          "name": "",
          "type": "bytes32"
        }
      ],
      "name": "positions",
      "outputs": [
        {
          "internalType": "uint128",
          "name": "liquidity",
          "type": "uint128"
        },
        {
          "internalType": "uint256",
          "name": "feeGrowthInside0X128",
          "type": "uint256"
        },
        {
          "internalType": "uint256",
          "name": "feeGrowthInside1X128",
          "type": "uint256"
        },
        {
          "internalType": "uint128",
          "name": "tokensOwed0",
          "type": "uint128"
        },
        {
          "internalType": "uint128",
          "name": "tokensOwed1",
          "type": "uint128"
        }
      ],
      "stateMutability": "view",
      "type": "function"
    },
    {
      "inputs": [],
      "name": "protocolFees",
      "outputs": [
        {
          "internalType": "uint128",
          "name": "token0",
          "type": "uint128"
        },
        {
          "internalType": "uint128",
          "name": "token1",
          "type": "uint128"
        }
      ],
      "stateMutability": "view",
      "type": "function"
    },
    {
      "inputs": [],
      "name": "slot0",
      "outputs": [
        {
          "internalType": "uint160",
          "name": "sqrtPriceX96",
          "type": "uint160"
        },
        {
          "internalType": "int24",
          "name": "tick",
          "type": "int24"
        },
        {
          "internalType": "uint16",
          "name": "observationIndex",
          "type": "uint16"
        },
        {
          "internalType": "uint16",
          "name": "observationCardinality",
          "type": "uint16"
        },
        {
          "internalType": "uint16",
          "name": "observationCardinalityNext",
          "type": "uint16"
        },
        {
          "internalType": "uint8",
          "name": "feeProtocol",
          "type": "uint8"
        },
        {
          "internalType": "bool",
          "name": "unlocked",
          "type": "bool"
        }
      ],
      "stateMutability": "view",
      "type": "function"
    },
    {
      "inputs": [
        {
          "internalType": "address",
          "name": "recipient",
          "type": "address"
        },
        {
          "internalType": "bool",
          "name": "zeroForOne",
          "type": "bool"
        },
        {
          "internalType": "int256",
          "name": "amountSpecified",
          "type": "int256"
        },
        {
          "internalType": "uint160",
          "name": "sqrtPriceLimitX96",
          "type": "uint160"
        },
        {
          "internalType": "bytes",
          "name": "data",
          "type": "bytes"
        }
      ],
      "name": "swap",
      "outputs": [
        {
          "internalType": "int256",
          "name": "amount0",
          "type": "int256"
        },
        {
          "internalType": "int256",
          "name": "amount1",
          "type": "int256"
        }
      ],
      "stateMutability": "nonpayable",
      "type": "function"
    },
    {
      "inputs": [
        {
          "internalType": "int16",
          "name": "",
          "type": "int16"
        }
      ],
      "name": "tickBitmap",
      "outputs": [
        {
          "internalType": "uint256",
          "name": "",
          "type": "uint256"
        }
      ],
      "stateMutability": "view",
      "type": "function"
    },
    {
      "inputs": [],
      "name": "tickSpacing",
      "outputs": [
        {
          "internalType": "int24",
          "name": "",
          "type": "int24"
        }
      ],
      "stateMutability": "view",
      "type": "function"
    },
    {
      "inputs": [
        {
          "internalType": "int24",
          "name": "",
          "type": "int24"
        }
      ],
      "name": "ticks",
      "outputs": [
        {
          "internalType": "uint128",
          "name": "liquidityGross",
          "type": "uint128"
        },
        {
          "internalType": "int128",
          "name": "liquidityNet",
          "type": "int128"
        },
        {
          "internalType": "uint256",
          "name": "feeGrowthOutside0X128",
          "type": "uint256"
        },
        {
          "internalType": "uint256",
          "name": "feeGrowthOutside1X128",
          "type": "uint256"
        },
        {
          "internalType": "int56",
          "name": "tickCumulativeOutside",
          "type": "int56"
        },
        {
          "internalType": "uint160",
          "name": "secondsPerLiquidityOutsideX128",
          "type": "uint160"
        },
        {
          "internalType": "uint32",
          "name": "secondsOutside",
          "type": "uint32"
        },
        {
          "internalType": "bool",
          "name": "initialized",
          "type": "bool"
        }
      ],
      "stateMutability": "view",
      "type": "function"
    },
    {
      "inputs": [],
      "name": "token0",
      "outputs": [
        {
          "internalType": "address",
          "name": "",
          "type": "address"
        }
      ],
      "stateMutability": "view",
      "type": "function"
    },
    {
      "inputs": [],
      "name": "token1",
      "outputs": [
        {
          "internalType": "address",
          "name": "",
          "type": "address"
        }
      ],
      "stateMutability": "view",
      "type": "function"
    }
  ],
  "bytecode": "0x61016060405234801561001157600080fd5b50600160009081553060805260408051630890357360e41b81529051339163890357309160048083019260a09291908290030181865afa158015610059573d6000803e3d6000fd5b505050506040513d601f19601f8201168201806040525081019061007d919061016e565b62ffffff909116610100526001600160a01b0391821660e05291811660c0529190911660a052600281900b6101205290506100b7816100ca565b6001600160801b0316610140525061030d565b600080826100dc81620d89e719610215565b6100e6919061024f565b9050600083806100f9620d89e719610276565b6101039190610215565b61010d919061024f565b905060008461011c8484610298565b6101269190610215565b6101319060016102c3565b905061014962ffffff82166001600160801b036102de565b95945050505050565b80516001600160a01b038116811461016957600080fd5b919050565b600080600080600060a0868803121561018657600080fd5b61018f86610152565b945061019d60208701610152565b93506101ab60408701610152565b9250606086015162ffffff811681146101c357600080fd5b8092505060808601518060020b81146101db57600080fd5b809150509295509295909350565b634e487b7160e01b600052601260045260246000fd5b634e487b7160e01b600052601160045260246000fd5b60008160020b8360020b8061022c5761022c6101e9565b627fffff19821460001982141615610246576102466101ff565b90059392505050565b60008260020b8260020b028060020b915080821461026f5761026f6101ff565b5092915050565b60008160020b627fffff19810361028f5761028f6101ff565b60000392915050565b600282810b9082900b03627fffff198112627fffff821317156102bd576102bd6101ff565b92915050565b62ffffff81811683821601908111156102bd576102bd6101ff565b60006001600160801b038316806102f7576102f76101e9565b6001600160801b03929092169190910492915050565b60805160a05160c05160e051610100516101205161014051615a3a61040f6000396000818161042f01528181613e440152613e7b0152600081816104c4015281816109c601528181613eaf0152613ee101526000818161052501528181610ac4015281816118a001526118d70152600081816104fe01528181611017015281816119e501528181611fbb015281816123e30152613c7e0152600081816101620152818161118b0152818161194a01528181611ecf015281816122cd0152613bed01526000818161049d015261212201526000818161065b0152818161140a0152818161152c015281816117f6015281816124ef01526125c10152615a3a6000f3fe608060405234801561001057600080fd5b50600436106101585760003560e01c80635339c296116100c3578063d0c93a7c1161007c578063d0c93a7c146104bf578063d21220a7146104f9578063ddca3f4314610520578063f30583991461055b578063f30dba9314610564578063f637731d1461063a57600080fd5b80635339c2961461040a57806370cf754a1461042a57806385b6672914610451578063883bdbfd14610464578063a34123a714610485578063c45a01551461049857600080fd5b80633850c7bd116101155780633850c7bd146102945780633c8a7d8d14610339578063461413191461034c578063490e6cbc146103635780634f1eb3d814610376578063514ea4bf1461038957600080fd5b80630dfe16811461015d578063128acb08146101a15780631a686502146101c95780631ad8b03b146101f4578063252c09d71461023257806332148f671461027f575b600080fd5b6101847f000000000000000000000000000000000000000000000000000000000000000081565b6040516001600160a01b0390911681526020015b60405180910390f35b6101b46101af366004614ff9565b61064d565b60408051928352602083019190915201610198565b6005546101dc906001600160801b031681565b6040516001600160801b039091168152602001610198565b600454610212906001600160801b0380821691600160801b90041682565b604080516001600160801b03938416815292909116602083015201610198565b61024561024036600461507e565b611384565b6040805163ffffffff909516855260069390930b60208501526001600160a01b039091169183019190915215156060820152608001610198565b61029261028d366004615097565b6113c9565b005b6001546102e8906001600160a01b03811690600160a01b810460020b9061ffff600160b81b8204811691600160c81b8104821691600160d81b8204169060ff600160e81b8204811691600160f01b90041687565b604080516001600160a01b03909816885260029690960b602088015261ffff94851695870195909552918316606086015291909116608084015260ff1660a0830152151560c082015260e001610198565b6101b46103473660046150e9565b6114e6565b61035560035481565b604051908152602001610198565b610292610371366004615137565b6117b5565b6102126103843660046151a1565b611d77565b6103d461039736600461507e565b60086020526000908152604090208054600182015460028301546003909301546001600160801b0392831693919281811691600160801b90041685565b604080516001600160801b039687168152602081019590955284019290925283166060830152909116608082015260a001610198565b610355610418366004615208565b60076020526000908152604090205481565b6101dc7f000000000000000000000000000000000000000000000000000000000000000081565b61021261045f36600461522b565b6120cd565b610477610472366004615270565b6124e1565b6040516101989291906152e7565b6101b4610493366004615375565b61257b565b6101847f000000000000000000000000000000000000000000000000000000000000000081565b6104e67f000000000000000000000000000000000000000000000000000000000000000081565b60405160029190910b8152602001610198565b6101847f000000000000000000000000000000000000000000000000000000000000000081565b6105477f000000000000000000000000000000000000000000000000000000000000000081565b60405162ffffff9091168152602001610198565b61035560025481565b6105de6105723660046153a1565b60066020819052600091825260409091208054600182015460028301546003909301546001600160801b03831694600160801b909304600f0b93919281900b90600160381b81046001600160a01b031690600160d81b810463ffffffff1690600160f81b900460ff1688565b604080516001600160801b039099168952600f9790970b602089015295870194909452606086019290925260060b60808501526001600160a01b031660a084015263ffffffff1660c0830152151560e082015261010001610198565b6102926106483660046153bc565b61275b565b600080306001600160a01b037f000000000000000000000000000000000000000000000000000000000000000016146106a15760405162461bcd60e51b8152600401610698906153d9565b60405180910390fd5b856000036106ec5760405162461bcd60e51b815260206004820152601860248201527712dbdc9d185b98541bdbdb0e8816915493d7d05353d5539560421b6044820152606401610698565b6040805160e0810182526001546001600160a01b0381168252600160a01b810460020b602083015261ffff600160b81b8204811693830193909352600160c81b810483166060830152600160d81b8104909216608082015260ff600160e81b8304811660a0830152600160f01b909204909116151560c082018190526107845760405162461bcd60e51b815260040161069890615402565b876107cf5780600001516001600160a01b0316866001600160a01b03161180156107ca575073fffd8963efd1fc6a506488495d951d5263988d266001600160a01b038716105b610801565b80600001516001600160a01b0316866001600160a01b031610801561080157506401000276a36001600160a01b038716115b61084d5760405162461bcd60e51b815260206004820181905260248201527f4b6f7274616e61506f6f6c3a20494e56414c49445f50524943455f4c494d49546044820152606401610698565b6001805460ff60f01b191690556040805160c0810182526005546001600160801b0316815263ffffffff4216602082015260009181018a6108995760048460a0015160ff16901c6108aa565b60108460a001516108aa9190615445565b60ff16815260200160006001600160a01b03168152602001600060060b81526020016000151581525090506000808913905060006040518060e001604052808b81526020016000815260200185600001516001600160a01b03168152602001856020015160020b81526020018c61092357600354610927565b6002545b81526000602082015284516001600160801b031660409091015290505b80511580159061096a5750886001600160a01b031681604001516001600160a01b031614155b15610dbf576040805160e081018252600080825260208201819052918101829052606081018290526080810182905260a0810182905260c081019190915260408201516001600160a01b0316815260608201516109eb906007907f00000000000000000000000000000000000000000000000000000000000000008f6128b3565b1515604083015260020b60208201819052620d89e7191315610a1657620d89e7196020820152610a4a565b610a23620d89e71961547d565b60020b816020015160020b1315610a4a57610a41620d89e71961547d565b60020b60208201525b610a578160200151612bfe565b6001600160a01b031660608201526040820151610ae8908d610a91578b6001600160a01b031683606001516001600160a01b031611610aab565b8b6001600160a01b031683606001516001600160a01b0316105b610ab9578260600151610abb565b8b5b60c085015185517f0000000000000000000000000000000000000000000000000000000000000000613042565b60c085015260a084015260808301526001600160a01b031660408301528215610b6057610b278160c001518260800151610b22919061549f565b61325d565b82518390610b369083906154b2565b90525060a0810151610b479061325d565b8260200151610b5691906154b2565b6020830152610bab565b610b6d8160a0015161325d565b82518390610b7c9083906154d9565b90525060c08101516080820151610b9691610b229161549f565b8260200151610ba591906154d9565b60208301525b604084015160ff1615610c0a576000846040015160ff168260c00151610bd19190615501565b9050808260c001818151610be59190615515565b90525060a083018051829190610bfc908390615528565b6001600160801b0316905250505b60c08201516001600160801b031615610c5257610c3d8160c00151600160801b8460c001516001600160801b0316613273565b82608001818151610c4e919061549f565b9052505b80606001516001600160a01b031682604001516001600160a01b031603610d8257806040015115610d55578360a00151610cd757610cb9846020015160008760200151886040015188600001518a606001516009613338909695949392919063ffffffff16565b6001600160a01b0316606086015260060b6080850152600160a08501525b6000610d2382602001518e610cee57600254610cf4565b84608001515b8f610d03578560800151610d07565b6003545b606089015160808a015160208b0151600695949392919061352c565b90508c15610d3757610d3481615547565b90505b610d458360c001518261363f565b6001600160801b031660c0840152505b8b610d64578060200151610d75565b60018160200151610d759190615564565b60020b6060830152610db9565b80600001516001600160a01b031682604001516001600160a01b031614610db957610db08260400151613705565b60020b60608301525b50610944565b836020015160020b816060015160020b14610e8957600080610e0d86604001518660200151886020015188600001518a606001518b608001516009613a41909695949392919063ffffffff16565b604085015160608601516001805463ffffffff60b81b1916600160c81b61ffff9586160261ffff60b81b191617600160b81b9590941694909402929092176001600160b81b031916600160a01b62ffffff909316929092026001600160a01b031916919091176001600160a01b0390911617905550610eae9050565b6040810151600180546001600160a01b0319166001600160a01b039092169190911790555b8060c001516001600160801b031683600001516001600160801b031614610ef45760c0810151600580546001600160801b0319166001600160801b039092169190911790555b8a15610f5f57608081015160025560a08101516001600160801b031615610f5a5760a081015160048054600090610f359084906001600160801b0316615528565b92506101000a8154816001600160801b0302191690836001600160801b031602179055505b610fc6565b608081015160035560a08101516001600160801b031615610fc65760a081015160048054601090610fa1908490600160801b90046001600160801b0316615528565b92506101000a8154816001600160801b0302191690836001600160801b031602179055505b8115158b151514610fe75760208101518151610fe2908c6154b2565b610ff9565b8051610ff3908b6154b2565b81602001515b90965094508a156111785760008512156110b7576001600160a01b037f00000000000000000000000000000000000000000000000000000000000000001663a9059cbb8d61104688615589565b6040516001600160e01b031960e085901b1681526001600160a01b03909216600483015260248201526044016020604051808303816000875af1158015611091573d6000803e3d6000fd5b505050506040513d601f19601f820116820180604052508101906110b591906155a5565b505b60006110c1613bd5565b6040516304c455e960e51b8152909150339063988abd20906110ed908a908a908e908e906004016155eb565b600060405180830381600087803b15801561110757600080fd5b505af115801561111b573d6000803e3d6000fd5b50505050611127613bd5565b611131888361549f565b11156111725760405162461bcd60e51b815260206004820152601060248201526f4b6f7274616e61506f6f6c3a2049494160801b6044820152606401610698565b506112e8565b600086121561122b576001600160a01b037f00000000000000000000000000000000000000000000000000000000000000001663a9059cbb8d6111ba89615589565b6040516001600160e01b031960e085901b1681526001600160a01b03909216600483015260248201526044016020604051808303816000875af1158015611205573d6000803e3d6000fd5b505050506040513d601f19601f8201168201806040525081019061122991906155a5565b505b6000611235613c66565b6040516304c455e960e51b8152909150339063988abd2090611261908a908a908e908e906004016155eb565b600060405180830381600087803b15801561127b57600080fd5b505af115801561128f573d6000803e3d6000fd5b5050505061129b613c66565b6112a5878361549f565b11156112e65760405162461bcd60e51b815260206004820152601060248201526f4b6f7274616e61506f6f6c3a2049494160801b6044820152606401610698565b505b60408082015160c083015160608085015184518b8152602081018b90526001600160a01b03948516958101959095526001600160801b039092169084015260020b60808301528d169033907fc42079f94a6350d7e6235f29174924f928cc2ac818eb64fed8004e115fbcca679060a00160405180910390a350506001805460ff60f01b1916600160f01b17905550919890975095505050505050565b60098161ffff811061139557600080fd5b015463ffffffff81169150600160201b810460060b90600160581b81046001600160a01b031690600160f81b900460ff1684565b600154600160f01b900460ff166113f25760405162461bcd60e51b815260040161069890615402565b6001805460ff60f01b19169055306001600160a01b037f000000000000000000000000000000000000000000000000000000000000000016146114475760405162461bcd60e51b8152600401610698906153d9565b600154600160d81b900461ffff16600061146360098385613cb5565b6001805461ffff808416600160d81b810261ffff60d81b19909316929092179092559192508316146114ce576040805161ffff8085168252831660208201527fac49e518f90a358f652e4400164f05a5d8f7e35e7747279bc3a93dbf584e125a910160405180910390a15b50506001805460ff60f01b1916600160f01b17905550565b6001546000908190600160f01b900460ff166115145760405162461bcd60e51b815260040161069890615402565b6001805460ff60f01b19169055306001600160a01b037f000000000000000000000000000000000000000000000000000000000000000016146115695760405162461bcd60e51b8152600401610698906153d9565b6000856001600160801b0316116115bd5760405162461bcd60e51b815260206004820152601860248201527712dbdc9d185b98541bdbdb0e8816915493d7d05353d5539560421b6044820152606401610698565b6000806115ea8a8a8a6115d88b6001600160801b0316613d59565b600154600160a01b900460020b613d6b565b9250925050819350809250600080600086111561160c57611609613bd5565b91505b841561161d5761161a613c66565b90505b6040516360e4b91b60e11b8152339063c1c972369061164690899089908d908d906004016155eb565b600060405180830381600087803b15801561166057600080fd5b505af1158015611674573d6000803e3d6000fd5b5050505060008611156116d357611689613bd5565b611693878461549f565b11156116d35760405162461bcd60e51b815260206004820152600f60248201526e04b6f7274616e61506f6f6c3a204d3608c1b6044820152606401610698565b841561172b576116e1613c66565b6116eb868361549f565b111561172b5760405162461bcd60e51b815260206004820152600f60248201526e4b6f7274616e61506f6f6c3a204d3160881b6044820152606401610698565b604080513381526001600160801b038b1660208201529081018790526060810186905260028b810b91908d900b906001600160a01b038f16907f7a53080ba414158be7ec69b987b5fb7d07dee101fe85488f0853ae16239d0bde9060800160405180910390a450506001805460ff60f01b1916600160f01b17905550919890975095505050505050565b600154600160f01b900460ff166117de5760405162461bcd60e51b815260040161069890615402565b6001805460ff60f01b19169055306001600160a01b037f000000000000000000000000000000000000000000000000000000000000000016146118335760405162461bcd60e51b8152600401610698906153d9565b6005546001600160801b0316806118985760405162461bcd60e51b815260206004820152602360248201527f4b6f7274616e61506f6f6c3a20494e53554646494349454e545f4c495155494460448201526249545960e81b6064820152608401610698565b60006118cd867f000000000000000000000000000000000000000000000000000000000000000062ffffff16620f4240614010565b90506000611904867f000000000000000000000000000000000000000000000000000000000000000062ffffff16620f4240614010565b90506000611910613bd5565b9050600061191c613c66565b905088156119b95760405163a9059cbb60e01b81526001600160a01b038b81166004830152602482018b90527f0000000000000000000000000000000000000000000000000000000000000000169063a9059cbb906044016020604051808303816000875af1158015611993573d6000803e3d6000fd5b505050506040513d601f19601f820116820180604052508101906119b791906155a5565b505b8715611a545760405163a9059cbb60e01b81526001600160a01b038b81166004830152602482018a90527f0000000000000000000000000000000000000000000000000000000000000000169063a9059cbb906044016020604051808303816000875af1158015611a2e573d6000803e3d6000fd5b505050506040513d601f19601f82011682018060405250810190611a5291906155a5565b505b604051632f1cbf1f60e01b81523390632f1cbf1f90611a7d90879087908c908c906004016155eb565b600060405180830381600087803b158015611a9757600080fd5b505af1158015611aab573d6000803e3d6000fd5b505050506000611ab9613bd5565b90506000611ac5613c66565b905081611ad2878661549f565b1115611b125760405162461bcd60e51b815260206004820152600f60248201526e04b6f7274616e61506f6f6c3a20463608c1b6044820152606401610698565b80611b1d868561549f565b1115611b5d5760405162461bcd60e51b815260206004820152600f60248201526e4b6f7274616e61506f6f6c3a20463160881b6044820152606401610698565b6000611b698584615515565b90506000611b778584615515565b90508115611c4b57600154600090611b9b90601090600160e81b900460ff16615445565b9050600060ff821615611bba57611bb560ff831685615501565b611bbd565b60005b90506001600160801b03811615611c115760048054829190600090611bec9084906001600160801b0316615528565b92506101000a8154816001600160801b0302191690836001600160801b031602179055505b611c32611c1e8286615515565b600160801b8d6001600160801b0316613273565b60026000828254611c43919061549f565b909155505050505b8015611cff57600154600160e81b900460041c600f1660008115611c7b57611c7660ff831684615501565b611c7e565b60005b90506001600160801b03811615611cd95760048054829190601090611cb4908490600160801b90046001600160801b0316615528565b92506101000a8154816001600160801b0302191690836001600160801b031602179055505b611ce6611c1e8285615515565b60036000828254611cf7919061549f565b909155505050505b604080518e8152602081018e9052908101839052606081018290526001600160a01b038f169033907fbdbdb71d7860376ba52b25a5028beea23581364a40522f6bcfb86bb1f2dca6339060800160405180910390a350506001805460ff60f01b1916600160f01b179055505050505050505050505050565b6001546000908190600160f01b900460ff16611da55760405162461bcd60e51b815260040161069890615402565b6001805460ff60f01b191690556040516bffffffffffffffffffffffff193360601b16602082015260e887811b603483015286901b6037820152600090603a0160408051601f1981840301815291815281516020928301206000818152600890935291206003810154919250906001600160801b0390811690871611611e2b5785611e3a565b60038101546001600160801b03165b60038201549094506001600160801b03600160801b909104811690861611611e625784611e78565b6003810154600160801b90046001600160801b03165b92506001600160801b03841615611f6057600381018054859190600090611ea99084906001600160801b0316615615565b92506101000a8154816001600160801b0302191690836001600160801b031602179055507f00000000000000000000000000000000000000000000000000000000000000006001600160a01b031663a9059cbb8a866040518363ffffffff1660e01b8152600401611f1b929190615634565b6020604051808303816000875af1158015611f3a573d6000803e3d6000fd5b505050506040513d601f19601f82011682018060405250810190611f5e91906155a5565b505b6001600160801b0383161561204c57828160030160108282829054906101000a90046001600160801b0316611f959190615615565b92506101000a8154816001600160801b0302191690836001600160801b031602179055507f00000000000000000000000000000000000000000000000000000000000000006001600160a01b031663a9059cbb8a856040518363ffffffff1660e01b8152600401612007929190615634565b6020604051808303816000875af1158015612026573d6000803e3d6000fd5b505050506040513d601f19601f8201168201806040525081019061204a91906155a5565b505b604080516001600160a01b038b1681526001600160801b0386811660208301528516818301529051600289810b92908b900b9133917f70935338e69775456a85ddef226c395fb668b63fa0115f5f20610b388e6ca9c0919081900360600190a450506001805460ff60f01b1916600160f01b17905590969095509350505050565b6001546000908190600160f01b900460ff166120fb5760405162461bcd60e51b815260040161069890615402565b6001805460ff60f01b1916905560408051638da5cb5b60e01b815290516001600160a01b037f00000000000000000000000000000000000000000000000000000000000000001691638da5cb5b9160048083019260209291908290030181865afa15801561216d573d6000803e3d6000fd5b505050506040513d601f19601f820116820180604052508101906121919190615656565b6001600160a01b0316336001600160a01b0316146121f15760405162461bcd60e51b815260206004820152601e60248201527f4b6f7274616e61506f6f6c3a204e4f545f464143544f52595f4f574e455200006044820152606401610698565b6004546001600160801b039081169085161161220d578361221a565b6004546001600160801b03165b6004549092506001600160801b03600160801b9091048116908416116122405782612254565b600454600160801b90046001600160801b03165b90506001600160801b0382161561235e576004546001600160801b0390811690831603612289578161228581615673565b9250505b600480548391906000906122a79084906001600160801b0316615615565b92506101000a8154816001600160801b0302191690836001600160801b031602179055507f00000000000000000000000000000000000000000000000000000000000000006001600160a01b031663a9059cbb86846040518363ffffffff1660e01b8152600401612319929190615634565b6020604051808303816000875af1158015612338573d6000803e3d6000fd5b505050506040513d601f19601f8201168201806040525081019061235c91906155a5565b505b6001600160801b03811615612474576004546001600160801b03600160801b909104811690821603612398578061239481615673565b9150505b600480548291906010906123bd908490600160801b90046001600160801b0316615615565b92506101000a8154816001600160801b0302191690836001600160801b031602179055507f00000000000000000000000000000000000000000000000000000000000000006001600160a01b031663a9059cbb86836040518363ffffffff1660e01b815260040161242f929190615634565b6020604051808303816000875af115801561244e573d6000803e3d6000fd5b505050506040513d601f19601f8201168201806040525081019061247291906155a5565b505b604080516001600160801b038085168252831660208201526001600160a01b0387169133917f596b573906218d3411850b26a6b437d6c4522fdb43d2d2386263f86d50b8b151910160405180910390a36001805460ff60f01b1916600160f01b1790559094909350915050565b606080306001600160a01b037f0000000000000000000000000000000000000000000000000000000000000000161461252c5760405162461bcd60e51b8152600401610698906153d9565b61256f426001546005546009929188918891600160a01b810460020b9161ffff600160b81b83048116926001600160801b0390921691600160c81b900416614059565b915091505b9250929050565b6001546000908190600160f01b900460ff166125a95760405162461bcd60e51b815260040161069890615402565b6001805460ff60f01b19169055306001600160a01b037f000000000000000000000000000000000000000000000000000000000000000016146125fe5760405162461bcd60e51b8152600401610698906153d9565b600080600061262433898961261b8a6001600160801b0316613d59565b6115d890615547565b9250925092508161263490615589565b945061263f81615589565b935060008511806126505750600084115b156126e4576003830180548691906000906126759084906001600160801b0316615528565b92506101000a8154816001600160801b0302191690836001600160801b03160217905550838360030160108282829054906101000a90046001600160801b03166126bf9190615528565b92506101000a8154816001600160801b0302191690836001600160801b031602179055505b604080516001600160801b038816815260208101879052908101859052600288810b91908a900b9033907f0c396cd989a39f4459b5fa1aed6a9a8dcdbc45908acfd67e028cd568da98982c9060600160405180910390a450506001805460ff60f01b1916600160f01b179055509094909350915050565b6001546001600160a01b0316156127b45760405162461bcd60e51b815260206004820181905260248201527f4b6f7274616e61506f6f6c3a20414c52454144595f494e495449414c495a45446044820152606401610698565b60006127bf82613705565b604080516080808201835263ffffffff42168083526000602080850182905284860182905260016060958601819052600160f81b909317600955855160e0810187526001600160a01b038a16808252600289900b82840181905282890185905296820185905294810184905260a081019290925260c090910182905281546001600160b81b0319168317600160a01b62ffffff8816021767ffffffffffffffff60b81b19166501000001000160c81b17825584519283528201929092528251939450909283927f98636036cb66a9c19a37435efc1e90142190214e8abeb821bdba3f2990dd4c95928290030190a150505050565b600080806128c18587615696565b905060008660020b1280156128e157506128db85876156d0565b60020b15155b156128f457806128f0816156f2565b9150505b8315612a6957600281900b60081d60ff82166000600180831b906129189082615515565b612922919061549f565b600184900b600090815260208c90526040902054811680158015975091925090612a4c57600081600160801b811061296757608090811c90612964908361570b565b91505b68010000000000000000811061298a57604090811c90612987908361570b565b91505b600160201b81106129a857602090811c906129a5908361570b565b91505b6201000081106129c557601090811c906129c2908361570b565b91505b61010081106129e157600890811c906129de908361570b565b91505b601081106129fc57600490811c906129f9908361570b565b91505b60048110612a1757600290811c90612a14908361570b565b91505b60028110612a2d57612a2a60018361570b565b91505b612a438b600888901b60020b60ff851617615724565b98505050612a60565b612a5d89600886901b60020b615724565b96505b50505050612bf4565b6000612a76826001615744565b9050600281900b60081d60ff82166000612a93600180841b615515565b600184900b600090815260208d90526040902054901990811680158015985091925090612bd7576000816001600160801b0381168203612ae057608090811c90612add908361570b565b91505b8067ffffffffffffffff16600003612b0557604090811c90612b02908361570b565b91505b8063ffffffff16600003612b2657602090811c90612b23908361570b565b91505b8061ffff16600003612b4557601090811c90612b42908361570b565b91505b8060ff16600003612b6357600890811c90612b60908361570b565b91505b80600f16600003612b8157600490811c90612b7e908361570b565b91505b80600316600003612b9f57600290811c90612b9c908361570b565b91505b80600116600003612bb857612bb560018361570b565b91505b612bce8c600888901b60020b60ff851617615724565b99505050612bee565b612beb8a60ff600887901b60020b17615724565b97505b50505050505b5094509492505050565b60008060008360020b12612c15578260020b612c22565b8260020b612c2290615589565b9050612c31620d89e71961547d565b60020b811115612c675760405162461bcd60e51b81526020600482015260016024820152601560fa1b6044820152606401610698565b600081600116600003612c7e57600160801b612c90565b6ffffcb933bd6fad37aa2d162d1a5940015b70ffffffffffffffffffffffffffffffffff1690506002821615612ccf576080612cca826ffff97272373d413259a46990580e213a615769565b901c90505b6004821615612cf9576080612cf4826ffff2e50f5f656932ef12357cf3c7fdcc615769565b901c90505b6008821615612d23576080612d1e826fffe5caba7eaa351859731e26960b1469615769565b901c90505b6010821615612d4d576080612d48826fffcb9843d60f6159c9db58835c926644615769565b901c90505b6020821615612d77576080612d72826fff973b41fa98c081472e6896dfb254c0615769565b901c90505b6040821615612da1576080612d9c826fff2ea16466c96a0c843982797b9376bd615769565b901c90505b6080821615612dcb576080612dc6826ffe5dee046a99a2a811c461f1969c3053615769565b901c90505b610100821615612df6576080612df1826ffcbe8617e027ff05cc2b1327117e35bb615769565b901c90505b610200821615612e21576080612e1c826ff987a7253ac413176f2b074cf7815e54615769565b901c90505b610400821615612e4c576080612e47826ff3392b0822b70005940c7a398e4b70f3615769565b901c90505b610800821615612e77576080612e72826fe7159475a2c29b7443b29c7fa6e889d9615769565b901c90505b611000821615612ea2576080612e9d826fd097f3bdfd2022b8845ad8f792aa5825615769565b901c90505b612000821615612ecd576080612ec8826fa9f746462d870fdf8a65dc1f90e061e5615769565b901c90505b614000821615612ef8576080612ef3826f70d869a156d2a1b890bb3df62baf32f7615769565b901c90505b618000821615612f23576080612f1e826f31be135f97d514839f323c2334812328615769565b901c90505b62010000821615612f4f576080612f4a826f09aa508b5b7a84e1c677de54f3e99bc9615769565b901c90505b62020000821615612f7b576080612f76826f05d06b12a7396a414630e4a0d2dc2e65615769565b901c90505b62040000821615612fa5576080612fa0826d2216e584f5fa1ea926041bedfe98615769565b901c90505b62080000821615612fcd576080612fc8826b048a170391f7dc42444e8fa2615769565b901c90505b62100000821615612ff1576080612fec82670149b3712f532921615769565b901c90505b60008460020b131561300c5761300981600019615501565b90505b61301a600160201b82615780565b15613026576001613029565b60005b61303a9060ff16602083901c61549f565b949350505050565b60008080806001600160a01b03808916908a1610158187128015906130ce576000613082896130748a620f4240615794565b62ffffff16620f4240613273565b90508261309b576130968c8c8c60016141c2565b6130a8565b6130a88b8d8c6001614240565b95508581106130b9578a96506130c8565b6130c58c8b83866142ed565b96505b50613122565b816130e5576130e08b8b8b6000614240565b6130f2565b6130f28a8c8b60006141c2565b9350836130fe89615589565b1061310b57899550613122565b61311f8b8a6131198b615589565b85614339565b95505b6001600160a01b038a8116908716148215613185578080156131415750815b61315757613152878d8c6001614240565b613159565b855b9550808015613166575081155b61317c576131778b8d8c60006141c2565b61317e565b845b94506131cf565b80801561318f5750815b6131a5576131a08c888c60016141c2565b6131a7565b855b95508080156131b4575081155b6131ca576131c58c888c6000614240565b6131cc565b845b94505b811580156131e457506131e189615589565b85115b156131f5576131f289615589565b94505b81801561321457508a6001600160a01b0316876001600160a01b031614155b1561322a57613223868a615515565b935061324e565b61324b8662ffffff8a166132418b620f4240615794565b62ffffff16614010565b93505b50505095509550955095915050565b6000600160ff1b821061326f57600080fd5b5090565b60008080600019858709858702925082811083820303915050806000036132ac57600084116132a157600080fd5b508290049050613331565b8084116132b857600080fd5b60008486880960018619810187169687900496828603819004958311909403939192506000908290811901816132f0576132f061542f565b046001019390930293909317600386026002908118808802820302808802820302808802820302808802820302808802820302808802909103020293505050505b9392505050565b6000808663ffffffff166000036133e1576000898661ffff1661ffff8110613362576133626157af565b60408051608081018252919092015463ffffffff808216808452600160201b830460060b6020850152600160581b83046001600160a01b031694840194909452600160f81b90910460ff16151560608301529092508a16146133cd576133ca818a8988614385565b90505b806020015181604001519250925050613520565b60006133ed888a6157c5565b90506000806134018c8c858c8c8c8c614463565b91509150816000015163ffffffff168363ffffffff1603613432578160200151826040015194509450505050613520565b806000015163ffffffff168363ffffffff160361345f578060200151816040015194509450505050613520565b8151815160009161346f916157c5565b835190915060009061348190866157c5565b90508063ffffffff168263ffffffff16856020015185602001516134a591906157e1565b6134af919061580e565b6134b99190615843565b84602001516134c89190615863565b8263ffffffff168263ffffffff16866040015186604001516134ea9190615890565b6001600160a01b03166134fd9190615769565b6135079190615501565b856040015161351691906158af565b9650965050505050505b97509795505050505050565b600286900b6000908152602088905260408120600181015461354e9088615515565b600182015560028101546135629087615515565b6002820155600381015461358690600160381b90046001600160a01b031686615890565b6003820180546001600160a01b0392909216600160381b02670100000000000000600160d81b031990921691909117908190556135c69060060b856157e1565b60038201805466ffffffffffffff191666ffffffffffffff92909216919091179081905561360190600160d81b900463ffffffff16846157c5565b60038201805463ffffffff92909216600160d81b0263ffffffff60d81b1990921691909117905554600160801b9004600f0b98975050505050505050565b60008082600f0b12156136ac576001600160801b03831661365f83615547565b6136699085615615565b9150816001600160801b0316106136a75760405162461bcd60e51b81526020600482015260026024820152614c5360f01b6044820152606401610698565b6136ff565b6001600160801b0383166136c08385615528565b9150816001600160801b031610156136ff5760405162461bcd60e51b81526020600482015260026024820152614c4160f01b6044820152606401610698565b92915050565b60006401000276a36001600160a01b03831610801590613741575073fffd8963efd1fc6a506488495d951d5263988d266001600160a01b038316105b6137715760405162461bcd60e51b81526020600482015260016024820152602960f91b6044820152606401610698565b640100000000600160c01b03602083901b166001600160801b03811160071b81811c67ffffffffffffffff811160061b90811c63ffffffff811160051b90811c61ffff811160041b90811c60ff8111600390811b91821c600f811160021b90811c918211600190811b92831c9790881196179094179092171790911717176080811061380c57613802607f82615515565b83901c915061381d565b61381781607f615515565b83901b91505b6000604061382c6080846154b2565b901b9050828302607f1c92508260801c80603f1b8217915083811c935050828302607f1c92508260801c80603e1b8217915083811c935050828302607f1c92508260801c80603d1b8217915083811c935050828302607f1c92508260801c80603c1b8217915083811c935050828302607f1c92508260801c80603b1b8217915083811c935050828302607f1c92508260801c80603a1b8217915083811c935050828302607f1c92508260801c8060391b8217915083811c935050828302607f1c92508260801c8060381b8217915083811c935050828302607f1c92508260801c8060371b8217915083811c935050828302607f1c92508260801c8060361b8217915083811c935050828302607f1c92508260801c8060351b8217915083811c935050828302607f1c92508260801c8060341b8217915083811c935050828302607f1c92508260801c8060331b8217915083811c935050828302607f1c92508260801c8060321b8217915050600081693627a301d71055774c856139af91906158ce565b9050600060806139d0700a00209a85e82900f339c8c74d48e535c4846154b2565b901d9050600060806139f38470559df1fdea9e7052b4ca8a5d0b76409dcf6154d9565b901d90508060020b8260020b14613a3257886001600160a01b0316613a1782612bfe565b6001600160a01b03161115613a2c5781613a34565b80613a34565b815b9998505050505050505050565b6000806000898961ffff1661ffff8110613a5d57613a5d6157af565b60408051608081018252919092015463ffffffff808216808452600160201b830460060b6020850152600160581b83046001600160a01b031694840194909452600160f81b90910460ff161515606083015290925089169003613ac65788859250925050613520565b8461ffff168461ffff16118015613af95750898561ffff1661ffff8110613aef57613aef6157af565b015463ffffffff16155b15613b0657839150613b0a565b8491505b81613b168a60016158fe565b613b209190615918565b9250613b2e81898989614385565b8a8461ffff1661ffff8110613b4557613b456157af565b825191018054602084015160408501516060909501511515600160f81b026001600160f81b036001600160a01b03909616600160581b02959095166affffffffffffffffffffff66ffffffffffffff909216600160201b026affffffffffffffffffffff1990931663ffffffff909516949094179190911716919091179190911790555097509795505050505050565b6040516370a0823160e01b81523060048201526000907f00000000000000000000000000000000000000000000000000000000000000006001600160a01b0316906370a08231906024015b602060405180830381865afa158015613c3d573d6000803e3d6000fd5b505050506040513d601f19601f82011682018060405250810190613c61919061593c565b905090565b6040516370a0823160e01b81523060048201526000907f00000000000000000000000000000000000000000000000000000000000000006001600160a01b0316906370a0823190602401613c20565b6000808361ffff1611613cee5760405162461bcd60e51b81526020600482015260016024820152604960f81b6044820152606401610698565b8261ffff168261ffff1611613d04575081613331565b825b8261ffff168161ffff161015613d50576001858261ffff1661ffff8110613d2f57613d2f6157af565b01805463ffffffff191663ffffffff92909216919091179055600101613d06565b50909392505050565b60006001607f1b821061326f57600080fd5b60408051606087901b6bffffffffffffffffffffffff191660208083019190915260e887811b603484015286901b60378301528251601a818403018152603a909201835281519181019190912060008181526008909252918120600254600354919383929091908380600f8a900b15613f0857600080613e214260015460055460099291600091600160a01b820460020b9161ffff600160b81b82048116926001600160801b031691600160c81b900416613338565b91509150613e688e8c8e89898688613e364290565b6006979695949392919060007f000000000000000000000000000000000000000000000000000000000000000061468e565b9350613e9f60068e8d8f8a8a87894260017f000000000000000000000000000000000000000000000000000000000000000061468e565b92508315613ed357613ed360078f7f000000000000000000000000000000000000000000000000000000000000000061483f565b8215613f0557613f0560078e7f000000000000000000000000000000000000000000000000000000000000000061483f565b50505b600080613f1a60068f8f8e8a8a614893565b9092509050613f2b8a8d848461497d565b8d60020b8b60020b1215613f5b57613f54613f458f612bfe565b613f4e8f612bfe565b8e614b01565b9850613ffe565b8c60020b8b60020b1215613fe057600154613f82906001600160a01b0316613f4e8f612bfe565b9850613fa2613f908f612bfe565b6001546001600160a01b03168e614b3d565b600554909850613fbb906001600160801b03168d61363f565b600580546001600160801b0319166001600160801b0392909216919091179055613ffe565b613ffb613fec8f612bfe565b613ff58f612bfe565b8e614b3d565b97505b50505050505050955095509592505050565b600061401d848484613273565b90506000828061402f5761402f61542f565b848609111561333157600019811061404657600080fd5b8061405081615955565b95945050505050565b60608060008361ffff16116140945760405162461bcd60e51b81526020600482015260016024820152604960f81b6044820152606401610698565b8667ffffffffffffffff8111156140ad576140ad61596e565b6040519080825280602002602001820160405280156140d6578160200160208202803683370190505b5091508667ffffffffffffffff8111156140f2576140f261596e565b60405190808252806020026020018201604052801561411b578160200160208202803683370190505b50905060005b878110156141b45761415e8b8b8b8b85818110614140576141406157af565b90506020020160208101906141559190615984565b8a8a8a8a613338565b848381518110614170576141706157af565b60200260200101848481518110614189576141896157af565b6001600160a01b039093166020938402919091019092019190915260069190910b9052600101614121565b509850989650505050505050565b6000836001600160a01b0316856001600160a01b031611156141e2579293925b81614216576142116001600160801b0384166141fe8787615890565b6001600160a01b0316600160601b613273565b614050565b6140506001600160801b03841661422d8787615890565b6001600160a01b0316600160601b614010565b6000836001600160a01b0316856001600160a01b03161115614260579293925b600160601b600160e01b03606084901b16600061427d8787615890565b6001600160a01b03169050836142ba576142b56142a48383896001600160a01b0316613273565b6001896001600160a01b0316613273565b6142e2565b6142e26142d18383896001600160a01b0316614010565b6001896001600160a01b0316614010565b979650505050505050565b600080856001600160a01b03161161430457600080fd5b6000846001600160801b03161161431a57600080fd5b8161432c576142118585856001614b6b565b6140508585856001614c45565b600080856001600160a01b03161161435057600080fd5b6000846001600160801b03161161436657600080fd5b81614378576142118585856000614c45565b6140508585856000614b6b565b60408051608081018252600080825260208201819052918101829052606081019190915284516000906143b890866157c5565b905060405180608001604052808663ffffffff1681526020018263ffffffff168660020b6143e69190615843565b88602001516143f59190615863565b60060b81526020016000856001600160801b031611614415576001614417565b845b614437906001600160801b031663ffffffff60801b608086901b16615501565b886040015161444691906158af565b6001600160a01b0316815260016020909101529695505050505050565b604080516080810182526000808252602082018190529181018290526060810191909152604080516080810182526000808252602082018190529181018290526060810191909152888561ffff1661ffff81106144c2576144c26157af565b60408051608081018252919092015463ffffffff808216808452600160201b830460060b6020850152600160581b83046001600160a01b031694840194909452600160f81b90910460ff161515606083015290935089161461452d5761452a82898887614385565b91505b815163ffffffff80891691161161455d57815163ffffffff808916911603614556575080613520565b5080613520565b888361456a8760016158fe565b6145749190615918565b61ffff1661ffff8110614589576145896157af565b60408051608081018252929091015463ffffffff81168352600160201b810460060b60208401526001600160a01b03600160581b8204169183019190915260ff600160f81b9091041615156060820181905290925061463257604080516080810182528a5463ffffffff81168252600160201b810460060b6020830152600160581b81046001600160a01b031692820192909252600160f81b90910460ff161515606082015291505b815163ffffffff808916911611156146725760405162461bcd60e51b815260206004820152600360248201526213d31160ea1b6044820152606401610698565b61467e89888786614d57565b9150915097509795505050505050565b60028a900b600090815260208c90526040812080546001600160801b0316826146b7828d61363f565b9050846001600160801b0316816001600160801b031611156147005760405162461bcd60e51b81526020600482015260026024820152614c4f60f01b6044820152606401610698565b6001600160801b03818116159083168015919091141594506000036147b3578c60020b8e60020b1361479b57600183018b9055600283018a905560038301805466ffffffffffffff8a166001600160f81b0319909116600160381b6001600160a01b038d16027fff00000000ffffffffffffffffffffffffffffffffffffffff00000000000000161717600160d81b63ffffffff8a16021790555b6003830180546001600160f81b0316600160f81b1790555b82546001600160801b0319166001600160801b038216178355856147f95782546147f4906147ec908e90600160801b9004600f0b6159aa565b600f0b614f6b565b614814565b8254614814906147ec908e90600160801b9004600f0b6159d7565b83546001600160801b03918216600160801b0291161790925550909c9b505050505050505050505050565b61484981836156d0565b60020b1561485657600080fd5b60006148628284615696565b600281900b60081d600190810b60009081526020969096526040909520805460ff9092169590951b18909355505050565b600285810b60008181526020899052604080822088850b83529082209193849391929184918291908a900b126148d4575050600182015460028301546148f8565b60018401546148e39089615515565b91508360020154876148f59190615515565b90505b6000808b60020b8b60020b121561491a5750506001830154600284015461493e565b6001850154614929908b615515565b915084600201548961493b9190615515565b90505b81614949858c615515565b6149539190615515565b975080614960848b615515565b61496a9190615515565b9650505050505050965096945050505050565b83546001600160801b03166000600f85900b81136149a45761499f8583615528565b6149b7565b6149ad85615547565b6149b79083615615565b905084600f0b6000146149de5785546001600160801b0319166001600160801b0382161786555b6000614a078760010154866149f39190615515565b846001600160801b0316600160801b613273565b90506000614a32886002015486614a1e9190615515565b856001600160801b0316600160801b613273565b90506000826001600160801b03161180614a5557506000816001600160801b0316115b15614ae957600388018054839190600090614a7a9084906001600160801b0316615528565b92506101000a8154816001600160801b0302191690836001600160801b03160217905550808860030160108282829054906101000a90046001600160801b0316614ac49190615528565b92506101000a8154816001600160801b0302191690836001600160801b031602179055505b50505050600184019190915560029092019190915550565b60008082600f0b12614b1f57614b1a8484846001614240565b61303a565b614b348484614b2d85615547565b6000614240565b61303a90615589565b60008082600f0b12614b5657614b1a84848460016141c2565b614b348484614b6485615547565b60006141c2565b60008115614bd55760006001600160a01b03841115614ba157614b9c84600160601b876001600160801b0316613273565b614bb8565b614bb86001600160801b038616606086901b615501565b9050614bcd816001600160a01b03881661549f565b91505061303a565b60006001600160a01b03841115614c0357614bfe84600160601b876001600160801b0316614010565b614c1b565b614c1b84600160601b876001600160801b0316614010565b905080866001600160a01b031611614c3257600080fd5b614bcd816001600160a01b038816615515565b600082600003614c5657508361303a565b600160601b600160e01b03606085901b168215614cfc5760006001600160a01b03871685614c848282615769565b9250614c909083615501565b03614cca576000614ca1828461549f565b9050828110614cc857614cbe83896001600160a01b031683614010565b935050505061303a565b505b614cf382600187614ce46001600160a01b038c1684615501565b614cee919061549f565b614010565b9250505061303a565b60006001600160a01b03871685614d138282615769565b9250614d1f9083615501565b14614d2957600080fd5b808211614d3557600080fd5b6000614d418284615515565b9050614cbe83896001600160a01b031683614010565b604080516080810182526000808252602082018190529181018290526060810191909152604080516080810182526000808252602082018190529181018290526060810191909152600083614dad8660016158fe565b614db79190615918565b61ffff169050600060018561ffff1683614dd1919061549f565b614ddb9190615515565b905060005b6002614dec838561549f565b614df69190615501565b905088614e0761ffff881683615780565b61ffff8110614e1857614e186157af565b60408051608081018252929091015463ffffffff81168352600160201b810460060b60208401526001600160a01b03600160581b8204169183019190915260ff600160f81b90910416151560608201819052909550614e8357614e7c81600161549f565b9250614de0565b8861ffff8716614e9483600161549f565b614e9e9190615780565b61ffff8110614eaf57614eaf6157af565b60408051608081018252919092015463ffffffff8082168352600160201b820460060b6020840152600160581b82046001600160a01b031693830193909352600160f81b900460ff161515606082015286519095508982169116118015908190614f295750846000015163ffffffff168963ffffffff1611155b15614f345750614f5f565b80614f4b57614f44600183615515565b9250614f59565b614f5682600161549f565b93505b50614de0565b50505094509492505050565b600060016001607f1b03198212158015614f8857506001607f1b82125b61326f57600080fd5b6001600160a01b0381168114614fa657600080fd5b50565b8015158114614fa657600080fd5b60008083601f840112614fc957600080fd5b50813567ffffffffffffffff811115614fe157600080fd5b60208301915083602082850101111561257457600080fd5b60008060008060008060a0878903121561501257600080fd5b863561501d81614f91565b9550602087013561502d81614fa9565b945060408701359350606087013561504481614f91565b9250608087013567ffffffffffffffff81111561506057600080fd5b61506c89828a01614fb7565b979a9699509497509295939492505050565b60006020828403121561509057600080fd5b5035919050565b6000602082840312156150a957600080fd5b813561ffff8116811461333157600080fd5b8035600281900b81146150cd57600080fd5b919050565b80356001600160801b03811681146150cd57600080fd5b60008060008060008060a0878903121561510257600080fd5b863561510d81614f91565b955061511b602088016150bb565b9450615129604088016150bb565b9350615044606088016150d2565b60008060008060006080868803121561514f57600080fd5b853561515a81614f91565b94506020860135935060408601359250606086013567ffffffffffffffff81111561518457600080fd5b61519088828901614fb7565b969995985093965092949392505050565b600080600080600060a086880312156151b957600080fd5b85356151c481614f91565b94506151d2602087016150bb565b93506151e0604087016150bb565b92506151ee606087016150d2565b91506151fc608087016150d2565b90509295509295909350565b60006020828403121561521a57600080fd5b81358060010b811461333157600080fd5b60008060006060848603121561524057600080fd5b833561524b81614f91565b9250615259602085016150d2565b9150615267604085016150d2565b90509250925092565b6000806020838503121561528357600080fd5b823567ffffffffffffffff81111561529a57600080fd5b8301601f810185136152ab57600080fd5b803567ffffffffffffffff8111156152c257600080fd5b8560208260051b84010111156152d757600080fd5b6020919091019590945092505050565b6040808252835190820181905260009060208501906060840190835b8181101561532457835160060b835260209384019390920191600101615303565b50508381036020808601919091528551808352918101925085019060005b818110156153695782516001600160a01b0316845260209384019390920191600101615342565b50919695505050505050565b60008060006060848603121561538a57600080fd5b615393846150bb565b9250615259602085016150bb565b6000602082840312156153b357600080fd5b613331826150bb565b6000602082840312156153ce57600080fd5b813561333181614f91565b6020808252600f908201526e139bc819195b1959d85d1958d85b1b608a1b604082015260600190565b60208082526013908201527212dbdc9d185b98541bdbdb0e881313d0d2d151606a1b604082015260600190565b634e487b7160e01b600052601260045260246000fd5b600060ff8316806154585761545861542f565b8060ff84160691505092915050565b634e487b7160e01b600052601160045260246000fd5b60008160020b627fffff19810361549657615496615467565b60000392915050565b808201808211156136ff576136ff615467565b81810360008312801583831316838312821617156154d2576154d2615467565b5092915050565b80820182811260008312801582168215821617156154f9576154f9615467565b505092915050565b6000826155105761551061542f565b500490565b818103818111156136ff576136ff615467565b6001600160801b0381811683821601908111156136ff576136ff615467565b600081600f0b60016001607f1b0319810361549657615496615467565b600282810b9082900b03627fffff198112627fffff821317156136ff576136ff615467565b6000600160ff1b820161559e5761559e615467565b5060000390565b6000602082840312156155b757600080fd5b815161333181614fa9565b81835281816020850137506000828201602090810191909152601f909101601f19169091010190565b84815283602082015260606040820152600061560b6060830184866155c2565b9695505050505050565b6001600160801b0382811682821603908111156136ff576136ff615467565b6001600160a01b039290921682526001600160801b0316602082015260400190565b60006020828403121561566857600080fd5b815161333181614f91565b60006001600160801b0382168061568c5761568c615467565b6000190192915050565b60008160020b8360020b806156ad576156ad61542f565b627fffff198214600019821416156156c7576156c7615467565b90059392505050565b60008260020b806156e3576156e361542f565b808360020b0791505092915050565b60008160020b627fffff19810361568c5761568c615467565b60ff81811683821601908111156136ff576136ff615467565b60008260020b8260020b028060020b91508082146154d2576154d2615467565b600281810b9083900b01627fffff8113627fffff19821217156136ff576136ff615467565b80820281158282048414176136ff576136ff615467565b60008261578f5761578f61542f565b500690565b62ffffff82811682821603908111156136ff576136ff615467565b634e487b7160e01b600052603260045260246000fd5b63ffffffff82811682821603908111156136ff576136ff615467565b600682810b9082900b03667fffffffffffff198112667fffffffffffff821317156136ff576136ff615467565b60008160060b8360060b806158255761582561542f565b667fffffffffffff198214600019821416156156c7576156c7615467565b60008260060b8260060b028060060b91508082146154d2576154d2615467565b600681810b9083900b01667fffffffffffff8113667fffffffffffff19821217156136ff576136ff615467565b6001600160a01b0382811682821603908111156136ff576136ff615467565b6001600160a01b0381811683821601908111156136ff576136ff615467565b80820260008212600160ff1b841416156158ea576158ea615467565b81810583148215176136ff576136ff615467565b61ffff81811683821601908111156136ff576136ff615467565b600061ffff83168061592c5761592c61542f565b8061ffff84160691505092915050565b60006020828403121561594e57600080fd5b5051919050565b60006001820161596757615967615467565b5060010190565b634e487b7160e01b600052604160045260246000fd5b60006020828403121561599657600080fd5b813563ffffffff8116811461333157600080fd5b600f81810b9083900b0160016001607f1b03811360016001607f1b0319821217156136ff576136ff615467565b600f82810b9082900b0360016001607f1b0319811260016001607f1b03821317156136ff576136ff61546756fea2646970667358221220acf991c51565afa3a48386692a74aea035b9bb282d1642ecdf661fbafe446a9464736f6c634300081a0033",
  "linkReferences": {},
  "deployedLinkReferences": {}
}