{
  "_format": "hh-sol-artifact-1",
  "contractName": "KortanaRewards",
  "sourceName": "contracts/KortanaRewards.sol",
  "abi": [
    {
      "inputs": [
        {
          "internalType": "address",
          "name": "_licenseContract",
          "type": "address"
        }
      ],
      "stateMutability": "nonpayable",
      "type": "constructor"
    },
    {
      "inputs": [],
      "name": "EnforcedPause",
      "type": "error"
    },
    {
      "inputs": [],
      "name": "ExpectedPause",
      "type": "error"
    },
    {
      "inputs": [
        {
          "internalType": "address",
          "name": "owner",
          "type": "address"
        }
      ],
      "name": "OwnableInvalidOwner",
      "type": "error"
    },
    {
      "inputs": [
        {
          "internalType": "address",
          "name": "account",
          "type": "address"
        }
      ],
      "name": "OwnableUnauthorizedAccount",
      "type": "error"
    },
    {
      "inputs": [],
      "name": "ReentrancyGuardReentrantCall",
      "type": "error"
    },
    {
      "anonymous": false,
      "inputs": [
        {
          "indexed": false,
          "internalType": "uint256",
          "name": "amount",
          "type": "uint256"
        }
      ],
      "name": "EmergencyWithdraw",
      "type": "event"
    },
    {
      "anonymous": false,
      "inputs": [
        {
          "indexed": false,
          "internalType": "uint256",
          "name": "newEpoch",
          "type": "uint256"
        },
        {
          "indexed": false,
          "internalType": "uint256",
          "name": "timestamp",
          "type": "uint256"
        }
      ],
      "name": "EpochAdvanced",
      "type": "event"
    },
    {
      "anonymous": false,
      "inputs": [
        {
          "indexed": false,
          "internalType": "uint256",
          "name": "licenseId",
          "type": "uint256"
        },
        {
          "indexed": false,
          "internalType": "uint256",
          "name": "requiredAmount",
          "type": "uint256"
        }
      ],
      "name": "InsufficientBalance",
      "type": "event"
    },
    {
      "anonymous": false,
      "inputs": [
        {
          "indexed": true,
          "internalType": "address",
          "name": "previousOwner",
          "type": "address"
        },
        {
          "indexed": true,
          "internalType": "address",
          "name": "newOwner",
          "type": "address"
        }
      ],
      "name": "OwnershipTransferred",
      "type": "event"
    },
    {
      "anonymous": false,
      "inputs": [
        {
          "indexed": false,
          "internalType": "address",
          "name": "account",
          "type": "address"
        }
      ],
      "name": "Paused",
      "type": "event"
    },
    {
      "anonymous": false,
      "inputs": [
        {
          "indexed": true,
          "internalType": "address",
          "name": "holder",
          "type": "address"
        },
        {
          "indexed": true,
          "internalType": "uint256",
          "name": "licenseId",
          "type": "uint256"
        },
        {
          "indexed": false,
          "internalType": "uint256",
          "name": "dnrAmount",
          "type": "uint256"
        },
        {
          "indexed": false,
          "internalType": "uint256",
          "name": "epoch",
          "type": "uint256"
        }
      ],
      "name": "RewardDistributed",
      "type": "event"
    },
    {
      "anonymous": false,
      "inputs": [
        {
          "indexed": false,
          "internalType": "uint256",
          "name": "dnrAmount",
          "type": "uint256"
        },
        {
          "indexed": false,
          "internalType": "address",
          "name": "funder",
          "type": "address"
        }
      ],
      "name": "RewardPoolFunded",
      "type": "event"
    },
    {
      "anonymous": false,
      "inputs": [
        {
          "indexed": false,
          "internalType": "uint8",
          "name": "tier",
          "type": "uint8"
        },
        {
          "indexed": false,
          "internalType": "uint256",
          "name": "newRate",
          "type": "uint256"
        }
      ],
      "name": "RewardRateUpdated",
      "type": "event"
    },
    {
      "anonymous": false,
      "inputs": [
        {
          "indexed": false,
          "internalType": "address",
          "name": "account",
          "type": "address"
        }
      ],
      "name": "Unpaused",
      "type": "event"
    },
    {
      "inputs": [],
      "name": "EPOCH_DURATION",
      "outputs": [
        {
          "internalType": "uint256",
          "name": "",
          "type": "uint256"
        }
      ],
      "stateMutability": "view",
      "type": "function"
    },
    {
      "inputs": [],
      "name": "advanceEpoch",
      "outputs": [],
      "stateMutability": "nonpayable",
      "type": "function"
    },
    {
      "inputs": [],
      "name": "currentEpoch",
      "outputs": [
        {
          "internalType": "uint256",
          "name": "",
          "type": "uint256"
        }
      ],
      "stateMutability": "view",
      "type": "function"
    },
    {
      "inputs": [
        {
          "internalType": "uint256",
          "name": "startId",
          "type": "uint256"
        },
        {
          "internalType": "uint256",
          "name": "endId",
          "type": "uint256"
        }
      ],
      "name": "distributeAllRewards",
      "outputs": [],
      "stateMutability": "nonpayable",
      "type": "function"
    },
    {
      "inputs": [
        {
          "internalType": "uint256",
          "name": "licenseId",
          "type": "uint256"
        }
      ],
      "name": "distributeReward",
      "outputs": [],
      "stateMutability": "nonpayable",
      "type": "function"
    },
    {
      "inputs": [
        {
          "internalType": "uint256[]",
          "name": "licenseIds",
          "type": "uint256[]"
        }
      ],
      "name": "distributeRewardBatch",
      "outputs": [],
      "stateMutability": "nonpayable",
      "type": "function"
    },
    {
      "inputs": [],
      "name": "emergencyWithdraw",
      "outputs": [],
      "stateMutability": "nonpayable",
      "type": "function"
    },
    {
      "inputs": [],
      "name": "epochsRemaining",
      "outputs": [
        {
          "internalType": "uint256",
          "name": "",
          "type": "uint256"
        }
      ],
      "stateMutability": "view",
      "type": "function"
    },
    {
      "inputs": [
        {
          "internalType": "uint8",
          "name": "tier",
          "type": "uint8"
        }
      ],
      "name": "getRewardRate",
      "outputs": [
        {
          "internalType": "uint256",
          "name": "",
          "type": "uint256"
        }
      ],
      "stateMutability": "view",
      "type": "function"
    },
    {
      "inputs": [
        {
          "internalType": "uint256",
          "name": "",
          "type": "uint256"
        }
      ],
      "name": "lastClaimedEpoch",
      "outputs": [
        {
          "internalType": "uint256",
          "name": "",
          "type": "uint256"
        }
      ],
      "stateMutability": "view",
      "type": "function"
    },
    {
      "inputs": [],
      "name": "lastEpochTime",
      "outputs": [
        {
          "internalType": "uint256",
          "name": "",
          "type": "uint256"
        }
      ],
      "stateMutability": "view",
      "type": "function"
    },
    {
      "inputs": [],
      "name": "licenseContract",
      "outputs": [
        {
          "internalType": "contract IKortanaLicenseNFT",
          "name": "",
          "type": "address"
        }
      ],
      "stateMutability": "view",
      "type": "function"
    },
    {
      "inputs": [],
      "name": "owner",
      "outputs": [
        {
          "internalType": "address",
          "name": "",
          "type": "address"
        }
      ],
      "stateMutability": "view",
      "type": "function"
    },
    {
      "inputs": [],
      "name": "pause",
      "outputs": [],
      "stateMutability": "nonpayable",
      "type": "function"
    },
    {
      "inputs": [],
      "name": "paused",
      "outputs": [
        {
          "internalType": "bool",
          "name": "",
          "type": "bool"
        }
      ],
      "stateMutability": "view",
      "type": "function"
    },
    {
      "inputs": [
        {
          "internalType": "uint256",
          "name": "licenseId",
          "type": "uint256"
        }
      ],
      "name": "pendingRewards",
      "outputs": [
        {
          "internalType": "uint256",
          "name": "",
          "type": "uint256"
        }
      ],
      "stateMutability": "view",
      "type": "function"
    },
    {
      "inputs": [],
      "name": "poolBalance",
      "outputs": [
        {
          "internalType": "uint256",
          "name": "",
          "type": "uint256"
        }
      ],
      "stateMutability": "view",
      "type": "function"
    },
    {
      "inputs": [],
      "name": "renounceOwnership",
      "outputs": [],
      "stateMutability": "nonpayable",
      "type": "function"
    },
    {
      "inputs": [
        {
          "internalType": "uint8",
          "name": "",
          "type": "uint8"
        }
      ],
      "name": "rewardPerEpoch",
      "outputs": [
        {
          "internalType": "uint256",
          "name": "",
          "type": "uint256"
        }
      ],
      "stateMutability": "view",
      "type": "function"
    },
    {
      "inputs": [
        {
          "internalType": "uint8",
          "name": "tier",
          "type": "uint8"
        },
        {
          "internalType": "uint256",
          "name": "newRate",
          "type": "uint256"
        }
      ],
      "name": "setRewardRate",
      "outputs": [],
      "stateMutability": "nonpayable",
      "type": "function"
    },
    {
      "inputs": [],
      "name": "totalDistributed",
      "outputs": [
        {
          "internalType": "uint256",
          "name": "",
          "type": "uint256"
        }
      ],
      "stateMutability": "view",
      "type": "function"
    },
    {
      "inputs": [
        {
          "internalType": "address",
          "name": "newOwner",
          "type": "address"
        }
      ],
      "name": "transferOwnership",
      "outputs": [],
      "stateMutability": "nonpayable",
      "type": "function"
    },
    {
      "inputs": [],
      "name": "unpause",
      "outputs": [],
      "stateMutability": "nonpayable",
      "type": "function"
    },
    {
      "stateMutability": "payable",
      "type": "receive"
    }
  ],
  "bytecode": "0x608060405234801561001057600080fd5b5060405161141538038061141583398101604081905261002f916101a2565b338061005557604051631e4fbdf760e01b81526000600482015260240160405180910390fd5b61005e81610152565b506000805460ff60a01b191681556001808055600280546001600160a01b0319166001600160a01b0394909416939093179092554260045560039182556005602052670de0b6b3a76400007f05b8ccbb9d4d8fb16ea74ce3c29a41f1b461fbdaff4714a0d9a8eb05499746bc55671bc16d674ec800007f1471eb6eb2c5e789fc3de43f8ce62938c7d1836ec861730447e2ada8fd81017b55674563918244f400007f89832631fb3c3307a103ba2c84ab569c64d6182a18893dcd163f0f1c2090733a5552678ac7230489e800007fa9bc9a3a348c357ba16b37005d7e6b3236198c0e939f4af8c5f19b8deeb8ebc0556101d2565b600080546001600160a01b038381166001600160a01b0319831681178455604051919092169283917f8be0079c531659141344cd1fd0a4f28419497f9722a3daafe3b4186f6b6457e09190a35050565b6000602082840312156101b457600080fd5b81516001600160a01b03811681146101cb57600080fd5b9392505050565b611234806101e16000396000f3fe6080604052600436106101445760003560e01c806389c614b8116100b6578063db2e21bc1161006f578063db2e21bc146103ab578063dcf4724a146103c0578063e0a0025a146103d5578063e2c52b9d146103f5578063efca2eed14610415578063f2fde38b1461042b57600080fd5b806389c614b8146102ee5780638da5cb5b14610304578063940a4e451461033657806396365d441461035657806398dcd2ca14610369578063a70b9f0c1461039657600080fd5b80635c975abb116101085780635c975abb14610234578063715018a61461025e57806376671808146102735780637dcb2abf146102895780638456cb59146102a9578063883b9b8c146102be57600080fd5b806308d07bdc14610188578063216694a1146101aa57806325ef4280146101ea5780633cf80e6c1461020a5780633f4ba83a1461021f57600080fd5b3661018357604080513481523360208201527f56b382c0989cb3caa548f6382ea515b7700267067998b761d377320e08679490910160405180910390a1005b600080fd5b34801561019457600080fd5b506101a86101a3366004610f9e565b61044b565b005b3480156101b657600080fd5b506101d76101c5366004610fc0565b60066020526000908152604090205481565b6040519081526020015b60405180910390f35b3480156101f657600080fd5b506101a8610205366004610fd9565b610522565b34801561021657600080fd5b506101a861057a565b34801561022b57600080fd5b506101a861063b565b34801561024057600080fd5b50600054600160a01b900460ff1660405190151581526020016101e1565b34801561026a57600080fd5b506101a861064d565b34801561027f57600080fd5b506101d760035481565b34801561029557600080fd5b506101d76102a4366004610fc0565b61065f565b3480156102b557600080fd5b506101a86107b1565b3480156102ca57600080fd5b506101d76102d936600461105d565b60ff1660009081526005602052604090205490565b3480156102fa57600080fd5b506101d760045481565b34801561031057600080fd5b506000546001600160a01b03165b6040516001600160a01b0390911681526020016101e1565b34801561034257600080fd5b506101a8610351366004610fc0565b6107c1565b34801561036257600080fd5b50476101d7565b34801561037557600080fd5b506101d761038436600461105d565b60056020526000908152604090205481565b3480156103a257600080fd5b506101d7600181565b3480156103b757600080fd5b506101a86107e6565b3480156103cc57600080fd5b506101d76108cd565b3480156103e157600080fd5b506101a86103f0366004611081565b610a91565b34801561040157600080fd5b5060025461031e906001600160a01b031681565b34801561042157600080fd5b506101d760075481565b34801561043757600080fd5b506101a86104463660046110c2565b610ae4565b610453610b1f565b61045b610b49565b6002546040805163124bd1c760e21b815290516000926001600160a01b03169163492f471c9160048083019260209291908290030181865afa1580156104a5573d6000803e3d6000fd5b505050506040513d601f19601f820116820180604052508101906104c991906110df565b905060008183106104e4576104df60018361110e565b6104e6565b825b9050835b8181116105125780156105005761050081610b74565b8061050a81611127565b9150506104ea565b50505061051e60018055565b5050565b61052a610b1f565b610532610b49565b60005b818110156105705761055e83838381811061055257610552611140565b90506020020135610b74565b8061056881611127565b915050610535565b5061051e60018055565b60016004546105899190611156565b4210156105dd5760405162461bcd60e51b815260206004820152601a60248201527f45706f6368206475726174696f6e206e6f74207265616368656400000000000060448201526064015b60405180910390fd5b600380549060006105ed83611127565b90915550504260048190556003546040517facfa06cebbab8226f9a388bff9f5fcf4569298028d939f4765958dc57dbb330b92610631928252602082015260400190565b60405180910390a1565b610643610e64565b61064b610e91565b565b610655610e64565b61064b6000610ee1565b600254604051630a548f1760e21b8152600481018390526000916001600160a01b0316906329523c5c90602401602060405180830381865afa1580156106a9573d6000803e3d6000fd5b505050506040513d601f19601f820116820180604052508101906106cd9190611169565b6106d957506000919050565b6000828152600660205260409020548015806106f757508060035411155b156107055750600092915050565b600081600354610715919061110e565b6002546040516329fcb6f960e11b8152600481018790529192506000916001600160a01b03909116906353f96df290602401602060405180830381865afa158015610764573d6000803e3d6000fd5b505050506040513d601f19601f82011682018060405250810190610788919061118b565b60ff81166000908152600560205260409020549091506107a890836111a8565b95945050505050565b6107b9610e64565b61064b610f31565b6107c9610b1f565b6107d1610b49565b6107da81610b74565b6107e360018055565b50565b6107ee610e64565b4760006108036000546001600160a01b031690565b6001600160a01b03168260405160006040518083038185875af1925050503d806000811461084d576040519150601f19603f3d011682016040523d82523d6000602084013e610852565b606091505b50509050806108955760405162461bcd60e51b815260206004820152600f60248201526e15da5d1a191c985dc819985a5b1959608a1b60448201526064016105d4565b6040518281527f99d7f8b71cfb9126984f7a5eed3a40e64a8959e9b0e442221546fb04ec6a489c906020015b60405180910390a15050565b6000806000600260009054906101000a90046001600160a01b03166001600160a01b031663492f471c6040518163ffffffff1660e01b8152600401602060405180830381865afa158015610925573d6000803e3d6000fd5b505050506040513d601f19601f8201168201806040525081019061094991906110df565b905060015b81811015610a6e57600254604051630a548f1760e21b8152600481018390526001600160a01b03909116906329523c5c90602401602060405180830381865afa15801561099f573d6000803e3d6000fd5b505050506040513d601f19601f820116820180604052508101906109c39190611169565b15610a5c576002546040516329fcb6f960e11b8152600481018390526005916000916001600160a01b03909116906353f96df290602401602060405180830381865afa158015610a17573d6000803e3d6000fd5b505050506040513d601f19601f82011682018060405250810190610a3b919061118b565b60ff168152602081019190915260400160002054610a599084611156565b92505b80610a6681611127565b91505061094e565b5081600003610a805760009250505090565b610a8a82476111bf565b9250505090565b610a99610e64565b60ff8216600081815260056020908152604091829020849055815192835282018390527fe3f408bbee4c8943793f63832208ab606680bfd72bfc8c49af7151dd656ff4ca91016108c1565b610aec610e64565b6001600160a01b038116610b1657604051631e4fbdf760e01b8152600060048201526024016105d4565b6107e381610ee1565b600260015403610b4257604051633ee5aeb560e01b815260040160405180910390fd5b6002600155565b600054600160a01b900460ff161561064b5760405163d93c066560e01b815260040160405180910390fd5b600254604051630a548f1760e21b8152600481018390526001600160a01b03909116906329523c5c90602401602060405180830381865afa158015610bbd573d6000803e3d6000fd5b505050506040513d601f19601f82011682018060405250810190610be19190611169565b610be85750565b60008181526006602052604081205490819003610c15575060035460009182526006602052604090912055565b8060035411610c22575050565b600081600354610c32919061110e565b6002546040516329fcb6f960e11b8152600481018690529192506000916001600160a01b03909116906353f96df290602401602060405180830381865afa158015610c81573d6000803e3d6000fd5b505050506040513d601f19601f82011682018060405250810190610ca5919061118b565b60ff811660009081526005602052604081205491925090610cc690846111a8565b905080471015610d105760408051868152602081018390527fcf4791818fba6e019216eb4864093b4947f674afada5d305e57d598b641dad1d910160405180910390a15050505050565b6002546040516331a9108f60e11b8152600481018790526000916001600160a01b031690636352211e90602401602060405180830381865afa158015610d5a573d6000803e3d6000fd5b505050506040513d601f19601f82011682018060405250810190610d7e91906111e1565b905060035460066000888152602001908152602001600020819055508160076000828254610dac9190611156565b90915550506040516000906001600160a01b0383169084908381818185875af1925050503d8060008114610dfc576040519150601f19603f3d011682016040523d82523d6000602084013e610e01565b606091505b505090508015610e5b5786826001600160a01b03167ff0f44087179a926066b42ce5c1720884709cd0766b995b4595a33c8e4fd3a2b285600354604051610e52929190918252602082015260400190565b60405180910390a35b50505050505050565b6000546001600160a01b0316331461064b5760405163118cdaa760e01b81523360048201526024016105d4565b610e99610f74565b6000805460ff60a01b191690557f5db9ee0a495bf2e6ff9c91a7834c1ba4fdd244a5e8aa4e537bd38aeae4b073aa335b6040516001600160a01b039091168152602001610631565b600080546001600160a01b038381166001600160a01b0319831681178455604051919092169283917f8be0079c531659141344cd1fd0a4f28419497f9722a3daafe3b4186f6b6457e09190a35050565b610f39610b49565b6000805460ff60a01b1916600160a01b1790557f62e78cea01bee320cd4e420270b5ea74000d11b0c9f74754ebdbfc544b05a258610ec93390565b600054600160a01b900460ff1661064b57604051638dfc202b60e01b815260040160405180910390fd5b60008060408385031215610fb157600080fd5b50508035926020909101359150565b600060208284031215610fd257600080fd5b5035919050565b60008060208385031215610fec57600080fd5b823567ffffffffffffffff8082111561100457600080fd5b818501915085601f83011261101857600080fd5b81358181111561102757600080fd5b8660208260051b850101111561103c57600080fd5b60209290920196919550909350505050565b60ff811681146107e357600080fd5b60006020828403121561106f57600080fd5b813561107a8161104e565b9392505050565b6000806040838503121561109457600080fd5b823561109f8161104e565b946020939093013593505050565b6001600160a01b03811681146107e357600080fd5b6000602082840312156110d457600080fd5b813561107a816110ad565b6000602082840312156110f157600080fd5b5051919050565b634e487b7160e01b600052601160045260246000fd5b81810381811115611121576111216110f8565b92915050565b600060018201611139576111396110f8565b5060010190565b634e487b7160e01b600052603260045260246000fd5b80820180821115611121576111216110f8565b60006020828403121561117b57600080fd5b8151801515811461107a57600080fd5b60006020828403121561119d57600080fd5b815161107a8161104e565b8082028115828204841417611121576111216110f8565b6000826111dc57634e487b7160e01b600052601260045260246000fd5b500490565b6000602082840312156111f357600080fd5b815161107a816110ad56fea26469706673582212207614b926183995e23b9b464d02a72cf80a85f3bc45aa313a1ab4e35b691c4c1664736f6c63430008140033",
  "linkReferences": {},
  "deployedLinkReferences": {}
}