{
  "_format": "hh-sol-artifact-1",
  "contractName": "KortanaRewards",
  "sourceName": "contracts/KortanaRewards.sol",
  "abi": [
    {
      "inputs": [
        {
          "internalType": "address",
          "name": "_licenseContract",
          "type": "address"
        }
      ],
      "stateMutability": "nonpayable",
      "type": "constructor"
    },
    {
      "inputs": [],
      "name": "EnforcedPause",
      "type": "error"
    },
    {
      "inputs": [],
      "name": "ExpectedPause",
      "type": "error"
    },
    {
      "inputs": [
        {
          "internalType": "address",
          "name": "owner",
          "type": "address"
        }
      ],
      "name": "OwnableInvalidOwner",
      "type": "error"
    },
    {
      "inputs": [
        {
          "internalType": "address",
          "name": "account",
          "type": "address"
        }
      ],
      "name": "OwnableUnauthorizedAccount",
      "type": "error"
    },
    {
      "inputs": [],
      "name": "ReentrancyGuardReentrantCall",
      "type": "error"
    },
    {
      "anonymous": false,
      "inputs": [
        {
          "indexed": false,
          "internalType": "uint256",
          "name": "amount",
          "type": "uint256"
        }
      ],
      "name": "EmergencyWithdraw",
      "type": "event"
    },
    {
      "anonymous": false,
      "inputs": [
        {
          "indexed": false,
          "internalType": "uint256",
          "name": "newEpoch",
          "type": "uint256"
        },
        {
          "indexed": false,
          "internalType": "uint256",
          "name": "timestamp",
          "type": "uint256"
        }
      ],
      "name": "EpochAdvanced",
      "type": "event"
    },
    {
      "anonymous": false,
      "inputs": [
        {
          "indexed": false,
          "internalType": "uint256",
          "name": "licenseId",
          "type": "uint256"
        },
        {
          "indexed": false,
          "internalType": "uint256",
          "name": "requiredAmount",
          "type": "uint256"
        }
      ],
      "name": "InsufficientBalance",
      "type": "event"
    },
    {
      "anonymous": false,
      "inputs": [
        {
          "indexed": true,
          "internalType": "address",
          "name": "previousOwner",
          "type": "address"
        },
        {
          "indexed": true,
          "internalType": "address",
          "name": "newOwner",
          "type": "address"
        }
      ],
      "name": "OwnershipTransferred",
      "type": "event"
    },
    {
      "anonymous": false,
      "inputs": [
        {
          "indexed": false,
          "internalType": "address",
          "name": "account",
          "type": "address"
        }
      ],
      "name": "Paused",
      "type": "event"
    },
    {
      "anonymous": false,
      "inputs": [
        {
          "indexed": true,
          "internalType": "address",
          "name": "holder",
          "type": "address"
        },
        {
          "indexed": true,
          "internalType": "uint256",
          "name": "licenseId",
          "type": "uint256"
        },
        {
          "indexed": false,
          "internalType": "uint256",
          "name": "dnrAmount",
          "type": "uint256"
        },
        {
          "indexed": false,
          "internalType": "uint256",
          "name": "epoch",
          "type": "uint256"
        }
      ],
      "name": "RewardDistributed",
      "type": "event"
    },
    {
      "anonymous": false,
      "inputs": [
        {
          "indexed": false,
          "internalType": "uint256",
          "name": "dnrAmount",
          "type": "uint256"
        },
        {
          "indexed": false,
          "internalType": "address",
          "name": "funder",
          "type": "address"
        }
      ],
      "name": "RewardPoolFunded",
      "type": "event"
    },
    {
      "anonymous": false,
      "inputs": [
        {
          "indexed": false,
          "internalType": "uint8",
          "name": "tier",
          "type": "uint8"
        },
        {
          "indexed": false,
          "internalType": "uint256",
          "name": "newRate",
          "type": "uint256"
        }
      ],
      "name": "RewardRateUpdated",
      "type": "event"
    },
    {
      "anonymous": false,
      "inputs": [
        {
          "indexed": false,
          "internalType": "address",
          "name": "account",
          "type": "address"
        }
      ],
      "name": "Unpaused",
      "type": "event"
    },
    {
      "inputs": [],
      "name": "EPOCH_DURATION",
      "outputs": [
        {
          "internalType": "uint256",
          "name": "",
          "type": "uint256"
        }
      ],
      "stateMutability": "view",
      "type": "function"
    },
    {
      "inputs": [],
      "name": "advanceEpoch",
      "outputs": [],
      "stateMutability": "nonpayable",
      "type": "function"
    },
    {
      "inputs": [],
      "name": "currentEpoch",
      "outputs": [
        {
          "internalType": "uint256",
          "name": "",
          "type": "uint256"
        }
      ],
      "stateMutability": "view",
      "type": "function"
    },
    {
      "inputs": [
        {
          "internalType": "uint256",
          "name": "startId",
          "type": "uint256"
        },
        {
          "internalType": "uint256",
          "name": "endId",
          "type": "uint256"
        }
      ],
      "name": "distributeAllRewards",
      "outputs": [],
      "stateMutability": "nonpayable",
      "type": "function"
    },
    {
      "inputs": [
        {
          "internalType": "uint256",
          "name": "licenseId",
          "type": "uint256"
        }
      ],
      "name": "distributeReward",
      "outputs": [],
      "stateMutability": "nonpayable",
      "type": "function"
    },
    {
      "inputs": [
        {
          "internalType": "uint256[]",
          "name": "licenseIds",
          "type": "uint256[]"
        }
      ],
      "name": "distributeRewardBatch",
      "outputs": [],
      "stateMutability": "nonpayable",
      "type": "function"
    },
    {
      "inputs": [],
      "name": "emergencyWithdraw",
      "outputs": [],
      "stateMutability": "nonpayable",
      "type": "function"
    },
    {
      "inputs": [],
      "name": "epochsRemaining",
      "outputs": [
        {
          "internalType": "uint256",
          "name": "",
          "type": "uint256"
        }
      ],
      "stateMutability": "view",
      "type": "function"
    },
    {
      "inputs": [
        {
          "internalType": "uint8",
          "name": "tier",
          "type": "uint8"
        }
      ],
      "name": "getRewardRate",
      "outputs": [
        {
          "internalType": "uint256",
          "name": "",
          "type": "uint256"
        }
      ],
      "stateMutability": "view",
      "type": "function"
    },
    {
      "inputs": [
        {
          "internalType": "uint256",
          "name": "",
          "type": "uint256"
        }
      ],
      "name": "lastClaimedEpoch",
      "outputs": [
        {
          "internalType": "uint256",
          "name": "",
          "type": "uint256"
        }
      ],
      "stateMutability": "view",
      "type": "function"
    },
    {
      "inputs": [],
      "name": "lastEpochTime",
      "outputs": [
        {
          "internalType": "uint256",
          "name": "",
          "type": "uint256"
        }
      ],
      "stateMutability": "view",
      "type": "function"
    },
    {
      "inputs": [],
      "name": "licenseContract",
      "outputs": [
        {
          "internalType": "contract IKortanaLicenseNFT",
          "name": "",
          "type": "address"
        }
      ],
      "stateMutability": "view",
      "type": "function"
    },
    {
      "inputs": [],
      "name": "owner",
      "outputs": [
        {
          "internalType": "address",
          "name": "",
          "type": "address"
        }
      ],
      "stateMutability": "view",
      "type": "function"
    },
    {
      "inputs": [],
      "name": "pause",
      "outputs": [],
      "stateMutability": "nonpayable",
      "type": "function"
    },
    {
      "inputs": [],
      "name": "paused",
      "outputs": [
        {
          "internalType": "bool",
          "name": "",
          "type": "bool"
        }
      ],
      "stateMutability": "view",
      "type": "function"
    },
    {
      "inputs": [
        {
          "internalType": "uint256",
          "name": "licenseId",
          "type": "uint256"
        }
      ],
      "name": "pendingRewards",
      "outputs": [
        {
          "internalType": "uint256",
          "name": "",
          "type": "uint256"
        }
      ],
      "stateMutability": "view",
      "type": "function"
    },
    {
      "inputs": [],
      "name": "poolBalance",
      "outputs": [
        {
          "internalType": "uint256",
          "name": "",
          "type": "uint256"
        }
      ],
      "stateMutability": "view",
      "type": "function"
    },
    {
      "inputs": [],
      "name": "renounceOwnership",
      "outputs": [],
      "stateMutability": "nonpayable",
      "type": "function"
    },
    {
      "inputs": [
        {
          "internalType": "uint8",
          "name": "",
          "type": "uint8"
        }
      ],
      "name": "rewardPerEpoch",
      "outputs": [
        {
          "internalType": "uint256",
          "name": "",
          "type": "uint256"
        }
      ],
      "stateMutability": "view",
      "type": "function"
    },
    {
      "inputs": [
        {
          "internalType": "uint8",
          "name": "tier",
          "type": "uint8"
        },
        {
          "internalType": "uint256",
          "name": "newRate",
          "type": "uint256"
        }
      ],
      "name": "setRewardRate",
      "outputs": [],
      "stateMutability": "nonpayable",
      "type": "function"
    },
    {
      "inputs": [],
      "name": "totalDistributed",
      "outputs": [
        {
          "internalType": "uint256",
          "name": "",
          "type": "uint256"
        }
      ],
      "stateMutability": "view",
      "type": "function"
    },
    {
      "inputs": [
        {
          "internalType": "address",
          "name": "newOwner",
          "type": "address"
        }
      ],
      "name": "transferOwnership",
      "outputs": [],
      "stateMutability": "nonpayable",
      "type": "function"
    },
    {
      "inputs": [],
      "name": "unpause",
      "outputs": [],
      "stateMutability": "nonpayable",
      "type": "function"
    },
    {
      "stateMutability": "payable",
      "type": "receive"
    }
  ],
  "bytecode": "0x608060405234801561001057600080fd5b5060405161141438038061141483398101604081905261002f9161019f565b338061005557604051631e4fbdf760e01b81526000600482015260240160405180910390fd5b61005e8161014f565b506000805460ff60a01b1916815560018055600280546001600160a01b0319166001600160a01b039390931692909217909155426004556005602052670de0b6b3a76400007f05b8ccbb9d4d8fb16ea74ce3c29a41f1b461fbdaff4714a0d9a8eb05499746bc55671bc16d674ec800007f1471eb6eb2c5e789fc3de43f8ce62938c7d1836ec861730447e2ada8fd81017b55674563918244f400007f89832631fb3c3307a103ba2c84ab569c64d6182a18893dcd163f0f1c2090733a5560039052678ac7230489e800007fa9bc9a3a348c357ba16b37005d7e6b3236198c0e939f4af8c5f19b8deeb8ebc0556101cf565b600080546001600160a01b038381166001600160a01b0319831681178455604051919092169283917f8be0079c531659141344cd1fd0a4f28419497f9722a3daafe3b4186f6b6457e09190a35050565b6000602082840312156101b157600080fd5b81516001600160a01b03811681146101c857600080fd5b9392505050565b611236806101de6000396000f3fe6080604052600436106101445760003560e01c806389c614b8116100b6578063db2e21bc1161006f578063db2e21bc146103ac578063dcf4724a146103c1578063e0a0025a146103d6578063e2c52b9d146103f6578063efca2eed14610416578063f2fde38b1461042c57600080fd5b806389c614b8146102ee5780638da5cb5b14610304578063940a4e451461033657806396365d441461035657806398dcd2ca14610369578063a70b9f0c1461039657600080fd5b80635c975abb116101085780635c975abb14610234578063715018a61461025e57806376671808146102735780637dcb2abf146102895780638456cb59146102a9578063883b9b8c146102be57600080fd5b806308d07bdc14610188578063216694a1146101aa57806325ef4280146101ea5780633cf80e6c1461020a5780633f4ba83a1461021f57600080fd5b3661018357604080513481523360208201527f56b382c0989cb3caa548f6382ea515b7700267067998b761d377320e08679490910160405180910390a1005b600080fd5b34801561019457600080fd5b506101a86101a3366004610fa0565b61044c565b005b3480156101b657600080fd5b506101d76101c5366004610fc2565b60066020526000908152604090205481565b6040519081526020015b60405180910390f35b3480156101f657600080fd5b506101a8610205366004610fdb565b610523565b34801561021657600080fd5b506101a861057b565b34801561022b57600080fd5b506101a861063d565b34801561024057600080fd5b50600054600160a01b900460ff1660405190151581526020016101e1565b34801561026a57600080fd5b506101a861064f565b34801561027f57600080fd5b506101d760035481565b34801561029557600080fd5b506101d76102a4366004610fc2565b610661565b3480156102b557600080fd5b506101a86107b3565b3480156102ca57600080fd5b506101d76102d936600461105f565b60ff1660009081526005602052604090205490565b3480156102fa57600080fd5b506101d760045481565b34801561031057600080fd5b506000546001600160a01b03165b6040516001600160a01b0390911681526020016101e1565b34801561034257600080fd5b506101a8610351366004610fc2565b6107c3565b34801561036257600080fd5b50476101d7565b34801561037557600080fd5b506101d761038436600461105f565b60056020526000908152604090205481565b3480156103a257600080fd5b506101d761087081565b3480156103b857600080fd5b506101a86107e8565b3480156103cd57600080fd5b506101d76108cf565b3480156103e257600080fd5b506101a86103f1366004611083565b610a93565b34801561040257600080fd5b5060025461031e906001600160a01b031681565b34801561042257600080fd5b506101d760075481565b34801561043857600080fd5b506101a86104473660046110c4565b610ae6565b610454610b21565b61045c610b4b565b6002546040805163124bd1c760e21b815290516000926001600160a01b03169163492f471c9160048083019260209291908290030181865afa1580156104a6573d6000803e3d6000fd5b505050506040513d601f19601f820116820180604052508101906104ca91906110e1565b905060008183106104e5576104e0600183611110565b6104e7565b825b9050835b8181116105135780156105015761050181610b76565b8061050b81611129565b9150506104eb565b50505061051f60018055565b5050565b61052b610b21565b610533610b4b565b60005b818110156105715761055f83838381811061055357610553611142565b90506020020135610b76565b8061056981611129565b915050610536565b5061051f60018055565b61087060045461058b9190611158565b4210156105df5760405162461bcd60e51b815260206004820152601a60248201527f45706f6368206475726174696f6e206e6f74207265616368656400000000000060448201526064015b60405180910390fd5b600380549060006105ef83611129565b90915550504260048190556003546040517facfa06cebbab8226f9a388bff9f5fcf4569298028d939f4765958dc57dbb330b92610633928252602082015260400190565b60405180910390a1565b610645610e66565b61064d610e93565b565b610657610e66565b61064d6000610ee3565b600254604051630a548f1760e21b8152600481018390526000916001600160a01b0316906329523c5c90602401602060405180830381865afa1580156106ab573d6000803e3d6000fd5b505050506040513d601f19601f820116820180604052508101906106cf919061116b565b6106db57506000919050565b6000828152600660205260409020548015806106f957508060035411155b156107075750600092915050565b6000816003546107179190611110565b6002546040516329fcb6f960e11b8152600481018790529192506000916001600160a01b03909116906353f96df290602401602060405180830381865afa158015610766573d6000803e3d6000fd5b505050506040513d601f19601f8201168201806040525081019061078a919061118d565b60ff81166000908152600560205260409020549091506107aa90836111aa565b95945050505050565b6107bb610e66565b61064d610f33565b6107cb610b21565b6107d3610b4b565b6107dc81610b76565b6107e560018055565b50565b6107f0610e66565b4760006108056000546001600160a01b031690565b6001600160a01b03168260405160006040518083038185875af1925050503d806000811461084f576040519150601f19603f3d011682016040523d82523d6000602084013e610854565b606091505b50509050806108975760405162461bcd60e51b815260206004820152600f60248201526e15da5d1a191c985dc819985a5b1959608a1b60448201526064016105d6565b6040518281527f99d7f8b71cfb9126984f7a5eed3a40e64a8959e9b0e442221546fb04ec6a489c906020015b60405180910390a15050565b6000806000600260009054906101000a90046001600160a01b03166001600160a01b031663492f471c6040518163ffffffff1660e01b8152600401602060405180830381865afa158015610927573d6000803e3d6000fd5b505050506040513d601f19601f8201168201806040525081019061094b91906110e1565b905060015b81811015610a7057600254604051630a548f1760e21b8152600481018390526001600160a01b03909116906329523c5c90602401602060405180830381865afa1580156109a1573d6000803e3d6000fd5b505050506040513d601f19601f820116820180604052508101906109c5919061116b565b15610a5e576002546040516329fcb6f960e11b8152600481018390526005916000916001600160a01b03909116906353f96df290602401602060405180830381865afa158015610a19573d6000803e3d6000fd5b505050506040513d601f19601f82011682018060405250810190610a3d919061118d565b60ff168152602081019190915260400160002054610a5b9084611158565b92505b80610a6881611129565b915050610950565b5081600003610a825760009250505090565b610a8c82476111c1565b9250505090565b610a9b610e66565b60ff8216600081815260056020908152604091829020849055815192835282018390527fe3f408bbee4c8943793f63832208ab606680bfd72bfc8c49af7151dd656ff4ca91016108c3565b610aee610e66565b6001600160a01b038116610b1857604051631e4fbdf760e01b8152600060048201526024016105d6565b6107e581610ee3565b600260015403610b4457604051633ee5aeb560e01b815260040160405180910390fd5b6002600155565b600054600160a01b900460ff161561064d5760405163d93c066560e01b815260040160405180910390fd5b600254604051630a548f1760e21b8152600481018390526001600160a01b03909116906329523c5c90602401602060405180830381865afa158015610bbf573d6000803e3d6000fd5b505050506040513d601f19601f82011682018060405250810190610be3919061116b565b610bea5750565b60008181526006602052604081205490819003610c17575060035460009182526006602052604090912055565b8060035411610c24575050565b600081600354610c349190611110565b6002546040516329fcb6f960e11b8152600481018690529192506000916001600160a01b03909116906353f96df290602401602060405180830381865afa158015610c83573d6000803e3d6000fd5b505050506040513d601f19601f82011682018060405250810190610ca7919061118d565b60ff811660009081526005602052604081205491925090610cc890846111aa565b905080471015610d125760408051868152602081018390527fcf4791818fba6e019216eb4864093b4947f674afada5d305e57d598b641dad1d910160405180910390a15050505050565b6002546040516331a9108f60e11b8152600481018790526000916001600160a01b031690636352211e90602401602060405180830381865afa158015610d5c573d6000803e3d6000fd5b505050506040513d601f19601f82011682018060405250810190610d8091906111e3565b905060035460066000888152602001908152602001600020819055508160076000828254610dae9190611158565b90915550506040516000906001600160a01b0383169084908381818185875af1925050503d8060008114610dfe576040519150601f19603f3d011682016040523d82523d6000602084013e610e03565b606091505b505090508015610e5d5786826001600160a01b03167ff0f44087179a926066b42ce5c1720884709cd0766b995b4595a33c8e4fd3a2b285600354604051610e54929190918252602082015260400190565b60405180910390a35b50505050505050565b6000546001600160a01b0316331461064d5760405163118cdaa760e01b81523360048201526024016105d6565b610e9b610f76565b6000805460ff60a01b191690557f5db9ee0a495bf2e6ff9c91a7834c1ba4fdd244a5e8aa4e537bd38aeae4b073aa335b6040516001600160a01b039091168152602001610633565b600080546001600160a01b038381166001600160a01b0319831681178455604051919092169283917f8be0079c531659141344cd1fd0a4f28419497f9722a3daafe3b4186f6b6457e09190a35050565b610f3b610b4b565b6000805460ff60a01b1916600160a01b1790557f62e78cea01bee320cd4e420270b5ea74000d11b0c9f74754ebdbfc544b05a258610ecb3390565b600054600160a01b900460ff1661064d57604051638dfc202b60e01b815260040160405180910390fd5b60008060408385031215610fb357600080fd5b50508035926020909101359150565b600060208284031215610fd457600080fd5b5035919050565b60008060208385031215610fee57600080fd5b823567ffffffffffffffff8082111561100657600080fd5b818501915085601f83011261101a57600080fd5b81358181111561102957600080fd5b8660208260051b850101111561103e57600080fd5b60209290920196919550909350505050565b60ff811681146107e557600080fd5b60006020828403121561107157600080fd5b813561107c81611050565b9392505050565b6000806040838503121561109657600080fd5b82356110a181611050565b946020939093013593505050565b6001600160a01b03811681146107e557600080fd5b6000602082840312156110d657600080fd5b813561107c816110af565b6000602082840312156110f357600080fd5b5051919050565b634e487b7160e01b600052601160045260246000fd5b81810381811115611123576111236110fa565b92915050565b60006001820161113b5761113b6110fa565b5060010190565b634e487b7160e01b600052603260045260246000fd5b80820180821115611123576111236110fa565b60006020828403121561117d57600080fd5b8151801515811461107c57600080fd5b60006020828403121561119f57600080fd5b815161107c81611050565b8082028115828204841417611123576111236110fa565b6000826111de57634e487b7160e01b600052601260045260246000fd5b500490565b6000602082840312156111f557600080fd5b815161107c816110af56fea2646970667358221220c5b87a472a0cc9bbfec3b3a9287e12abdb2df5195d8faa1615c14c061cba32b664736f6c63430008140033",
  "linkReferences": {},
  "deployedLinkReferences": {}
}