{
  "_format": "hh-sol-artifact-1",
  "contractName": "ETHSenderTest2",
  "sourceName": "contracts/test/ETHSenderTest2.sol",
  "abi": [
    {
      "inputs": [
        {
          "internalType": "address",
          "name": "target",
          "type": "address"
        },
        {
          "internalType": "uint256",
          "name": "amount",
          "type": "uint256"
        }
      ],
      "name": "sendTo",
      "outputs": [],
      "stateMutability": "nonpayable",
      "type": "function"
    },
    {
      "inputs": [
        {
          "internalType": "address payable",
          "name": "target",
          "type": "address"
        },
        {
          "internalType": "uint256",
          "name": "amount",
          "type": "uint256"
        }
      ],
      "name": "transferTo",
      "outputs": [],
      "stateMutability": "nonpayable",
      "type": "function"
    },
    {
      "stateMutability": "payable",
      "type": "receive"
    }
  ],
  "bytecode": "0x608060405234801561001057600080fd5b506101c5806100206000396000f3fe60806040526004361061002d5760003560e01c80632ccb1b30146100395780639e1a00aa1461005b57600080fd5b3661003457005b600080fd5b34801561004557600080fd5b50610059610054366004610163565b61007b565b005b34801561006757600080fd5b50610059610076366004610163565b6100b6565b6040516001600160a01b0383169082156108fc029083906000818181858888f193505050501580156100b1573d6000803e3d6000fd5b505050565b6000826001600160a01b03168260405160006040518083038185875af1925050503d8060008114610103576040519150601f19603f3d011682016040523d82523d6000602084013e610108565b606091505b50509050806100b15760405162461bcd60e51b815260206004820152600b60248201526a1cd95b990819985a5b195960aa1b604482015260640160405180910390fd5b6001600160a01b038116811461016057600080fd5b50565b6000806040838503121561017657600080fd5b82356101818161014b565b94602093909301359350505056fea264697066735822122037676f8327e4638ecdab420752d529132b30c1757e70f47019edacb5757ce50164736f6c63430008140033",
  "linkReferences": {},
  "deployedLinkReferences": {}
}