{
  "_format": "hh-sol-artifact-1",
  "contractName": "KortanaPoolDeployer",
  "sourceName": "contracts/KortanaPoolDeployer.sol",
  "abi": [
    {
      "inputs": [],
      "name": "parameters",
      "outputs": [
        {
          "internalType": "address",
          "name": "factory",
          "type": "address"
        },
        {
          "internalType": "address",
          "name": "token0",
          "type": "address"
        },
        {
          "internalType": "address",
          "name": "token1",
          "type": "address"
        },
        {
          "internalType": "uint24",
          "name": "fee",
          "type": "uint24"
        },
        {
          "internalType": "int24",
          "name": "tickSpacing",
          "type": "int24"
        }
      ],
      "stateMutability": "view",
      "type": "function"
    }
  ],
  "bytecode": "0x608080604052346100155760be908161001b8239f35b600080fdfe6080806040526004361015601257600080fd5b600090813560e01c638903573014602857600080fd5b346084578160031936011260845760a09173ffffffffffffffffffffffffffffffffffffffff8091541690806001541660025492845260208401528116604083015262ffffff81841c16606083015260b81c60020b6080820152f35b5080fdfea2646970667358221220106553f3e9b881fb4eddbbbad5cc5ccb8b8d3a4015e214870257f0693f5cf9a064736f6c63430008140033",
  "linkReferences": {},
  "deployedLinkReferences": {}
}