{
  "_format": "hh-sol-artifact-1",
  "contractName": "ETHSenderTest",
  "sourceName": "contracts/test/ETHSenderTest.sol",
  "abi": [
    {
      "inputs": [
        {
          "internalType": "address",
          "name": "target",
          "type": "address"
        },
        {
          "internalType": "uint256",
          "name": "amount",
          "type": "uint256"
        }
      ],
      "name": "sendTo",
      "outputs": [],
      "stateMutability": "nonpayable",
      "type": "function"
    },
    {
      "stateMutability": "payable",
      "type": "receive"
    }
  ],
  "bytecode": "0x608060405234801561001057600080fd5b5061015e806100206000396000f3fe6080604052600436106100225760003560e01c80639e1a00aa1461002e57600080fd5b3661002957005b600080fd5b34801561003a57600080fd5b5061004e6100493660046100f0565b610050565b005b6000826001600160a01b031682620186a090604051600060405180830381858888f193505050503d80600081146100a3576040519150601f19603f3d011682016040523d82523d6000602084013e6100a8565b606091505b50509050806100eb5760405162461bcd60e51b815260206004820152600b60248201526a1cd95b990819985a5b195960aa1b604482015260640160405180910390fd5b505050565b6000806040838503121561010357600080fd5b82356001600160a01b038116811461011a57600080fd5b94602093909301359350505056fea26469706673582212208f4220ae0e251c16af44511e8d0eab589f458cff769fb7bd592daa739831f2c964736f6c63430008140033",
  "linkReferences": {},
  "deployedLinkReferences": {}
}