{
  "_format": "hh-sol-artifact-1",
  "contractName": "SwapRouter",
  "sourceName": "contracts/SwapRouter.sol",
  "abi": [
    {
      "inputs": [
        {
          "internalType": "address",
          "name": "_factory",
          "type": "address"
        },
        {
          "internalType": "address",
          "name": "_WDNR",
          "type": "address"
        }
      ],
      "stateMutability": "nonpayable",
      "type": "constructor"
    },
    {
      "inputs": [],
      "name": "WDNR",
      "outputs": [
        {
          "internalType": "address",
          "name": "",
          "type": "address"
        }
      ],
      "stateMutability": "view",
      "type": "function"
    },
    {
      "inputs": [
        {
          "components": [
            {
              "internalType": "bytes",
              "name": "path",
              "type": "bytes"
            },
            {
              "internalType": "address",
              "name": "recipient",
              "type": "address"
            },
            {
              "internalType": "uint256",
              "name": "deadline",
              "type": "uint256"
            },
            {
              "internalType": "uint256",
              "name": "amountIn",
              "type": "uint256"
            },
            {
              "internalType": "uint256",
              "name": "amountOutMinimum",
              "type": "uint256"
            }
          ],
          "internalType": "struct ISwapRouter.ExactInputParams",
          "name": "params",
          "type": "tuple"
        }
      ],
      "name": "exactInput",
      "outputs": [
        {
          "internalType": "uint256",
          "name": "amountOut",
          "type": "uint256"
        }
      ],
      "stateMutability": "payable",
      "type": "function"
    },
    {
      "inputs": [
        {
          "components": [
            {
              "internalType": "address",
              "name": "tokenIn",
              "type": "address"
            },
            {
              "internalType": "address",
              "name": "tokenOut",
              "type": "address"
            },
            {
              "internalType": "uint24",
              "name": "fee",
              "type": "uint24"
            },
            {
              "internalType": "address",
              "name": "recipient",
              "type": "address"
            },
            {
              "internalType": "uint256",
              "name": "deadline",
              "type": "uint256"
            },
            {
              "internalType": "uint256",
              "name": "amountIn",
              "type": "uint256"
            },
            {
              "internalType": "uint256",
              "name": "amountOutMinimum",
              "type": "uint256"
            },
            {
              "internalType": "uint160",
              "name": "sqrtPriceLimitX96",
              "type": "uint160"
            }
          ],
          "internalType": "struct ISwapRouter.ExactInputSingleParams",
          "name": "params",
          "type": "tuple"
        }
      ],
      "name": "exactInputSingle",
      "outputs": [
        {
          "internalType": "uint256",
          "name": "amountOut",
          "type": "uint256"
        }
      ],
      "stateMutability": "payable",
      "type": "function"
    },
    {
      "inputs": [
        {
          "components": [
            {
              "internalType": "bytes",
              "name": "path",
              "type": "bytes"
            },
            {
              "internalType": "address",
              "name": "recipient",
              "type": "address"
            },
            {
              "internalType": "uint256",
              "name": "deadline",
              "type": "uint256"
            },
            {
              "internalType": "uint256",
              "name": "amountOut",
              "type": "uint256"
            },
            {
              "internalType": "uint256",
              "name": "amountInMaximum",
              "type": "uint256"
            }
          ],
          "internalType": "struct ISwapRouter.ExactOutputParams",
          "name": "params",
          "type": "tuple"
        }
      ],
      "name": "exactOutput",
      "outputs": [
        {
          "internalType": "uint256",
          "name": "amountIn",
          "type": "uint256"
        }
      ],
      "stateMutability": "payable",
      "type": "function"
    },
    {
      "inputs": [
        {
          "components": [
            {
              "internalType": "address",
              "name": "tokenIn",
              "type": "address"
            },
            {
              "internalType": "address",
              "name": "tokenOut",
              "type": "address"
            },
            {
              "internalType": "uint24",
              "name": "fee",
              "type": "uint24"
            },
            {
              "internalType": "address",
              "name": "recipient",
              "type": "address"
            },
            {
              "internalType": "uint256",
              "name": "deadline",
              "type": "uint256"
            },
            {
              "internalType": "uint256",
              "name": "amountOut",
              "type": "uint256"
            },
            {
              "internalType": "uint256",
              "name": "amountInMaximum",
              "type": "uint256"
            },
            {
              "internalType": "uint160",
              "name": "sqrtPriceLimitX96",
              "type": "uint160"
            }
          ],
          "internalType": "struct ISwapRouter.ExactOutputSingleParams",
          "name": "params",
          "type": "tuple"
        }
      ],
      "name": "exactOutputSingle",
      "outputs": [
        {
          "internalType": "uint256",
          "name": "amountIn",
          "type": "uint256"
        }
      ],
      "stateMutability": "payable",
      "type": "function"
    },
    {
      "inputs": [],
      "name": "factory",
      "outputs": [
        {
          "internalType": "address",
          "name": "",
          "type": "address"
        }
      ],
      "stateMutability": "view",
      "type": "function"
    },
    {
      "inputs": [
        {
          "internalType": "int256",
          "name": "amount0Delta",
          "type": "int256"
        },
        {
          "internalType": "int256",
          "name": "amount1Delta",
          "type": "int256"
        },
        {
          "internalType": "bytes",
          "name": "_data",
          "type": "bytes"
        }
      ],
      "name": "kortanaSwapCallback",
      "outputs": [],
      "stateMutability": "nonpayable",
      "type": "function"
    }
  ],
  "bytecode": "0x60c060405260001960005534801561001657600080fd5b5060405161178238038061178283398101604081905261003591610068565b6001600160a01b039182166080521660a05261009b565b80516001600160a01b038116811461006357600080fd5b919050565b6000806040838503121561007b57600080fd5b6100848361004c565b91506100926020840161004c565b90509250929050565b60805160a0516116b56100cd600039600061012e01526000818160e20152818161031c0152610c5f01526116b56000f3fe6080604052600436106100705760003560e01c8063c45a01551161004e578063c45a0155146100d0578063d2d8d32f1461011c578063db3e219814610150578063f28c04981461016357600080fd5b8063414bf38914610075578063988abd201461009b578063c04b8d59146100bd575b600080fd5b6100886100833660046110aa565b610176565b6040519081526020015b60405180910390f35b3480156100a757600080fd5b506100bb6100b63660046110ce565b61029b565b005b6100886100cb366004611237565b6103ec565b3480156100dc57600080fd5b506101047f000000000000000000000000000000000000000000000000000000000000000081565b6040516001600160a01b039091168152602001610092565b34801561012857600080fd5b506101047f000000000000000000000000000000000000000000000000000000000000000081565b61008861015e3660046110aa565b6104fe565b6100886101713660046112db565b610617565b60008160800135804211156101a65760405162461bcd60e51b815260040161019d90611316565b60405180910390fd5b61023f60a08401356101be6080860160608701611343565b6101cf610100870160e08801611343565b60408051808201909152806101e760208a018a611343565b6101f760608b0160408c01611360565b61020760408c0160208d01611343565b60405160200161021993929190611385565b6040516020818303038152906040528152602001336001600160a01b0316815250610717565b91508260c001358210156102955760405162461bcd60e51b815260206004820152601f60248201527f53776170526f757465723a20494e53554646494349454e545f4f555450555400604482015260640161019d565b50919050565b60008413806102aa5750600083135b6102ef5760405162461bcd60e51b815260206004820152601660248201527553776170526f757465723a205a45524f5f44454c544160501b604482015260640161019d565b60006102fd828401846113c0565b905060008060006103118460000151610875565b9250925092506103437f00000000000000000000000000000000000000000000000000000000000000008484846108b2565b5060008060008a1361036a57846001600160a01b0316846001600160a01b03161089610381565b836001600160a01b0316856001600160a01b0316108a5b9150915081156103a05761039b85876020015133846109d4565b6103e0565b85516103ab90610a06565b156103d05785516103bb90610a2a565b86526103ca8133600089610a5f565b506103e0565b6103e084876020015133846109d4565b50505050505050505050565b60008160400151804211156104135760405162461bcd60e51b815260040161019d90611316565b335b60006104248560000151610a06565b905061047085606001518261043d57866020015161043f565b305b600060405180604001604052806104598b60000151610c39565b8152602001876001600160a01b0316815250610717565b6060860152801561049057845130925061048990610a2a565b855261049d565b84606001519350506104a3565b50610415565b83608001518310156104f75760405162461bcd60e51b815260206004820152601f60248201527f53776170526f757465723a20494e53554646494349454e545f4f555450555400604482015260640161019d565b5050919050565b60008160800135804211156105255760405162461bcd60e51b815260040161019d90611316565b6105c160a084013561053d6080860160608701611343565b61054e610100870160e08801611343565b604051806040016040528088602001602081019061056c9190611343565b61057c60608b0160408c01611360565b61058960208c018c611343565b60405160200161059b93929190611385565b6040516020818303038152906040528152602001336001600160a01b0316815250610a5f565b91508260c001358211156102955760405162461bcd60e51b815260206004820152601b60248201527f53776170526f757465723a204558434553534956455f494e5055540000000000604482015260640161019d565b600081604001358042111561063e5760405162461bcd60e51b815260040161019d90611316565b6106b160608401356106566040860160208701611343565b604080518082019091526000908061066e8980611466565b8080601f01602080910402602001604051908101604052809392919081815260200183838082843760009201919091525050509082525033602090910152610a5f565b506000549150826080013582111561070b5760405162461bcd60e51b815260206004820152601b60248201527f53776170526f757465723a204558434553534956455f494e5055540000000000604482015260640161019d565b50600019600055919050565b60006001600160a01b03841661072b573093505b600080600061073d8560000151610875565b919450925090506001600160a01b0380831690841610600080610761868686610c58565b6001600160a01b031663128acb088b8561077a8f610c89565b6001600160a01b038e161561078f578d6107c8565b876107b8576107b3600173fffd8963efd1fc6a506488495d951d5263988d266114ca565b6107c8565b6107c86401000276a360016114e9565b8d6040516020016107d99190611558565b6040516020818303038152906040526040518663ffffffff1660e01b8152600401610808959493929190611595565b60408051808303816000875af1158015610826573d6000803e3d6000fd5b505050506040513d601f19601f8201168201806040525081019061084a91906115db565b9150915082610859578161085b565b805b610864906115ff565b96505050505050505b949350505050565b6000806000610885846000610c9f565b9250610892846014610d04565b90506108a9846108a46003601461161b565b610c9f565b91509193909250565b6000610987856108c3868686610d61565b805160208083015160408085015181516001600160a01b0395861681860152949092168482015262ffffff90911660608085019190915281518085038201815260808501909252815191909201206001600160f81b031960a08401529084901b6bffffffffffffffffffffffff191660a183015260b58201527f458b93cb46e44ef2e55149fe786b5497e5b90ab9ca53fda6c6a2468ca2620e0760d582015260009060f50160408051601f1981840301815291905280516020909101209392505050565b9050336001600160a01b0382161461086d5760405162461bcd60e51b815260206004820152601060248201526f496e76616c69642063616c6c6261636b60801b604482015260640161019d565b306001600160a01b038416036109f4576109ef848383610dcc565b610a00565b610a0084848484610ecc565b50505050565b60006014610a1560038261161b565b610a1f919061161b565b825110159050919050565b6060610a5982610a3c6003601461161b565b610a486003601461161b565b8551610a54919061162e565b610fd5565b92915050565b60006001600160a01b038416610a73573093505b6000806000610a858560000151610875565b919450925090506001600160a01b0380841690831610600080610aa9858786610c58565b6001600160a01b031663128acb088b85610ac28f610c89565b610acb906115ff565b6001600160a01b038e1615610ae0578d610b19565b87610b0957610b04600173fffd8963efd1fc6a506488495d951d5263988d266114ca565b610b19565b610b196401000276a360016114e9565b8d604051602001610b2a9190611558565b6040516020818303038152906040526040518663ffffffff1660e01b8152600401610b59959493929190611595565b60408051808303816000875af1158015610b77573d6000803e3d6000fd5b505050506040513d601f19601f82011682018060405250810190610b9b91906115db565b91509150600083610bb55781610bb0846115ff565b610bbf565b82610bbf836115ff565b90985090506001600160a01b038a16600003610c24578b8114610c245760405162461bcd60e51b815260206004820152601a60248201527f53776170526f757465723a20494e56414c49445f414d4f554e54000000000000604482015260640161019d565b50505060008590555092979650505050505050565b6060610a598260006014610c4e60038261161b565b610a54919061161b565b600061086d7f00000000000000000000000000000000000000000000000000000000000000006108c3868686610d61565b6000600160ff1b8210610c9b57600080fd5b5090565b6000610cac82601461161b565b83511015610cf45760405162461bcd60e51b815260206004820152601560248201527441646472657373206f7574206f6620626f756e647360581b604482015260640161019d565b500160200151600160601b900490565b6000610d1182600361161b565b83511015610d585760405162461bcd60e51b815260206004820152601460248201527355696e743234206f7574206f6620626f756e647360601b604482015260640161019d565b50016003015190565b6040805160608101825260008082526020820181905291810191909152826001600160a01b0316846001600160a01b03161115610d9c579192915b50604080516060810182526001600160a01b03948516815292909316602083015262ffffff169181019190915290565b604080516001600160a01b038481166024830152604480830185905283518084039091018152606490920183526020820180516001600160e01b031663a9059cbb60e01b1790529151600092839290871691610e289190611641565b6000604051808303816000865af19150503d8060008114610e65576040519150601f19603f3d011682016040523d82523d6000602084013e610e6a565b606091505b5091509150818015610e94575080511580610e94575080806020019051810190610e94919061165d565b610ec55760405162461bcd60e51b81526020600482015260026024820152612a2360f11b604482015260640161019d565b5050505050565b604080516001600160a01b0385811660248301528481166044830152606480830185905283518084039091018152608490920183526020820180516001600160e01b03166323b872dd60e01b1790529151600092839290881691610f309190611641565b6000604051808303816000865af19150503d8060008114610f6d576040519150601f19603f3d011682016040523d82523d6000602084013e610f72565b606091505b5091509150818015610f9c575080511580610f9c575080806020019051810190610f9c919061165d565b610fcd5760405162461bcd60e51b81526020600482015260026024820152612a2360f11b604482015260640161019d565b505050505050565b6060610fe1828461161b565b845110156110275760405162461bcd60e51b8152602060048201526013602482015272536c696365206f7574206f6620626f756e647360681b604482015260640161019d565b606082158015611046576040519150600082526020820160405261108e565b6040519150601f84168015602002818401018581018215602002838a01015b8183101561107d578051835260209283019201611065565b5050858452601f01601f1916604052505b50949350505050565b6000610100828403121561029557600080fd5b600061010082840312156110bd57600080fd5b6110c78383611097565b9392505050565b600080600080606085870312156110e457600080fd5b8435935060208501359250604085013567ffffffffffffffff81111561110957600080fd5b8501601f8101871361111a57600080fd5b803567ffffffffffffffff81111561113157600080fd5b87602082840101111561114357600080fd5b949793965060200194505050565b634e487b7160e01b600052604160045260246000fd5b60405160a0810167ffffffffffffffff8111828210171561118a5761118a611151565b60405290565b600082601f8301126111a157600080fd5b813567ffffffffffffffff8111156111bb576111bb611151565b604051601f8201601f19908116603f0116810167ffffffffffffffff811182821017156111ea576111ea611151565b60405281815283820160200185101561120257600080fd5b816020850160208301376000918101602001919091529392505050565b6001600160a01b038116811461123457600080fd5b50565b60006020828403121561124957600080fd5b813567ffffffffffffffff81111561126057600080fd5b820160a0818503121561127257600080fd5b61127a611167565b813567ffffffffffffffff81111561129157600080fd5b61129d86828501611190565b82525060208201356112ae8161121f565b60208201526040828101359082015260608083013590820152608091820135918101919091529392505050565b6000602082840312156112ed57600080fd5b813567ffffffffffffffff81111561130457600080fd5b820160a081850312156110c757600080fd5b602080825260139082015272151c985b9cd858dd1a5bdb881d1bdbc81bdb19606a1b604082015260600190565b60006020828403121561135557600080fd5b81356110c78161121f565b60006020828403121561137257600080fd5b813562ffffff811681146110c757600080fd5b606093841b6bffffffffffffffffffffffff19908116825260e89390931b6001600160e81b0319166014820152921b166017820152602b0190565b6000602082840312156113d257600080fd5b813567ffffffffffffffff8111156113e957600080fd5b8201604081850312156113fb57600080fd5b6040805190810167ffffffffffffffff8111828210171561141e5761141e611151565b604052813567ffffffffffffffff81111561143857600080fd5b61144486828501611190565b825250602082013591506114578261121f565b60208101919091529392505050565b6000808335601e1984360301811261147d57600080fd5b83018035915067ffffffffffffffff82111561149857600080fd5b6020019150368190038213156114ad57600080fd5b9250929050565b634e487b7160e01b600052601160045260246000fd5b6001600160a01b038281168282160390811115610a5957610a596114b4565b6001600160a01b038181168382160190811115610a5957610a596114b4565b60005b8381101561152357818101518382015260200161150b565b50506000910152565b60008151808452611544816020860160208601611508565b601f01601f19169290920160200192915050565b602081526000825160406020840152611574606084018261152c565b602094909401516001600160a01b0316604093909301929092525090919050565b6001600160a01b0386811682528515156020830152604082018590528316606082015260a0608082018190526000906115d09083018461152c565b979650505050505050565b600080604083850312156115ee57600080fd5b505080516020909101519092909150565b6000600160ff1b8201611614576116146114b4565b5060000390565b80820180821115610a5957610a596114b4565b81810381811115610a5957610a596114b4565b60008251611653818460208701611508565b9190910192915050565b60006020828403121561166f57600080fd5b815180151581146110c757600080fdfea26469706673582212202d58d3b4832ca895752524c28940dc328481a32db435f2d1932b6865f53e131f64736f6c634300081a0033",
  "linkReferences": {},
  "deployedLinkReferences": {}
}