{
  "_format": "hh-sol-artifact-1",
  "contractName": "SwapRouter",
  "sourceName": "contracts/SwapRouter.sol",
  "abi": [
    {
      "inputs": [
        {
          "internalType": "address",
          "name": "_factory",
          "type": "address"
        },
        {
          "internalType": "address",
          "name": "_WDNR",
          "type": "address"
        }
      ],
      "stateMutability": "nonpayable",
      "type": "constructor"
    },
    {
      "inputs": [],
      "name": "WDNR",
      "outputs": [
        {
          "internalType": "address",
          "name": "",
          "type": "address"
        }
      ],
      "stateMutability": "view",
      "type": "function"
    },
    {
      "inputs": [
        {
          "components": [
            {
              "internalType": "bytes",
              "name": "path",
              "type": "bytes"
            },
            {
              "internalType": "address",
              "name": "recipient",
              "type": "address"
            },
            {
              "internalType": "uint256",
              "name": "deadline",
              "type": "uint256"
            },
            {
              "internalType": "uint256",
              "name": "amountIn",
              "type": "uint256"
            },
            {
              "internalType": "uint256",
              "name": "amountOutMinimum",
              "type": "uint256"
            }
          ],
          "internalType": "struct ISwapRouter.ExactInputParams",
          "name": "params",
          "type": "tuple"
        }
      ],
      "name": "exactInput",
      "outputs": [
        {
          "internalType": "uint256",
          "name": "amountOut",
          "type": "uint256"
        }
      ],
      "stateMutability": "payable",
      "type": "function"
    },
    {
      "inputs": [
        {
          "components": [
            {
              "internalType": "address",
              "name": "tokenIn",
              "type": "address"
            },
            {
              "internalType": "address",
              "name": "tokenOut",
              "type": "address"
            },
            {
              "internalType": "uint24",
              "name": "fee",
              "type": "uint24"
            },
            {
              "internalType": "address",
              "name": "recipient",
              "type": "address"
            },
            {
              "internalType": "uint256",
              "name": "deadline",
              "type": "uint256"
            },
            {
              "internalType": "uint256",
              "name": "amountIn",
              "type": "uint256"
            },
            {
              "internalType": "uint256",
              "name": "amountOutMinimum",
              "type": "uint256"
            },
            {
              "internalType": "uint160",
              "name": "sqrtPriceLimitX96",
              "type": "uint160"
            }
          ],
          "internalType": "struct ISwapRouter.ExactInputSingleParams",
          "name": "params",
          "type": "tuple"
        }
      ],
      "name": "exactInputSingle",
      "outputs": [
        {
          "internalType": "uint256",
          "name": "amountOut",
          "type": "uint256"
        }
      ],
      "stateMutability": "payable",
      "type": "function"
    },
    {
      "inputs": [
        {
          "components": [
            {
              "internalType": "bytes",
              "name": "path",
              "type": "bytes"
            },
            {
              "internalType": "address",
              "name": "recipient",
              "type": "address"
            },
            {
              "internalType": "uint256",
              "name": "deadline",
              "type": "uint256"
            },
            {
              "internalType": "uint256",
              "name": "amountOut",
              "type": "uint256"
            },
            {
              "internalType": "uint256",
              "name": "amountInMaximum",
              "type": "uint256"
            }
          ],
          "internalType": "struct ISwapRouter.ExactOutputParams",
          "name": "params",
          "type": "tuple"
        }
      ],
      "name": "exactOutput",
      "outputs": [
        {
          "internalType": "uint256",
          "name": "amountIn",
          "type": "uint256"
        }
      ],
      "stateMutability": "payable",
      "type": "function"
    },
    {
      "inputs": [
        {
          "components": [
            {
              "internalType": "address",
              "name": "tokenIn",
              "type": "address"
            },
            {
              "internalType": "address",
              "name": "tokenOut",
              "type": "address"
            },
            {
              "internalType": "uint24",
              "name": "fee",
              "type": "uint24"
            },
            {
              "internalType": "address",
              "name": "recipient",
              "type": "address"
            },
            {
              "internalType": "uint256",
              "name": "deadline",
              "type": "uint256"
            },
            {
              "internalType": "uint256",
              "name": "amountOut",
              "type": "uint256"
            },
            {
              "internalType": "uint256",
              "name": "amountInMaximum",
              "type": "uint256"
            },
            {
              "internalType": "uint160",
              "name": "sqrtPriceLimitX96",
              "type": "uint160"
            }
          ],
          "internalType": "struct ISwapRouter.ExactOutputSingleParams",
          "name": "params",
          "type": "tuple"
        }
      ],
      "name": "exactOutputSingle",
      "outputs": [
        {
          "internalType": "uint256",
          "name": "amountIn",
          "type": "uint256"
        }
      ],
      "stateMutability": "payable",
      "type": "function"
    },
    {
      "inputs": [],
      "name": "factory",
      "outputs": [
        {
          "internalType": "address",
          "name": "",
          "type": "address"
        }
      ],
      "stateMutability": "view",
      "type": "function"
    },
    {
      "inputs": [
        {
          "internalType": "int256",
          "name": "amount0Delta",
          "type": "int256"
        },
        {
          "internalType": "int256",
          "name": "amount1Delta",
          "type": "int256"
        },
        {
          "internalType": "bytes",
          "name": "_data",
          "type": "bytes"
        }
      ],
      "name": "kortanaSwapCallback",
      "outputs": [],
      "stateMutability": "nonpayable",
      "type": "function"
    }
  ],
  "bytecode": "0x60c03461008e57601f61149c38819003918201601f19168301916001600160401b0383118484101761009357808492604094855283398101031261008e57610052602061004b836100a9565b92016100a9565b9060805260a0526000196000556040516113de90816100be823960805181818161022f015281816104ea0152610a42015260a0518161052e0152f35b600080fd5b634e487b7160e01b600052604160045260246000fd5b51906001600160a01b038216820361008e5756fe6080604052600436101561001257600080fd5b60003560e01c8063414bf38914610087578063988abd2014610082578063c04b8d591461007d578063c45a015514610078578063d2d8d32f14610073578063db3e21981461006e5763f28c04981461006957600080fd5b6105f6565b610552565b61050e565b6104ca565b610437565b6101a7565b6101003660031901126101905761018c6100a036610195565b6100b06080820135421115610768565b61017c60c061017160608401356100c681610426565b60e08501356100d481610426565b8535916100e083610426565b6101526100ef604089016107b4565b9361014460208a013561010181610426565b604051968793602085019192602b936bffffffffffffffffffffffff19809360601b16845262ffffff60e81b9060e81b16601484015260601b1660178201520190565b03601f198101855284610384565b6040519261015f8461030f565b835233602084015260a0870135610b58565b9201358210156107c4565b6040519081529081906020820190565b0390f35b600080fd5b61010090600319011261019057600490565b346101905760603660031901126101905760443560243560043567ffffffffffffffff8084116101905736602385011215610190578360040135908111610190578301602401923684116101905761025361021b6000956024878613948580156102f0575b610215906106ba565b01610706565b936102268551611023565b818396939592957f0000000000000000000000000000000000000000000000000000000000000000610fa8565b50156102da57506001600160a01b03808216908316105b156102915750610287602061028e9401516001600160a01b031690565b3391610edc565b80f35b90506102a18351602b9051101590565b156102c35750906102bf916102b68251611125565b82523390610c5e565b5080f35b610287602061028e9401516001600160a01b031690565b92506001600160a01b038083169082161061026a565b5088881361020c565b634e487b7160e01b600052604160045260246000fd5b6040810190811067ffffffffffffffff82111761032b57604052565b6102f9565b60a0810190811067ffffffffffffffff82111761032b57604052565b6060810190811067ffffffffffffffff82111761032b57604052565b6080810190811067ffffffffffffffff82111761032b57604052565b90601f8019910116810190811067ffffffffffffffff82111761032b57604052565b604051906103b38261030f565b565b67ffffffffffffffff811161032b57601f01601f191660200190565b9291926103dd826103b5565b916103eb6040519384610384565b829481845281830111610190578281602093846000960137010152565b9080601f8301121561019057816020610423933591016103d1565b90565b6001600160a01b0381160361019057565b6003196020368201126101905760043567ffffffffffffffff918282116101905760a09082360301126101905760405161047081610330565b816004013592831161019057608461017c9261049561018c9560043691840101610408565b835260248101356104a581610426565b6020840152604481013560408401526064810135606084015201356080820152610810565b346101905760003660031901126101905760206040516001600160a01b037f0000000000000000000000000000000000000000000000000000000000000000168152f35b346101905760003660031901126101905760206040516001600160a01b037f0000000000000000000000000000000000000000000000000000000000000000168152f35b6101003660031901126101905761018c61056b36610195565b61057b6080820135421115610768565b61017c60c06105eb606084013561059181610426565b60e085013561059f81610426565b6020860135916105ae83610426565b6105cc6105bd604089016107b4565b93610144893561010181610426565b604051926105d98461030f565b835233602084015260a0870135610d89565b9201358211156108be565b6003196020368201126101905760043567ffffffffffffffff8082116101905760a082360393840112610190576106336044830135421115610768565b60248201359261064284610426565b600483013590602219018112156101905782016004810135918211610190576024019080360382136101905761018c9361068961069b936106816103a6565b9336916103d1565b82523360208301526064840135610c5e565b506106af60846000549201358211156108be565b60001960005561017c565b156106c157565b60405162461bcd60e51b815260206004820152601660248201527f53776170526f757465723a205a45524f5f44454c5441000000000000000000006044820152606490fd5b9060208282031261019057813567ffffffffffffffff928382116101905701604081830312610190576040519261073c8461030f565b813590811161019057602092610753918301610408565b8352013561076081610426565b602082015290565b1561076f57565b60405162461bcd60e51b815260206004820152601360248201527f5472616e73616374696f6e20746f6f206f6c64000000000000000000000000006044820152606490fd5b3562ffffff811681036101905790565b156107cb57565b60405162461bcd60e51b815260206004820152601f60248201527f53776170526f757465723a20494e53554646494349454e545f4f5554505554006044820152606490fd5b6108206040820151421115610768565b6000335b82519061086e602b8351101591606086019384518460001461089e5761086961084d30936110da565b936108566103a6565b9485526001600160a01b03166020850152565b6109fc565b80925260001461088b5750306108848351611125565b8352610824565b61042391506080909201518210156107c4565b61086961084d6108b860208b01516001600160a01b031690565b936110da565b156108c557565b60405162461bcd60e51b815260206004820152601b60248201527f53776170526f757465723a204558434553534956455f494e50555400000000006044820152606490fd5b634e487b7160e01b600052601160045260246000fd5b919082519283825260005b84811061094c575050826000602080949584010152601f8019910116010190565b60208183018101518483018201520161092b565b6020815260406001600160a01b036020610984855184838701526060860190610920565b9401511691015290565b9190826040910312610190576020825192015190565b919360a09361042396956001600160a01b0380941685521515602085015260408401521660608201528160808201520190610920565b6040513d6000823e3d90fd5b600160ff1b81146109f75760000390565b61090a565b6001600160a01b03929160409184821615610b50575b846000610a78610a72610a66610a66610a40610a2e8b51611023565b9198819e9116908916109c8d9861120b565b7f0000000000000000000000000000000000000000000000000000000000000000611266565b6001600160a01b031690565b93611320565b93828214610b2c57610ac9610a9f610aad6401000276a4995b895192839160208301610960565b03601f198101835282610384565b8751630251596160e31b815298899788968795600487016109a4565b03925af1908115610b2757610423926000918293610af5575b5015610aee57506109e6565b90506109e6565b909250610b19915060403d8111610b20575b610b118183610384565b81019061098e565b9138610ae2565b503d610b07565b6109da565b610ac9610a9f610aad73fffd8963efd1fc6a506488495d951d5263988d2599610a91565b309150610a12565b916040919392610a4060006001600160a01b0396879485821615610c0a575b610ba6610ba0610a66610a66610b8d8c51611023565b909e8f9a929a168c8b16109e8f9a61120b565b95611320565b958116158314610bfa5750828214610bd757610ac9610a9f610aad6401000276a45b99895192839160208301610960565b610ac9610a9f610aad73fffd8963efd1fc6a506488495d951d5263988d25610bc8565b610a9f610aad610ac99299610a91565b309150610b77565b15610c1957565b60405162461bcd60e51b815260206004820152601a60248201527f53776170526f757465723a20494e56414c49445f414d4f554e540000000000006044820152606490fd5b9291906001600160a01b039081811615610d82575b604090610c9c610a66610a66610a40610c8c8851611023565b919098808216908a16109861120b565b836000610cb0610cab8a611320565b6109e6565b93828214610d5e57610cf2610a9f610cd66401000276a49a895192839160208301610960565b8751630251596160e31b8152998a9788968795600487016109a4565b03925af1908115610b27576000928392610d3b575b5015610d2857610d19610d23916109e6565b935b829414610c12565b600055565b90610d35610d23916109e6565b93610d1b565b909250610d56915060403d8111610b2057610b118183610384565b909138610d07565b610cf2610a9f610cd673fffd8963efd1fc6a506488495d951d5263988d259a610a91565b5030610c73565b906040610a6691959493956001600160a01b039081811615610ed5575b610a406000610dce610a66610dbb8a51611023565b828916828a16109a8b979093909261120b565b92610ddb610cab89611320565b948b16159a8b8314610ec55750828214610ea257610e2a610a9f610e0e6401000276a45b9b895192839160208301610960565b8751630251596160e31b81529a8b9788968795600487016109a4565b03925af1908115610b27576000938492610e7f575b5015610e6f57610e4e906109e6565b905b8294610e5e575b5050600055565b610e689114610c12565b3880610e57565b91610e79906109e6565b90610e50565b909350610e9a915060403d8111610b2057610b118183610384565b909238610e3f565b610e2a610a9f610e0e73fffd8963efd1fc6a506488495d951d5263988d25610dff565b610a9f610e0e610e2a929b610a91565b5030610da6565b926001600160a01b03918216308103610f6d5750926000928380936103b39660405191602083019463a9059cbb60e01b8652166024830152604482015260448152610f2681610368565b51925af1610f3261132f565b81610f3e575b50611377565b8051801592508215610f53575b505038610f38565b610f66925060208091830101910161135f565b3880610f4b565b600080946103b3969382956040519260208401956323b872dd60e01b87526024850152166044830152606482015260648152610f2681610330565b906001600160a01b0393610fc593610fbf9261120b565b90611266565b1690813303610fd057565b60405162461bcd60e51b815260206004820152601060248201527f496e76616c69642063616c6c6261636b000000000000000000000000000000006044820152606490fd5b60170190816017116109f757565b90601482511061109557602082015160601c9160178151106110505761104d6017820151916111ac565b91565b60405162461bcd60e51b815260206004820152601460248201527f55696e743234206f7574206f6620626f756e64730000000000000000000000006044820152606490fd5b60405162461bcd60e51b815260206004820152601560248201527f41646472657373206f7574206f6620626f756e647300000000000000000000006044820152606490fd5b6110e8602b825110156111bf565b60405190600b8083019101603683015b808310611112575050602b8252601f01601f191660405290565b90918251815260208091019201906110f8565b805160161991828201908282116109f75761114b815161114484611015565b11156111bf565b816111655750505050604051600081526020810160405290565b60405193601f8316801560051b91828288010195860101920101905b8084106111995750508252601f01601f191660405290565b9092835181526020809101930190611181565b602b815110611095576037015160601c90565b156111c657565b60405162461bcd60e51b815260206004820152601360248201527f536c696365206f7574206f6620626f756e6473000000000000000000000000006044820152606490fd5b9162ffffff916000604080516112208161034c565b82815282602082015201526001600160a01b039081811682861611611260575b816040519561124e8761034c565b16855216602084015216604082015290565b93611240565b610a6690610423926001600160a01b039062ffffff6040838351169360208401511692015116604051916020830193845260408301526060820152606081526112ae81610368565b51902060405190602082019260ff60f81b84526bffffffffffffffffffffffff199060601b16602183015260358201527f96e8ac4277198ff8b6f785478aa9a0214c77174e92164ea594d232537617417e60558201526055815261131181610368565b5190206001600160a01b031690565b600160ff1b8110156101905790565b3d1561135a573d90611340826103b5565b9161134e6040519384610384565b82523d6000602084013e565b606090565b90816020910312610190575180151581036101905790565b1561137e57565b60405162461bcd60e51b81526020600482015260026024820152612a2360f11b6044820152606490fdfea2646970667358221220e04f3f7e362ed1cfff13864d6e649642b059aa56393ef54a1d8c826ca1e6b13964736f6c63430008140033",
  "linkReferences": {},
  "deployedLinkReferences": {}
}