{
  "_format": "hh-sol-artifact-1",
  "contractName": "KortanaPriceOracle",
  "sourceName": "contracts/KortanaPriceOracle.sol",
  "abi": [
    {
      "inputs": [],
      "stateMutability": "nonpayable",
      "type": "constructor"
    },
    {
      "anonymous": false,
      "inputs": [
        {
          "indexed": true,
          "internalType": "address",
          "name": "feeder",
          "type": "address"
        },
        {
          "indexed": false,
          "internalType": "bool",
          "name": "status",
          "type": "bool"
        }
      ],
      "name": "FeederAuthorized",
      "type": "event"
    },
    {
      "anonymous": false,
      "inputs": [
        {
          "indexed": true,
          "internalType": "string",
          "name": "symbol",
          "type": "string"
        },
        {
          "indexed": false,
          "internalType": "uint256",
          "name": "price",
          "type": "uint256"
        },
        {
          "indexed": false,
          "internalType": "uint256",
          "name": "timestamp",
          "type": "uint256"
        }
      ],
      "name": "PriceUpdated",
      "type": "event"
    },
    {
      "inputs": [
        {
          "internalType": "address",
          "name": "",
          "type": "address"
        }
      ],
      "name": "authorizedFeeders",
      "outputs": [
        {
          "internalType": "bool",
          "name": "",
          "type": "bool"
        }
      ],
      "stateMutability": "view",
      "type": "function"
    },
    {
      "inputs": [
        {
          "internalType": "string",
          "name": "_symbol",
          "type": "string"
        }
      ],
      "name": "getPrice",
      "outputs": [
        {
          "internalType": "uint256",
          "name": "price",
          "type": "uint256"
        },
        {
          "internalType": "uint256",
          "name": "lastUpdated",
          "type": "uint256"
        }
      ],
      "stateMutability": "view",
      "type": "function"
    },
    {
      "inputs": [],
      "name": "owner",
      "outputs": [
        {
          "internalType": "address",
          "name": "",
          "type": "address"
        }
      ],
      "stateMutability": "view",
      "type": "function"
    },
    {
      "inputs": [
        {
          "internalType": "address",
          "name": "_feeder",
          "type": "address"
        },
        {
          "internalType": "bool",
          "name": "_status",
          "type": "bool"
        }
      ],
      "name": "setFeederStatus",
      "outputs": [],
      "stateMutability": "nonpayable",
      "type": "function"
    },
    {
      "inputs": [
        {
          "internalType": "address",
          "name": "_newOwner",
          "type": "address"
        }
      ],
      "name": "transferOwnership",
      "outputs": [],
      "stateMutability": "nonpayable",
      "type": "function"
    },
    {
      "inputs": [
        {
          "internalType": "string",
          "name": "_symbol",
          "type": "string"
        },
        {
          "internalType": "uint256",
          "name": "_price",
          "type": "uint256"
        }
      ],
      "name": "updatePrice",
      "outputs": [],
      "stateMutability": "nonpayable",
      "type": "function"
    }
  ],
  "bytecode": "0x608060405234801561001057600080fd5b50336000806101000a81548173ffffffffffffffffffffffffffffffffffffffff021916908373ffffffffffffffffffffffffffffffffffffffff1602179055506001600260003373ffffffffffffffffffffffffffffffffffffffff1673ffffffffffffffffffffffffffffffffffffffff16815260200190815260200160002060006101000a81548160ff021916908315150217905550610b1c806100b86000396000f3fe608060405234801561001057600080fd5b50600436106100625760003560e01c80634a432a4614610067578063524f3889146100835780636809d9f0146100b45780638da5cb5b146100d0578063d5ed6e95146100ee578063f2fde38b1461011e575b600080fd5b610081600480360381019061007c919061066b565b61013a565b005b61009d600480360381019061009891906106cb565b610268565b6040516100ab929190610727565b60405180910390f35b6100ce60048036038101906100c991906107e6565b61030b565b005b6100d8610442565b6040516100e59190610835565b60405180910390f35b61010860048036038101906101039190610850565b610466565b604051610115919061088c565b60405180910390f35b61013860048036038101906101339190610850565b610486565b005b600260003373ffffffffffffffffffffffffffffffffffffffff1673ffffffffffffffffffffffffffffffffffffffff16815260200190815260200160002060009054906101000a900460ff166101c6576040517f08c379a00000000000000000000000000000000000000000000000000000000081526004016101bd90610904565b60405180910390fd5b604051806040016040528082815260200142815250600184846040516101ed929190610963565b908152602001604051809103902060008201518160000155602082015181600101559050508282604051610222929190610963565b60405180910390207f6e838f2a03741f5f2aff5480963b672fb0dd8430a4dc75db9b67ce009733c9fe824260405161025b929190610727565b60405180910390a2505050565b60008060006001858560405161027f929190610963565b908152602001604051809103902060405180604001604052908160008201548152602001600182015481525050905060008160200151116102f5576040517f08c379a00000000000000000000000000000000000000000000000000000000081526004016102ec906109c8565b60405180910390fd5b8060000151816020015192509250509250929050565b60008054906101000a900473ffffffffffffffffffffffffffffffffffffffff1673ffffffffffffffffffffffffffffffffffffffff163373ffffffffffffffffffffffffffffffffffffffff1614610399576040517f08c379a000000000000000000000000000000000000000000000000000000000815260040161039090610a5a565b60405180910390fd5b80600260008473ffffffffffffffffffffffffffffffffffffffff1673ffffffffffffffffffffffffffffffffffffffff16815260200190815260200160002060006101000a81548160ff0219169083151502179055508173ffffffffffffffffffffffffffffffffffffffff167f89be28419b031099956a270b9a5a112af208625e5fe34cfeb38040412eb7c74e82604051610436919061088c565b60405180910390a25050565b60008054906101000a900473ffffffffffffffffffffffffffffffffffffffff1681565b60026020528060005260406000206000915054906101000a900460ff1681565b60008054906101000a900473ffffffffffffffffffffffffffffffffffffffff1673ffffffffffffffffffffffffffffffffffffffff163373ffffffffffffffffffffffffffffffffffffffff1614610514576040517f08c379a000000000000000000000000000000000000000000000000000000000815260040161050b90610a5a565b60405180910390fd5b600073ffffffffffffffffffffffffffffffffffffffff168173ffffffffffffffffffffffffffffffffffffffff1603610583576040517f08c379a000000000000000000000000000000000000000000000000000000000815260040161057a90610ac6565b60405180910390fd5b806000806101000a81548173ffffffffffffffffffffffffffffffffffffffff021916908373ffffffffffffffffffffffffffffffffffffffff16021790555050565b600080fd5b600080fd5b600080fd5b600080fd5b600080fd5b60008083601f8401126105f5576105f46105d0565b5b8235905067ffffffffffffffff811115610612576106116105d5565b5b60208301915083600182028301111561062e5761062d6105da565b5b9250929050565b6000819050919050565b61064881610635565b811461065357600080fd5b50565b6000813590506106658161063f565b92915050565b600080600060408486031215610684576106836105c6565b5b600084013567ffffffffffffffff8111156106a2576106a16105cb565b5b6106ae868287016105df565b935093505060206106c186828701610656565b9150509250925092565b600080602083850312156106e2576106e16105c6565b5b600083013567ffffffffffffffff811115610700576106ff6105cb565b5b61070c858286016105df565b92509250509250929050565b61072181610635565b82525050565b600060408201905061073c6000830185610718565b6107496020830184610718565b9392505050565b600073ffffffffffffffffffffffffffffffffffffffff82169050919050565b600061077b82610750565b9050919050565b61078b81610770565b811461079657600080fd5b50565b6000813590506107a881610782565b92915050565b60008115159050919050565b6107c3816107ae565b81146107ce57600080fd5b50565b6000813590506107e0816107ba565b92915050565b600080604083850312156107fd576107fc6105c6565b5b600061080b85828601610799565b925050602061081c858286016107d1565b9150509250929050565b61082f81610770565b82525050565b600060208201905061084a6000830184610826565b92915050565b600060208284031215610866576108656105c6565b5b600061087484828501610799565b91505092915050565b610886816107ae565b82525050565b60006020820190506108a1600083018461087d565b92915050565b600082825260208201905092915050565b7f4e6f7420617574686f72697a656420746f206665656420707269636573000000600082015250565b60006108ee601d836108a7565b91506108f9826108b8565b602082019050919050565b6000602082019050818103600083015261091d816108e1565b9050919050565b600081905092915050565b82818337600083830152505050565b600061094a8385610924565b935061095783858461092f565b82840190509392505050565b600061097082848661093e565b91508190509392505050565b7f5072696365206e6f742073656564656420666f72207468697320617373657400600082015250565b60006109b2601f836108a7565b91506109bd8261097c565b602082019050919050565b600060208201905081810360008301526109e1816109a5565b9050919050565b7f4f6e6c79206f776e65722063616e20706572666f726d2074686973206163746960008201527f6f6e000000000000000000000000000000000000000000000000000000000000602082015250565b6000610a446022836108a7565b9150610a4f826109e8565b604082019050919050565b60006020820190508181036000830152610a7381610a37565b9050919050565b7f4e6577206f776e6572206973207a65726f206164647265737300000000000000600082015250565b6000610ab06019836108a7565b9150610abb82610a7a565b602082019050919050565b60006020820190508181036000830152610adf81610aa3565b905091905056fea264697066735822122032113d2bc629b66bc4afd949549d87a90ecc91329be8797401ff11e4f45b6a6564736f6c63430008140033",
  "linkReferences": {},
  "deployedLinkReferences": {}
}