{"contracts/KortanaFactory.sol":{"KortanaFactory":{"abi":[{"inputs":[{"internalType":"address","name":"_feeCollector","type":"address"}],"stateMutability":"nonpayable","type":"constructor"},{"anonymous":false,"inputs":[{"indexed":true,"internalType":"uint24","name":"fee","type":"uint24"},{"indexed":true,"internalType":"int24","name":"tickSpacing","type":"int24"}],"name":"FeeAmountEnabled","type":"event"},{"anonymous":false,"inputs":[{"indexed":true,"internalType":"address","name":"oldOwner","type":"address"},{"indexed":true,"internalType":"address","name":"newOwner","type":"address"}],"name":"OwnerChanged","type":"event"},{"anonymous":false,"inputs":[{"indexed":true,"internalType":"address","name":"token0","type":"address"},{"indexed":true,"internalType":"address","name":"token1","type":"address"},{"indexed":true,"internalType":"uint24","name":"fee","type":"uint24"},{"indexed":false,"internalType":"int24","name":"tickSpacing","type":"int24"},{"indexed":false,"internalType":"address","name":"pool","type":"address"}],"name":"PoolCreated","type":"event"},{"anonymous":false,"inputs":[{"indexed":false,"internalType":"uint8","name":"oldFeeProtocol","type":"uint8"},{"indexed":false,"internalType":"uint8","name":"newFeeProtocol","type":"uint8"}],"name":"SetFeeProtocol","type":"event"},{"inputs":[{"internalType":"uint256","name":"","type":"uint256"}],"name":"allPools","outputs":[{"internalType":"address","name":"","type":"address"}],"stateMutability":"view","type":"function"},{"inputs":[],"name":"allPoolsLength","outputs":[{"internalType":"uint256","name":"","type":"uint256"}],"stateMutability":"view","type":"function"},{"inputs":[{"internalType":"address","name":"pool","type":"address"},{"internalType":"address","name":"recipient","type":"address"},{"internalType":"uint128","name":"amount0Requested","type":"uint128"},{"internalType":"uint128","name":"amount1Requested","type":"uint128"}],"name":"collectProtocol","outputs":[{"internalType":"uint128","name":"amount0","type":"uint128"},{"internalType":"uint128","name":"amount1","type":"uint128"}],"stateMutability":"nonpayable","type":"function"},{"inputs":[{"internalType":"address","name":"tokenA","type":"address"},{"internalType":"address","name":"tokenB","type":"address"},{"internalType":"uint24","name":"fee","type":"uint24"}],"name":"createPool","outputs":[{"internalType":"address","name":"pool","type":"address"}],"stateMutability":"nonpayable","type":"function"},{"inputs":[{"internalType":"uint24","name":"fee","type":"uint24"},{"internalType":"int24","name":"tickSpacing","type":"int24"}],"name":"enableFeeAmount","outputs":[],"stateMutability":"nonpayable","type":"function"},{"inputs":[{"internalType":"uint24","name":"","type":"uint24"}],"name":"feeAmountTickSpacing","outputs":[{"internalType":"int24","name":"","type":"int24"}],"stateMutability":"view","type":"function"},{"inputs":[],"name":"feeCollector","outputs":[{"internalType":"address","name":"","type":"address"}],"stateMutability":"view","type":"function"},{"inputs":[],"name":"feeProtocol","outputs":[{"internalType":"uint8","name":"","type":"uint8"}],"stateMutability":"view","type":"function"},{"inputs":[{"internalType":"address","name":"","type":"address"},{"internalType":"address","name":"","type":"address"},{"internalType":"uint24","name":"","type":"uint24"}],"name":"getPool","outputs":[{"internalType":"address","name":"","type":"address"}],"stateMutability":"view","type":"function"},{"inputs":[],"name":"owner","outputs":[{"internalType":"address","name":"","type":"address"}],"stateMutability":"view","type":"function"},{"inputs":[],"name":"parameters","outputs":[{"internalType":"address","name":"factory","type":"address"},{"internalType":"address","name":"token0","type":"address"},{"internalType":"address","name":"token1","type":"address"},{"internalType":"uint24","name":"fee","type":"uint24"},{"internalType":"int24","name":"tickSpacing","type":"int24"}],"stateMutability":"view","type":"function"},{"inputs":[{"internalType":"address","name":"_feeCollector","type":"address"}],"name":"setFeeCollector","outputs":[],"stateMutability":"nonpayable","type":"function"},{"inputs":[{"internalType":"uint8","name":"_feeProtocol","type":"uint8"}],"name":"setFeeProtocol","outputs":[],"stateMutability":"nonpayable","type":"function"},{"inputs":[{"internalType":"address","name":"_owner","type":"address"}],"name":"setOwner","outputs":[],"stateMutability":"nonpayable","type":"function"}],"evm":{"bytecode":{"linkReferences":{},"object":"60a03461024257601f620067f638819003918201601f19168301916001600160401b03831184841017610247578084926040948552833960209384918101031261024257516001600160a01b03811690819003610242573060805260018060a01b0319903382600354161760035560049182541617815560009033827fb532073b38c83145e3e5135377a08bf9aab55bc0fd7c1179cd4fb995d2a5159c8180a3606491828152600585528381205460020b610206578281526005855283812062ffffff19906001828254161790557fc66a3fdf07232cdd185febcc6579d408c241b47ae2f9907d84be655141eeaecc92600185858580a36101f48084528684205460020b6101c95780600a918552600589528785208285825416179055858580a3610bb88084528684205460020b6101c95780603c918552600589528785208285825416179055858580a3612710948584528684205460020b61018c575050600560c8959685845252848683209182541617905580a35161657890816200025e8239608051816102a80152f35b865162461bcd60e51b815291820188905260236024830152600080516020620067d683398151915260448301526213115160ea1b90820152608490fd5b865162461bcd60e51b815280830189905260236024820152600080516020620067d683398151915260448201526213115160ea1b81880152608490fd5b506213115160ea1b6084928585519362461bcd60e51b855284015260236024840152600080516020620067d68339815191526044840152820152fd5b600080fd5b634e487b7160e01b600052604160045260246000fdfe604060808152600490813610156200001657600080fd5b600091823560e01c90816313af40351462000b685781631698ee821462000afd57816322afcccb1462000ac357816341d1de971462000a7c57816343db87da146200092a578163527eb4bc14620009065781638903573014620008ae5781638a7c195f14620007015781638da5cb5b14620006d7578163a16712951462000269578163a42dce801462000210578163b613a141146200011b578163c415b95c14620000ef575063efde4e6414620000cc57600080fd5b34620000eb5781600319360112620000eb576020906007549051908152f35b5080fd5b8284346200011857806003193601126200011857506001600160a01b0360209254169051908152f35b80fd5b9050346200020c5760203660031901126200020c5780359060ff82168092036200020857620001576001600160a01b0360035416331462000c8e565b600a82116200019f575090817f7a8f5b6a3fe6312faf94330e829a331301dbd2ce6947e915be63bf67b473ed5f9260ff1960085416176008558151908082526020820152a180f35b608490602084519162461bcd60e51b8352820152602560248201527f4b6f7274616e61466163746f72793a2050524f544f434f4c5f4645455f544f4f60448201527f5f484947480000000000000000000000000000000000000000000000000000006064820152fd5b8380fd5b8280fd5b839034620000eb576020366003190112620000eb576200022f62000be7565b6001600160a01b0390620002498260035416331462000c8e565b1673ffffffffffffffffffffffffffffffffffffffff1982541617905580f35b838334620000eb576060366003190112620000eb576200028862000be7565b6200029262000c03565b6200029c62000c1a565b6001600160a01b0392837f00000000000000000000000000000000000000000000000000000000000000001630036200069457838316848216818114620006455785929111156200063e575b16908115620005fb5762ffffff811693848752602097600589528688205460020b15620005b85783885260068952818789209516948589528952868820868952895281878920541662000575578588526005895286882054978860020b9388519060a082019167ffffffffffffffff928181108482111762000562578791898f6080938f523083528201528a8d8201528b6060820152015273ffffffffffffffffffffffffffffffffffffffff199a308c855416178455878c6001541617600155887fffffffffffff000000000000000000000000000000000000000000000000000076ffffff00000000000000000000000000000000000000006002549360b81b79ffffff0000000000000000000000000000000000000000000000169460a01b16921617171760025588518b810190878252888b820152896060820152606081526080810191818310848411176200056257828c5281519020926158498083019160808301908582109111176200054f5762000cfa8439039083f580156200054357831698818055816001558160025585825260068b528882208783528b528882208883528b528882208a8282541617905586825260068b528882208683528b528882208883528b5289898320918254161790556007549168010000000000000000831015620005305750509186916200050c8460017f783cca1c0412dd0d695e784568c96da2e9c22ff989357a2e8b1d9b2b4e6b7118960160075562000c40565b819291549060031b918b831b921b191617905581519081528789820152a451908152f35b634e487b7160e01b825260419052602490fd5b508751903d90823e3d90fd5b634e487b7160e01b865260418752602486fd5b634e487b7160e01b855260418652602485fd5b865162461bcd60e51b8152908101899052601b60248201527f4b6f7274616e61466163746f72793a20504f4f4c5f45584953545300000000006044820152606490fd5b865162461bcd60e51b8152908101899052601f60248201527f4b6f7274616e61466163746f72793a204645455f4e4f545f454e41424c4544006044820152606490fd5b845162461bcd60e51b8152602081890152601c60248201527f4b6f7274616e61466163746f72793a205a45524f5f41444452455353000000006044820152606490fd5b92620002e8565b865162461bcd60e51b81526020818b0152602360248201527f4b6f7274616e61466163746f72793a204944454e544943414c5f41444452455360448201526253455360e81b6064820152608490fd5b845162461bcd60e51b8152602081890152600f60248201527f4e6f2064656c656761746563616c6c00000000000000000000000000000000006044820152606490fd5b505034620000eb5781600319360112620000eb576020906001600160a01b03600354169051908152f35b9050346200020c57816003193601126200020c576200071f62000c2d565b602435908160020b93848303620008aa57620007486001600160a01b0360035416331462000c8e565b62ffffff80921693620f42408510156200086857868613806200085c575b156200080e5784875260056020528187205460020b620007c05750838652600560205285209162ffffff1983541691161790557fc66a3fdf07232cdd185febcc6579d408c241b47ae2f9907d84be655141eeaecc8380a380f35b6020608492519162461bcd60e51b8352820152602360248201527f4b6f7274616e61466163746f72793a204645455f414c52454144595f454e414260448201526213115160ea1b6064820152fd5b6020608492519162461bcd60e51b83528201526024808201527f4b6f7274616e61466163746f72793a20494e56414c49445f5449434b5f53504160448201526343494e4760e01b6064820152fd5b50614000861262000766565b6020606492519162461bcd60e51b8352820152601d60248201527f4b6f7274616e61466163746f72793a204645455f544f4f5f4c415247450000006044820152fd5b8580fd5b505034620000eb5781600319360112620000eb5760a0916001600160a01b038091541691816001541691600254928251948552602085015282169083015262ffffff81841c16606083015260b81c60020b6080820152f35b505034620000eb5781600319360112620000eb5760209060ff600854169051908152f35b905082346200011857608036600319011262000118576200094a62000be7565b906200095562000c03565b91604435906fffffffffffffffffffffffffffffffff93848316809303620002085760643585811680910362000a7857879291856064926001600160a01b03948591620009a88360035416331462000c8e565b875198899788966385b6672960e01b8852168d87015260248601526044850152165af191821562000a6d5780948193620009ef575b50505081845193168352166020820152f35b919450915084903d861162000a64575b601f8201601f191685019067ffffffffffffffff82118683101762000a5157508591859183528101031262000118575062000a48602062000a408462000cdb565b930162000cdb565b848080620009dd565b634e487b7160e01b845260419052602483fd5b3d9150620009ff565b8551903d90823e3d90fd5b8480fd5b9050346200020c5760203660031901126200020c5735916007548310156200011857506001600160a01b0362000ab460209362000c40565b92905490519260031b1c168152f35b505034620000eb576020366003190112620000eb578060209262ffffff62000aea62000c2d565b16815260058452205460020b9051908152f35b505034620000eb576060366003190112620000eb576020918162000b2062000be7565b9162000b2b62000c03565b62000b3562000c1a565b906001600160a01b038095168352600687528484842091168352865262ffffff8383209116825285522054169051908152f35b833462000118576020366003190112620001185762000b8662000be7565b73ffffffffffffffffffffffffffffffffffffffff196003546001600160a01b038082169362000bb885331462000c8e565b1680937fb532073b38c83145e3e5135377a08bf9aab55bc0fd7c1179cd4fb995d2a5159c8680a3161760035580f35b600435906001600160a01b038216820362000bfe57565b600080fd5b602435906001600160a01b038216820362000bfe57565b6044359062ffffff8216820362000bfe57565b6004359062ffffff8216820362000bfe57565b60075481101562000c785760076000527fa66cc928b5edb82af9bd49922954155ab7b0942694bea4ce44661d9a8736c6880190600090565b634e487b7160e01b600052603260045260246000fd5b1562000c9657565b60405162461bcd60e51b815260206004820152601960248201527f4b6f7274616e61466163746f72793a204e4f545f4f574e4552000000000000006044820152606490fd5b51906fffffffffffffffffffffffffffffffff8216820362000bfe5756fe61016080604052346200032e5760017f9b779b17422d0df92223018b32b4d1fa46e071723d6817e2486d003becc55f005530608052630890357360e41b815260a090600482828281335afa80156200032257600080818295839462000266575b5061010095865260e05260c0528452610120908082528060020b9081156200025157620000a4620000978284620d89e7190562000348565b9183620d89e80562000348565b60020b9060020b9003627fffff1990627fffff8113828212176200023c5760020b908114600019831416620002275762ffffff91900581166001018181116200022757169182156200021257506101409160018060801b03048252604051926154d2948562000377863960805185818161056a0152818161071b015281816111110152818161164c015281816119470152611b360152518481816104ea0152610973015260c051848181610bb20152818161104e0152818161150901528181612d9201528181612fdc01526133bb015260e05184818161046801528181610ad201528181610f890152818161147a01528181612c4a015261344c0152518381816104240152818161115301528181611f0c01526124010152518281816104a401528181611d3101528181611e2f0152818161271b0152818161284001528181612917015281816129820152818161393f015261396e015251818181610cde015281816137ad01526138930152f35b601290634e487b7160e01b6000525260246000fd5b601184634e487b7160e01b6000525260246000fd5b601185634e487b7160e01b6000525260246000fd5b601284634e487b7160e01b6000525260246000fd5b935050509250833d85116200031a575b601f8101601f191682016001600160401b03811183821017620003075785918391604052810103126200030357620002ae8162000333565b620002bc6020830162000333565b90620002cb6040840162000333565b9060608401519362ffffff85168503620002ff5760800151958660020b8703620002fc57509190929492386200005f565b80fd5b8680fd5b8280fd5b634e487b7160e01b855260418452602485fd5b503d62000276565b6040513d6000823e3d90fd5b600080fd5b51906001600160a01b03821682036200032e57565b9060020b9060020b02908160020b9182036200036057565b634e487b7160e01b600052601160045260246000fdfe608080604052600436101561001357600080fd5b600090813560e01c9081630dfe168114612fbd57508063128acb0814611aca5780631a68650214611aa35780631ad8b03b14611a71578063252c09d714611a1457806332148f67146118fa5780633850c7bd1461188c5780633c8a7d8d146115c957806346141319146115ab578063490e6cbc146110aa5780634f1eb3d814610d9a578063514ea4bf14610d385780635339c29614610d0257806370cf754a14610cbe57806385b66729146108fa578063883bdbfd146106ba578063a34123a71461050e578063c45a0155146104ca578063d0c93a7c1461048c578063d21220a714610448578063ddca3f4314610408578063f3058399146103ea578063f30dba93146103505763f637731d1461012957600080fd5b3461034d5760208060031936011261034957610143613000565b6001600160a01b0391828454166103065791817f98636036cb66a9c19a37435efc1e90142190214e8abeb821bdba3f2990dd4c95937b010000000000000000000000000000000000000000000000000000007fffffff0000ffffffffffffffffffffffffffffffffffffffffffffffffffffff7901000000000000000000000000000000000000000000000000006101dc604097615137565b9563ffffffff4216600160608a516101f3816130e6565b8381528d898201528d8c8201520152600160f81b906affffffffffffff000000008c881b16177effffffffffffffffffffffffffffffffffffffff00000000000000000000008c60581b16171760085587519561024f876130a0565b1695868652600160c08260020b9788888201528c8b8201528260608201528260808201528c60a0820152015262ffffff60a01b877fffffffffff00000000000000000000000000000000000000000000000000000060005416179160a01b161761ffff60b81b8a60b81b16171716176000557fffff00ffffffffffffffffffffffffffffffffffffffffffffffffffffffffff8654168655600160f01b60ff60f01b1960005416176000558351928352820152a180f35b6064906040519062461bcd60e51b825280600483015260248201527f4b6f7274616e61506f6f6c3a20414c52454144595f494e495449414c495a45446044820152fd5b5080fd5b80fd5b503461034d57602036600319011261034d57604061010091610370613064565b60020b81526005602052208054906001810154906003600282015491015491604051936001600160801b038116855260801d600f0b6020850152604084015260608301528060060b60808301526001600160a01b038160381c1660a083015263ffffffff8160d81c1660c083015260f81c151560e0820152f35b503461034d578060031936011261034d576020600154604051908152f35b503461034d578060031936011261034d57602060405162ffffff7f0000000000000000000000000000000000000000000000000000000000000000168152f35b503461034d578060031936011261034d5760206040516001600160a01b037f0000000000000000000000000000000000000000000000000000000000000000168152f35b503461034d578060031936011261034d5760206040517f000000000000000000000000000000000000000000000000000000000000000060020b8152f35b503461034d578060031936011261034d5760206040516001600160a01b037f0000000000000000000000000000000000000000000000000000000000000000168152f35b503461034d57606036600319011261034d576105e160409161052e613064565b90610537613044565b61053f61308a565b92825461055160ff8260f01c16613124565b60ff60f01b199283821685556105916001600160a01b037f0000000000000000000000000000000000000000000000000000000000000000163014613170565b6105db6105d26001600160801b03809816936bff00ffffffffffffffffffff6105c16105bc8761477d565b61328f565b9160a01c1660020b90848733613488565b999192906132b0565b986132b0565b9688158015906106b1575b610648575b50508751918252866020830152858883015260020b9160020b907f0c396cd989a39f4459b5fa1aed6a9a8dcdbc45908acfd67e028cd568da98982c60603392a4815416600160f01b17905582519182526020820152f35b61068160036106aa9301918a8161066581865493168284166132c1565b16906001600160801b03191617908184558a169060801c6132c1565b81546001600160801b031660809190911b6fffffffffffffffffffffffffffffffff1916179055565b38806105f1565b508715156105ec565b503461034d57602036600319011261034d5767ffffffffffffffff80600435116103495736602360043501121561034957600435600401351161034d573660246004356004013560051b60043501011161034d576107426001600160a01b037f0000000000000000000000000000000000000000000000000000000000000000163014613170565b80546001600160801b03600454169061ffff90610765828260c81c16151561422b565b6107746004356004013561450f565b916107826040519384613102565b600480350135808452601f199490859061079b9061450f565b013660208601376107b16004356004013561450f565b946107bf6040519687613102565b6004803501358087526107d19061450f565b013660208701378591808460b81c16908460a01c60020b935b6004356004013581106108845788878960405192839260408401604085528151809152602060608601920190835b818110610868575050508381036020850152602080845192838152019301915b818110610846575050500390f35b82516001600160a01b0316845285945060209384019390920191600101610838565b825160060b845287965060209384019390920191600101610818565b600435600582901b016024013563ffffffff811690036108f6576108f1906108c6838860c81c1686868960248660051b60043501013563ffffffff4216614391565b6001600160a01b036108d8848d614527565b911690526108e6828a614527565b9060060b9052613dfd565b6107ea565b8880fd5b503461034d57606036600319011261034d57610914613000565b602435916001600160801b0380841692838503610cb95761093361308a565b9383549261094660ff8560f01c16613124565b60ff60f01b199384168555604051638da5cb5b60e01b81526001600160a01b0392602092909183816004817f000000000000000000000000000000000000000000000000000000000000000089165afa908115610c05579085918991610c7b575b50163303610c365760035498818a16809311600014610c30575081985b89988160801c908184821611600014610c285750925b839a83811680610b51575b5050505080821680610a61575b5050604080516001600160801b0389811682528a166020820152949093169333937f596b573906218d3411850b26a6b437d6c4522fdb43d2d2386263f86d50b8b15193509150a3815416600160f01b179055604080516001600160801b03928316815292909116602083015290f35b600354928360801c809214610b3f575b50610a858a6001600160801b03199261325e565b60801b1691161760035560405163a9059cbb60e01b8152818180610acc8b88600484019092916001600160801b036020916001600160a01b03604085019616845216910152565b038189877f0000000000000000000000000000000000000000000000000000000000000000165af18015610b3457610b06575b80806109f2565b81610b2592903d10610b2d575b610b1d8183613102565b810190613277565b503880610aff565b503d610b13565b6040513d88823e3d90fd5b610b4a919a5061338a565b9838610a71565b8214610c10575b50610b648a849261325e565b166fffffffffffffffffffffffffffffffff19919091161760035560405163a9059cbb60e01b81526001600160a01b03861660048201526001600160801b038916602482015283816044818b7f00000000000000000000000000000000000000000000000000000000000000008a165af18015610c0557610be8575b8080806109e5565b610bfe90843d8611610b2d57610b1d8183613102565b5038610be0565b6040513d8a823e3d90fd5b83919a50610c20610b649161338a565b9a9150610b58565b9050926109da565b986109c4565b60405162461bcd60e51b815260048101849052601e60248201527f4b6f7274616e61506f6f6c3a204e4f545f464143544f52595f4f574e455200006044820152606490fd5b809250858092503d8311610cb2575b610c948183613102565b81010312610cae57518481168103610cae578490386109a7565b8780fd5b503d610c8a565b600080fd5b503461034d578060031936011261034d5760206040516001600160801b037f0000000000000000000000000000000000000000000000000000000000000000168152f35b503461034d57602036600319011261034d576004358060010b809103610349578160409160209352600683522054604051908152f35b503461034d57602036600319011261034d57604060a09160043581526007602052206001600160801b039081815416916001820154916003600282015491015492604051948552602085015260408401528116606083015260801c6080820152f35b503461034d5760a036600319011261034d57610db4613000565b90610dbd613044565b90610dc6613054565b91610dcf613074565b936001600160801b036084351660843503610cb95760ff60f01b198354610dfb60ff8260f01c16613124565b1683556040513360601b6bffffffffffffffffffffffff19166020820190815260e884811b603484015286901b603783015290610e4581603a81015b03601f198101835282613102565b5190208352600760205260036040842001938454956001600160801b0387166001600160801b038216116000146110a457506001600160801b038616945b8660801c806001600160801b03608435161160001461109a57965b6001600160801b0387169081610fe0575b506001600160801b0388169182610f37575b506001600160a01b03604051941684526020840152604083015260020b9160020b907f70935338e69775456a85ddef226c395fb668b63fa0115f5f20610b388e6ca9c060603392a4805460ff60f01b1916600160f01b179055604080516001600160801b03928316815292909116602083015290f35b806106818a610f49935460801c61325e565b60405163a9059cbb60e01b81526001600160a01b03851660048201526001600160801b0389166024820152602081806044810103818a6001600160a01b037f0000000000000000000000000000000000000000000000000000000000000000165af18015610fd55715610ec157610fce9060203d602011610b2d57610b1d8183613102565b5038610ec1565b6040513d89823e3d90fd5b6001600160801b03610ff48982841661325e565b6fffffffffffffffffffffffffffffffff19909216911617825560405163a9059cbb60e01b81526001600160a01b03851660048201526001600160801b0388166024820152602081806044810103818a6001600160a01b037f0000000000000000000000000000000000000000000000000000000000000000165af18015610fd55715610eaf576110939060203d602011610b2d57610b1d8183613102565b5038610eaf565b5060843596610e9e565b94610e83565b503461034d57608036600319011261034d576110c4613000565b60643567ffffffffffffffff811161143e576110e4903690600401613016565b908354926110f760ff8560f01c16613124565b60ff60f01b1980941685556001600160a01b0391611138837f0000000000000000000000000000000000000000000000000000000000000000163014613170565b6001600160801b0390816004541690811561155a5762ffffff7f0000000000000000000000000000000000000000000000000000000000000000169561118c61118388602435613e0c565b97604435613e0c565b896111956133a0565b9361119e613431565b936024356114d6575b604435611442575b333b1561143e57838b6111d885936040519586948594632f1cbf1f60e01b865260048601613208565b038183335af180156114335761141b575b50506111f36133a0565b9081611207611200613431565b9a8661323b565b116113d65761121789918461323b565b116113915761122f9261122991613331565b96613331565b9185611313575b8261128f575b505060405193602435855260443560208601526040850152606084015216907fbdbdb71d7860376ba52b25a5028beea23581364a40522f6bcfb86bb1f2dca63360803392a3815416600160f01b17815580f35b6112ce916112c16112c692600f8b5460ec1c16801560001461130357508a905b80821690816112d8575b505085613331565b613c10565b60025461323b565b600255388061123c565b600354916112f26001600160801b0319918460801c6132c1565b60801b1691161760035538806112b9565b61130d9087613311565b906112af565b81600f895460e81c168015600014611378575061134261134a916112c18b5b85811680611352575b508a613331565b60015461323b565b600155611236565b86611362600354928284166132c1565b16906001600160801b031916176003553861133b565b61134a916112c161138c611342938b613311565b611332565b60405162461bcd60e51b815260206004820152600f60248201527f4b6f7274616e61506f6f6c3a20463100000000000000000000000000000000006044820152606490fd5b60405162461bcd60e51b815260206004820152600f60248201527f4b6f7274616e61506f6f6c3a20463000000000000000000000000000000000006044820152606490fd5b611424906130d2565b61142f5789386111e9565b8980fd5b6040513d84823e3d90fd5b8280fd5b60405163a9059cbb60e01b81526001600160a01b038a16600482015260448035602483015260209082908d90829088908290810103927f0000000000000000000000000000000000000000000000000000000000000000165af180156114cb576114ad575b506111af565b6114c49060203d8111610b2d57610b1d8183613102565b50386114a7565b6040513d86823e3d90fd5b60405163a9059cbb60e01b81526001600160a01b038a16600482015260248035908201526020818c8187816044810103927f0000000000000000000000000000000000000000000000000000000000000000165af180156114cb5761153c575b506111a7565b6115539060203d8111610b2d57610b1d8183613102565b5038611536565b60405162461bcd60e51b815260206004820152602360248201527f4b6f7274616e61506f6f6c3a20494e53554646494349454e545f4c495155494460448201526249545960e81b6064820152608490fd5b503461034d578060031936011261034d576020600254604051908152f35b503461034d5760a036600319011261034d576115e3613000565b6115eb613044565b906115f4613054565b926115fd613074565b9260843567ffffffffffffffff811161143e5761161e903690600401613016565b9390946116b7845461163560ff8260f01c16613124565b60ff60f01b19811686556116736001600160a01b037f0000000000000000000000000000000000000000000000000000000000000000163014613170565b6116876001600160801b03841615156131bc565b6bff00ffffffffffffffffffff6116a66001600160801b03851661477d565b9160a01c1660020b90898686613488565b96915096859086928961187c575b8861186c575b333b15610cae576040516360e4b91b60e11b8152918891839182916116f5918d8f60048601613208565b038183335af18015610fd557908791611854575b505087806117f2575b505085611790575b507f7a53080ba414158be7ec69b987b5fb7d07dee101fe85488f0853ae16239d0bde60806001600160a01b036040996001600160801b038b5195338752166020860152898b86015288606086015260020b9560020b941692a4805460ff60f01b1916600160f01b17905582519182526020820152f35b8561179a9161323b565b6117a2613431565b106117ad573861171a565b60405162461bcd60e51b815260206004820152600f60248201527f4b6f7274616e61506f6f6c3a204d3100000000000000000000000000000000006044820152606490fd5b6117fb9161323b565b6118036133a0565b1061180f573887611712565b60405162461bcd60e51b815260206004820152600f60248201527f4b6f7274616e61506f6f6c3a204d3000000000000000000000000000000000006044820152606490fd5b61185d906130d2565b611868578538611709565b8580fd5b9250611876613431565b926116cb565b91506118866133a0565b916116c5565b503461034d578060031936011261034d5760e0905460ff604051916001600160a01b03811683528060a01c60020b602084015261ffff808260b81c166040850152808260c81c1660608501528160d81c166080840152818160e81c1660a084015260f01c16151560c0820152f35b503461034d57602036600319011261034d5761ffff600435818116810361143e5761197982845461193060ff8260f01c16613124565b60ff60f01b198116865561196e6001600160a01b037f0000000000000000000000000000000000000000000000000000000000000000163014613170565b60d81c16918261425b565b918216908354918082036119dd575b50507fff00ff0000ffffffffffffffffffffffffffffffffffffffffffffffffffffff1660d89190911b7cffff0000000000000000000000000000000000000000000000000000001617600160f01b17815580f35b7fac49e518f90a358f652e4400164f05a5d8f7e35e7747279bc3a93dbf584e125a9160409182519182526020820152a13880611988565b503461034d57602036600319011261034d5760043561ffff81101561034957608090600801546040519063ffffffff811682528060201c60060b60208301526001600160a01b038160581c16604083015260f81c15156060820152f35b503461034d578060031936011261034d57600354604080516001600160801b038316815260809290921c602083015290f35b503461034d578060031936011261034d5760206001600160801b0360045416604051908152f35b503461034d5760a036600319011261034d57611ae4613000565b9060243515156024350361034d576001600160a01b03606435166064350361034d5760843567ffffffffffffffff811161034957611b26903690600401613016565b611b5d6001600160a01b039492947f0000000000000000000000000000000000000000000000000000000000000000163014613170565b611b6a60443515156131bc565b60405191611b77836130a0565b83546001600160a01b03811684528060a01c60020b602085015261ffff8160b81c16604085015261ffff8160c81c16606085015261ffff8160d81c16608085015260ff8160e81c1660a0850152611bdb60ff8260f01c1615158060c0870152613124565b60243515612f77576001600160a01b038451166001600160a01b03606435161080612f5e575b15612f1a5760ff60f01b191684556004546001600160801b03169460243515612f0957600f60a085015116925b604051938460c081011067ffffffffffffffff60c087011117612ef55760ff9060c0860160405288865263ffffffff421660208701521660408501528560608501528560808501528560a08501526001600160a01b0385511696602086015160020b602435600014612eec57600154905b60405199611cac8b6130a0565b6044358b528960208c015260408b015260608a015260808901528660a089015260c08801525b8651151580612eca575b156129b257604051611ced816130a0565b8681528660208201528660408201528660608201528660808201528660a08201528660c08201526001600160a01b036040890151168152606088015160020b611d567f000000000000000000000000000000000000000000000000000000000000000082614af7565b90888112908161297b575b50612961575b6024351561276657600160ff82161b60001981011161275257611d94600160ff83161b600019810161323b565b611db48260020b60081d60010b60010b6000526006602052604060002090565b54168015801592919061271457611e66918a9180600160801b811015612705575b50806801000000000000000060029210156126f2575b6401000000008110156126df575b620100008110156126cc575b6101008110156126b9575b60108110156126a6575b6004811015612694575b1015612684575b60ff7f0000000000000000000000000000000000000000000000000000000000000000921660020b9060020b60081d60081b60020b17614b5a565b905b1515604083015260020b60208201819052620d89e7199081811215612665575060208201525b6001600160a01b03611ea6602083015160020b614bef565b168060608301526001600160a01b0360408a01511690602435600014612652576001600160a01b036064351681105b1561264c5750606435905b6001600160801b0360c08b0151168a518a8081908284121560001461257e5750611f3762ffffff611f307f00000000000000000000000000000000000000000000000000000000000000006149b8565b1684613ba6565b936001600160a01b038716861061256d57611f538187896148af565b945b8581106124f9575086955b6001600160a01b038716976001600160a01b03811696838a8914998985101560001461249b5784908b80612491575b15612482575050505b97889581612478575b5015612469575050505b925b8c831280612458575b612447575b8c831215908161243c575b50156123fa57611fd591613331565b60c085015260a08401526080830152604089015286604435136000146123a357612008608082015160c08301519061323b565b600160ff1b811015610cae5761201f9089516132f8565b8852602088015160a082015190600160ff1b8210156108f65790612042916132f8565b60208901525b60ff6040860151168061235d575b506001600160801b0360c08901511680612337575b506001600160a01b036040890151166001600160a01b036060830151168114600014612308575060408101516120ef575b602435156120e3576020015160020b60001901627fffff198112627fffff8213176120cf575b60020b6060880152611cd2565b634e487b7160e01b87526011600452602487fd5b6020015160020b6120c2565b60a0850151156122b2575b6001600160801b0361227f602083015160020b6024356000146122a65761226760808c0151915b8c602435156122985750612230600254915b63ffffffff8c6001600160a01b036060820151169461216b8360206080850151940151169460020b6000526005602052604060002090565b9761217c60018a0191825490613331565b905561218e6002890191825490613331565b90556121fb6121af60038901966001600160a01b03885460381c169061430a565b86547fffffffffff0000000000000000000000000000000000000000ffffffffffffff1660389190911b7affffffffffffffffffffffffffffffffffffffff0000000000000016178655565b61220e85549160069083820b910b6142e5565b66ffffffffffffff169066ffffffffffffff19161780855560d81c16906140f1565b7fff00000000ffffffffffffffffffffffffffffffffffffffffffffffffffffff63ffffffff60d81b83549260d81b169116179055565b5460801d60243561228a575b8260c08c015116613e92565b1660c089015261209c565b6122939061328f565b612273565b608061223091015191612133565b61226760015491612121565b6001600160a01b036122eb63ffffffff602088015116602089015160020b61ffff60408b015116906001600160801b038a511692614336565b91909116606087015260060b6080860152600160a08601526120fa565b90516001600160a01b03168103612320575b50611cd2565b61232990615137565b60020b60608801523861231a565b6123486123529160c0840151613c10565b60808a015161323b565b60808901523861206b565b6123976001600160801b03612377819360c0860151613311565b6123858160c0870151613331565b60c0860152168260a08c0151166132c1565b1660a089015238612056565b60a0810151600160ff1b811015610cae576123bf9089516132dc565b885260208801516123d9608083015160c08401519061323b565b90600160ff1b8210156108f657906123f0916132dc565b6020890152612048565b50506124377f000000000000000000000000000000000000000000000000000000000000000062ffffff8061242e836149b8565b16911684613e76565b611fd5565b905085141538611fc6565b9250612452826132b0565b92611fbb565b50612462836132b0565b8411611fb6565b612473935061492b565b611fab565b8088129150611fa1565b61248c93506148af565b611f98565b50888a1215611f8f565b9392505088806124ef575b156124de575b978895816124d4575b50156124c5575050505b92611fad565b6124cf9350614875565b6124bf565b80881291506124b5565b506124ea838383614963565b6124ac565b50858712156124a6565b909192508515612569578115612569578d9291906001600160a01b038816871061252e57612528908288614a2f565b95611f60565b6001600160a01b0390612555908383821161255b5761254f9160601b613311565b8861323b565b16612528565b61256491613d76565b61254f565b8d80fd5b612578818888614963565b94611f55565b9390506001600160a01b038616851061263b5761259c81868861492b565b905b816125a8856132b0565b106125b4578695611f60565b9091506125c0836132b0565b8515612569578115612569578d6001600160a01b03881687106126285750816001600160a01b03821161261a576125f691613e56565b8086111561256957906001600160a01b036126138f949388613331565b1695611f60565b61262391613e56565b6125f6565b9291906126369082886149ce565b612528565b612646818787614875565b9061259e565b90611ee0565b6001600160a01b03606435168111611ed5565b9050620d89e8809113612679575b50611e8e565b602082015238612673565b9061268e90614bdd565b90611e2b565b6126a090821c93614bcb565b92611e24565b6126b39060041c93614bb9565b92611e1a565b6126c69060081c93614ba7565b92611e10565b6126d99060101c93614b95565b92611e05565b6126ec9060201c93614b83565b92611df9565b6126ff9060401c93614b71565b92611deb565b60809350831c90506002611dd5565b5061274c907f00000000000000000000000000000000000000000000000000000000000000009060020b60081d60081b60020b614b5a565b90611e68565b634e487b7160e01b88526011600452602488fd5b627fffff600282900b600101908113627fffff199091121761275257600160ff818360020b01161b8060001981011161294d5760001901196127c460018360020b0160020b60081d60010b60010b6000526006602052604060002090565b54168015801592919061290c5761274c918a91806001600160801b038116156128fd575b508067ffffffffffffffff60019216156128ea575b63ffffffff8116156128d7575b61ffff8116156128c4575b60ff8116156128b1575b600f81161561289e575b600381161561288b575b161561287b575b600160ff7f0000000000000000000000000000000000000000000000000000000000000000931660020b9160020b0160020b60081d60081b60020b17614b5a565b9061288590614bdd565b9061283a565b6128989060021c93614bcb565b92612833565b6128ab9060041c93614bb9565b92612829565b6128be9060081c93614ba7565b9261281f565b6128d19060101c93614b95565b92612815565b6128e49060201c93614b83565b9261280a565b6128f79060401c93614b71565b926127fd565b60809350831c905060016127e8565b5061274c9060ff60017f00000000000000000000000000000000000000000000000000000000000000009260020b0160020b60081d60081b60020b17614b5a565b634e487b7160e01b89526011600452602489fd5b627fffff198160020b146127525760020b60001901611d67565b6129a791507f000000000000000000000000000000000000000000000000000000000000000090614ae5565b60020b151538611d61565b85876001600160801b038688606084015160020b602082015160020b80911415600014612e8e578161ffff6040612a0e940151169163ffffffff60208601511690868651169161ffff6080816060870151169501511694613fae565b62ffffff60a01b6001600160a01b036040870151169261ffff60b81b6060880151937fffffffffff0000000000000000000000000000000000000000000000000000007affff000000000000000000000000000000000000000000000000008b549260c81b169116179160b81b16179160a01b16171784555b51166001600160801b0360c083015116809103612e77575b5060243515612e2a5760808101516001556001600160801b0360a08201511680612dfd575b505b8160443513602435151514600014612de457612ae581516044356132f8565b936020820151935b60243515612ca757838512612bff575b612b056133a0565b91333b15612bfb576040516304c455e960e51b815291859183918291612b3191908a8c60048601613208565b038183335af180156114cb57612be7575b50604095612b6a612b5b876001600160a01b039461323b565b612b636133a0565b101561333e565b8187840151169260606001600160801b0360c08301511691015160020b90885194888652876020870152898601526060850152608084015216907fc42079f94a6350d7e6235f29174924f928cc2ac818eb64fed8004e115fbcca6760a03392a3805460ff60f01b1916600160f01b17905582519182526020820152f35b612bf184916130d2565b61143e5786612b42565b8480fd5b612c3d6020612c0d876132b0565b60405163a9059cbb60e01b81526001600160a01b038b166004820152602481019190915291829081906044820190565b0381886001600160a01b037f0000000000000000000000000000000000000000000000000000000000000000165af18015612c9c57612c7d575b50612afd565b612c959060203d602011610b2d57610b1d8183613102565b5087612c77565b6040513d87823e3d90fd5b838697929712612d47575b612cba613431565b96333b15612bfb576040516304c455e960e51b815291859183918291612ce691908a8c60048601613208565b038183335af180156114cb57968591604098612d21575b50612d146001600160a01b039392612d1c9261323b565b612b63613431565b612b6a565b6001600160a01b039392612d1c9296612d3c612d14936130d2565b969250929350612cfd565b612d856020612d55886132b0565b60405163a9059cbb60e01b81526001600160a01b0386166004820152602481019190915291829081906044820190565b0381886001600160a01b037f0000000000000000000000000000000000000000000000000000000000000000165af18015612c9c57612dc5575b50612cb2565b612ddd9060203d602011610b2d57610b1d8183613102565b5087612dbf565b602081015193612df782516044356132f8565b93612aed565b6001600160801b03612e14600354928284166132c1565b16906001600160801b0319161760035585612ac4565b60808101516002556001600160801b0360a08201511680612e4c575b50612ac6565b6001600160801b0360035491612e678219918460801c6132c1565b60801b1691161760035585612e46565b6001600160801b0319600454161760045585612a9f565b50506001600160a01b036040840151167fffffffffffffffffffffffff0000000000000000000000000000000000000000855416178455612a87565b506001600160a01b03606435166001600160a01b036040890151161415611cdc565b60025490611c9f565b634e487b7160e01b87526041600452602487fd5b600f60a085015160041c1692611c2e565b606460405162461bcd60e51b815260206004820152602060248201527f4b6f7274616e61506f6f6c3a20494e56414c49445f50524943455f4c494d49546044820152fd5b506401000276a36001600160a01b036064351611611c01565b6001600160a01b038451166001600160a01b0360643516118015611c01575073fffd8963efd1fc6a506488495d951d5263988d266001600160a01b036064351610611c01565b9050346103495781600319360112610349576020906001600160a01b037f0000000000000000000000000000000000000000000000000000000000000000168152f35b600435906001600160a01b0382168203610cb957565b9181601f84011215610cb95782359167ffffffffffffffff8311610cb95760208381860195010111610cb957565b602435908160020b8203610cb957565b604435908160020b8203610cb957565b600435908160020b8203610cb957565b606435906001600160801b0382168203610cb957565b604435906001600160801b0382168203610cb957565b60e0810190811067ffffffffffffffff8211176130bc57604052565b634e487b7160e01b600052604160045260246000fd5b67ffffffffffffffff81116130bc57604052565b6080810190811067ffffffffffffffff8211176130bc57604052565b90601f8019910116810190811067ffffffffffffffff8211176130bc57604052565b1561312b57565b60405162461bcd60e51b815260206004820152601360248201527f4b6f7274616e61506f6f6c3a204c4f434b4544000000000000000000000000006044820152606490fd5b1561317757565b60405162461bcd60e51b815260206004820152600f60248201527f4e6f2064656c656761746563616c6c00000000000000000000000000000000006044820152606490fd5b156131c357565b60405162461bcd60e51b815260206004820152601860248201527f4b6f7274616e61506f6f6c3a205a45524f5f414d4f554e5400000000000000006044820152606490fd5b928492608095928552602085015260606040850152816060850152848401376000828201840152601f01601f1916010190565b9190820180921161324857565b634e487b7160e01b600052601160045260246000fd5b6001600160801b03918216908216039190821161324857565b90816020910312610cb957518015158103610cb95790565b600f0b6f7fffffffffffffffffffffffffffffff1981146132485760000390565b600160ff1b81146132485760000390565b9190916001600160801b038080941691160191821161324857565b9190916000838201938412911290801582169115161761324857565b8181039291600013801582851316918412161761324857565b811561331b570490565b634e487b7160e01b600052601260045260246000fd5b9190820391821161324857565b1561334557565b60405162461bcd60e51b815260206004820152601060248201527f4b6f7274616e61506f6f6c3a20494941000000000000000000000000000000006044820152606490fd5b6001600160801b03168015613248576000190190565b6040516370a0823160e01b81523060048201526020816024817f00000000000000000000000000000000000000000000000000000000000000006001600160a01b03165afa908115613425576000916133f7575090565b906020823d821161341d575b8161341060209383613102565b8101031261034d57505190565b3d9150613403565b6040513d6000823e3d90fd5b6040516370a0823160e01b81523060048201526020816024817f00000000000000000000000000000000000000000000000000000000000000006001600160a01b03165afa908115613425576000916133f7575090565b9194929093946000956000936040516134d481610e37868b60208401968791601a93916bffffffffffffffffffffffff199060601b16835260e81b601483015260e81b60178201520190565b51902060005260076020526040600020966001546002549285600f0b61374d575b61357961350f8a60020b6000526005602052604060002090565b9261356e61352a8860020b6000526005602052604060002090565b9360020b6135738d60020b82129586156000146137285761356e600260018a0154990154935b8c60020b13988960001461370c576002600184015493015496613331565b613331565b97613331565b8a546001600160801b03958682169160008a600f0b126000146136fa57876135ab6135a38c61328f565b82168561325e565b8b600f0b6136e3575b50505060018d018d886135d1856135cc855487613331565b613ca2565b16896135e660028401966135cc88548a613331565b169181158015906136da575b61369f575b5050505555156136245750505061361b613615613621949596614bef565b91614bef565b9061479b565b91565b9195945090156136835750816136619161365c613656836136506001600160a01b036000541694614bef565b8461479b565b97614bef565b6148e9565b9261367160045492828416613e92565b16906001600160801b03191617600455565b9461369c93945061361561369691614bef565b906148e9565b90565b6136d29260036106819201928c6136ba8554928284166132c1565b16906001600160801b0319161780845560801c6132c1565b38808f6135f7565b508215156135f2565b16906001600160801b031916178d553887816135b4565b876137078b8216856132c1565b6135ab565b611229600261371f60018601548a613331565b9401548d613331565b61356e613747600261373e60018c015489613331565b9a01548c613331565b93613550565b61377b6000546001600160801b03600454169061ffff8160b81c169060a01c60020b63ffffffff4216614336565b908a60020b600052600560205260406000206001600160801b038154166137a28a82613e92565b916001600160801b037f0000000000000000000000000000000000000000000000000000000000000000166001600160801b03841611613a8e578115613ab8575b8a600f0b6001600160801b0384166001600160801b03198354161760801d600f0b016f7fffffffffffffffffffffffffffffff1981126f7fffffffffffffffffffffffffffffff821317613248576138466001600160801b031991600f0b614aa6565b60801b166001600160801b0384161790558860020b60005260056020526040600020906001600160801b03825416936001600160801b036138878d87613e92565b16956001600160801b037f0000000000000000000000000000000000000000000000000000000000000000168711613a8e578515613998575b50508a600f0b856001600160801b03198454161760801d600f0b03916f7fffffffffffffffffffffffffffffff83136f7fffffffffffffffffffffffffffffff19841217613248576001600160801b039261391f841991600f0b614aa6565b60801b16861790551591161503613969575b15901503156134f5576139647f000000000000000000000000000000000000000000000000000000000000000086614b1a565b6134f5565b6139937f00000000000000000000000000000000000000000000000000000000000000008c614b1a565b613931565b8760020b8c60020b13156139df575b50506003820180547effffffffffffffffffffffffffffffffffffffffffffffffffffffffffffff16600160f81b17905538806138c0565b613a87918960018601558b6002860155613a44600386019283907fffffffffff0000000000000000000000000000000000000000ffffffffffffff7affffffffffffffffffffffffffffffffffffffff0000000000000083549260381b169116179055565b81547fff00000000ffffffffffffffffffffffffffffffffffffffff000000000000001666ffffffffffffff91909116174260d81b63ffffffff60d81b16179055565b38806139a7565b60405162461bcd60e51b81526020600482015260026024820152614c4f60f01b6044820152606490fd5b8d8660020b9060020b1315613afc575b6003810180547effffffffffffffffffffffffffffffffffffffffffffffffffffffffffffff16600160f81b1790556137e3565b866001820155886002820155613ba160038201613b608782907fffffffffff0000000000000000000000000000000000000000ffffffffffffff7affffffffffffffffffffffffffffffffffffffff0000000000000083549260381b169116179055565b80547fff00000000ffffffffffffffffffffffffffffffffffffffff000000000000001666ffffffffffffff8716174260d81b63ffffffff60d81b16179055565b613ac8565b9060001981830981830291828083109203918083039214613c0457620f42409082821115610cb9577fde8f6cefed634549b62c77574f722e1ac57e23f24d8fd5cb790fb65668c26139940990828211900360fa1b910360061c170290565b5050620f424091500490565b90600160801b90600019828409928060801b92838086109503948086039514613c945784831115610cb957829109600182190182168092046001613c578482811901613311565b0190600280826003021880830282030280830282030280830282030280830282030280830282030280920290030294848311900302920304170290565b505080925015610cb9570490565b6000198282099082810292838084109303928084039314613cde57600160801b9183831115610cb9570990828211900360801b910360801c1790565b50505060801c90565b6000196001820991818084109303928084039314613d255782811115610cb9578060018309600182190182168092046001613c578482811901613311565b80925015610cb9570490565b6000198282099082810292838084109303928084039314613d6d57600160601b9183831115610cb9570990828211900360a01b910360601c1790565b50505060601c90565b90600160601b90600019828409928060601b92838086109503948086039514613c945784831115610cb957829109600182190182168092046001613c578482811901613311565b916000198284099282810292838086109503948086039514613c945784831115610cb957829109600182190182168092046001613c578482811901613311565b60001981146132485760010190565b9190620f424090613e1d8185613ba6565b9309613e2557565b90600019811015610cb95761369c90613dfd565b9190613e458184613ce7565b92811561331b5760019009613e2557565b9190613e628184613d76565b92811561331b57600160601b9009613e2557565b929190613e84828286613dbd565b93821561331b5709613e2557565b9190600081600f0b12600014613ef857613eae613ec19161328f565b6001600160801b0391829182168561325e565b93169083161015613ece57565b60405162461bcd60e51b81526020600482015260026024820152614c5360f01b6044820152606490fd5b613f0f906001600160801b039182918216856132c1565b931690831610613f1b57565b60405162461bcd60e51b81526020600482015260026024820152614c4160f01b6044820152606490fd5b90604051613f52816130e6565b606081935463ffffffff811683528060201c60060b60208401526001600160a01b038160581c16604084015260f81c1515910152565b90600161ffff8093160191821161324857565b9061ffff80911691821561331b57160690565b9495939192909261ffff938487101561407f57613fcd87600801613f45565b9763ffffffff94858a5116868416146140c157868116878316118061409f575b98614018959493926140129261400d9b6000146140955750998a91613f88565b613f9b565b9861415f565b9185101561407f5781511690602081015160201b916affffffffffffff000000007effffffffffffffffffffffffffffffffffffffff0000000000000000000000604084015160581b1692606060ff60f81b910151151560f81b1693161717178360080155565b634e487b7160e01b600052603260045260246000fd5b9050998a91613f88565b5086819594939295101561407f57600881015493949293919291861615613fed565b979850505050505050565b604051906140d9826130e6565b60006060838281528260208201528260408201520152565b63ffffffff918216908216039190821161324857565b9060060b9060060b02908160060b91820361324857565b9060060b9060060b0190667fffffffffffff198212667fffffffffffff83131761324857565b9190916001600160a01b038080941691160191821161324857565b9092916141fa6040936141706140cc565b5063ffffffff936141f36141ac61418a878451168a6140f1565b956141a360208501519189891660060b9060020b614107565b9060060b61411e565b9473ffffffff000000000000000000000000000000006001600160a01b0380998195015116946001600160801b03908181161515600014614223575b169160801b16613311565b1690614144565b9160405194614208866130e6565b16845260060b60208401521660408201526001606082015290565b5060016141e8565b1561423257565b60405162461bcd60e51b81526020600482015260016024820152604960f81b6044820152606490fd5b61ffff908181169061426e82151561422b565b828416918211156142de575b81838216106142895750505090565b828110156142c95760088101805463ffffffff1916600117905582168083146142b45760010161427a565b60246000634e487b7160e01b81526011600452fd5b60246000634e487b7160e01b81526032600452fd5b9250505090565b600691820b910b0390667fffffffffffff198212667fffffffffffff83131761324857565b6001600160a01b03918216908216039190821161324857565b8181029291811591840414171561324857565b93929161ffff81101561407f5761434f90600801613f45565b9363ffffffff808651169082160361437e575b5050506001600160a01b036040602084015160060b9301511690565b614388939461415f565b90388080614362565b929594919593909363ffffffff96878616156144ca576143b585966143bc966140f1565b809661453b565b919093808551168183168181146000146143ee5750505050506001600160a01b036040602084015160060b9301511690565b82859795511680911460001461441c5750505050506001600160a01b036040602084015160060b9301511690565b61443491614429916140f1565b9282855116906140f1565b602084015160060b908261444f8360208a015160060b6142e5565b9416908160060b9460060b94801561331b57667fffffffffffff1986146000198214166132485761369c966144bf6144a36141f39661449d60409a8b9a6144c59816968760060b9105614107565b9061411e565b9a6001600160a01b038080998195015116998a9201511661430a565b16614323565b613311565b93925090935061ffff81101561407f576144e690600801613f45565b94808651169082160361437e575050506001600160a01b036040602084015160060b9301511690565b67ffffffffffffffff81116130bc5760051b60200190565b805182101561407f5760209160051b010190565b919590926145476140cc565b506145506140cc565b5061ffff968782101561407f5760089561456b838801613f45565b9163ffffffff958684511687821603614762575b5050508380825116951694858111156147495750506145a18661400d83613f88565b8781101561407f576145b4908601613f45565b9084846060938481015115614709575b5116116146de57876145ec8861400d83946145dd6140cc565b506145e66140cc565b50613f88565b169616946145fa868861323b565b60001997818901918211613248575b614613828261323b565b91600192831c926146248a85614773565b8c81101561407f57614637908601613f45565b9086820151156146c857840190818511613248576146558b83614773565b8d81101561407f57614668908701613f45565b8a8a83511611918215806146bb575b6146a95750501561469c5750508882019182116132485761461391905b909150614609565b9091506146139250614694565b9d509b50969950505050505050505050565b508a8251168c1115614677565b9192505082018092116132485761461391614694565b60405162461bcd60e51b815260206004820152600360248201526213d31160ea1b6044820152606490fd5b50604051614716816130e6565b885482811682528060201c60060b60208301526001600160a01b038160581c16604083015260f81c1515858201526145c4565b9495509650509350501460001461475e578190565b8190565b61476b9361415f565b38808061457f565b811561331b570690565b6f80000000000000000000000000000000811015610cb957600f0b90565b600083600f0b126000146148185790614805916147ba61369c9461328f565b8192806001600160a01b03938482168582161161480a575b50509081600160601b600160e01b0384806147f0886147fd9761430a565b1692169260601b16613dbd565b911690613ce7565b6132b0565b90945090506147fd386147d2565b61369c928192806001600160a01b039384821685821611614867575b50509081600160601b600160e01b0384806148528861485f9761430a565b1692169260601b16613e76565b911690613e39565b909450905061485f38614834565b906147fd61369c936001600160a01b0392838116848616116148a9575b600160601b600160e01b0384806147f0888561430a565b93614892565b9061485f61369c936001600160a01b0392838116848616116148e3575b600160601b600160e01b038480614852888561430a565b936148cc565b90600083600f0b1260001461491857906148059161490961369c9461328f565b6001600160801b03169161492b565b61369c926001600160801b031691614963565b61369c92916149556001600160801b03926001600160a01b03928381168483161161495d5761430a565b169116613d31565b9061430a565b906001600160801b0361498e600160601b936001600160a01b03938481168583161161495d5761430a565b9316921661499c8184613d31565b92096149a55790565b600019811015610cb95761369c90613dfd565b9062ffffff809216620f42400391821161324857565b91908115614a2a57600160601b600160e01b039060601b166001600160a01b0380931680614a066149ff8286614323565b9485613311565b03610cb95782821115610cb957614a20614a269383613331565b91613e76565b1690565b505090565b91908115614a2a57600160601b600160e01b039060601b166001600160a01b03809316614a5c8184614323565b81614a678583613311565b14614a8a575b50614a2692614a7f614a849284613311565b61323b565b90613e39565b614a94908361323b565b828110614a6d5791614a269350613e76565b6f7fffffffffffffffffffffffffffffff1981121580614acc575b15610cb957600f0b90565b506f800000000000000000000000000000008112614ac1565b9060020b90811561331b5760020b0790565b60020b9060020b90811561331b57627fffff198114600019831416613248570590565b90614b258183614ae5565b60020b610cb957614b3591614af7565b8060020b60081d60010b6000526006602052600160ff604060002092161b8154189055565b9060020b9060020b02908160020b91820361324857565b60ff60409116019060ff821161324857565b60ff60209116019060ff821161324857565b60ff60109116019060ff821161324857565b60ff60089116019060ff821161324857565b60ff60049116019060ff821161324857565b60ff60029116019060ff821161324857565b60ff60019116019060ff821161324857565b60020b600081121561513157614c04816132b0565b620d89e881116151085760018116156150ec5770ffffffffffffffffffffffffffffffffff6ffffcb933bd6fad37aa2d162d1a5940015b1691600282166150c0575b600491828116615094575b60088116615068575b6010811661503c575b60208116615010575b60408116614fe4575b608090818116614fb9575b6101008116614f8e575b6102008116614f63575b6104008116614f38575b6108008116614f0d575b6110008116614ee2575b6120008116614eb7575b6140008116614e8c575b6180008116614e61575b620100008116614e36575b620200008116614e0b575b620400008116614de2575b620800008116614da6575b6210000016614d6b575b50600012614d43575b50614a266001600160a01b039163ffffffff811615600014614d3a5760ff60005b169060201c61323b565b60ff6001614d30565b8115614d56575060001904614a26614d0f565b601290634e487b7160e01b6000525260246000fd5b670149b3712f53292193919391828102928184041490151715614d91571c916000614d06565b601183634e487b7160e01b6000525260246000fd5b936b048a170391f7dc42444e8fa290818102918183041490151715614dcd57811c93614cfc565b601184634e487b7160e01b6000525260246000fd5b936d2216e584f5fa1ea926041bedfe9890818102918183041490151715614dcd57811c93614cf1565b936f05d06b12a7396a414630e4a0d2dc2e6590818102918183041490151715614dcd57811c93614ce6565b936f09aa508b5b7a84e1c677de54f3e99bc990818102918183041490151715614dcd57811c93614cdb565b936f31be135f97d514839f323c233481232890818102918183041490151715614dcd57811c93614cd0565b936f70d869a156d2a1b890bb3df62baf32f790818102918183041490151715614dcd57811c93614cc6565b936fa9f746462d870fdf8a65dc1f90e061e590818102918183041490151715614dcd57811c93614cbc565b936fd097f3bdfd2022b8845ad8f792aa582590818102918183041490151715614dcd57811c93614cb2565b936fe7159475a2c29b7443b29c7fa6e889d990818102918183041490151715614dcd57811c93614ca8565b936ff3392b0822b70005940c7a398e4b70f390818102918183041490151715614dcd57811c93614c9e565b936ff987a7253ac413176f2b074cf7815e5490818102918183041490151715614dcd57811c93614c94565b936ffcbe8617e027ff05cc2b1327117e35bb90818102918183041490151715614dcd57811c93614c8a565b936ffe5dee046a99a2a811c461f1969c305390818102918183041490151715614dcd57811c93614c80565b926fff2ea16466c96a0c843982797b9376bd90818102918183041490151715614d915760801c92614c75565b926fff973b41fa98c081472e6896dfb254c090818102918183041490151715614d915760801c92614c6c565b926fffcb9843d60f6159c9db58835c92664490818102918183041490151715614d915760801c92614c63565b926fffe5caba7eaa351859731e26960b146990818102918183041490151715614d915760801c92614c5a565b926ffff2e50f5f656932ef12357cf3c7fdcc90818102918183041490151715614d915760801c92614c51565b916ffff97272373d413259a46990580e213a908181029181830414901517156132485760801c91614c46565b70ffffffffffffffffffffffffffffffffff600160801b614c3b565b60405162461bcd60e51b81526020600482015260016024820152601560fa1b6044820152606490fd5b80614c04565b6001600160a01b03808216916401000276a38310158061547f575b156154565777ffffffffffffffffffffffffffffffffffffffff000000009060201b1690816001600160801b03831160071b9280841c9167ffffffffffffffff831160061b92831c9463ffffffff861160051b95861c9360049661ffff8611881b95861c60ff9687821160031b91821c92600f841160021b93841c94600160038711811b96871c1196171717171717179160808310156000146154425750607e19820182811161542d571c5b607f198201918213600116615418578002607f928392828493841c81841c1c800280851c81851c1c800280861c81861c1c800280871c81871c1c80029081881c82881c1c80029283891c84891c1c800294858a1c868a1c1c800296878b1c888b1c1c800298898c1c8a8c1c1c80029a8b8d1c8c821c1c8002809d1c8d821c1c8002809e81901c90821c1c80029e8f80911c911c1c800260cd1c6604000000000000169d60cc1c6608000000000000169c60cb1c6610000000000000169b60ca1c6620000000000000169a60c91c6640000000000000169960c81c6680000000000000169860c71c670100000000000000169760c61c670200000000000000169660c51c670400000000000000169560c41c670800000000000000169460c31c671000000000000000169360c21c672000000000000000169260c11c674000000000000000169160c01c678000000000000000169060401b1717171717171717171717171717693627a301d71055774c8590818102918183051490151715614d9157700a00209a85e82900f339c8c74d48e535c3198101600182821316614dcd5760801d60020b9270559df1fdea9e7052b4ca8a5d0b76409dcf9160008382019384129112908015821691151617615403575060801d60020b926000918385036153e957505050905090565b6153f285614bef565b161190506153fe575090565b905090565b601190634e487b7160e01b6000525260246000fd5b601185634e487b7160e01b6000525260246000fd5b601186634e487b7160e01b6000525260246000fd5b905081607f03607f811161542d571b6151fe565b60405162461bcd60e51b81526020600482015260016024820152602960f91b6044820152606490fd5b5073fffd8963efd1fc6a506488495d951d5263988d26831061515256fea264697066735822122097e4e4502ab3230efe46e83f96740da9fccc3e411f37e43ef8e604c137818b9564736f6c63430008140033a26469706673582212204937d3122296592f89e56045ad2d76a4c6eb8788f9d5907c41ccf3d8abe6f97864736f6c634300081400334b6f7274616e61466163746f72793a204645455f414c52454144595f454e4142","opcodes":"PUSH1 0xA0 CALLVALUE PUSH2 0x242 JUMPI PUSH1 0x1F PUSH3 0x67F6 CODESIZE DUP2 SWAP1 SUB SWAP2 DUP3 ADD PUSH1 0x1F NOT AND DUP4 ADD SWAP2 PUSH1 0x1 PUSH1 0x1 PUSH1 0x40 SHL SUB DUP4 GT DUP5 DUP5 LT OR PUSH2 0x247 JUMPI DUP1 DUP5 SWAP3 PUSH1 0x40 SWAP5 DUP6 MSTORE DUP4 CODECOPY PUSH1 0x20 SWAP4 DUP5 SWAP2 DUP2 ADD SUB SLT PUSH2 0x242 JUMPI MLOAD PUSH1 0x1 PUSH1 0x1 PUSH1 0xA0 SHL SUB DUP2 AND SWAP1 DUP2 SWAP1 SUB PUSH2 0x242 JUMPI ADDRESS PUSH1 0x80 MSTORE PUSH1 0x1 DUP1 PUSH1 0xA0 SHL SUB NOT SWAP1 CALLER DUP3 PUSH1 0x3 SLOAD AND OR PUSH1 0x3 SSTORE PUSH1 0x4 SWAP2 DUP3 SLOAD AND OR DUP2 SSTORE PUSH1 0x0 SWAP1 CALLER DUP3 PUSH32 0xB532073B38C83145E3E5135377A08BF9AAB55BC0FD7C1179CD4FB995D2A5159C DUP2 DUP1 LOG3 PUSH1 0x64 SWAP2 DUP3 DUP2 MSTORE PUSH1 0x5 DUP6 MSTORE DUP4 DUP2 KECCAK256 SLOAD PUSH1 0x2 SIGNEXTEND PUSH2 0x206 JUMPI DUP3 DUP2 MSTORE PUSH1 0x5 DUP6 MSTORE DUP4 DUP2 KECCAK256 PUSH3 0xFFFFFF NOT SWAP1 PUSH1 0x1 DUP3 DUP3 SLOAD AND OR SWAP1 SSTORE PUSH32 0xC66A3FDF07232CDD185FEBCC6579D408C241B47AE2F9907D84BE655141EEAECC SWAP3 PUSH1 0x1 DUP6 DUP6 DUP6 DUP1 LOG3 PUSH2 0x1F4 DUP1 DUP5 MSTORE DUP7 DUP5 KECCAK256 SLOAD PUSH1 0x2 SIGNEXTEND PUSH2 0x1C9 JUMPI DUP1 PUSH1 0xA SWAP2 DUP6 MSTORE PUSH1 0x5 DUP10 MSTORE DUP8 DUP6 KECCAK256 DUP3 DUP6 DUP3 SLOAD AND OR SWAP1 SSTORE DUP6 DUP6 DUP1 LOG3 PUSH2 0xBB8 DUP1 DUP5 MSTORE DUP7 DUP5 KECCAK256 SLOAD PUSH1 0x2 SIGNEXTEND PUSH2 0x1C9 JUMPI DUP1 PUSH1 0x3C SWAP2 DUP6 MSTORE PUSH1 0x5 DUP10 MSTORE DUP8 DUP6 KECCAK256 DUP3 DUP6 DUP3 SLOAD AND OR SWAP1 SSTORE DUP6 DUP6 DUP1 LOG3 PUSH2 0x2710 SWAP5 DUP6 DUP5 MSTORE DUP7 DUP5 KECCAK256 SLOAD PUSH1 0x2 SIGNEXTEND PUSH2 0x18C JUMPI POP POP PUSH1 0x5 PUSH1 0xC8 SWAP6 SWAP7 DUP6 DUP5 MSTORE MSTORE DUP5 DUP7 DUP4 KECCAK256 SWAP2 DUP3 SLOAD AND OR SWAP1 SSTORE DUP1 LOG3 MLOAD PUSH2 0x6578 SWAP1 DUP2 PUSH3 0x25E DUP3 CODECOPY PUSH1 0x80 MLOAD DUP2 PUSH2 0x2A8 ADD MSTORE RETURN JUMPDEST DUP7 MLOAD PUSH3 0x461BCD PUSH1 0xE5 SHL DUP2 MSTORE SWAP2 DUP3 ADD DUP9 SWAP1 MSTORE PUSH1 0x23 PUSH1 0x24 DUP4 ADD MSTORE PUSH1 0x0 DUP1 MLOAD PUSH1 0x20 PUSH3 0x67D6 DUP4 CODECOPY DUP2 MLOAD SWAP2 MSTORE PUSH1 0x44 DUP4 ADD MSTORE PUSH3 0x131151 PUSH1 0xEA SHL SWAP1 DUP3 ADD MSTORE PUSH1 0x84 SWAP1 REVERT JUMPDEST DUP7 MLOAD PUSH3 0x461BCD PUSH1 0xE5 SHL DUP2 MSTORE DUP1 DUP4 ADD DUP10 SWAP1 MSTORE PUSH1 0x23 PUSH1 0x24 DUP3 ADD MSTORE PUSH1 0x0 DUP1 MLOAD PUSH1 0x20 PUSH3 0x67D6 DUP4 CODECOPY DUP2 MLOAD SWAP2 MSTORE PUSH1 0x44 DUP3 ADD MSTORE PUSH3 0x131151 PUSH1 0xEA SHL DUP2 DUP9 ADD MSTORE PUSH1 0x84 SWAP1 REVERT JUMPDEST POP PUSH3 0x131151 PUSH1 0xEA SHL PUSH1 0x84 SWAP3 DUP6 DUP6 MLOAD SWAP4 PUSH3 0x461BCD PUSH1 0xE5 SHL DUP6 MSTORE DUP5 ADD MSTORE PUSH1 0x23 PUSH1 0x24 DUP5 ADD MSTORE PUSH1 0x0 DUP1 MLOAD PUSH1 0x20 PUSH3 0x67D6 DUP4 CODECOPY DUP2 MLOAD SWAP2 MSTORE PUSH1 0x44 DUP5 ADD MSTORE DUP3 ADD MSTORE REVERT JUMPDEST PUSH1 0x0 DUP1 REVERT JUMPDEST PUSH4 0x4E487B71 PUSH1 0xE0 SHL PUSH1 0x0 MSTORE PUSH1 0x41 PUSH1 0x4 MSTORE PUSH1 0x24 PUSH1 0x0 REVERT INVALID PUSH1 0x40 PUSH1 0x80 DUP2 MSTORE PUSH1 0x4 SWAP1 DUP2 CALLDATASIZE LT ISZERO PUSH3 0x16 JUMPI PUSH1 0x0 DUP1 REVERT JUMPDEST PUSH1 0x0 SWAP2 DUP3 CALLDATALOAD PUSH1 0xE0 SHR SWAP1 DUP2 PUSH4 0x13AF4035 EQ PUSH3 0xB68 JUMPI DUP2 PUSH4 0x1698EE82 EQ PUSH3 0xAFD JUMPI DUP2 PUSH4 0x22AFCCCB EQ PUSH3 0xAC3 JUMPI DUP2 PUSH4 0x41D1DE97 EQ PUSH3 0xA7C JUMPI DUP2 PUSH4 0x43DB87DA EQ PUSH3 0x92A JUMPI DUP2 PUSH4 0x527EB4BC EQ PUSH3 0x906 JUMPI DUP2 PUSH4 0x89035730 EQ PUSH3 0x8AE JUMPI DUP2 PUSH4 0x8A7C195F EQ PUSH3 0x701 JUMPI DUP2 PUSH4 0x8DA5CB5B EQ PUSH3 0x6D7 JUMPI DUP2 PUSH4 0xA1671295 EQ PUSH3 0x269 JUMPI DUP2 PUSH4 0xA42DCE80 EQ PUSH3 0x210 JUMPI DUP2 PUSH4 0xB613A141 EQ PUSH3 0x11B JUMPI DUP2 PUSH4 0xC415B95C EQ PUSH3 0xEF JUMPI POP PUSH4 0xEFDE4E64 EQ PUSH3 0xCC JUMPI PUSH1 0x0 DUP1 REVERT JUMPDEST CALLVALUE PUSH3 0xEB JUMPI DUP2 PUSH1 0x3 NOT CALLDATASIZE ADD SLT PUSH3 0xEB JUMPI PUSH1 0x20 SWAP1 PUSH1 0x7 SLOAD SWAP1 MLOAD SWAP1 DUP2 MSTORE RETURN JUMPDEST POP DUP1 REVERT JUMPDEST DUP3 DUP5 CALLVALUE PUSH3 0x118 JUMPI DUP1 PUSH1 0x3 NOT CALLDATASIZE ADD SLT PUSH3 0x118 JUMPI POP PUSH1 0x1 PUSH1 0x1 PUSH1 0xA0 SHL SUB PUSH1 0x20 SWAP3 SLOAD AND SWAP1 MLOAD SWAP1 DUP2 MSTORE RETURN JUMPDEST DUP1 REVERT JUMPDEST SWAP1 POP CALLVALUE PUSH3 0x20C JUMPI PUSH1 0x20 CALLDATASIZE PUSH1 0x3 NOT ADD SLT PUSH3 0x20C JUMPI DUP1 CALLDATALOAD SWAP1 PUSH1 0xFF DUP3 AND DUP1 SWAP3 SUB PUSH3 0x208 JUMPI PUSH3 0x157 PUSH1 0x1 PUSH1 0x1 PUSH1 0xA0 SHL SUB PUSH1 0x3 SLOAD AND CALLER EQ PUSH3 0xC8E JUMP JUMPDEST PUSH1 0xA DUP3 GT PUSH3 0x19F JUMPI POP SWAP1 DUP2 PUSH32 0x7A8F5B6A3FE6312FAF94330E829A331301DBD2CE6947E915BE63BF67B473ED5F SWAP3 PUSH1 0xFF NOT PUSH1 0x8 SLOAD AND OR PUSH1 0x8 SSTORE DUP2 MLOAD SWAP1 DUP1 DUP3 MSTORE PUSH1 0x20 DUP3 ADD MSTORE LOG1 DUP1 RETURN JUMPDEST PUSH1 0x84 SWAP1 PUSH1 0x20 DUP5 MLOAD SWAP2 PUSH3 0x461BCD PUSH1 0xE5 SHL DUP4 MSTORE DUP3 ADD MSTORE PUSH1 0x25 PUSH1 0x24 DUP3 ADD MSTORE PUSH32 0x4B6F7274616E61466163746F72793A2050524F544F434F4C5F4645455F544F4F PUSH1 0x44 DUP3 ADD MSTORE PUSH32 0x5F48494748000000000000000000000000000000000000000000000000000000 PUSH1 0x64 DUP3 ADD MSTORE REVERT JUMPDEST DUP4 DUP1 REVERT JUMPDEST DUP3 DUP1 REVERT JUMPDEST DUP4 SWAP1 CALLVALUE PUSH3 0xEB JUMPI PUSH1 0x20 CALLDATASIZE PUSH1 0x3 NOT ADD SLT PUSH3 0xEB JUMPI PUSH3 0x22F PUSH3 0xBE7 JUMP JUMPDEST PUSH1 0x1 PUSH1 0x1 PUSH1 0xA0 SHL SUB SWAP1 PUSH3 0x249 DUP3 PUSH1 0x3 SLOAD AND CALLER EQ PUSH3 0xC8E JUMP JUMPDEST AND PUSH20 0xFFFFFFFFFFFFFFFFFFFFFFFFFFFFFFFFFFFFFFFF NOT DUP3 SLOAD AND OR SWAP1 SSTORE DUP1 RETURN JUMPDEST DUP4 DUP4 CALLVALUE PUSH3 0xEB JUMPI PUSH1 0x60 CALLDATASIZE PUSH1 0x3 NOT ADD SLT PUSH3 0xEB JUMPI PUSH3 0x288 PUSH3 0xBE7 JUMP JUMPDEST PUSH3 0x292 PUSH3 0xC03 JUMP JUMPDEST PUSH3 0x29C PUSH3 0xC1A JUMP JUMPDEST PUSH1 0x1 PUSH1 0x1 PUSH1 0xA0 SHL SUB SWAP3 DUP4 PUSH32 0x0 AND ADDRESS SUB PUSH3 0x694 JUMPI DUP4 DUP4 AND DUP5 DUP3 AND DUP2 DUP2 EQ PUSH3 0x645 JUMPI DUP6 SWAP3 SWAP2 GT ISZERO PUSH3 0x63E JUMPI JUMPDEST AND SWAP1 DUP2 ISZERO PUSH3 0x5FB JUMPI PUSH3 0xFFFFFF DUP2 AND SWAP4 DUP5 DUP8 MSTORE PUSH1 0x20 SWAP8 PUSH1 0x5 DUP10 MSTORE DUP7 DUP9 KECCAK256 SLOAD PUSH1 0x2 SIGNEXTEND ISZERO PUSH3 0x5B8 JUMPI DUP4 DUP9 MSTORE PUSH1 0x6 DUP10 MSTORE DUP2 DUP8 DUP10 KECCAK256 SWAP6 AND SWAP5 DUP6 DUP10 MSTORE DUP10 MSTORE DUP7 DUP9 KECCAK256 DUP7 DUP10 MSTORE DUP10 MSTORE DUP2 DUP8 DUP10 KECCAK256 SLOAD AND PUSH3 0x575 JUMPI DUP6 DUP9 MSTORE PUSH1 0x5 DUP10 MSTORE DUP7 DUP9 KECCAK256 SLOAD SWAP8 DUP9 PUSH1 0x2 SIGNEXTEND SWAP4 DUP9 MLOAD SWAP1 PUSH1 0xA0 DUP3 ADD SWAP2 PUSH8 0xFFFFFFFFFFFFFFFF SWAP3 DUP2 DUP2 LT DUP5 DUP3 GT OR PUSH3 0x562 JUMPI DUP8 SWAP2 DUP10 DUP16 PUSH1 0x80 SWAP4 DUP16 MSTORE ADDRESS DUP4 MSTORE DUP3 ADD MSTORE DUP11 DUP14 DUP3 ADD MSTORE DUP12 PUSH1 0x60 DUP3 ADD MSTORE ADD MSTORE PUSH20 0xFFFFFFFFFFFFFFFFFFFFFFFFFFFFFFFFFFFFFFFF NOT SWAP11 ADDRESS DUP13 DUP6 SLOAD AND OR DUP5 SSTORE DUP8 DUP13 PUSH1 0x1 SLOAD AND OR PUSH1 0x1 SSTORE DUP9 PUSH32 0xFFFFFFFFFFFF0000000000000000000000000000000000000000000000000000 PUSH23 0xFFFFFF0000000000000000000000000000000000000000 PUSH1 0x2 SLOAD SWAP4 PUSH1 0xB8 SHL PUSH26 0xFFFFFF0000000000000000000000000000000000000000000000 AND SWAP5 PUSH1 0xA0 SHL AND SWAP3 AND OR OR OR PUSH1 0x2 SSTORE DUP9 MLOAD DUP12 DUP2 ADD SWAP1 DUP8 DUP3 MSTORE DUP9 DUP12 DUP3 ADD MSTORE DUP10 PUSH1 0x60 DUP3 ADD MSTORE PUSH1 0x60 DUP2 MSTORE PUSH1 0x80 DUP2 ADD SWAP2 DUP2 DUP4 LT DUP5 DUP5 GT OR PUSH3 0x562 JUMPI DUP3 DUP13 MSTORE DUP2 MLOAD SWAP1 KECCAK256 SWAP3 PUSH2 0x5849 DUP1 DUP4 ADD SWAP2 PUSH1 0x80 DUP4 ADD SWAP1 DUP6 DUP3 LT SWAP2 GT OR PUSH3 0x54F JUMPI PUSH3 0xCFA DUP5 CODECOPY SUB SWAP1 DUP4 CREATE2 DUP1 ISZERO PUSH3 0x543 JUMPI DUP4 AND SWAP9 DUP2 DUP1 SSTORE DUP2 PUSH1 0x1 SSTORE DUP2 PUSH1 0x2 SSTORE DUP6 DUP3 MSTORE PUSH1 0x6 DUP12 MSTORE DUP9 DUP3 KECCAK256 DUP8 DUP4 MSTORE DUP12 MSTORE DUP9 DUP3 KECCAK256 DUP9 DUP4 MSTORE DUP12 MSTORE DUP9 DUP3 KECCAK256 DUP11 DUP3 DUP3 SLOAD AND OR SWAP1 SSTORE DUP7 DUP3 MSTORE PUSH1 0x6 DUP12 MSTORE DUP9 DUP3 KECCAK256 DUP7 DUP4 MSTORE DUP12 MSTORE DUP9 DUP3 KECCAK256 DUP9 DUP4 MSTORE DUP12 MSTORE DUP10 DUP10 DUP4 KECCAK256 SWAP2 DUP3 SLOAD AND OR SWAP1 SSTORE PUSH1 0x7 SLOAD SWAP2 PUSH9 0x10000000000000000 DUP4 LT ISZERO PUSH3 0x530 JUMPI POP POP SWAP2 DUP7 SWAP2 PUSH3 0x50C DUP5 PUSH1 0x1 PUSH32 0x783CCA1C0412DD0D695E784568C96DA2E9C22FF989357A2E8B1D9B2B4E6B7118 SWAP7 ADD PUSH1 0x7 SSTORE PUSH3 0xC40 JUMP JUMPDEST DUP2 SWAP3 SWAP2 SLOAD SWAP1 PUSH1 0x3 SHL SWAP2 DUP12 DUP4 SHL SWAP3 SHL NOT AND OR SWAP1 SSTORE DUP2 MLOAD SWAP1 DUP2 MSTORE DUP8 DUP10 DUP3 ADD MSTORE LOG4 MLOAD SWAP1 DUP2 MSTORE RETURN JUMPDEST PUSH4 0x4E487B71 PUSH1 0xE0 SHL DUP3 MSTORE PUSH1 0x41 SWAP1 MSTORE PUSH1 0x24 SWAP1 REVERT JUMPDEST POP DUP8 MLOAD SWAP1 RETURNDATASIZE SWAP1 DUP3 RETURNDATACOPY RETURNDATASIZE SWAP1 REVERT JUMPDEST PUSH4 0x4E487B71 PUSH1 0xE0 SHL DUP7 MSTORE PUSH1 0x41 DUP8 MSTORE PUSH1 0x24 DUP7 REVERT JUMPDEST PUSH4 0x4E487B71 PUSH1 0xE0 SHL DUP6 MSTORE PUSH1 0x41 DUP7 MSTORE PUSH1 0x24 DUP6 REVERT JUMPDEST DUP7 MLOAD PUSH3 0x461BCD PUSH1 0xE5 SHL DUP2 MSTORE SWAP1 DUP2 ADD DUP10 SWAP1 MSTORE PUSH1 0x1B PUSH1 0x24 DUP3 ADD MSTORE PUSH32 0x4B6F7274616E61466163746F72793A20504F4F4C5F4558495354530000000000 PUSH1 0x44 DUP3 ADD MSTORE PUSH1 0x64 SWAP1 REVERT JUMPDEST DUP7 MLOAD PUSH3 0x461BCD PUSH1 0xE5 SHL DUP2 MSTORE SWAP1 DUP2 ADD DUP10 SWAP1 MSTORE PUSH1 0x1F PUSH1 0x24 DUP3 ADD MSTORE PUSH32 0x4B6F7274616E61466163746F72793A204645455F4E4F545F454E41424C454400 PUSH1 0x44 DUP3 ADD MSTORE PUSH1 0x64 SWAP1 REVERT JUMPDEST DUP5 MLOAD PUSH3 0x461BCD PUSH1 0xE5 SHL DUP2 MSTORE PUSH1 0x20 DUP2 DUP10 ADD MSTORE PUSH1 0x1C PUSH1 0x24 DUP3 ADD MSTORE PUSH32 0x4B6F7274616E61466163746F72793A205A45524F5F4144445245535300000000 PUSH1 0x44 DUP3 ADD MSTORE PUSH1 0x64 SWAP1 REVERT JUMPDEST SWAP3 PUSH3 0x2E8 JUMP JUMPDEST DUP7 MLOAD PUSH3 0x461BCD PUSH1 0xE5 SHL DUP2 MSTORE PUSH1 0x20 DUP2 DUP12 ADD MSTORE PUSH1 0x23 PUSH1 0x24 DUP3 ADD MSTORE PUSH32 0x4B6F7274616E61466163746F72793A204944454E544943414C5F414444524553 PUSH1 0x44 DUP3 ADD MSTORE PUSH3 0x534553 PUSH1 0xE8 SHL PUSH1 0x64 DUP3 ADD MSTORE PUSH1 0x84 SWAP1 REVERT JUMPDEST DUP5 MLOAD PUSH3 0x461BCD PUSH1 0xE5 SHL DUP2 MSTORE PUSH1 0x20 DUP2 DUP10 ADD MSTORE PUSH1 0xF PUSH1 0x24 DUP3 ADD MSTORE PUSH32 0x4E6F2064656C656761746563616C6C0000000000000000000000000000000000 PUSH1 0x44 DUP3 ADD MSTORE PUSH1 0x64 SWAP1 REVERT JUMPDEST POP POP CALLVALUE PUSH3 0xEB JUMPI DUP2 PUSH1 0x3 NOT CALLDATASIZE ADD SLT PUSH3 0xEB JUMPI PUSH1 0x20 SWAP1 PUSH1 0x1 PUSH1 0x1 PUSH1 0xA0 SHL SUB PUSH1 0x3 SLOAD AND SWAP1 MLOAD SWAP1 DUP2 MSTORE RETURN JUMPDEST SWAP1 POP CALLVALUE PUSH3 0x20C JUMPI DUP2 PUSH1 0x3 NOT CALLDATASIZE ADD SLT PUSH3 0x20C JUMPI PUSH3 0x71F PUSH3 0xC2D JUMP JUMPDEST PUSH1 0x24 CALLDATALOAD SWAP1 DUP2 PUSH1 0x2 SIGNEXTEND SWAP4 DUP5 DUP4 SUB PUSH3 0x8AA JUMPI PUSH3 0x748 PUSH1 0x1 PUSH1 0x1 PUSH1 0xA0 SHL SUB PUSH1 0x3 SLOAD AND CALLER EQ PUSH3 0xC8E JUMP JUMPDEST PUSH3 0xFFFFFF DUP1 SWAP3 AND SWAP4 PUSH3 0xF4240 DUP6 LT ISZERO PUSH3 0x868 JUMPI DUP7 DUP7 SGT DUP1 PUSH3 0x85C JUMPI JUMPDEST ISZERO PUSH3 0x80E JUMPI DUP5 DUP8 MSTORE PUSH1 0x5 PUSH1 0x20 MSTORE DUP2 DUP8 KECCAK256 SLOAD PUSH1 0x2 SIGNEXTEND PUSH3 0x7C0 JUMPI POP DUP4 DUP7 MSTORE PUSH1 0x5 PUSH1 0x20 MSTORE DUP6 KECCAK256 SWAP2 PUSH3 0xFFFFFF NOT DUP4 SLOAD AND SWAP2 AND OR SWAP1 SSTORE PUSH32 0xC66A3FDF07232CDD185FEBCC6579D408C241B47AE2F9907D84BE655141EEAECC DUP4 DUP1 LOG3 DUP1 RETURN JUMPDEST PUSH1 0x20 PUSH1 0x84 SWAP3 MLOAD SWAP2 PUSH3 0x461BCD PUSH1 0xE5 SHL DUP4 MSTORE DUP3 ADD MSTORE PUSH1 0x23 PUSH1 0x24 DUP3 ADD MSTORE PUSH32 0x4B6F7274616E61466163746F72793A204645455F414C52454144595F454E4142 PUSH1 0x44 DUP3 ADD MSTORE PUSH3 0x131151 PUSH1 0xEA SHL PUSH1 0x64 DUP3 ADD MSTORE REVERT JUMPDEST PUSH1 0x20 PUSH1 0x84 SWAP3 MLOAD SWAP2 PUSH3 0x461BCD PUSH1 0xE5 SHL DUP4 MSTORE DUP3 ADD MSTORE PUSH1 0x24 DUP1 DUP3 ADD MSTORE PUSH32 0x4B6F7274616E61466163746F72793A20494E56414C49445F5449434B5F535041 PUSH1 0x44 DUP3 ADD MSTORE PUSH4 0x43494E47 PUSH1 0xE0 SHL PUSH1 0x64 DUP3 ADD MSTORE REVERT JUMPDEST POP PUSH2 0x4000 DUP7 SLT PUSH3 0x766 JUMP JUMPDEST PUSH1 0x20 PUSH1 0x64 SWAP3 MLOAD SWAP2 PUSH3 0x461BCD PUSH1 0xE5 SHL DUP4 MSTORE DUP3 ADD MSTORE PUSH1 0x1D PUSH1 0x24 DUP3 ADD MSTORE PUSH32 0x4B6F7274616E61466163746F72793A204645455F544F4F5F4C41524745000000 PUSH1 0x44 DUP3 ADD MSTORE REVERT JUMPDEST DUP6 DUP1 REVERT JUMPDEST POP POP CALLVALUE PUSH3 0xEB JUMPI DUP2 PUSH1 0x3 NOT CALLDATASIZE ADD SLT PUSH3 0xEB JUMPI PUSH1 0xA0 SWAP2 PUSH1 0x1 PUSH1 0x1 PUSH1 0xA0 SHL SUB DUP1 SWAP2 SLOAD AND SWAP2 DUP2 PUSH1 0x1 SLOAD AND SWAP2 PUSH1 0x2 SLOAD SWAP3 DUP3 MLOAD SWAP5 DUP6 MSTORE PUSH1 0x20 DUP6 ADD MSTORE DUP3 AND SWAP1 DUP4 ADD MSTORE PUSH3 0xFFFFFF DUP2 DUP5 SHR AND PUSH1 0x60 DUP4 ADD MSTORE PUSH1 0xB8 SHR PUSH1 0x2 SIGNEXTEND PUSH1 0x80 DUP3 ADD MSTORE RETURN JUMPDEST POP POP CALLVALUE PUSH3 0xEB JUMPI DUP2 PUSH1 0x3 NOT CALLDATASIZE ADD SLT PUSH3 0xEB JUMPI PUSH1 0x20 SWAP1 PUSH1 0xFF PUSH1 0x8 SLOAD AND SWAP1 MLOAD SWAP1 DUP2 MSTORE RETURN JUMPDEST SWAP1 POP DUP3 CALLVALUE PUSH3 0x118 JUMPI PUSH1 0x80 CALLDATASIZE PUSH1 0x3 NOT ADD SLT PUSH3 0x118 JUMPI PUSH3 0x94A PUSH3 0xBE7 JUMP JUMPDEST SWAP1 PUSH3 0x955 PUSH3 0xC03 JUMP JUMPDEST SWAP2 PUSH1 0x44 CALLDATALOAD SWAP1 PUSH16 0xFFFFFFFFFFFFFFFFFFFFFFFFFFFFFFFF SWAP4 DUP5 DUP4 AND DUP1 SWAP4 SUB PUSH3 0x208 JUMPI PUSH1 0x64 CALLDATALOAD DUP6 DUP2 AND DUP1 SWAP2 SUB PUSH3 0xA78 JUMPI DUP8 SWAP3 SWAP2 DUP6 PUSH1 0x64 SWAP3 PUSH1 0x1 PUSH1 0x1 PUSH1 0xA0 SHL SUB SWAP5 DUP6 SWAP2 PUSH3 0x9A8 DUP4 PUSH1 0x3 SLOAD AND CALLER EQ PUSH3 0xC8E JUMP JUMPDEST DUP8 MLOAD SWAP9 DUP10 SWAP8 DUP9 SWAP7 PUSH4 0x85B66729 PUSH1 0xE0 SHL DUP9 MSTORE AND DUP14 DUP8 ADD MSTORE PUSH1 0x24 DUP7 ADD MSTORE PUSH1 0x44 DUP6 ADD MSTORE AND GAS CALL SWAP2 DUP3 ISZERO PUSH3 0xA6D JUMPI DUP1 SWAP5 DUP2 SWAP4 PUSH3 0x9EF JUMPI JUMPDEST POP POP POP DUP2 DUP5 MLOAD SWAP4 AND DUP4 MSTORE AND PUSH1 0x20 DUP3 ADD MSTORE RETURN JUMPDEST SWAP2 SWAP5 POP SWAP2 POP DUP5 SWAP1 RETURNDATASIZE DUP7 GT PUSH3 0xA64 JUMPI JUMPDEST PUSH1 0x1F DUP3 ADD PUSH1 0x1F NOT AND DUP6 ADD SWAP1 PUSH8 0xFFFFFFFFFFFFFFFF DUP3 GT DUP7 DUP4 LT OR PUSH3 0xA51 JUMPI POP DUP6 SWAP2 DUP6 SWAP2 DUP4 MSTORE DUP2 ADD SUB SLT PUSH3 0x118 JUMPI POP PUSH3 0xA48 PUSH1 0x20 PUSH3 0xA40 DUP5 PUSH3 0xCDB JUMP JUMPDEST SWAP4 ADD PUSH3 0xCDB JUMP JUMPDEST DUP5 DUP1 DUP1 PUSH3 0x9DD JUMP JUMPDEST PUSH4 0x4E487B71 PUSH1 0xE0 SHL DUP5 MSTORE PUSH1 0x41 SWAP1 MSTORE PUSH1 0x24 DUP4 REVERT JUMPDEST RETURNDATASIZE SWAP2 POP PUSH3 0x9FF JUMP JUMPDEST DUP6 MLOAD SWAP1 RETURNDATASIZE SWAP1 DUP3 RETURNDATACOPY RETURNDATASIZE SWAP1 REVERT JUMPDEST DUP5 DUP1 REVERT JUMPDEST SWAP1 POP CALLVALUE PUSH3 0x20C JUMPI PUSH1 0x20 CALLDATASIZE PUSH1 0x3 NOT ADD SLT PUSH3 0x20C JUMPI CALLDATALOAD SWAP2 PUSH1 0x7 SLOAD DUP4 LT ISZERO PUSH3 0x118 JUMPI POP PUSH1 0x1 PUSH1 0x1 PUSH1 0xA0 SHL SUB PUSH3 0xAB4 PUSH1 0x20 SWAP4 PUSH3 0xC40 JUMP JUMPDEST SWAP3 SWAP1 SLOAD SWAP1 MLOAD SWAP3 PUSH1 0x3 SHL SHR AND DUP2 MSTORE RETURN JUMPDEST POP POP CALLVALUE PUSH3 0xEB JUMPI PUSH1 0x20 CALLDATASIZE PUSH1 0x3 NOT ADD SLT PUSH3 0xEB JUMPI DUP1 PUSH1 0x20 SWAP3 PUSH3 0xFFFFFF PUSH3 0xAEA PUSH3 0xC2D JUMP JUMPDEST AND DUP2 MSTORE PUSH1 0x5 DUP5 MSTORE KECCAK256 SLOAD PUSH1 0x2 SIGNEXTEND SWAP1 MLOAD SWAP1 DUP2 MSTORE RETURN JUMPDEST POP POP CALLVALUE PUSH3 0xEB JUMPI PUSH1 0x60 CALLDATASIZE PUSH1 0x3 NOT ADD SLT PUSH3 0xEB JUMPI PUSH1 0x20 SWAP2 DUP2 PUSH3 0xB20 PUSH3 0xBE7 JUMP JUMPDEST SWAP2 PUSH3 0xB2B PUSH3 0xC03 JUMP JUMPDEST PUSH3 0xB35 PUSH3 0xC1A JUMP JUMPDEST SWAP1 PUSH1 0x1 PUSH1 0x1 PUSH1 0xA0 SHL SUB DUP1 SWAP6 AND DUP4 MSTORE PUSH1 0x6 DUP8 MSTORE DUP5 DUP5 DUP5 KECCAK256 SWAP2 AND DUP4 MSTORE DUP7 MSTORE PUSH3 0xFFFFFF DUP4 DUP4 KECCAK256 SWAP2 AND DUP3 MSTORE DUP6 MSTORE KECCAK256 SLOAD AND SWAP1 MLOAD SWAP1 DUP2 MSTORE RETURN JUMPDEST DUP4 CALLVALUE PUSH3 0x118 JUMPI PUSH1 0x20 CALLDATASIZE PUSH1 0x3 NOT ADD SLT PUSH3 0x118 JUMPI PUSH3 0xB86 PUSH3 0xBE7 JUMP JUMPDEST PUSH20 0xFFFFFFFFFFFFFFFFFFFFFFFFFFFFFFFFFFFFFFFF NOT PUSH1 0x3 SLOAD PUSH1 0x1 PUSH1 0x1 PUSH1 0xA0 SHL SUB DUP1 DUP3 AND SWAP4 PUSH3 0xBB8 DUP6 CALLER EQ PUSH3 0xC8E JUMP JUMPDEST AND DUP1 SWAP4 PUSH32 0xB532073B38C83145E3E5135377A08BF9AAB55BC0FD7C1179CD4FB995D2A5159C DUP7 DUP1 LOG3 AND OR PUSH1 0x3 SSTORE DUP1 RETURN JUMPDEST PUSH1 0x4 CALLDATALOAD SWAP1 PUSH1 0x1 PUSH1 0x1 PUSH1 0xA0 SHL SUB DUP3 AND DUP3 SUB PUSH3 0xBFE JUMPI JUMP JUMPDEST PUSH1 0x0 DUP1 REVERT JUMPDEST PUSH1 0x24 CALLDATALOAD SWAP1 PUSH1 0x1 PUSH1 0x1 PUSH1 0xA0 SHL SUB DUP3 AND DUP3 SUB PUSH3 0xBFE JUMPI JUMP JUMPDEST PUSH1 0x44 CALLDATALOAD SWAP1 PUSH3 0xFFFFFF DUP3 AND DUP3 SUB PUSH3 0xBFE JUMPI JUMP JUMPDEST PUSH1 0x4 CALLDATALOAD SWAP1 PUSH3 0xFFFFFF DUP3 AND DUP3 SUB PUSH3 0xBFE JUMPI JUMP JUMPDEST PUSH1 0x7 SLOAD DUP2 LT ISZERO PUSH3 0xC78 JUMPI PUSH1 0x7 PUSH1 0x0 MSTORE PUSH32 0xA66CC928B5EDB82AF9BD49922954155AB7B0942694BEA4CE44661D9A8736C688 ADD SWAP1 PUSH1 0x0 SWAP1 JUMP JUMPDEST PUSH4 0x4E487B71 PUSH1 0xE0 SHL PUSH1 0x0 MSTORE PUSH1 0x32 PUSH1 0x4 MSTORE PUSH1 0x24 PUSH1 0x0 REVERT JUMPDEST ISZERO PUSH3 0xC96 JUMPI JUMP JUMPDEST PUSH1 0x40 MLOAD PUSH3 0x461BCD PUSH1 0xE5 SHL DUP2 MSTORE PUSH1 0x20 PUSH1 0x4 DUP3 ADD MSTORE PUSH1 0x19 PUSH1 0x24 DUP3 ADD MSTORE PUSH32 0x4B6F7274616E61466163746F72793A204E4F545F4F574E455200000000000000 PUSH1 0x44 DUP3 ADD MSTORE PUSH1 0x64 SWAP1 REVERT JUMPDEST MLOAD SWAP1 PUSH16 0xFFFFFFFFFFFFFFFFFFFFFFFFFFFFFFFF DUP3 AND DUP3 SUB PUSH3 0xBFE JUMPI JUMP INVALID PUSH2 0x160 DUP1 PUSH1 0x40 MSTORE CALLVALUE PUSH3 0x32E JUMPI PUSH1 0x1 PUSH32 0x9B779B17422D0DF92223018B32B4D1FA46E071723D6817E2486D003BECC55F00 SSTORE ADDRESS PUSH1 0x80 MSTORE PUSH4 0x8903573 PUSH1 0xE4 SHL DUP2 MSTORE PUSH1 0xA0 SWAP1 PUSH1 0x4 DUP3 DUP3 DUP3 DUP2 CALLER GAS STATICCALL DUP1 ISZERO PUSH3 0x322 JUMPI PUSH1 0x0 DUP1 DUP2 DUP3 SWAP6 DUP4 SWAP5 PUSH3 0x266 JUMPI JUMPDEST POP PUSH2 0x100 SWAP6 DUP7 MSTORE PUSH1 0xE0 MSTORE PUSH1 0xC0 MSTORE DUP5 MSTORE PUSH2 0x120 SWAP1 DUP1 DUP3 MSTORE DUP1 PUSH1 0x2 SIGNEXTEND SWAP1 DUP2 ISZERO PUSH3 0x251 JUMPI PUSH3 0xA4 PUSH3 0x97 DUP3 DUP5 PUSH3 0xD89E7 NOT SDIV PUSH3 0x348 JUMP JUMPDEST SWAP2 DUP4 PUSH3 0xD89E8 SDIV PUSH3 0x348 JUMP JUMPDEST PUSH1 0x2 SIGNEXTEND SWAP1 PUSH1 0x2 SIGNEXTEND SWAP1 SUB PUSH3 0x7FFFFF NOT SWAP1 PUSH3 0x7FFFFF DUP2 SGT DUP3 DUP3 SLT OR PUSH3 0x23C JUMPI PUSH1 0x2 SIGNEXTEND SWAP1 DUP2 EQ PUSH1 0x0 NOT DUP4 EQ AND PUSH3 0x227 JUMPI PUSH3 0xFFFFFF SWAP2 SWAP1 SDIV DUP2 AND PUSH1 0x1 ADD DUP2 DUP2 GT PUSH3 0x227 JUMPI AND SWAP2 DUP3 ISZERO PUSH3 0x212 JUMPI POP PUSH2 0x140 SWAP2 PUSH1 0x1 DUP1 PUSH1 0x80 SHL SUB DIV DUP3 MSTORE PUSH1 0x40 MLOAD SWAP3 PUSH2 0x54D2 SWAP5 DUP6 PUSH3 0x377 DUP7 CODECOPY PUSH1 0x80 MLOAD DUP6 DUP2 DUP2 PUSH2 0x56A ADD MSTORE DUP2 DUP2 PUSH2 0x71B ADD MSTORE DUP2 DUP2 PUSH2 0x1111 ADD MSTORE DUP2 DUP2 PUSH2 0x164C ADD MSTORE DUP2 DUP2 PUSH2 0x1947 ADD MSTORE PUSH2 0x1B36 ADD MSTORE MLOAD DUP5 DUP2 DUP2 PUSH2 0x4EA ADD MSTORE PUSH2 0x973 ADD MSTORE PUSH1 0xC0 MLOAD DUP5 DUP2 DUP2 PUSH2 0xBB2 ADD MSTORE DUP2 DUP2 PUSH2 0x104E ADD MSTORE DUP2 DUP2 PUSH2 0x1509 ADD MSTORE DUP2 DUP2 PUSH2 0x2D92 ADD MSTORE DUP2 DUP2 PUSH2 0x2FDC ADD MSTORE PUSH2 0x33BB ADD MSTORE PUSH1 0xE0 MLOAD DUP5 DUP2 DUP2 PUSH2 0x468 ADD MSTORE DUP2 DUP2 PUSH2 0xAD2 ADD MSTORE DUP2 DUP2 PUSH2 0xF89 ADD MSTORE DUP2 DUP2 PUSH2 0x147A ADD MSTORE DUP2 DUP2 PUSH2 0x2C4A ADD MSTORE PUSH2 0x344C ADD MSTORE MLOAD DUP4 DUP2 DUP2 PUSH2 0x424 ADD MSTORE DUP2 DUP2 PUSH2 0x1153 ADD MSTORE DUP2 DUP2 PUSH2 0x1F0C ADD MSTORE PUSH2 0x2401 ADD MSTORE MLOAD DUP3 DUP2 DUP2 PUSH2 0x4A4 ADD MSTORE DUP2 DUP2 PUSH2 0x1D31 ADD MSTORE DUP2 DUP2 PUSH2 0x1E2F ADD MSTORE DUP2 DUP2 PUSH2 0x271B ADD MSTORE DUP2 DUP2 PUSH2 0x2840 ADD MSTORE DUP2 DUP2 PUSH2 0x2917 ADD MSTORE DUP2 DUP2 PUSH2 0x2982 ADD MSTORE DUP2 DUP2 PUSH2 0x393F ADD MSTORE PUSH2 0x396E ADD MSTORE MLOAD DUP2 DUP2 DUP2 PUSH2 0xCDE ADD MSTORE DUP2 DUP2 PUSH2 0x37AD ADD MSTORE PUSH2 0x3893 ADD MSTORE RETURN JUMPDEST PUSH1 0x12 SWAP1 PUSH4 0x4E487B71 PUSH1 0xE0 SHL PUSH1 0x0 MSTORE MSTORE PUSH1 0x24 PUSH1 0x0 REVERT JUMPDEST PUSH1 0x11 DUP5 PUSH4 0x4E487B71 PUSH1 0xE0 SHL PUSH1 0x0 MSTORE MSTORE PUSH1 0x24 PUSH1 0x0 REVERT JUMPDEST PUSH1 0x11 DUP6 PUSH4 0x4E487B71 PUSH1 0xE0 SHL PUSH1 0x0 MSTORE MSTORE PUSH1 0x24 PUSH1 0x0 REVERT JUMPDEST PUSH1 0x12 DUP5 PUSH4 0x4E487B71 PUSH1 0xE0 SHL PUSH1 0x0 MSTORE MSTORE PUSH1 0x24 PUSH1 0x0 REVERT JUMPDEST SWAP4 POP POP POP SWAP3 POP DUP4 RETURNDATASIZE DUP6 GT PUSH3 0x31A JUMPI JUMPDEST PUSH1 0x1F DUP2 ADD PUSH1 0x1F NOT AND DUP3 ADD PUSH1 0x1 PUSH1 0x1 PUSH1 0x40 SHL SUB DUP2 GT DUP4 DUP3 LT OR PUSH3 0x307 JUMPI DUP6 SWAP2 DUP4 SWAP2 PUSH1 0x40 MSTORE DUP2 ADD SUB SLT PUSH3 0x303 JUMPI PUSH3 0x2AE DUP2 PUSH3 0x333 JUMP JUMPDEST PUSH3 0x2BC PUSH1 0x20 DUP4 ADD PUSH3 0x333 JUMP JUMPDEST SWAP1 PUSH3 0x2CB PUSH1 0x40 DUP5 ADD PUSH3 0x333 JUMP JUMPDEST SWAP1 PUSH1 0x60 DUP5 ADD MLOAD SWAP4 PUSH3 0xFFFFFF DUP6 AND DUP6 SUB PUSH3 0x2FF JUMPI PUSH1 0x80 ADD MLOAD SWAP6 DUP7 PUSH1 0x2 SIGNEXTEND DUP8 SUB PUSH3 0x2FC JUMPI POP SWAP2 SWAP1 SWAP3 SWAP5 SWAP3 CODESIZE PUSH3 0x5F JUMP JUMPDEST DUP1 REVERT JUMPDEST DUP7 DUP1 REVERT JUMPDEST DUP3 DUP1 REVERT JUMPDEST PUSH4 0x4E487B71 PUSH1 0xE0 SHL DUP6 MSTORE PUSH1 0x41 DUP5 MSTORE PUSH1 0x24 DUP6 REVERT JUMPDEST POP RETURNDATASIZE PUSH3 0x276 JUMP JUMPDEST PUSH1 0x40 MLOAD RETURNDATASIZE PUSH1 0x0 DUP3 RETURNDATACOPY RETURNDATASIZE SWAP1 REVERT JUMPDEST PUSH1 0x0 DUP1 REVERT JUMPDEST MLOAD SWAP1 PUSH1 0x1 PUSH1 0x1 PUSH1 0xA0 SHL SUB DUP3 AND DUP3 SUB PUSH3 0x32E JUMPI JUMP JUMPDEST SWAP1 PUSH1 0x2 SIGNEXTEND SWAP1 PUSH1 0x2 SIGNEXTEND MUL SWAP1 DUP2 PUSH1 0x2 SIGNEXTEND SWAP2 DUP3 SUB PUSH3 0x360 JUMPI JUMP JUMPDEST PUSH4 0x4E487B71 PUSH1 0xE0 SHL PUSH1 0x0 MSTORE PUSH1 0x11 PUSH1 0x4 MSTORE PUSH1 0x24 PUSH1 0x0 REVERT INVALID PUSH1 0x80 DUP1 PUSH1 0x40 MSTORE PUSH1 0x4 CALLDATASIZE LT ISZERO PUSH2 0x13 JUMPI PUSH1 0x0 DUP1 REVERT JUMPDEST PUSH1 0x0 SWAP1 DUP2 CALLDATALOAD PUSH1 0xE0 SHR SWAP1 DUP2 PUSH4 0xDFE1681 EQ PUSH2 0x2FBD JUMPI POP DUP1 PUSH4 0x128ACB08 EQ PUSH2 0x1ACA JUMPI DUP1 PUSH4 0x1A686502 EQ PUSH2 0x1AA3 JUMPI DUP1 PUSH4 0x1AD8B03B EQ PUSH2 0x1A71 JUMPI DUP1 PUSH4 0x252C09D7 EQ PUSH2 0x1A14 JUMPI DUP1 PUSH4 0x32148F67 EQ PUSH2 0x18FA JUMPI DUP1 PUSH4 0x3850C7BD EQ PUSH2 0x188C JUMPI DUP1 PUSH4 0x3C8A7D8D EQ PUSH2 0x15C9 JUMPI DUP1 PUSH4 0x46141319 EQ PUSH2 0x15AB JUMPI DUP1 PUSH4 0x490E6CBC EQ PUSH2 0x10AA JUMPI DUP1 PUSH4 0x4F1EB3D8 EQ PUSH2 0xD9A JUMPI DUP1 PUSH4 0x514EA4BF EQ PUSH2 0xD38 JUMPI DUP1 PUSH4 0x5339C296 EQ PUSH2 0xD02 JUMPI DUP1 PUSH4 0x70CF754A EQ PUSH2 0xCBE JUMPI DUP1 PUSH4 0x85B66729 EQ PUSH2 0x8FA JUMPI DUP1 PUSH4 0x883BDBFD EQ PUSH2 0x6BA JUMPI DUP1 PUSH4 0xA34123A7 EQ PUSH2 0x50E JUMPI DUP1 PUSH4 0xC45A0155 EQ PUSH2 0x4CA JUMPI DUP1 PUSH4 0xD0C93A7C EQ PUSH2 0x48C JUMPI DUP1 PUSH4 0xD21220A7 EQ PUSH2 0x448 JUMPI DUP1 PUSH4 0xDDCA3F43 EQ PUSH2 0x408 JUMPI DUP1 PUSH4 0xF3058399 EQ PUSH2 0x3EA JUMPI DUP1 PUSH4 0xF30DBA93 EQ PUSH2 0x350 JUMPI PUSH4 0xF637731D EQ PUSH2 0x129 JUMPI PUSH1 0x0 DUP1 REVERT JUMPDEST CALLVALUE PUSH2 0x34D JUMPI PUSH1 0x20 DUP1 PUSH1 0x3 NOT CALLDATASIZE ADD SLT PUSH2 0x349 JUMPI PUSH2 0x143 PUSH2 0x3000 JUMP JUMPDEST PUSH1 0x1 PUSH1 0x1 PUSH1 0xA0 SHL SUB SWAP2 DUP3 DUP5 SLOAD AND PUSH2 0x306 JUMPI SWAP2 DUP2 PUSH32 0x98636036CB66A9C19A37435EFC1E90142190214E8ABEB821BDBA3F2990DD4C95 SWAP4 PUSH28 0x1000000000000000000000000000000000000000000000000000000 PUSH32 0xFFFFFF0000FFFFFFFFFFFFFFFFFFFFFFFFFFFFFFFFFFFFFFFFFFFFFFFFFFFFFF PUSH26 0x100000000000000000000000000000000000000000000000000 PUSH2 0x1DC PUSH1 0x40 SWAP8 PUSH2 0x5137 JUMP JUMPDEST SWAP6 PUSH4 0xFFFFFFFF TIMESTAMP AND PUSH1 0x1 PUSH1 0x60 DUP11 MLOAD PUSH2 0x1F3 DUP2 PUSH2 0x30E6 JUMP JUMPDEST DUP4 DUP2 MSTORE DUP14 DUP10 DUP3 ADD MSTORE DUP14 DUP13 DUP3 ADD MSTORE ADD MSTORE PUSH1 0x1 PUSH1 0xF8 SHL SWAP1 PUSH11 0xFFFFFFFFFFFFFF00000000 DUP13 DUP9 SHL AND OR PUSH31 0xFFFFFFFFFFFFFFFFFFFFFFFFFFFFFFFFFFFFFFFF0000000000000000000000 DUP13 PUSH1 0x58 SHL AND OR OR PUSH1 0x8 SSTORE DUP8 MLOAD SWAP6 PUSH2 0x24F DUP8 PUSH2 0x30A0 JUMP JUMPDEST AND SWAP6 DUP7 DUP7 MSTORE PUSH1 0x1 PUSH1 0xC0 DUP3 PUSH1 0x2 SIGNEXTEND SWAP8 DUP9 DUP9 DUP3 ADD MSTORE DUP13 DUP12 DUP3 ADD MSTORE DUP3 PUSH1 0x60 DUP3 ADD MSTORE DUP3 PUSH1 0x80 DUP3 ADD MSTORE DUP13 PUSH1 0xA0 DUP3 ADD MSTORE ADD MSTORE PUSH3 0xFFFFFF PUSH1 0xA0 SHL DUP8 PUSH32 0xFFFFFFFFFF000000000000000000000000000000000000000000000000000000 PUSH1 0x0 SLOAD AND OR SWAP2 PUSH1 0xA0 SHL AND OR PUSH2 0xFFFF PUSH1 0xB8 SHL DUP11 PUSH1 0xB8 SHL AND OR OR AND OR PUSH1 0x0 SSTORE PUSH32 0xFFFF00FFFFFFFFFFFFFFFFFFFFFFFFFFFFFFFFFFFFFFFFFFFFFFFFFFFFFFFFFF DUP7 SLOAD AND DUP7 SSTORE PUSH1 0x1 PUSH1 0xF0 SHL PUSH1 0xFF PUSH1 0xF0 SHL NOT PUSH1 0x0 SLOAD AND OR PUSH1 0x0 SSTORE DUP4 MLOAD SWAP3 DUP4 MSTORE DUP3 ADD MSTORE LOG1 DUP1 RETURN JUMPDEST PUSH1 0x64 SWAP1 PUSH1 0x40 MLOAD SWAP1 PUSH3 0x461BCD PUSH1 0xE5 SHL DUP3 MSTORE DUP1 PUSH1 0x4 DUP4 ADD MSTORE PUSH1 0x24 DUP3 ADD MSTORE PUSH32 0x4B6F7274616E61506F6F6C3A20414C52454144595F494E495449414C495A4544 PUSH1 0x44 DUP3 ADD MSTORE REVERT JUMPDEST POP DUP1 REVERT JUMPDEST DUP1 REVERT JUMPDEST POP CALLVALUE PUSH2 0x34D JUMPI PUSH1 0x20 CALLDATASIZE PUSH1 0x3 NOT ADD SLT PUSH2 0x34D JUMPI PUSH1 0x40 PUSH2 0x100 SWAP2 PUSH2 0x370 PUSH2 0x3064 JUMP JUMPDEST PUSH1 0x2 SIGNEXTEND DUP2 MSTORE PUSH1 0x5 PUSH1 0x20 MSTORE KECCAK256 DUP1 SLOAD SWAP1 PUSH1 0x1 DUP2 ADD SLOAD SWAP1 PUSH1 0x3 PUSH1 0x2 DUP3 ADD SLOAD SWAP2 ADD SLOAD SWAP2 PUSH1 0x40 MLOAD SWAP4 PUSH1 0x1 PUSH1 0x1 PUSH1 0x80 SHL SUB DUP2 AND DUP6 MSTORE PUSH1 0x80 SAR PUSH1 0xF SIGNEXTEND PUSH1 0x20 DUP6 ADD MSTORE PUSH1 0x40 DUP5 ADD MSTORE PUSH1 0x60 DUP4 ADD MSTORE DUP1 PUSH1 0x6 SIGNEXTEND PUSH1 0x80 DUP4 ADD MSTORE PUSH1 0x1 PUSH1 0x1 PUSH1 0xA0 SHL SUB DUP2 PUSH1 0x38 SHR AND PUSH1 0xA0 DUP4 ADD MSTORE PUSH4 0xFFFFFFFF DUP2 PUSH1 0xD8 SHR AND PUSH1 0xC0 DUP4 ADD MSTORE PUSH1 0xF8 SHR ISZERO ISZERO PUSH1 0xE0 DUP3 ADD MSTORE RETURN JUMPDEST POP CALLVALUE PUSH2 0x34D JUMPI DUP1 PUSH1 0x3 NOT CALLDATASIZE ADD SLT PUSH2 0x34D JUMPI PUSH1 0x20 PUSH1 0x1 SLOAD PUSH1 0x40 MLOAD SWAP1 DUP2 MSTORE RETURN JUMPDEST POP CALLVALUE PUSH2 0x34D JUMPI DUP1 PUSH1 0x3 NOT CALLDATASIZE ADD SLT PUSH2 0x34D JUMPI PUSH1 0x20 PUSH1 0x40 MLOAD PUSH3 0xFFFFFF PUSH32 0x0 AND DUP2 MSTORE RETURN JUMPDEST POP CALLVALUE PUSH2 0x34D JUMPI DUP1 PUSH1 0x3 NOT CALLDATASIZE ADD SLT PUSH2 0x34D JUMPI PUSH1 0x20 PUSH1 0x40 MLOAD PUSH1 0x1 PUSH1 0x1 PUSH1 0xA0 SHL SUB PUSH32 0x0 AND DUP2 MSTORE RETURN JUMPDEST POP CALLVALUE PUSH2 0x34D JUMPI DUP1 PUSH1 0x3 NOT CALLDATASIZE ADD SLT PUSH2 0x34D JUMPI PUSH1 0x20 PUSH1 0x40 MLOAD PUSH32 0x0 PUSH1 0x2 SIGNEXTEND DUP2 MSTORE RETURN JUMPDEST POP CALLVALUE PUSH2 0x34D JUMPI DUP1 PUSH1 0x3 NOT CALLDATASIZE ADD SLT PUSH2 0x34D JUMPI PUSH1 0x20 PUSH1 0x40 MLOAD PUSH1 0x1 PUSH1 0x1 PUSH1 0xA0 SHL SUB PUSH32 0x0 AND DUP2 MSTORE RETURN JUMPDEST POP CALLVALUE PUSH2 0x34D JUMPI PUSH1 0x60 CALLDATASIZE PUSH1 0x3 NOT ADD SLT PUSH2 0x34D JUMPI PUSH2 0x5E1 PUSH1 0x40 SWAP2 PUSH2 0x52E PUSH2 0x3064 JUMP JUMPDEST SWAP1 PUSH2 0x537 PUSH2 0x3044 JUMP JUMPDEST PUSH2 0x53F PUSH2 0x308A JUMP JUMPDEST SWAP3 DUP3 SLOAD PUSH2 0x551 PUSH1 0xFF DUP3 PUSH1 0xF0 SHR AND PUSH2 0x3124 JUMP JUMPDEST PUSH1 0xFF PUSH1 0xF0 SHL NOT SWAP3 DUP4 DUP3 AND DUP6 SSTORE PUSH2 0x591 PUSH1 0x1 PUSH1 0x1 PUSH1 0xA0 SHL SUB PUSH32 0x0 AND ADDRESS EQ PUSH2 0x3170 JUMP JUMPDEST PUSH2 0x5DB PUSH2 0x5D2 PUSH1 0x1 PUSH1 0x1 PUSH1 0x80 SHL SUB DUP1 SWAP9 AND SWAP4 PUSH12 0xFF00FFFFFFFFFFFFFFFFFFFF PUSH2 0x5C1 PUSH2 0x5BC DUP8 PUSH2 0x477D JUMP JUMPDEST PUSH2 0x328F JUMP JUMPDEST SWAP2 PUSH1 0xA0 SHR AND PUSH1 0x2 SIGNEXTEND SWAP1 DUP5 DUP8 CALLER PUSH2 0x3488 JUMP JUMPDEST SWAP10 SWAP2 SWAP3 SWAP1 PUSH2 0x32B0 JUMP JUMPDEST SWAP9 PUSH2 0x32B0 JUMP JUMPDEST SWAP7 DUP9 ISZERO DUP1 ISZERO SWAP1 PUSH2 0x6B1 JUMPI JUMPDEST PUSH2 0x648 JUMPI JUMPDEST POP POP DUP8 MLOAD SWAP2 DUP3 MSTORE DUP7 PUSH1 0x20 DUP4 ADD MSTORE DUP6 DUP9 DUP4 ADD MSTORE PUSH1 0x2 SIGNEXTEND SWAP2 PUSH1 0x2 SIGNEXTEND SWAP1 PUSH32 0xC396CD989A39F4459B5FA1AED6A9A8DCDBC45908ACFD67E028CD568DA98982C PUSH1 0x60 CALLER SWAP3 LOG4 DUP2 SLOAD AND PUSH1 0x1 PUSH1 0xF0 SHL OR SWAP1 SSTORE DUP3 MLOAD SWAP2 DUP3 MSTORE PUSH1 0x20 DUP3 ADD MSTORE RETURN JUMPDEST PUSH2 0x681 PUSH1 0x3 PUSH2 0x6AA SWAP4 ADD SWAP2 DUP11 DUP2 PUSH2 0x665 DUP2 DUP7 SLOAD SWAP4 AND DUP3 DUP5 AND PUSH2 0x32C1 JUMP JUMPDEST AND SWAP1 PUSH1 0x1 PUSH1 0x1 PUSH1 0x80 SHL SUB NOT AND OR SWAP1 DUP2 DUP5 SSTORE DUP11 AND SWAP1 PUSH1 0x80 SHR PUSH2 0x32C1 JUMP JUMPDEST DUP2 SLOAD PUSH1 0x1 PUSH1 0x1 PUSH1 0x80 SHL SUB AND PUSH1 0x80 SWAP2 SWAP1 SWAP2 SHL PUSH16 0xFFFFFFFFFFFFFFFFFFFFFFFFFFFFFFFF NOT AND OR SWAP1 SSTORE JUMP JUMPDEST CODESIZE DUP1 PUSH2 0x5F1 JUMP JUMPDEST POP DUP8 ISZERO ISZERO PUSH2 0x5EC JUMP JUMPDEST POP CALLVALUE PUSH2 0x34D JUMPI PUSH1 0x20 CALLDATASIZE PUSH1 0x3 NOT ADD SLT PUSH2 0x34D JUMPI PUSH8 0xFFFFFFFFFFFFFFFF DUP1 PUSH1 0x4 CALLDATALOAD GT PUSH2 0x349 JUMPI CALLDATASIZE PUSH1 0x23 PUSH1 0x4 CALLDATALOAD ADD SLT ISZERO PUSH2 0x349 JUMPI PUSH1 0x4 CALLDATALOAD PUSH1 0x4 ADD CALLDATALOAD GT PUSH2 0x34D JUMPI CALLDATASIZE PUSH1 0x24 PUSH1 0x4 CALLDATALOAD PUSH1 0x4 ADD CALLDATALOAD PUSH1 0x5 SHL PUSH1 0x4 CALLDATALOAD ADD ADD GT PUSH2 0x34D JUMPI PUSH2 0x742 PUSH1 0x1 PUSH1 0x1 PUSH1 0xA0 SHL SUB PUSH32 0x0 AND ADDRESS EQ PUSH2 0x3170 JUMP JUMPDEST DUP1 SLOAD PUSH1 0x1 PUSH1 0x1 PUSH1 0x80 SHL SUB PUSH1 0x4 SLOAD AND SWAP1 PUSH2 0xFFFF SWAP1 PUSH2 0x765 DUP3 DUP3 PUSH1 0xC8 SHR AND ISZERO ISZERO PUSH2 0x422B JUMP JUMPDEST PUSH2 0x774 PUSH1 0x4 CALLDATALOAD PUSH1 0x4 ADD CALLDATALOAD PUSH2 0x450F JUMP JUMPDEST SWAP2 PUSH2 0x782 PUSH1 0x40 MLOAD SWAP4 DUP5 PUSH2 0x3102 JUMP JUMPDEST PUSH1 0x4 DUP1 CALLDATALOAD ADD CALLDATALOAD DUP1 DUP5 MSTORE PUSH1 0x1F NOT SWAP5 SWAP1 DUP6 SWAP1 PUSH2 0x79B SWAP1 PUSH2 0x450F JUMP JUMPDEST ADD CALLDATASIZE PUSH1 0x20 DUP7 ADD CALLDATACOPY PUSH2 0x7B1 PUSH1 0x4 CALLDATALOAD PUSH1 0x4 ADD CALLDATALOAD PUSH2 0x450F JUMP JUMPDEST SWAP5 PUSH2 0x7BF PUSH1 0x40 MLOAD SWAP7 DUP8 PUSH2 0x3102 JUMP JUMPDEST PUSH1 0x4 DUP1 CALLDATALOAD ADD CALLDATALOAD DUP1 DUP8 MSTORE PUSH2 0x7D1 SWAP1 PUSH2 0x450F JUMP JUMPDEST ADD CALLDATASIZE PUSH1 0x20 DUP8 ADD CALLDATACOPY DUP6 SWAP2 DUP1 DUP5 PUSH1 0xB8 SHR AND SWAP1 DUP5 PUSH1 0xA0 SHR PUSH1 0x2 SIGNEXTEND SWAP4 JUMPDEST PUSH1 0x4 CALLDATALOAD PUSH1 0x4 ADD CALLDATALOAD DUP2 LT PUSH2 0x884 JUMPI DUP9 DUP8 DUP10 PUSH1 0x40 MLOAD SWAP3 DUP4 SWAP3 PUSH1 0x40 DUP5 ADD PUSH1 0x40 DUP6 MSTORE DUP2 MLOAD DUP1 SWAP2 MSTORE PUSH1 0x20 PUSH1 0x60 DUP7 ADD SWAP3 ADD SWAP1 DUP4 JUMPDEST DUP2 DUP2 LT PUSH2 0x868 JUMPI POP POP POP DUP4 DUP2 SUB PUSH1 0x20 DUP6 ADD MSTORE PUSH1 0x20 DUP1 DUP5 MLOAD SWAP3 DUP4 DUP2 MSTORE ADD SWAP4 ADD SWAP2 JUMPDEST DUP2 DUP2 LT PUSH2 0x846 JUMPI POP POP POP SUB SWAP1 RETURN JUMPDEST DUP3 MLOAD PUSH1 0x1 PUSH1 0x1 PUSH1 0xA0 SHL SUB AND DUP5 MSTORE DUP6 SWAP5 POP PUSH1 0x20 SWAP4 DUP5 ADD SWAP4 SWAP1 SWAP3 ADD SWAP2 PUSH1 0x1 ADD PUSH2 0x838 JUMP JUMPDEST DUP3 MLOAD PUSH1 0x6 SIGNEXTEND DUP5 MSTORE DUP8 SWAP7 POP PUSH1 0x20 SWAP4 DUP5 ADD SWAP4 SWAP1 SWAP3 ADD SWAP2 PUSH1 0x1 ADD PUSH2 0x818 JUMP JUMPDEST PUSH1 0x4 CALLDATALOAD PUSH1 0x5 DUP3 SWAP1 SHL ADD PUSH1 0x24 ADD CALLDATALOAD PUSH4 0xFFFFFFFF DUP2 AND SWAP1 SUB PUSH2 0x8F6 JUMPI PUSH2 0x8F1 SWAP1 PUSH2 0x8C6 DUP4 DUP9 PUSH1 0xC8 SHR AND DUP7 DUP7 DUP10 PUSH1 0x24 DUP7 PUSH1 0x5 SHL PUSH1 0x4 CALLDATALOAD ADD ADD CALLDATALOAD PUSH4 0xFFFFFFFF TIMESTAMP AND PUSH2 0x4391 JUMP JUMPDEST PUSH1 0x1 PUSH1 0x1 PUSH1 0xA0 SHL SUB PUSH2 0x8D8 DUP5 DUP14 PUSH2 0x4527 JUMP JUMPDEST SWAP2 AND SWAP1 MSTORE PUSH2 0x8E6 DUP3 DUP11 PUSH2 0x4527 JUMP JUMPDEST SWAP1 PUSH1 0x6 SIGNEXTEND SWAP1 MSTORE PUSH2 0x3DFD JUMP JUMPDEST PUSH2 0x7EA JUMP JUMPDEST DUP9 DUP1 REVERT JUMPDEST POP CALLVALUE PUSH2 0x34D JUMPI PUSH1 0x60 CALLDATASIZE PUSH1 0x3 NOT ADD SLT PUSH2 0x34D JUMPI PUSH2 0x914 PUSH2 0x3000 JUMP JUMPDEST PUSH1 0x24 CALLDATALOAD SWAP2 PUSH1 0x1 PUSH1 0x1 PUSH1 0x80 SHL SUB DUP1 DUP5 AND SWAP3 DUP4 DUP6 SUB PUSH2 0xCB9 JUMPI PUSH2 0x933 PUSH2 0x308A JUMP JUMPDEST SWAP4 DUP4 SLOAD SWAP3 PUSH2 0x946 PUSH1 0xFF DUP6 PUSH1 0xF0 SHR AND PUSH2 0x3124 JUMP JUMPDEST PUSH1 0xFF PUSH1 0xF0 SHL NOT SWAP4 DUP5 AND DUP6 SSTORE PUSH1 0x40 MLOAD PUSH4 0x8DA5CB5B PUSH1 0xE0 SHL DUP2 MSTORE PUSH1 0x1 PUSH1 0x1 PUSH1 0xA0 SHL SUB SWAP3 PUSH1 0x20 SWAP3 SWAP1 SWAP2 DUP4 DUP2 PUSH1 0x4 DUP2 PUSH32 0x0 DUP10 AND GAS STATICCALL SWAP1 DUP2 ISZERO PUSH2 0xC05 JUMPI SWAP1 DUP6 SWAP2 DUP10 SWAP2 PUSH2 0xC7B JUMPI JUMPDEST POP AND CALLER SUB PUSH2 0xC36 JUMPI PUSH1 0x3 SLOAD SWAP9 DUP2 DUP11 AND DUP1 SWAP4 GT PUSH1 0x0 EQ PUSH2 0xC30 JUMPI POP DUP2 SWAP9 JUMPDEST DUP10 SWAP9 DUP2 PUSH1 0x80 SHR SWAP1 DUP2 DUP5 DUP3 AND GT PUSH1 0x0 EQ PUSH2 0xC28 JUMPI POP SWAP3 JUMPDEST DUP4 SWAP11 DUP4 DUP2 AND DUP1 PUSH2 0xB51 JUMPI JUMPDEST POP POP POP POP DUP1 DUP3 AND DUP1 PUSH2 0xA61 JUMPI JUMPDEST POP POP PUSH1 0x40 DUP1 MLOAD PUSH1 0x1 PUSH1 0x1 PUSH1 0x80 SHL SUB DUP10 DUP2 AND DUP3 MSTORE DUP11 AND PUSH1 0x20 DUP3 ADD MSTORE SWAP5 SWAP1 SWAP4 AND SWAP4 CALLER SWAP4 PUSH32 0x596B573906218D3411850B26A6B437D6C4522FDB43D2D2386263F86D50B8B151 SWAP4 POP SWAP2 POP LOG3 DUP2 SLOAD AND PUSH1 0x1 PUSH1 0xF0 SHL OR SWAP1 SSTORE PUSH1 0x40 DUP1 MLOAD PUSH1 0x1 PUSH1 0x1 PUSH1 0x80 SHL SUB SWAP3 DUP4 AND DUP2 MSTORE SWAP3 SWAP1 SWAP2 AND PUSH1 0x20 DUP4 ADD MSTORE SWAP1 RETURN JUMPDEST PUSH1 0x3 SLOAD SWAP3 DUP4 PUSH1 0x80 SHR DUP1 SWAP3 EQ PUSH2 0xB3F JUMPI JUMPDEST POP PUSH2 0xA85 DUP11 PUSH1 0x1 PUSH1 0x1 PUSH1 0x80 SHL SUB NOT SWAP3 PUSH2 0x325E JUMP JUMPDEST PUSH1 0x80 SHL AND SWAP2 AND OR PUSH1 0x3 SSTORE PUSH1 0x40 MLOAD PUSH4 0xA9059CBB PUSH1 0xE0 SHL DUP2 MSTORE DUP2 DUP2 DUP1 PUSH2 0xACC DUP12 DUP9 PUSH1 0x4 DUP5 ADD SWAP1 SWAP3 SWAP2 PUSH1 0x1 PUSH1 0x1 PUSH1 0x80 SHL SUB PUSH1 0x20 SWAP2 PUSH1 0x1 PUSH1 0x1 PUSH1 0xA0 SHL SUB PUSH1 0x40 DUP6 ADD SWAP7 AND DUP5 MSTORE AND SWAP2 ADD MSTORE JUMP JUMPDEST SUB DUP2 DUP10 DUP8 PUSH32 0x0 AND GAS CALL DUP1 ISZERO PUSH2 0xB34 JUMPI PUSH2 0xB06 JUMPI JUMPDEST DUP1 DUP1 PUSH2 0x9F2 JUMP JUMPDEST DUP2 PUSH2 0xB25 SWAP3 SWAP1 RETURNDATASIZE LT PUSH2 0xB2D JUMPI JUMPDEST PUSH2 0xB1D DUP2 DUP4 PUSH2 0x3102 JUMP JUMPDEST DUP2 ADD SWAP1 PUSH2 0x3277 JUMP JUMPDEST POP CODESIZE DUP1 PUSH2 0xAFF JUMP JUMPDEST POP RETURNDATASIZE PUSH2 0xB13 JUMP JUMPDEST PUSH1 0x40 MLOAD RETURNDATASIZE DUP9 DUP3 RETURNDATACOPY RETURNDATASIZE SWAP1 REVERT JUMPDEST PUSH2 0xB4A SWAP2 SWAP11 POP PUSH2 0x338A JUMP JUMPDEST SWAP9 CODESIZE PUSH2 0xA71 JUMP JUMPDEST DUP3 EQ PUSH2 0xC10 JUMPI JUMPDEST POP PUSH2 0xB64 DUP11 DUP5 SWAP3 PUSH2 0x325E JUMP JUMPDEST AND PUSH16 0xFFFFFFFFFFFFFFFFFFFFFFFFFFFFFFFF NOT SWAP2 SWAP1 SWAP2 AND OR PUSH1 0x3 SSTORE PUSH1 0x40 MLOAD PUSH4 0xA9059CBB PUSH1 0xE0 SHL DUP2 MSTORE PUSH1 0x1 PUSH1 0x1 PUSH1 0xA0 SHL SUB DUP7 AND PUSH1 0x4 DUP3 ADD MSTORE PUSH1 0x1 PUSH1 0x1 PUSH1 0x80 SHL SUB DUP10 AND PUSH1 0x24 DUP3 ADD MSTORE DUP4 DUP2 PUSH1 0x44 DUP2 DUP12 PUSH32 0x0 DUP11 AND GAS CALL DUP1 ISZERO PUSH2 0xC05 JUMPI PUSH2 0xBE8 JUMPI JUMPDEST DUP1 DUP1 DUP1 PUSH2 0x9E5 JUMP JUMPDEST PUSH2 0xBFE SWAP1 DUP5 RETURNDATASIZE DUP7 GT PUSH2 0xB2D JUMPI PUSH2 0xB1D DUP2 DUP4 PUSH2 0x3102 JUMP JUMPDEST POP CODESIZE PUSH2 0xBE0 JUMP JUMPDEST PUSH1 0x40 MLOAD RETURNDATASIZE DUP11 DUP3 RETURNDATACOPY RETURNDATASIZE SWAP1 REVERT JUMPDEST DUP4 SWAP2 SWAP11 POP PUSH2 0xC20 PUSH2 0xB64 SWAP2 PUSH2 0x338A JUMP JUMPDEST SWAP11 SWAP2 POP PUSH2 0xB58 JUMP JUMPDEST SWAP1 POP SWAP3 PUSH2 0x9DA JUMP JUMPDEST SWAP9 PUSH2 0x9C4 JUMP JUMPDEST PUSH1 0x40 MLOAD PUSH3 0x461BCD PUSH1 0xE5 SHL DUP2 MSTORE PUSH1 0x4 DUP2 ADD DUP5 SWAP1 MSTORE PUSH1 0x1E PUSH1 0x24 DUP3 ADD MSTORE PUSH32 0x4B6F7274616E61506F6F6C3A204E4F545F464143544F52595F4F574E45520000 PUSH1 0x44 DUP3 ADD MSTORE PUSH1 0x64 SWAP1 REVERT JUMPDEST DUP1 SWAP3 POP DUP6 DUP1 SWAP3 POP RETURNDATASIZE DUP4 GT PUSH2 0xCB2 JUMPI JUMPDEST PUSH2 0xC94 DUP2 DUP4 PUSH2 0x3102 JUMP JUMPDEST DUP2 ADD SUB SLT PUSH2 0xCAE JUMPI MLOAD DUP5 DUP2 AND DUP2 SUB PUSH2 0xCAE JUMPI DUP5 SWAP1 CODESIZE PUSH2 0x9A7 JUMP JUMPDEST DUP8 DUP1 REVERT JUMPDEST POP RETURNDATASIZE PUSH2 0xC8A JUMP JUMPDEST PUSH1 0x0 DUP1 REVERT JUMPDEST POP CALLVALUE PUSH2 0x34D JUMPI DUP1 PUSH1 0x3 NOT CALLDATASIZE ADD SLT PUSH2 0x34D JUMPI PUSH1 0x20 PUSH1 0x40 MLOAD PUSH1 0x1 PUSH1 0x1 PUSH1 0x80 SHL SUB PUSH32 0x0 AND DUP2 MSTORE RETURN JUMPDEST POP CALLVALUE PUSH2 0x34D JUMPI PUSH1 0x20 CALLDATASIZE PUSH1 0x3 NOT ADD SLT PUSH2 0x34D JUMPI PUSH1 0x4 CALLDATALOAD DUP1 PUSH1 0x1 SIGNEXTEND DUP1 SWAP2 SUB PUSH2 0x349 JUMPI DUP2 PUSH1 0x40 SWAP2 PUSH1 0x20 SWAP4 MSTORE PUSH1 0x6 DUP4 MSTORE KECCAK256 SLOAD PUSH1 0x40 MLOAD SWAP1 DUP2 MSTORE RETURN JUMPDEST POP CALLVALUE PUSH2 0x34D JUMPI PUSH1 0x20 CALLDATASIZE PUSH1 0x3 NOT ADD SLT PUSH2 0x34D JUMPI PUSH1 0x40 PUSH1 0xA0 SWAP2 PUSH1 0x4 CALLDATALOAD DUP2 MSTORE PUSH1 0x7 PUSH1 0x20 MSTORE KECCAK256 PUSH1 0x1 PUSH1 0x1 PUSH1 0x80 SHL SUB SWAP1 DUP2 DUP2 SLOAD AND SWAP2 PUSH1 0x1 DUP3 ADD SLOAD SWAP2 PUSH1 0x3 PUSH1 0x2 DUP3 ADD SLOAD SWAP2 ADD SLOAD SWAP3 PUSH1 0x40 MLOAD SWAP5 DUP6 MSTORE PUSH1 0x20 DUP6 ADD MSTORE PUSH1 0x40 DUP5 ADD MSTORE DUP2 AND PUSH1 0x60 DUP4 ADD MSTORE PUSH1 0x80 SHR PUSH1 0x80 DUP3 ADD MSTORE RETURN JUMPDEST POP CALLVALUE PUSH2 0x34D JUMPI PUSH1 0xA0 CALLDATASIZE PUSH1 0x3 NOT ADD SLT PUSH2 0x34D JUMPI PUSH2 0xDB4 PUSH2 0x3000 JUMP JUMPDEST SWAP1 PUSH2 0xDBD PUSH2 0x3044 JUMP JUMPDEST SWAP1 PUSH2 0xDC6 PUSH2 0x3054 JUMP JUMPDEST SWAP2 PUSH2 0xDCF PUSH2 0x3074 JUMP JUMPDEST SWAP4 PUSH1 0x1 PUSH1 0x1 PUSH1 0x80 SHL SUB PUSH1 0x84 CALLDATALOAD AND PUSH1 0x84 CALLDATALOAD SUB PUSH2 0xCB9 JUMPI PUSH1 0xFF PUSH1 0xF0 SHL NOT DUP4 SLOAD PUSH2 0xDFB PUSH1 0xFF DUP3 PUSH1 0xF0 SHR AND PUSH2 0x3124 JUMP JUMPDEST AND DUP4 SSTORE PUSH1 0x40 MLOAD CALLER PUSH1 0x60 SHL PUSH12 0xFFFFFFFFFFFFFFFFFFFFFFFF NOT AND PUSH1 0x20 DUP3 ADD SWAP1 DUP2 MSTORE PUSH1 0xE8 DUP5 DUP2 SHL PUSH1 0x34 DUP5 ADD MSTORE DUP7 SWAP1 SHL PUSH1 0x37 DUP4 ADD MSTORE SWAP1 PUSH2 0xE45 DUP2 PUSH1 0x3A DUP2 ADD JUMPDEST SUB PUSH1 0x1F NOT DUP2 ADD DUP4 MSTORE DUP3 PUSH2 0x3102 JUMP JUMPDEST MLOAD SWAP1 KECCAK256 DUP4 MSTORE PUSH1 0x7 PUSH1 0x20 MSTORE PUSH1 0x3 PUSH1 0x40 DUP5 KECCAK256 ADD SWAP4 DUP5 SLOAD SWAP6 PUSH1 0x1 PUSH1 0x1 PUSH1 0x80 SHL SUB DUP8 AND PUSH1 0x1 PUSH1 0x1 PUSH1 0x80 SHL SUB DUP3 AND GT PUSH1 0x0 EQ PUSH2 0x10A4 JUMPI POP PUSH1 0x1 PUSH1 0x1 PUSH1 0x80 SHL SUB DUP7 AND SWAP5 JUMPDEST DUP7 PUSH1 0x80 SHR DUP1 PUSH1 0x1 PUSH1 0x1 PUSH1 0x80 SHL SUB PUSH1 0x84 CALLDATALOAD AND GT PUSH1 0x0 EQ PUSH2 0x109A JUMPI SWAP7 JUMPDEST PUSH1 0x1 PUSH1 0x1 PUSH1 0x80 SHL SUB DUP8 AND SWAP1 DUP2 PUSH2 0xFE0 JUMPI JUMPDEST POP PUSH1 0x1 PUSH1 0x1 PUSH1 0x80 SHL SUB DUP9 AND SWAP2 DUP3 PUSH2 0xF37 JUMPI JUMPDEST POP PUSH1 0x1 PUSH1 0x1 PUSH1 0xA0 SHL SUB PUSH1 0x40 MLOAD SWAP5 AND DUP5 MSTORE PUSH1 0x20 DUP5 ADD MSTORE PUSH1 0x40 DUP4 ADD MSTORE PUSH1 0x2 SIGNEXTEND SWAP2 PUSH1 0x2 SIGNEXTEND SWAP1 PUSH32 0x70935338E69775456A85DDEF226C395FB668B63FA0115F5F20610B388E6CA9C0 PUSH1 0x60 CALLER SWAP3 LOG4 DUP1 SLOAD PUSH1 0xFF PUSH1 0xF0 SHL NOT AND PUSH1 0x1 PUSH1 0xF0 SHL OR SWAP1 SSTORE PUSH1 0x40 DUP1 MLOAD PUSH1 0x1 PUSH1 0x1 PUSH1 0x80 SHL SUB SWAP3 DUP4 AND DUP2 MSTORE SWAP3 SWAP1 SWAP2 AND PUSH1 0x20 DUP4 ADD MSTORE SWAP1 RETURN JUMPDEST DUP1 PUSH2 0x681 DUP11 PUSH2 0xF49 SWAP4 SLOAD PUSH1 0x80 SHR PUSH2 0x325E JUMP JUMPDEST PUSH1 0x40 MLOAD PUSH4 0xA9059CBB PUSH1 0xE0 SHL DUP2 MSTORE PUSH1 0x1 PUSH1 0x1 PUSH1 0xA0 SHL SUB DUP6 AND PUSH1 0x4 DUP3 ADD MSTORE PUSH1 0x1 PUSH1 0x1 PUSH1 0x80 SHL SUB DUP10 AND PUSH1 0x24 DUP3 ADD MSTORE PUSH1 0x20 DUP2 DUP1 PUSH1 0x44 DUP2 ADD SUB DUP2 DUP11 PUSH1 0x1 PUSH1 0x1 PUSH1 0xA0 SHL SUB PUSH32 0x0 AND GAS CALL DUP1 ISZERO PUSH2 0xFD5 JUMPI ISZERO PUSH2 0xEC1 JUMPI PUSH2 0xFCE SWAP1 PUSH1 0x20 RETURNDATASIZE PUSH1 0x20 GT PUSH2 0xB2D JUMPI PUSH2 0xB1D DUP2 DUP4 PUSH2 0x3102 JUMP JUMPDEST POP CODESIZE PUSH2 0xEC1 JUMP JUMPDEST PUSH1 0x40 MLOAD RETURNDATASIZE DUP10 DUP3 RETURNDATACOPY RETURNDATASIZE SWAP1 REVERT JUMPDEST PUSH1 0x1 PUSH1 0x1 PUSH1 0x80 SHL SUB PUSH2 0xFF4 DUP10 DUP3 DUP5 AND PUSH2 0x325E JUMP JUMPDEST PUSH16 0xFFFFFFFFFFFFFFFFFFFFFFFFFFFFFFFF NOT SWAP1 SWAP3 AND SWAP2 AND OR DUP3 SSTORE PUSH1 0x40 MLOAD PUSH4 0xA9059CBB PUSH1 0xE0 SHL DUP2 MSTORE PUSH1 0x1 PUSH1 0x1 PUSH1 0xA0 SHL SUB DUP6 AND PUSH1 0x4 DUP3 ADD MSTORE PUSH1 0x1 PUSH1 0x1 PUSH1 0x80 SHL SUB DUP9 AND PUSH1 0x24 DUP3 ADD MSTORE PUSH1 0x20 DUP2 DUP1 PUSH1 0x44 DUP2 ADD SUB DUP2 DUP11 PUSH1 0x1 PUSH1 0x1 PUSH1 0xA0 SHL SUB PUSH32 0x0 AND GAS CALL DUP1 ISZERO PUSH2 0xFD5 JUMPI ISZERO PUSH2 0xEAF JUMPI PUSH2 0x1093 SWAP1 PUSH1 0x20 RETURNDATASIZE PUSH1 0x20 GT PUSH2 0xB2D JUMPI PUSH2 0xB1D DUP2 DUP4 PUSH2 0x3102 JUMP JUMPDEST POP CODESIZE PUSH2 0xEAF JUMP JUMPDEST POP PUSH1 0x84 CALLDATALOAD SWAP7 PUSH2 0xE9E JUMP JUMPDEST SWAP5 PUSH2 0xE83 JUMP JUMPDEST POP CALLVALUE PUSH2 0x34D JUMPI PUSH1 0x80 CALLDATASIZE PUSH1 0x3 NOT ADD SLT PUSH2 0x34D JUMPI PUSH2 0x10C4 PUSH2 0x3000 JUMP JUMPDEST PUSH1 0x64 CALLDATALOAD PUSH8 0xFFFFFFFFFFFFFFFF DUP2 GT PUSH2 0x143E JUMPI PUSH2 0x10E4 SWAP1 CALLDATASIZE SWAP1 PUSH1 0x4 ADD PUSH2 0x3016 JUMP JUMPDEST SWAP1 DUP4 SLOAD SWAP3 PUSH2 0x10F7 PUSH1 0xFF DUP6 PUSH1 0xF0 SHR AND PUSH2 0x3124 JUMP JUMPDEST PUSH1 0xFF PUSH1 0xF0 SHL NOT DUP1 SWAP5 AND DUP6 SSTORE PUSH1 0x1 PUSH1 0x1 PUSH1 0xA0 SHL SUB SWAP2 PUSH2 0x1138 DUP4 PUSH32 0x0 AND ADDRESS EQ PUSH2 0x3170 JUMP JUMPDEST PUSH1 0x1 PUSH1 0x1 PUSH1 0x80 SHL SUB SWAP1 DUP2 PUSH1 0x4 SLOAD AND SWAP1 DUP2 ISZERO PUSH2 0x155A JUMPI PUSH3 0xFFFFFF PUSH32 0x0 AND SWAP6 PUSH2 0x118C PUSH2 0x1183 DUP9 PUSH1 0x24 CALLDATALOAD PUSH2 0x3E0C JUMP JUMPDEST SWAP8 PUSH1 0x44 CALLDATALOAD PUSH2 0x3E0C JUMP JUMPDEST DUP10 PUSH2 0x1195 PUSH2 0x33A0 JUMP JUMPDEST SWAP4 PUSH2 0x119E PUSH2 0x3431 JUMP JUMPDEST SWAP4 PUSH1 0x24 CALLDATALOAD PUSH2 0x14D6 JUMPI JUMPDEST PUSH1 0x44 CALLDATALOAD PUSH2 0x1442 JUMPI JUMPDEST CALLER EXTCODESIZE ISZERO PUSH2 0x143E JUMPI DUP4 DUP12 PUSH2 0x11D8 DUP6 SWAP4 PUSH1 0x40 MLOAD SWAP6 DUP7 SWAP5 DUP6 SWAP5 PUSH4 0x2F1CBF1F PUSH1 0xE0 SHL DUP7 MSTORE PUSH1 0x4 DUP7 ADD PUSH2 0x3208 JUMP JUMPDEST SUB DUP2 DUP4 CALLER GAS CALL DUP1 ISZERO PUSH2 0x1433 JUMPI PUSH2 0x141B JUMPI JUMPDEST POP POP PUSH2 0x11F3 PUSH2 0x33A0 JUMP JUMPDEST SWAP1 DUP2 PUSH2 0x1207 PUSH2 0x1200 PUSH2 0x3431 JUMP JUMPDEST SWAP11 DUP7 PUSH2 0x323B JUMP JUMPDEST GT PUSH2 0x13D6 JUMPI PUSH2 0x1217 DUP10 SWAP2 DUP5 PUSH2 0x323B JUMP JUMPDEST GT PUSH2 0x1391 JUMPI PUSH2 0x122F SWAP3 PUSH2 0x1229 SWAP2 PUSH2 0x3331 JUMP JUMPDEST SWAP7 PUSH2 0x3331 JUMP JUMPDEST SWAP2 DUP6 PUSH2 0x1313 JUMPI JUMPDEST DUP3 PUSH2 0x128F JUMPI JUMPDEST POP POP PUSH1 0x40 MLOAD SWAP4 PUSH1 0x24 CALLDATALOAD DUP6 MSTORE PUSH1 0x44 CALLDATALOAD PUSH1 0x20 DUP7 ADD MSTORE PUSH1 0x40 DUP6 ADD MSTORE PUSH1 0x60 DUP5 ADD MSTORE AND SWAP1 PUSH32 0xBDBDB71D7860376BA52B25A5028BEEA23581364A40522F6BCFB86BB1F2DCA633 PUSH1 0x80 CALLER SWAP3 LOG3 DUP2 SLOAD AND PUSH1 0x1 PUSH1 0xF0 SHL OR DUP2 SSTORE DUP1 RETURN JUMPDEST PUSH2 0x12CE SWAP2 PUSH2 0x12C1 PUSH2 0x12C6 SWAP3 PUSH1 0xF DUP12 SLOAD PUSH1 0xEC SHR AND DUP1 ISZERO PUSH1 0x0 EQ PUSH2 0x1303 JUMPI POP DUP11 SWAP1 JUMPDEST DUP1 DUP3 AND SWAP1 DUP2 PUSH2 0x12D8 JUMPI JUMPDEST POP POP DUP6 PUSH2 0x3331 JUMP JUMPDEST PUSH2 0x3C10 JUMP JUMPDEST PUSH1 0x2 SLOAD PUSH2 0x323B JUMP JUMPDEST PUSH1 0x2 SSTORE CODESIZE DUP1 PUSH2 0x123C JUMP JUMPDEST PUSH1 0x3 SLOAD SWAP2 PUSH2 0x12F2 PUSH1 0x1 PUSH1 0x1 PUSH1 0x80 SHL SUB NOT SWAP2 DUP5 PUSH1 0x80 SHR PUSH2 0x32C1 JUMP JUMPDEST PUSH1 0x80 SHL AND SWAP2 AND OR PUSH1 0x3 SSTORE CODESIZE DUP1 PUSH2 0x12B9 JUMP JUMPDEST PUSH2 0x130D SWAP1 DUP8 PUSH2 0x3311 JUMP JUMPDEST SWAP1 PUSH2 0x12AF JUMP JUMPDEST DUP2 PUSH1 0xF DUP10 SLOAD PUSH1 0xE8 SHR AND DUP1 ISZERO PUSH1 0x0 EQ PUSH2 0x1378 JUMPI POP PUSH2 0x1342 PUSH2 0x134A SWAP2 PUSH2 0x12C1 DUP12 JUMPDEST DUP6 DUP2 AND DUP1 PUSH2 0x1352 JUMPI JUMPDEST POP DUP11 PUSH2 0x3331 JUMP JUMPDEST PUSH1 0x1 SLOAD PUSH2 0x323B JUMP JUMPDEST PUSH1 0x1 SSTORE PUSH2 0x1236 JUMP JUMPDEST DUP7 PUSH2 0x1362 PUSH1 0x3 SLOAD SWAP3 DUP3 DUP5 AND PUSH2 0x32C1 JUMP JUMPDEST AND SWAP1 PUSH1 0x1 PUSH1 0x1 PUSH1 0x80 SHL SUB NOT AND OR PUSH1 0x3 SSTORE CODESIZE PUSH2 0x133B JUMP JUMPDEST PUSH2 0x134A SWAP2 PUSH2 0x12C1 PUSH2 0x138C PUSH2 0x1342 SWAP4 DUP12 PUSH2 0x3311 JUMP JUMPDEST PUSH2 0x1332 JUMP JUMPDEST PUSH1 0x40 MLOAD PUSH3 0x461BCD PUSH1 0xE5 SHL DUP2 MSTORE PUSH1 0x20 PUSH1 0x4 DUP3 ADD MSTORE PUSH1 0xF PUSH1 0x24 DUP3 ADD MSTORE PUSH32 0x4B6F7274616E61506F6F6C3A2046310000000000000000000000000000000000 PUSH1 0x44 DUP3 ADD MSTORE PUSH1 0x64 SWAP1 REVERT JUMPDEST PUSH1 0x40 MLOAD PUSH3 0x461BCD PUSH1 0xE5 SHL DUP2 MSTORE PUSH1 0x20 PUSH1 0x4 DUP3 ADD MSTORE PUSH1 0xF PUSH1 0x24 DUP3 ADD MSTORE PUSH32 0x4B6F7274616E61506F6F6C3A2046300000000000000000000000000000000000 PUSH1 0x44 DUP3 ADD MSTORE PUSH1 0x64 SWAP1 REVERT JUMPDEST PUSH2 0x1424 SWAP1 PUSH2 0x30D2 JUMP JUMPDEST PUSH2 0x142F JUMPI DUP10 CODESIZE PUSH2 0x11E9 JUMP JUMPDEST DUP10 DUP1 REVERT JUMPDEST PUSH1 0x40 MLOAD RETURNDATASIZE DUP5 DUP3 RETURNDATACOPY RETURNDATASIZE SWAP1 REVERT JUMPDEST DUP3 DUP1 REVERT JUMPDEST PUSH1 0x40 MLOAD PUSH4 0xA9059CBB PUSH1 0xE0 SHL DUP2 MSTORE PUSH1 0x1 PUSH1 0x1 PUSH1 0xA0 SHL SUB DUP11 AND PUSH1 0x4 DUP3 ADD MSTORE PUSH1 0x44 DUP1 CALLDATALOAD PUSH1 0x24 DUP4 ADD MSTORE PUSH1 0x20 SWAP1 DUP3 SWAP1 DUP14 SWAP1 DUP3 SWAP1 DUP9 SWAP1 DUP3 SWAP1 DUP2 ADD SUB SWAP3 PUSH32 0x0 AND GAS CALL DUP1 ISZERO PUSH2 0x14CB JUMPI PUSH2 0x14AD JUMPI JUMPDEST POP PUSH2 0x11AF JUMP JUMPDEST PUSH2 0x14C4 SWAP1 PUSH1 0x20 RETURNDATASIZE DUP2 GT PUSH2 0xB2D JUMPI PUSH2 0xB1D DUP2 DUP4 PUSH2 0x3102 JUMP JUMPDEST POP CODESIZE PUSH2 0x14A7 JUMP JUMPDEST PUSH1 0x40 MLOAD RETURNDATASIZE DUP7 DUP3 RETURNDATACOPY RETURNDATASIZE SWAP1 REVERT JUMPDEST PUSH1 0x40 MLOAD PUSH4 0xA9059CBB PUSH1 0xE0 SHL DUP2 MSTORE PUSH1 0x1 PUSH1 0x1 PUSH1 0xA0 SHL SUB DUP11 AND PUSH1 0x4 DUP3 ADD MSTORE PUSH1 0x24 DUP1 CALLDATALOAD SWAP1 DUP3 ADD MSTORE PUSH1 0x20 DUP2 DUP13 DUP2 DUP8 DUP2 PUSH1 0x44 DUP2 ADD SUB SWAP3 PUSH32 0x0 AND GAS CALL DUP1 ISZERO PUSH2 0x14CB JUMPI PUSH2 0x153C JUMPI JUMPDEST POP PUSH2 0x11A7 JUMP JUMPDEST PUSH2 0x1553 SWAP1 PUSH1 0x20 RETURNDATASIZE DUP2 GT PUSH2 0xB2D JUMPI PUSH2 0xB1D DUP2 DUP4 PUSH2 0x3102 JUMP JUMPDEST POP CODESIZE PUSH2 0x1536 JUMP JUMPDEST PUSH1 0x40 MLOAD PUSH3 0x461BCD PUSH1 0xE5 SHL DUP2 MSTORE PUSH1 0x20 PUSH1 0x4 DUP3 ADD MSTORE PUSH1 0x23 PUSH1 0x24 DUP3 ADD MSTORE PUSH32 0x4B6F7274616E61506F6F6C3A20494E53554646494349454E545F4C4951554944 PUSH1 0x44 DUP3 ADD MSTORE PUSH3 0x495459 PUSH1 0xE8 SHL PUSH1 0x64 DUP3 ADD MSTORE PUSH1 0x84 SWAP1 REVERT JUMPDEST POP CALLVALUE PUSH2 0x34D JUMPI DUP1 PUSH1 0x3 NOT CALLDATASIZE ADD SLT PUSH2 0x34D JUMPI PUSH1 0x20 PUSH1 0x2 SLOAD PUSH1 0x40 MLOAD SWAP1 DUP2 MSTORE RETURN JUMPDEST POP CALLVALUE PUSH2 0x34D JUMPI PUSH1 0xA0 CALLDATASIZE PUSH1 0x3 NOT ADD SLT PUSH2 0x34D JUMPI PUSH2 0x15E3 PUSH2 0x3000 JUMP JUMPDEST PUSH2 0x15EB PUSH2 0x3044 JUMP JUMPDEST SWAP1 PUSH2 0x15F4 PUSH2 0x3054 JUMP JUMPDEST SWAP3 PUSH2 0x15FD PUSH2 0x3074 JUMP JUMPDEST SWAP3 PUSH1 0x84 CALLDATALOAD PUSH8 0xFFFFFFFFFFFFFFFF DUP2 GT PUSH2 0x143E JUMPI PUSH2 0x161E SWAP1 CALLDATASIZE SWAP1 PUSH1 0x4 ADD PUSH2 0x3016 JUMP JUMPDEST SWAP4 SWAP1 SWAP5 PUSH2 0x16B7 DUP5 SLOAD PUSH2 0x1635 PUSH1 0xFF DUP3 PUSH1 0xF0 SHR AND PUSH2 0x3124 JUMP JUMPDEST PUSH1 0xFF PUSH1 0xF0 SHL NOT DUP2 AND DUP7 SSTORE PUSH2 0x1673 PUSH1 0x1 PUSH1 0x1 PUSH1 0xA0 SHL SUB PUSH32 0x0 AND ADDRESS EQ PUSH2 0x3170 JUMP JUMPDEST PUSH2 0x1687 PUSH1 0x1 PUSH1 0x1 PUSH1 0x80 SHL SUB DUP5 AND ISZERO ISZERO PUSH2 0x31BC JUMP JUMPDEST PUSH12 0xFF00FFFFFFFFFFFFFFFFFFFF PUSH2 0x16A6 PUSH1 0x1 PUSH1 0x1 PUSH1 0x80 SHL SUB DUP6 AND PUSH2 0x477D JUMP JUMPDEST SWAP2 PUSH1 0xA0 SHR AND PUSH1 0x2 SIGNEXTEND SWAP1 DUP10 DUP7 DUP7 PUSH2 0x3488 JUMP JUMPDEST SWAP7 SWAP2 POP SWAP7 DUP6 SWAP1 DUP7 SWAP3 DUP10 PUSH2 0x187C JUMPI JUMPDEST DUP9 PUSH2 0x186C JUMPI JUMPDEST CALLER EXTCODESIZE ISZERO PUSH2 0xCAE JUMPI PUSH1 0x40 MLOAD PUSH4 0x60E4B91B PUSH1 0xE1 SHL DUP2 MSTORE SWAP2 DUP9 SWAP2 DUP4 SWAP2 DUP3 SWAP2 PUSH2 0x16F5 SWAP2 DUP14 DUP16 PUSH1 0x4 DUP7 ADD PUSH2 0x3208 JUMP JUMPDEST SUB DUP2 DUP4 CALLER GAS CALL DUP1 ISZERO PUSH2 0xFD5 JUMPI SWAP1 DUP8 SWAP2 PUSH2 0x1854 JUMPI JUMPDEST POP POP DUP8 DUP1 PUSH2 0x17F2 JUMPI JUMPDEST POP POP DUP6 PUSH2 0x1790 JUMPI JUMPDEST POP PUSH32 0x7A53080BA414158BE7EC69B987B5FB7D07DEE101FE85488F0853AE16239D0BDE PUSH1 0x80 PUSH1 0x1 PUSH1 0x1 PUSH1 0xA0 SHL SUB PUSH1 0x40 SWAP10 PUSH1 0x1 PUSH1 0x1 PUSH1 0x80 SHL SUB DUP12 MLOAD SWAP6 CALLER DUP8 MSTORE AND PUSH1 0x20 DUP7 ADD MSTORE DUP10 DUP12 DUP7 ADD MSTORE DUP9 PUSH1 0x60 DUP7 ADD MSTORE PUSH1 0x2 SIGNEXTEND SWAP6 PUSH1 0x2 SIGNEXTEND SWAP5 AND SWAP3 LOG4 DUP1 SLOAD PUSH1 0xFF PUSH1 0xF0 SHL NOT AND PUSH1 0x1 PUSH1 0xF0 SHL OR SWAP1 SSTORE DUP3 MLOAD SWAP2 DUP3 MSTORE PUSH1 0x20 DUP3 ADD MSTORE RETURN JUMPDEST DUP6 PUSH2 0x179A SWAP2 PUSH2 0x323B JUMP JUMPDEST PUSH2 0x17A2 PUSH2 0x3431 JUMP JUMPDEST LT PUSH2 0x17AD JUMPI CODESIZE PUSH2 0x171A JUMP JUMPDEST PUSH1 0x40 MLOAD PUSH3 0x461BCD PUSH1 0xE5 SHL DUP2 MSTORE PUSH1 0x20 PUSH1 0x4 DUP3 ADD MSTORE PUSH1 0xF PUSH1 0x24 DUP3 ADD MSTORE PUSH32 0x4B6F7274616E61506F6F6C3A204D310000000000000000000000000000000000 PUSH1 0x44 DUP3 ADD MSTORE PUSH1 0x64 SWAP1 REVERT JUMPDEST PUSH2 0x17FB SWAP2 PUSH2 0x323B JUMP JUMPDEST PUSH2 0x1803 PUSH2 0x33A0 JUMP JUMPDEST LT PUSH2 0x180F JUMPI CODESIZE DUP8 PUSH2 0x1712 JUMP JUMPDEST PUSH1 0x40 MLOAD PUSH3 0x461BCD PUSH1 0xE5 SHL DUP2 MSTORE PUSH1 0x20 PUSH1 0x4 DUP3 ADD MSTORE PUSH1 0xF PUSH1 0x24 DUP3 ADD MSTORE PUSH32 0x4B6F7274616E61506F6F6C3A204D300000000000000000000000000000000000 PUSH1 0x44 DUP3 ADD MSTORE PUSH1 0x64 SWAP1 REVERT JUMPDEST PUSH2 0x185D SWAP1 PUSH2 0x30D2 JUMP JUMPDEST PUSH2 0x1868 JUMPI DUP6 CODESIZE PUSH2 0x1709 JUMP JUMPDEST DUP6 DUP1 REVERT JUMPDEST SWAP3 POP PUSH2 0x1876 PUSH2 0x3431 JUMP JUMPDEST SWAP3 PUSH2 0x16CB JUMP JUMPDEST SWAP2 POP PUSH2 0x1886 PUSH2 0x33A0 JUMP JUMPDEST SWAP2 PUSH2 0x16C5 JUMP JUMPDEST POP CALLVALUE PUSH2 0x34D JUMPI DUP1 PUSH1 0x3 NOT CALLDATASIZE ADD SLT PUSH2 0x34D JUMPI PUSH1 0xE0 SWAP1 SLOAD PUSH1 0xFF PUSH1 0x40 MLOAD SWAP2 PUSH1 0x1 PUSH1 0x1 PUSH1 0xA0 SHL SUB DUP2 AND DUP4 MSTORE DUP1 PUSH1 0xA0 SHR PUSH1 0x2 SIGNEXTEND PUSH1 0x20 DUP5 ADD MSTORE PUSH2 0xFFFF DUP1 DUP3 PUSH1 0xB8 SHR AND PUSH1 0x40 DUP6 ADD MSTORE DUP1 DUP3 PUSH1 0xC8 SHR AND PUSH1 0x60 DUP6 ADD MSTORE DUP2 PUSH1 0xD8 SHR AND PUSH1 0x80 DUP5 ADD MSTORE DUP2 DUP2 PUSH1 0xE8 SHR AND PUSH1 0xA0 DUP5 ADD MSTORE PUSH1 0xF0 SHR AND ISZERO ISZERO PUSH1 0xC0 DUP3 ADD MSTORE RETURN JUMPDEST POP CALLVALUE PUSH2 0x34D JUMPI PUSH1 0x20 CALLDATASIZE PUSH1 0x3 NOT ADD SLT PUSH2 0x34D JUMPI PUSH2 0xFFFF PUSH1 0x4 CALLDATALOAD DUP2 DUP2 AND DUP2 SUB PUSH2 0x143E JUMPI PUSH2 0x1979 DUP3 DUP5 SLOAD PUSH2 0x1930 PUSH1 0xFF DUP3 PUSH1 0xF0 SHR AND PUSH2 0x3124 JUMP JUMPDEST PUSH1 0xFF PUSH1 0xF0 SHL NOT DUP2 AND DUP7 SSTORE PUSH2 0x196E PUSH1 0x1 PUSH1 0x1 PUSH1 0xA0 SHL SUB PUSH32 0x0 AND ADDRESS EQ PUSH2 0x3170 JUMP JUMPDEST PUSH1 0xD8 SHR AND SWAP2 DUP3 PUSH2 0x425B JUMP JUMPDEST SWAP2 DUP3 AND SWAP1 DUP4 SLOAD SWAP2 DUP1 DUP3 SUB PUSH2 0x19DD JUMPI JUMPDEST POP POP PUSH32 0xFF00FF0000FFFFFFFFFFFFFFFFFFFFFFFFFFFFFFFFFFFFFFFFFFFFFFFFFFFFFF AND PUSH1 0xD8 SWAP2 SWAP1 SWAP2 SHL PUSH29 0xFFFF000000000000000000000000000000000000000000000000000000 AND OR PUSH1 0x1 PUSH1 0xF0 SHL OR DUP2 SSTORE DUP1 RETURN JUMPDEST PUSH32 0xAC49E518F90A358F652E4400164F05A5D8F7E35E7747279BC3A93DBF584E125A SWAP2 PUSH1 0x40 SWAP2 DUP3 MLOAD SWAP2 DUP3 MSTORE PUSH1 0x20 DUP3 ADD MSTORE LOG1 CODESIZE DUP1 PUSH2 0x1988 JUMP JUMPDEST POP CALLVALUE PUSH2 0x34D JUMPI PUSH1 0x20 CALLDATASIZE PUSH1 0x3 NOT ADD SLT PUSH2 0x34D JUMPI PUSH1 0x4 CALLDATALOAD PUSH2 0xFFFF DUP2 LT ISZERO PUSH2 0x349 JUMPI PUSH1 0x80 SWAP1 PUSH1 0x8 ADD SLOAD PUSH1 0x40 MLOAD SWAP1 PUSH4 0xFFFFFFFF DUP2 AND DUP3 MSTORE DUP1 PUSH1 0x20 SHR PUSH1 0x6 SIGNEXTEND PUSH1 0x20 DUP4 ADD MSTORE PUSH1 0x1 PUSH1 0x1 PUSH1 0xA0 SHL SUB DUP2 PUSH1 0x58 SHR AND PUSH1 0x40 DUP4 ADD MSTORE PUSH1 0xF8 SHR ISZERO ISZERO PUSH1 0x60 DUP3 ADD MSTORE RETURN JUMPDEST POP CALLVALUE PUSH2 0x34D JUMPI DUP1 PUSH1 0x3 NOT CALLDATASIZE ADD SLT PUSH2 0x34D JUMPI PUSH1 0x3 SLOAD PUSH1 0x40 DUP1 MLOAD PUSH1 0x1 PUSH1 0x1 PUSH1 0x80 SHL SUB DUP4 AND DUP2 MSTORE PUSH1 0x80 SWAP3 SWAP1 SWAP3 SHR PUSH1 0x20 DUP4 ADD MSTORE SWAP1 RETURN JUMPDEST POP CALLVALUE PUSH2 0x34D JUMPI DUP1 PUSH1 0x3 NOT CALLDATASIZE ADD SLT PUSH2 0x34D JUMPI PUSH1 0x20 PUSH1 0x1 PUSH1 0x1 PUSH1 0x80 SHL SUB PUSH1 0x4 SLOAD AND PUSH1 0x40 MLOAD SWAP1 DUP2 MSTORE RETURN JUMPDEST POP CALLVALUE PUSH2 0x34D JUMPI PUSH1 0xA0 CALLDATASIZE PUSH1 0x3 NOT ADD SLT PUSH2 0x34D JUMPI PUSH2 0x1AE4 PUSH2 0x3000 JUMP JUMPDEST SWAP1 PUSH1 0x24 CALLDATALOAD ISZERO ISZERO PUSH1 0x24 CALLDATALOAD SUB PUSH2 0x34D JUMPI PUSH1 0x1 PUSH1 0x1 PUSH1 0xA0 SHL SUB PUSH1 0x64 CALLDATALOAD AND PUSH1 0x64 CALLDATALOAD SUB PUSH2 0x34D JUMPI PUSH1 0x84 CALLDATALOAD PUSH8 0xFFFFFFFFFFFFFFFF DUP2 GT PUSH2 0x349 JUMPI PUSH2 0x1B26 SWAP1 CALLDATASIZE SWAP1 PUSH1 0x4 ADD PUSH2 0x3016 JUMP JUMPDEST PUSH2 0x1B5D PUSH1 0x1 PUSH1 0x1 PUSH1 0xA0 SHL SUB SWAP5 SWAP3 SWAP5 PUSH32 0x0 AND ADDRESS EQ PUSH2 0x3170 JUMP JUMPDEST PUSH2 0x1B6A PUSH1 0x44 CALLDATALOAD ISZERO ISZERO PUSH2 0x31BC JUMP JUMPDEST PUSH1 0x40 MLOAD SWAP2 PUSH2 0x1B77 DUP4 PUSH2 0x30A0 JUMP JUMPDEST DUP4 SLOAD PUSH1 0x1 PUSH1 0x1 PUSH1 0xA0 SHL SUB DUP2 AND DUP5 MSTORE DUP1 PUSH1 0xA0 SHR PUSH1 0x2 SIGNEXTEND PUSH1 0x20 DUP6 ADD MSTORE PUSH2 0xFFFF DUP2 PUSH1 0xB8 SHR AND PUSH1 0x40 DUP6 ADD MSTORE PUSH2 0xFFFF DUP2 PUSH1 0xC8 SHR AND PUSH1 0x60 DUP6 ADD MSTORE PUSH2 0xFFFF DUP2 PUSH1 0xD8 SHR AND PUSH1 0x80 DUP6 ADD MSTORE PUSH1 0xFF DUP2 PUSH1 0xE8 SHR AND PUSH1 0xA0 DUP6 ADD MSTORE PUSH2 0x1BDB PUSH1 0xFF DUP3 PUSH1 0xF0 SHR AND ISZERO ISZERO DUP1 PUSH1 0xC0 DUP8 ADD MSTORE PUSH2 0x3124 JUMP JUMPDEST PUSH1 0x24 CALLDATALOAD ISZERO PUSH2 0x2F77 JUMPI PUSH1 0x1 PUSH1 0x1 PUSH1 0xA0 SHL SUB DUP5 MLOAD AND PUSH1 0x1 PUSH1 0x1 PUSH1 0xA0 SHL SUB PUSH1 0x64 CALLDATALOAD AND LT DUP1 PUSH2 0x2F5E JUMPI JUMPDEST ISZERO PUSH2 0x2F1A JUMPI PUSH1 0xFF PUSH1 0xF0 SHL NOT AND DUP5 SSTORE PUSH1 0x4 SLOAD PUSH1 0x1 PUSH1 0x1 PUSH1 0x80 SHL SUB AND SWAP5 PUSH1 0x24 CALLDATALOAD ISZERO PUSH2 0x2F09 JUMPI PUSH1 0xF PUSH1 0xA0 DUP6 ADD MLOAD AND SWAP3 JUMPDEST PUSH1 0x40 MLOAD SWAP4 DUP5 PUSH1 0xC0 DUP2 ADD LT PUSH8 0xFFFFFFFFFFFFFFFF PUSH1 0xC0 DUP8 ADD GT OR PUSH2 0x2EF5 JUMPI PUSH1 0xFF SWAP1 PUSH1 0xC0 DUP7 ADD PUSH1 0x40 MSTORE DUP9 DUP7 MSTORE PUSH4 0xFFFFFFFF TIMESTAMP AND PUSH1 0x20 DUP8 ADD MSTORE AND PUSH1 0x40 DUP6 ADD MSTORE DUP6 PUSH1 0x60 DUP6 ADD MSTORE DUP6 PUSH1 0x80 DUP6 ADD MSTORE DUP6 PUSH1 0xA0 DUP6 ADD MSTORE PUSH1 0x1 PUSH1 0x1 PUSH1 0xA0 SHL SUB DUP6 MLOAD AND SWAP7 PUSH1 0x20 DUP7 ADD MLOAD PUSH1 0x2 SIGNEXTEND PUSH1 0x24 CALLDATALOAD PUSH1 0x0 EQ PUSH2 0x2EEC JUMPI PUSH1 0x1 SLOAD SWAP1 JUMPDEST PUSH1 0x40 MLOAD SWAP10 PUSH2 0x1CAC DUP12 PUSH2 0x30A0 JUMP JUMPDEST PUSH1 0x44 CALLDATALOAD DUP12 MSTORE DUP10 PUSH1 0x20 DUP13 ADD MSTORE PUSH1 0x40 DUP12 ADD MSTORE PUSH1 0x60 DUP11 ADD MSTORE PUSH1 0x80 DUP10 ADD MSTORE DUP7 PUSH1 0xA0 DUP10 ADD MSTORE PUSH1 0xC0 DUP9 ADD MSTORE JUMPDEST DUP7 MLOAD ISZERO ISZERO DUP1 PUSH2 0x2ECA JUMPI JUMPDEST ISZERO PUSH2 0x29B2 JUMPI PUSH1 0x40 MLOAD PUSH2 0x1CED DUP2 PUSH2 0x30A0 JUMP JUMPDEST DUP7 DUP2 MSTORE DUP7 PUSH1 0x20 DUP3 ADD MSTORE DUP7 PUSH1 0x40 DUP3 ADD MSTORE DUP7 PUSH1 0x60 DUP3 ADD MSTORE DUP7 PUSH1 0x80 DUP3 ADD MSTORE DUP7 PUSH1 0xA0 DUP3 ADD MSTORE DUP7 PUSH1 0xC0 DUP3 ADD MSTORE PUSH1 0x1 PUSH1 0x1 PUSH1 0xA0 SHL SUB PUSH1 0x40 DUP10 ADD MLOAD AND DUP2 MSTORE PUSH1 0x60 DUP9 ADD MLOAD PUSH1 0x2 SIGNEXTEND PUSH2 0x1D56 PUSH32 0x0 DUP3 PUSH2 0x4AF7 JUMP JUMPDEST SWAP1 DUP9 DUP2 SLT SWAP1 DUP2 PUSH2 0x297B JUMPI JUMPDEST POP PUSH2 0x2961 JUMPI JUMPDEST PUSH1 0x24 CALLDATALOAD ISZERO PUSH2 0x2766 JUMPI PUSH1 0x1 PUSH1 0xFF DUP3 AND SHL PUSH1 0x0 NOT DUP2 ADD GT PUSH2 0x2752 JUMPI PUSH2 0x1D94 PUSH1 0x1 PUSH1 0xFF DUP4 AND SHL PUSH1 0x0 NOT DUP2 ADD PUSH2 0x323B JUMP JUMPDEST PUSH2 0x1DB4 DUP3 PUSH1 0x2 SIGNEXTEND PUSH1 0x8 SAR PUSH1 0x1 SIGNEXTEND PUSH1 0x1 SIGNEXTEND PUSH1 0x0 MSTORE PUSH1 0x6 PUSH1 0x20 MSTORE PUSH1 0x40 PUSH1 0x0 KECCAK256 SWAP1 JUMP JUMPDEST SLOAD AND DUP1 ISZERO DUP1 ISZERO SWAP3 SWAP2 SWAP1 PUSH2 0x2714 JUMPI PUSH2 0x1E66 SWAP2 DUP11 SWAP2 DUP1 PUSH1 0x1 PUSH1 0x80 SHL DUP2 LT ISZERO PUSH2 0x2705 JUMPI JUMPDEST POP DUP1 PUSH9 0x10000000000000000 PUSH1 0x2 SWAP3 LT ISZERO PUSH2 0x26F2 JUMPI JUMPDEST PUSH5 0x100000000 DUP2 LT ISZERO PUSH2 0x26DF JUMPI JUMPDEST PUSH3 0x10000 DUP2 LT ISZERO PUSH2 0x26CC JUMPI JUMPDEST PUSH2 0x100 DUP2 LT ISZERO PUSH2 0x26B9 JUMPI JUMPDEST PUSH1 0x10 DUP2 LT ISZERO PUSH2 0x26A6 JUMPI JUMPDEST PUSH1 0x4 DUP2 LT ISZERO PUSH2 0x2694 JUMPI JUMPDEST LT ISZERO PUSH2 0x2684 JUMPI JUMPDEST PUSH1 0xFF PUSH32 0x0 SWAP3 AND PUSH1 0x2 SIGNEXTEND SWAP1 PUSH1 0x2 SIGNEXTEND PUSH1 0x8 SAR PUSH1 0x8 SHL PUSH1 0x2 SIGNEXTEND OR PUSH2 0x4B5A JUMP JUMPDEST SWAP1 JUMPDEST ISZERO ISZERO PUSH1 0x40 DUP4 ADD MSTORE PUSH1 0x2 SIGNEXTEND PUSH1 0x20 DUP3 ADD DUP2 SWAP1 MSTORE PUSH3 0xD89E7 NOT SWAP1 DUP2 DUP2 SLT ISZERO PUSH2 0x2665 JUMPI POP PUSH1 0x20 DUP3 ADD MSTORE JUMPDEST PUSH1 0x1 PUSH1 0x1 PUSH1 0xA0 SHL SUB PUSH2 0x1EA6 PUSH1 0x20 DUP4 ADD MLOAD PUSH1 0x2 SIGNEXTEND PUSH2 0x4BEF JUMP JUMPDEST AND DUP1 PUSH1 0x60 DUP4 ADD MSTORE PUSH1 0x1 PUSH1 0x1 PUSH1 0xA0 SHL SUB PUSH1 0x40 DUP11 ADD MLOAD AND SWAP1 PUSH1 0x24 CALLDATALOAD PUSH1 0x0 EQ PUSH2 0x2652 JUMPI PUSH1 0x1 PUSH1 0x1 PUSH1 0xA0 SHL SUB PUSH1 0x64 CALLDATALOAD AND DUP2 LT JUMPDEST ISZERO PUSH2 0x264C JUMPI POP PUSH1 0x64 CALLDATALOAD SWAP1 JUMPDEST PUSH1 0x1 PUSH1 0x1 PUSH1 0x80 SHL SUB PUSH1 0xC0 DUP12 ADD MLOAD AND DUP11 MLOAD DUP11 DUP1 DUP2 SWAP1 DUP3 DUP5 SLT ISZERO PUSH1 0x0 EQ PUSH2 0x257E JUMPI POP PUSH2 0x1F37 PUSH3 0xFFFFFF PUSH2 0x1F30 PUSH32 0x0 PUSH2 0x49B8 JUMP JUMPDEST AND DUP5 PUSH2 0x3BA6 JUMP JUMPDEST SWAP4 PUSH1 0x1 PUSH1 0x1 PUSH1 0xA0 SHL SUB DUP8 AND DUP7 LT PUSH2 0x256D JUMPI PUSH2 0x1F53 DUP2 DUP8 DUP10 PUSH2 0x48AF JUMP JUMPDEST SWAP5 JUMPDEST DUP6 DUP2 LT PUSH2 0x24F9 JUMPI POP DUP7 SWAP6 JUMPDEST PUSH1 0x1 PUSH1 0x1 PUSH1 0xA0 SHL SUB DUP8 AND SWAP8 PUSH1 0x1 PUSH1 0x1 PUSH1 0xA0 SHL SUB DUP2 AND SWAP7 DUP4 DUP11 DUP10 EQ SWAP10 DUP10 DUP6 LT ISZERO PUSH1 0x0 EQ PUSH2 0x249B JUMPI DUP5 SWAP1 DUP12 DUP1 PUSH2 0x2491 JUMPI JUMPDEST ISZERO PUSH2 0x2482 JUMPI POP POP POP JUMPDEST SWAP8 DUP9 SWAP6 DUP2 PUSH2 0x2478 JUMPI JUMPDEST POP ISZERO PUSH2 0x2469 JUMPI POP POP POP JUMPDEST SWAP3 JUMPDEST DUP13 DUP4 SLT DUP1 PUSH2 0x2458 JUMPI JUMPDEST PUSH2 0x2447 JUMPI JUMPDEST DUP13 DUP4 SLT ISZERO SWAP1 DUP2 PUSH2 0x243C JUMPI JUMPDEST POP ISZERO PUSH2 0x23FA JUMPI PUSH2 0x1FD5 SWAP2 PUSH2 0x3331 JUMP JUMPDEST PUSH1 0xC0 DUP6 ADD MSTORE PUSH1 0xA0 DUP5 ADD MSTORE PUSH1 0x80 DUP4 ADD MSTORE PUSH1 0x40 DUP10 ADD MSTORE DUP7 PUSH1 0x44 CALLDATALOAD SGT PUSH1 0x0 EQ PUSH2 0x23A3 JUMPI PUSH2 0x2008 PUSH1 0x80 DUP3 ADD MLOAD PUSH1 0xC0 DUP4 ADD MLOAD SWAP1 PUSH2 0x323B JUMP JUMPDEST PUSH1 0x1 PUSH1 0xFF SHL DUP2 LT ISZERO PUSH2 0xCAE JUMPI PUSH2 0x201F SWAP1 DUP10 MLOAD PUSH2 0x32F8 JUMP JUMPDEST DUP9 MSTORE PUSH1 0x20 DUP9 ADD MLOAD PUSH1 0xA0 DUP3 ADD MLOAD SWAP1 PUSH1 0x1 PUSH1 0xFF SHL DUP3 LT ISZERO PUSH2 0x8F6 JUMPI SWAP1 PUSH2 0x2042 SWAP2 PUSH2 0x32F8 JUMP JUMPDEST PUSH1 0x20 DUP10 ADD MSTORE JUMPDEST PUSH1 0xFF PUSH1 0x40 DUP7 ADD MLOAD AND DUP1 PUSH2 0x235D JUMPI JUMPDEST POP PUSH1 0x1 PUSH1 0x1 PUSH1 0x80 SHL SUB PUSH1 0xC0 DUP10 ADD MLOAD AND DUP1 PUSH2 0x2337 JUMPI JUMPDEST POP PUSH1 0x1 PUSH1 0x1 PUSH1 0xA0 SHL SUB PUSH1 0x40 DUP10 ADD MLOAD AND PUSH1 0x1 PUSH1 0x1 PUSH1 0xA0 SHL SUB PUSH1 0x60 DUP4 ADD MLOAD AND DUP2 EQ PUSH1 0x0 EQ PUSH2 0x2308 JUMPI POP PUSH1 0x40 DUP2 ADD MLOAD PUSH2 0x20EF JUMPI JUMPDEST PUSH1 0x24 CALLDATALOAD ISZERO PUSH2 0x20E3 JUMPI PUSH1 0x20 ADD MLOAD PUSH1 0x2 SIGNEXTEND PUSH1 0x0 NOT ADD PUSH3 0x7FFFFF NOT DUP2 SLT PUSH3 0x7FFFFF DUP3 SGT OR PUSH2 0x20CF JUMPI JUMPDEST PUSH1 0x2 SIGNEXTEND PUSH1 0x60 DUP9 ADD MSTORE PUSH2 0x1CD2 JUMP JUMPDEST PUSH4 0x4E487B71 PUSH1 0xE0 SHL DUP8 MSTORE PUSH1 0x11 PUSH1 0x4 MSTORE PUSH1 0x24 DUP8 REVERT JUMPDEST PUSH1 0x20 ADD MLOAD PUSH1 0x2 SIGNEXTEND PUSH2 0x20C2 JUMP JUMPDEST PUSH1 0xA0 DUP6 ADD MLOAD ISZERO PUSH2 0x22B2 JUMPI JUMPDEST PUSH1 0x1 PUSH1 0x1 PUSH1 0x80 SHL SUB PUSH2 0x227F PUSH1 0x20 DUP4 ADD MLOAD PUSH1 0x2 SIGNEXTEND PUSH1 0x24 CALLDATALOAD PUSH1 0x0 EQ PUSH2 0x22A6 JUMPI PUSH2 0x2267 PUSH1 0x80 DUP13 ADD MLOAD SWAP2 JUMPDEST DUP13 PUSH1 0x24 CALLDATALOAD ISZERO PUSH2 0x2298 JUMPI POP PUSH2 0x2230 PUSH1 0x2 SLOAD SWAP2 JUMPDEST PUSH4 0xFFFFFFFF DUP13 PUSH1 0x1 PUSH1 0x1 PUSH1 0xA0 SHL SUB PUSH1 0x60 DUP3 ADD MLOAD AND SWAP5 PUSH2 0x216B DUP4 PUSH1 0x20 PUSH1 0x80 DUP6 ADD MLOAD SWAP5 ADD MLOAD AND SWAP5 PUSH1 0x2 SIGNEXTEND PUSH1 0x0 MSTORE PUSH1 0x5 PUSH1 0x20 MSTORE PUSH1 0x40 PUSH1 0x0 KECCAK256 SWAP1 JUMP JUMPDEST SWAP8 PUSH2 0x217C PUSH1 0x1 DUP11 ADD SWAP2 DUP3 SLOAD SWAP1 PUSH2 0x3331 JUMP JUMPDEST SWAP1 SSTORE PUSH2 0x218E PUSH1 0x2 DUP10 ADD SWAP2 DUP3 SLOAD SWAP1 PUSH2 0x3331 JUMP JUMPDEST SWAP1 SSTORE PUSH2 0x21FB PUSH2 0x21AF PUSH1 0x3 DUP10 ADD SWAP7 PUSH1 0x1 PUSH1 0x1 PUSH1 0xA0 SHL SUB DUP9 SLOAD PUSH1 0x38 SHR AND SWAP1 PUSH2 0x430A JUMP JUMPDEST DUP7 SLOAD PUSH32 0xFFFFFFFFFF0000000000000000000000000000000000000000FFFFFFFFFFFFFF AND PUSH1 0x38 SWAP2 SWAP1 SWAP2 SHL PUSH27 0xFFFFFFFFFFFFFFFFFFFFFFFFFFFFFFFFFFFFFFFF00000000000000 AND OR DUP7 SSTORE JUMP JUMPDEST PUSH2 0x220E DUP6 SLOAD SWAP2 PUSH1 0x6 SWAP1 DUP4 DUP3 SIGNEXTEND SWAP2 SIGNEXTEND PUSH2 0x42E5 JUMP JUMPDEST PUSH7 0xFFFFFFFFFFFFFF AND SWAP1 PUSH7 0xFFFFFFFFFFFFFF NOT AND OR DUP1 DUP6 SSTORE PUSH1 0xD8 SHR AND SWAP1 PUSH2 0x40F1 JUMP JUMPDEST PUSH32 0xFF00000000FFFFFFFFFFFFFFFFFFFFFFFFFFFFFFFFFFFFFFFFFFFFFFFFFFFFFF PUSH4 0xFFFFFFFF PUSH1 0xD8 SHL DUP4 SLOAD SWAP3 PUSH1 0xD8 SHL AND SWAP2 AND OR SWAP1 SSTORE JUMP JUMPDEST SLOAD PUSH1 0x80 SAR PUSH1 0x24 CALLDATALOAD PUSH2 0x228A JUMPI JUMPDEST DUP3 PUSH1 0xC0 DUP13 ADD MLOAD AND PUSH2 0x3E92 JUMP JUMPDEST AND PUSH1 0xC0 DUP10 ADD MSTORE PUSH2 0x209C JUMP JUMPDEST PUSH2 0x2293 SWAP1 PUSH2 0x328F JUMP JUMPDEST PUSH2 0x2273 JUMP JUMPDEST PUSH1 0x80 PUSH2 0x2230 SWAP2 ADD MLOAD SWAP2 PUSH2 0x2133 JUMP JUMPDEST PUSH2 0x2267 PUSH1 0x1 SLOAD SWAP2 PUSH2 0x2121 JUMP JUMPDEST PUSH1 0x1 PUSH1 0x1 PUSH1 0xA0 SHL SUB PUSH2 0x22EB PUSH4 0xFFFFFFFF PUSH1 0x20 DUP9 ADD MLOAD AND PUSH1 0x20 DUP10 ADD MLOAD PUSH1 0x2 SIGNEXTEND PUSH2 0xFFFF PUSH1 0x40 DUP12 ADD MLOAD AND SWAP1 PUSH1 0x1 PUSH1 0x1 PUSH1 0x80 SHL SUB DUP11 MLOAD AND SWAP3 PUSH2 0x4336 JUMP JUMPDEST SWAP2 SWAP1 SWAP2 AND PUSH1 0x60 DUP8 ADD MSTORE PUSH1 0x6 SIGNEXTEND PUSH1 0x80 DUP7 ADD MSTORE PUSH1 0x1 PUSH1 0xA0 DUP7 ADD MSTORE PUSH2 0x20FA JUMP JUMPDEST SWAP1 MLOAD PUSH1 0x1 PUSH1 0x1 PUSH1 0xA0 SHL SUB AND DUP2 SUB PUSH2 0x2320 JUMPI JUMPDEST POP PUSH2 0x1CD2 JUMP JUMPDEST PUSH2 0x2329 SWAP1 PUSH2 0x5137 JUMP JUMPDEST PUSH1 0x2 SIGNEXTEND PUSH1 0x60 DUP9 ADD MSTORE CODESIZE PUSH2 0x231A JUMP JUMPDEST PUSH2 0x2348 PUSH2 0x2352 SWAP2 PUSH1 0xC0 DUP5 ADD MLOAD PUSH2 0x3C10 JUMP JUMPDEST PUSH1 0x80 DUP11 ADD MLOAD PUSH2 0x323B JUMP JUMPDEST PUSH1 0x80 DUP10 ADD MSTORE CODESIZE PUSH2 0x206B JUMP JUMPDEST PUSH2 0x2397 PUSH1 0x1 PUSH1 0x1 PUSH1 0x80 SHL SUB PUSH2 0x2377 DUP2 SWAP4 PUSH1 0xC0 DUP7 ADD MLOAD PUSH2 0x3311 JUMP JUMPDEST PUSH2 0x2385 DUP2 PUSH1 0xC0 DUP8 ADD MLOAD PUSH2 0x3331 JUMP JUMPDEST PUSH1 0xC0 DUP7 ADD MSTORE AND DUP3 PUSH1 0xA0 DUP13 ADD MLOAD AND PUSH2 0x32C1 JUMP JUMPDEST AND PUSH1 0xA0 DUP10 ADD MSTORE CODESIZE PUSH2 0x2056 JUMP JUMPDEST PUSH1 0xA0 DUP2 ADD MLOAD PUSH1 0x1 PUSH1 0xFF SHL DUP2 LT ISZERO PUSH2 0xCAE JUMPI PUSH2 0x23BF SWAP1 DUP10 MLOAD PUSH2 0x32DC JUMP JUMPDEST DUP9 MSTORE PUSH1 0x20 DUP9 ADD MLOAD PUSH2 0x23D9 PUSH1 0x80 DUP4 ADD MLOAD PUSH1 0xC0 DUP5 ADD MLOAD SWAP1 PUSH2 0x323B JUMP JUMPDEST SWAP1 PUSH1 0x1 PUSH1 0xFF SHL DUP3 LT ISZERO PUSH2 0x8F6 JUMPI SWAP1 PUSH2 0x23F0 SWAP2 PUSH2 0x32DC JUMP JUMPDEST PUSH1 0x20 DUP10 ADD MSTORE PUSH2 0x2048 JUMP JUMPDEST POP POP PUSH2 0x2437 PUSH32 0x0 PUSH3 0xFFFFFF DUP1 PUSH2 0x242E DUP4 PUSH2 0x49B8 JUMP JUMPDEST AND SWAP2 AND DUP5 PUSH2 0x3E76 JUMP JUMPDEST PUSH2 0x1FD5 JUMP JUMPDEST SWAP1 POP DUP6 EQ ISZERO CODESIZE PUSH2 0x1FC6 JUMP JUMPDEST SWAP3 POP PUSH2 0x2452 DUP3 PUSH2 0x32B0 JUMP JUMPDEST SWAP3 PUSH2 0x1FBB JUMP JUMPDEST POP PUSH2 0x2462 DUP4 PUSH2 0x32B0 JUMP JUMPDEST DUP5 GT PUSH2 0x1FB6 JUMP JUMPDEST PUSH2 0x2473 SWAP4 POP PUSH2 0x492B JUMP JUMPDEST PUSH2 0x1FAB JUMP JUMPDEST DUP1 DUP9 SLT SWAP2 POP PUSH2 0x1FA1 JUMP JUMPDEST PUSH2 0x248C SWAP4 POP PUSH2 0x48AF JUMP JUMPDEST PUSH2 0x1F98 JUMP JUMPDEST POP DUP9 DUP11 SLT ISZERO PUSH2 0x1F8F JUMP JUMPDEST SWAP4 SWAP3 POP POP DUP9 DUP1 PUSH2 0x24EF JUMPI JUMPDEST ISZERO PUSH2 0x24DE JUMPI JUMPDEST SWAP8 DUP9 SWAP6 DUP2 PUSH2 0x24D4 JUMPI JUMPDEST POP ISZERO PUSH2 0x24C5 JUMPI POP POP POP JUMPDEST SWAP3 PUSH2 0x1FAD JUMP JUMPDEST PUSH2 0x24CF SWAP4 POP PUSH2 0x4875 JUMP JUMPDEST PUSH2 0x24BF JUMP JUMPDEST DUP1 DUP9 SLT SWAP2 POP PUSH2 0x24B5 JUMP JUMPDEST POP PUSH2 0x24EA DUP4 DUP4 DUP4 PUSH2 0x4963 JUMP JUMPDEST PUSH2 0x24AC JUMP JUMPDEST POP DUP6 DUP8 SLT ISZERO PUSH2 0x24A6 JUMP JUMPDEST SWAP1 SWAP2 SWAP3 POP DUP6 ISZERO PUSH2 0x2569 JUMPI DUP2 ISZERO PUSH2 0x2569 JUMPI DUP14 SWAP3 SWAP2 SWAP1 PUSH1 0x1 PUSH1 0x1 PUSH1 0xA0 SHL SUB DUP9 AND DUP8 LT PUSH2 0x252E JUMPI PUSH2 0x2528 SWAP1 DUP3 DUP9 PUSH2 0x4A2F JUMP JUMPDEST SWAP6 PUSH2 0x1F60 JUMP JUMPDEST PUSH1 0x1 PUSH1 0x1 PUSH1 0xA0 SHL SUB SWAP1 PUSH2 0x2555 SWAP1 DUP4 DUP4 DUP3 GT PUSH2 0x255B JUMPI PUSH2 0x254F SWAP2 PUSH1 0x60 SHL PUSH2 0x3311 JUMP JUMPDEST DUP9 PUSH2 0x323B JUMP JUMPDEST AND PUSH2 0x2528 JUMP JUMPDEST PUSH2 0x2564 SWAP2 PUSH2 0x3D76 JUMP JUMPDEST PUSH2 0x254F JUMP JUMPDEST DUP14 DUP1 REVERT JUMPDEST PUSH2 0x2578 DUP2 DUP9 DUP9 PUSH2 0x4963 JUMP JUMPDEST SWAP5 PUSH2 0x1F55 JUMP JUMPDEST SWAP4 SWAP1 POP PUSH1 0x1 PUSH1 0x1 PUSH1 0xA0 SHL SUB DUP7 AND DUP6 LT PUSH2 0x263B JUMPI PUSH2 0x259C DUP2 DUP7 DUP9 PUSH2 0x492B JUMP JUMPDEST SWAP1 JUMPDEST DUP2 PUSH2 0x25A8 DUP6 PUSH2 0x32B0 JUMP JUMPDEST LT PUSH2 0x25B4 JUMPI DUP7 SWAP6 PUSH2 0x1F60 JUMP JUMPDEST SWAP1 SWAP2 POP PUSH2 0x25C0 DUP4 PUSH2 0x32B0 JUMP JUMPDEST DUP6 ISZERO PUSH2 0x2569 JUMPI DUP2 ISZERO PUSH2 0x2569 JUMPI DUP14 PUSH1 0x1 PUSH1 0x1 PUSH1 0xA0 SHL SUB DUP9 AND DUP8 LT PUSH2 0x2628 JUMPI POP DUP2 PUSH1 0x1 PUSH1 0x1 PUSH1 0xA0 SHL SUB DUP3 GT PUSH2 0x261A JUMPI PUSH2 0x25F6 SWAP2 PUSH2 0x3E56 JUMP JUMPDEST DUP1 DUP7 GT ISZERO PUSH2 0x2569 JUMPI SWAP1 PUSH1 0x1 PUSH1 0x1 PUSH1 0xA0 SHL SUB PUSH2 0x2613 DUP16 SWAP5 SWAP4 DUP9 PUSH2 0x3331 JUMP JUMPDEST AND SWAP6 PUSH2 0x1F60 JUMP JUMPDEST PUSH2 0x2623 SWAP2 PUSH2 0x3E56 JUMP JUMPDEST PUSH2 0x25F6 JUMP JUMPDEST SWAP3 SWAP2 SWAP1 PUSH2 0x2636 SWAP1 DUP3 DUP9 PUSH2 0x49CE JUMP JUMPDEST PUSH2 0x2528 JUMP JUMPDEST PUSH2 0x2646 DUP2 DUP8 DUP8 PUSH2 0x4875 JUMP JUMPDEST SWAP1 PUSH2 0x259E JUMP JUMPDEST SWAP1 PUSH2 0x1EE0 JUMP JUMPDEST PUSH1 0x1 PUSH1 0x1 PUSH1 0xA0 SHL SUB PUSH1 0x64 CALLDATALOAD AND DUP2 GT PUSH2 0x1ED5 JUMP JUMPDEST SWAP1 POP PUSH3 0xD89E8 DUP1 SWAP2 SGT PUSH2 0x2679 JUMPI JUMPDEST POP PUSH2 0x1E8E JUMP JUMPDEST PUSH1 0x20 DUP3 ADD MSTORE CODESIZE PUSH2 0x2673 JUMP JUMPDEST SWAP1 PUSH2 0x268E SWAP1 PUSH2 0x4BDD JUMP JUMPDEST SWAP1 PUSH2 0x1E2B JUMP JUMPDEST PUSH2 0x26A0 SWAP1 DUP3 SHR SWAP4 PUSH2 0x4BCB JUMP JUMPDEST SWAP3 PUSH2 0x1E24 JUMP JUMPDEST PUSH2 0x26B3 SWAP1 PUSH1 0x4 SHR SWAP4 PUSH2 0x4BB9 JUMP JUMPDEST SWAP3 PUSH2 0x1E1A JUMP JUMPDEST PUSH2 0x26C6 SWAP1 PUSH1 0x8 SHR SWAP4 PUSH2 0x4BA7 JUMP JUMPDEST SWAP3 PUSH2 0x1E10 JUMP JUMPDEST PUSH2 0x26D9 SWAP1 PUSH1 0x10 SHR SWAP4 PUSH2 0x4B95 JUMP JUMPDEST SWAP3 PUSH2 0x1E05 JUMP JUMPDEST PUSH2 0x26EC SWAP1 PUSH1 0x20 SHR SWAP4 PUSH2 0x4B83 JUMP JUMPDEST SWAP3 PUSH2 0x1DF9 JUMP JUMPDEST PUSH2 0x26FF SWAP1 PUSH1 0x40 SHR SWAP4 PUSH2 0x4B71 JUMP JUMPDEST SWAP3 PUSH2 0x1DEB JUMP JUMPDEST PUSH1 0x80 SWAP4 POP DUP4 SHR SWAP1 POP PUSH1 0x2 PUSH2 0x1DD5 JUMP JUMPDEST POP PUSH2 0x274C SWAP1 PUSH32 0x0 SWAP1 PUSH1 0x2 SIGNEXTEND PUSH1 0x8 SAR PUSH1 0x8 SHL PUSH1 0x2 SIGNEXTEND PUSH2 0x4B5A JUMP JUMPDEST SWAP1 PUSH2 0x1E68 JUMP JUMPDEST PUSH4 0x4E487B71 PUSH1 0xE0 SHL DUP9 MSTORE PUSH1 0x11 PUSH1 0x4 MSTORE PUSH1 0x24 DUP9 REVERT JUMPDEST PUSH3 0x7FFFFF PUSH1 0x2 DUP3 SWAP1 SIGNEXTEND PUSH1 0x1 ADD SWAP1 DUP2 SGT PUSH3 0x7FFFFF NOT SWAP1 SWAP2 SLT OR PUSH2 0x2752 JUMPI PUSH1 0x1 PUSH1 0xFF DUP2 DUP4 PUSH1 0x2 SIGNEXTEND ADD AND SHL DUP1 PUSH1 0x0 NOT DUP2 ADD GT PUSH2 0x294D JUMPI PUSH1 0x0 NOT ADD NOT PUSH2 0x27C4 PUSH1 0x1 DUP4 PUSH1 0x2 SIGNEXTEND ADD PUSH1 0x2 SIGNEXTEND PUSH1 0x8 SAR PUSH1 0x1 SIGNEXTEND PUSH1 0x1 SIGNEXTEND PUSH1 0x0 MSTORE PUSH1 0x6 PUSH1 0x20 MSTORE PUSH1 0x40 PUSH1 0x0 KECCAK256 SWAP1 JUMP JUMPDEST SLOAD AND DUP1 ISZERO DUP1 ISZERO SWAP3 SWAP2 SWAP1 PUSH2 0x290C JUMPI PUSH2 0x274C SWAP2 DUP11 SWAP2 DUP1 PUSH1 0x1 PUSH1 0x1 PUSH1 0x80 SHL SUB DUP2 AND ISZERO PUSH2 0x28FD JUMPI JUMPDEST POP DUP1 PUSH8 0xFFFFFFFFFFFFFFFF PUSH1 0x1 SWAP3 AND ISZERO PUSH2 0x28EA JUMPI JUMPDEST PUSH4 0xFFFFFFFF DUP2 AND ISZERO PUSH2 0x28D7 JUMPI JUMPDEST PUSH2 0xFFFF DUP2 AND ISZERO PUSH2 0x28C4 JUMPI JUMPDEST PUSH1 0xFF DUP2 AND ISZERO PUSH2 0x28B1 JUMPI JUMPDEST PUSH1 0xF DUP2 AND ISZERO PUSH2 0x289E JUMPI JUMPDEST PUSH1 0x3 DUP2 AND ISZERO PUSH2 0x288B JUMPI JUMPDEST AND ISZERO PUSH2 0x287B JUMPI JUMPDEST PUSH1 0x1 PUSH1 0xFF PUSH32 0x0 SWAP4 AND PUSH1 0x2 SIGNEXTEND SWAP2 PUSH1 0x2 SIGNEXTEND ADD PUSH1 0x2 SIGNEXTEND PUSH1 0x8 SAR PUSH1 0x8 SHL PUSH1 0x2 SIGNEXTEND OR PUSH2 0x4B5A JUMP JUMPDEST SWAP1 PUSH2 0x2885 SWAP1 PUSH2 0x4BDD JUMP JUMPDEST SWAP1 PUSH2 0x283A JUMP JUMPDEST PUSH2 0x2898 SWAP1 PUSH1 0x2 SHR SWAP4 PUSH2 0x4BCB JUMP JUMPDEST SWAP3 PUSH2 0x2833 JUMP JUMPDEST PUSH2 0x28AB SWAP1 PUSH1 0x4 SHR SWAP4 PUSH2 0x4BB9 JUMP JUMPDEST SWAP3 PUSH2 0x2829 JUMP JUMPDEST PUSH2 0x28BE SWAP1 PUSH1 0x8 SHR SWAP4 PUSH2 0x4BA7 JUMP JUMPDEST SWAP3 PUSH2 0x281F JUMP JUMPDEST PUSH2 0x28D1 SWAP1 PUSH1 0x10 SHR SWAP4 PUSH2 0x4B95 JUMP JUMPDEST SWAP3 PUSH2 0x2815 JUMP JUMPDEST PUSH2 0x28E4 SWAP1 PUSH1 0x20 SHR SWAP4 PUSH2 0x4B83 JUMP JUMPDEST SWAP3 PUSH2 0x280A JUMP JUMPDEST PUSH2 0x28F7 SWAP1 PUSH1 0x40 SHR SWAP4 PUSH2 0x4B71 JUMP JUMPDEST SWAP3 PUSH2 0x27FD JUMP JUMPDEST PUSH1 0x80 SWAP4 POP DUP4 SHR SWAP1 POP PUSH1 0x1 PUSH2 0x27E8 JUMP JUMPDEST POP PUSH2 0x274C SWAP1 PUSH1 0xFF PUSH1 0x1 PUSH32 0x0 SWAP3 PUSH1 0x2 SIGNEXTEND ADD PUSH1 0x2 SIGNEXTEND PUSH1 0x8 SAR PUSH1 0x8 SHL PUSH1 0x2 SIGNEXTEND OR PUSH2 0x4B5A JUMP JUMPDEST PUSH4 0x4E487B71 PUSH1 0xE0 SHL DUP10 MSTORE PUSH1 0x11 PUSH1 0x4 MSTORE PUSH1 0x24 DUP10 REVERT JUMPDEST PUSH3 0x7FFFFF NOT DUP2 PUSH1 0x2 SIGNEXTEND EQ PUSH2 0x2752 JUMPI PUSH1 0x2 SIGNEXTEND PUSH1 0x0 NOT ADD PUSH2 0x1D67 JUMP JUMPDEST PUSH2 0x29A7 SWAP2 POP PUSH32 0x0 SWAP1 PUSH2 0x4AE5 JUMP JUMPDEST PUSH1 0x2 SIGNEXTEND ISZERO ISZERO CODESIZE PUSH2 0x1D61 JUMP JUMPDEST DUP6 DUP8 PUSH1 0x1 PUSH1 0x1 PUSH1 0x80 SHL SUB DUP7 DUP9 PUSH1 0x60 DUP5 ADD MLOAD PUSH1 0x2 SIGNEXTEND PUSH1 0x20 DUP3 ADD MLOAD PUSH1 0x2 SIGNEXTEND DUP1 SWAP2 EQ ISZERO PUSH1 0x0 EQ PUSH2 0x2E8E JUMPI DUP2 PUSH2 0xFFFF PUSH1 0x40 PUSH2 0x2A0E SWAP5 ADD MLOAD AND SWAP2 PUSH4 0xFFFFFFFF PUSH1 0x20 DUP7 ADD MLOAD AND SWAP1 DUP7 DUP7 MLOAD AND SWAP2 PUSH2 0xFFFF PUSH1 0x80 DUP2 PUSH1 0x60 DUP8 ADD MLOAD AND SWAP6 ADD MLOAD AND SWAP5 PUSH2 0x3FAE JUMP JUMPDEST PUSH3 0xFFFFFF PUSH1 0xA0 SHL PUSH1 0x1 PUSH1 0x1 PUSH1 0xA0 SHL SUB PUSH1 0x40 DUP8 ADD MLOAD AND SWAP3 PUSH2 0xFFFF PUSH1 0xB8 SHL PUSH1 0x60 DUP9 ADD MLOAD SWAP4 PUSH32 0xFFFFFFFFFF000000000000000000000000000000000000000000000000000000 PUSH27 0xFFFF00000000000000000000000000000000000000000000000000 DUP12 SLOAD SWAP3 PUSH1 0xC8 SHL AND SWAP2 AND OR SWAP2 PUSH1 0xB8 SHL AND OR SWAP2 PUSH1 0xA0 SHL AND OR OR DUP5 SSTORE JUMPDEST MLOAD AND PUSH1 0x1 PUSH1 0x1 PUSH1 0x80 SHL SUB PUSH1 0xC0 DUP4 ADD MLOAD AND DUP1 SWAP2 SUB PUSH2 0x2E77 JUMPI JUMPDEST POP PUSH1 0x24 CALLDATALOAD ISZERO PUSH2 0x2E2A JUMPI PUSH1 0x80 DUP2 ADD MLOAD PUSH1 0x1 SSTORE PUSH1 0x1 PUSH1 0x1 PUSH1 0x80 SHL SUB PUSH1 0xA0 DUP3 ADD MLOAD AND DUP1 PUSH2 0x2DFD JUMPI JUMPDEST POP JUMPDEST DUP2 PUSH1 0x44 CALLDATALOAD SGT PUSH1 0x24 CALLDATALOAD ISZERO ISZERO EQ PUSH1 0x0 EQ PUSH2 0x2DE4 JUMPI PUSH2 0x2AE5 DUP2 MLOAD PUSH1 0x44 CALLDATALOAD PUSH2 0x32F8 JUMP JUMPDEST SWAP4 PUSH1 0x20 DUP3 ADD MLOAD SWAP4 JUMPDEST PUSH1 0x24 CALLDATALOAD ISZERO PUSH2 0x2CA7 JUMPI DUP4 DUP6 SLT PUSH2 0x2BFF JUMPI JUMPDEST PUSH2 0x2B05 PUSH2 0x33A0 JUMP JUMPDEST SWAP2 CALLER EXTCODESIZE ISZERO PUSH2 0x2BFB JUMPI PUSH1 0x40 MLOAD PUSH4 0x4C455E9 PUSH1 0xE5 SHL DUP2 MSTORE SWAP2 DUP6 SWAP2 DUP4 SWAP2 DUP3 SWAP2 PUSH2 0x2B31 SWAP2 SWAP1 DUP11 DUP13 PUSH1 0x4 DUP7 ADD PUSH2 0x3208 JUMP JUMPDEST SUB DUP2 DUP4 CALLER GAS CALL DUP1 ISZERO PUSH2 0x14CB JUMPI PUSH2 0x2BE7 JUMPI JUMPDEST POP PUSH1 0x40 SWAP6 PUSH2 0x2B6A PUSH2 0x2B5B DUP8 PUSH1 0x1 PUSH1 0x1 PUSH1 0xA0 SHL SUB SWAP5 PUSH2 0x323B JUMP JUMPDEST PUSH2 0x2B63 PUSH2 0x33A0 JUMP JUMPDEST LT ISZERO PUSH2 0x333E JUMP JUMPDEST DUP2 DUP8 DUP5 ADD MLOAD AND SWAP3 PUSH1 0x60 PUSH1 0x1 PUSH1 0x1 PUSH1 0x80 SHL SUB PUSH1 0xC0 DUP4 ADD MLOAD AND SWAP2 ADD MLOAD PUSH1 0x2 SIGNEXTEND SWAP1 DUP9 MLOAD SWAP5 DUP9 DUP7 MSTORE DUP8 PUSH1 0x20 DUP8 ADD MSTORE DUP10 DUP7 ADD MSTORE PUSH1 0x60 DUP6 ADD MSTORE PUSH1 0x80 DUP5 ADD MSTORE AND SWAP1 PUSH32 0xC42079F94A6350D7E6235F29174924F928CC2AC818EB64FED8004E115FBCCA67 PUSH1 0xA0 CALLER SWAP3 LOG3 DUP1 SLOAD PUSH1 0xFF PUSH1 0xF0 SHL NOT AND PUSH1 0x1 PUSH1 0xF0 SHL OR SWAP1 SSTORE DUP3 MLOAD SWAP2 DUP3 MSTORE PUSH1 0x20 DUP3 ADD MSTORE RETURN JUMPDEST PUSH2 0x2BF1 DUP5 SWAP2 PUSH2 0x30D2 JUMP JUMPDEST PUSH2 0x143E JUMPI DUP7 PUSH2 0x2B42 JUMP JUMPDEST DUP5 DUP1 REVERT JUMPDEST PUSH2 0x2C3D PUSH1 0x20 PUSH2 0x2C0D DUP8 PUSH2 0x32B0 JUMP JUMPDEST PUSH1 0x40 MLOAD PUSH4 0xA9059CBB PUSH1 0xE0 SHL DUP2 MSTORE PUSH1 0x1 PUSH1 0x1 PUSH1 0xA0 SHL SUB DUP12 AND PUSH1 0x4 DUP3 ADD MSTORE PUSH1 0x24 DUP2 ADD SWAP2 SWAP1 SWAP2 MSTORE SWAP2 DUP3 SWAP1 DUP2 SWAP1 PUSH1 0x44 DUP3 ADD SWAP1 JUMP JUMPDEST SUB DUP2 DUP9 PUSH1 0x1 PUSH1 0x1 PUSH1 0xA0 SHL SUB PUSH32 0x0 AND GAS CALL DUP1 ISZERO PUSH2 0x2C9C JUMPI PUSH2 0x2C7D JUMPI JUMPDEST POP PUSH2 0x2AFD JUMP JUMPDEST PUSH2 0x2C95 SWAP1 PUSH1 0x20 RETURNDATASIZE PUSH1 0x20 GT PUSH2 0xB2D JUMPI PUSH2 0xB1D DUP2 DUP4 PUSH2 0x3102 JUMP JUMPDEST POP DUP8 PUSH2 0x2C77 JUMP JUMPDEST PUSH1 0x40 MLOAD RETURNDATASIZE DUP8 DUP3 RETURNDATACOPY RETURNDATASIZE SWAP1 REVERT JUMPDEST DUP4 DUP7 SWAP8 SWAP3 SWAP8 SLT PUSH2 0x2D47 JUMPI JUMPDEST PUSH2 0x2CBA PUSH2 0x3431 JUMP JUMPDEST SWAP7 CALLER EXTCODESIZE ISZERO PUSH2 0x2BFB JUMPI PUSH1 0x40 MLOAD PUSH4 0x4C455E9 PUSH1 0xE5 SHL DUP2 MSTORE SWAP2 DUP6 SWAP2 DUP4 SWAP2 DUP3 SWAP2 PUSH2 0x2CE6 SWAP2 SWAP1 DUP11 DUP13 PUSH1 0x4 DUP7 ADD PUSH2 0x3208 JUMP JUMPDEST SUB DUP2 DUP4 CALLER GAS CALL DUP1 ISZERO PUSH2 0x14CB JUMPI SWAP7 DUP6 SWAP2 PUSH1 0x40 SWAP9 PUSH2 0x2D21 JUMPI JUMPDEST POP PUSH2 0x2D14 PUSH1 0x1 PUSH1 0x1 PUSH1 0xA0 SHL SUB SWAP4 SWAP3 PUSH2 0x2D1C SWAP3 PUSH2 0x323B JUMP JUMPDEST PUSH2 0x2B63 PUSH2 0x3431 JUMP JUMPDEST PUSH2 0x2B6A JUMP JUMPDEST PUSH1 0x1 PUSH1 0x1 PUSH1 0xA0 SHL SUB SWAP4 SWAP3 PUSH2 0x2D1C SWAP3 SWAP7 PUSH2 0x2D3C PUSH2 0x2D14 SWAP4 PUSH2 0x30D2 JUMP JUMPDEST SWAP7 SWAP3 POP SWAP3 SWAP4 POP PUSH2 0x2CFD JUMP JUMPDEST PUSH2 0x2D85 PUSH1 0x20 PUSH2 0x2D55 DUP9 PUSH2 0x32B0 JUMP JUMPDEST PUSH1 0x40 MLOAD PUSH4 0xA9059CBB PUSH1 0xE0 SHL DUP2 MSTORE PUSH1 0x1 PUSH1 0x1 PUSH1 0xA0 SHL SUB DUP7 AND PUSH1 0x4 DUP3 ADD MSTORE PUSH1 0x24 DUP2 ADD SWAP2 SWAP1 SWAP2 MSTORE SWAP2 DUP3 SWAP1 DUP2 SWAP1 PUSH1 0x44 DUP3 ADD SWAP1 JUMP JUMPDEST SUB DUP2 DUP9 PUSH1 0x1 PUSH1 0x1 PUSH1 0xA0 SHL SUB PUSH32 0x0 AND GAS CALL DUP1 ISZERO PUSH2 0x2C9C JUMPI PUSH2 0x2DC5 JUMPI JUMPDEST POP PUSH2 0x2CB2 JUMP JUMPDEST PUSH2 0x2DDD SWAP1 PUSH1 0x20 RETURNDATASIZE PUSH1 0x20 GT PUSH2 0xB2D JUMPI PUSH2 0xB1D DUP2 DUP4 PUSH2 0x3102 JUMP JUMPDEST POP DUP8 PUSH2 0x2DBF JUMP JUMPDEST PUSH1 0x20 DUP2 ADD MLOAD SWAP4 PUSH2 0x2DF7 DUP3 MLOAD PUSH1 0x44 CALLDATALOAD PUSH2 0x32F8 JUMP JUMPDEST SWAP4 PUSH2 0x2AED JUMP JUMPDEST PUSH1 0x1 PUSH1 0x1 PUSH1 0x80 SHL SUB PUSH2 0x2E14 PUSH1 0x3 SLOAD SWAP3 DUP3 DUP5 AND PUSH2 0x32C1 JUMP JUMPDEST AND SWAP1 PUSH1 0x1 PUSH1 0x1 PUSH1 0x80 SHL SUB NOT AND OR PUSH1 0x3 SSTORE DUP6 PUSH2 0x2AC4 JUMP JUMPDEST PUSH1 0x80 DUP2 ADD MLOAD PUSH1 0x2 SSTORE PUSH1 0x1 PUSH1 0x1 PUSH1 0x80 SHL SUB PUSH1 0xA0 DUP3 ADD MLOAD AND DUP1 PUSH2 0x2E4C JUMPI JUMPDEST POP PUSH2 0x2AC6 JUMP JUMPDEST PUSH1 0x1 PUSH1 0x1 PUSH1 0x80 SHL SUB PUSH1 0x3 SLOAD SWAP2 PUSH2 0x2E67 DUP3 NOT SWAP2 DUP5 PUSH1 0x80 SHR PUSH2 0x32C1 JUMP JUMPDEST PUSH1 0x80 SHL AND SWAP2 AND OR PUSH1 0x3 SSTORE DUP6 PUSH2 0x2E46 JUMP JUMPDEST PUSH1 0x1 PUSH1 0x1 PUSH1 0x80 SHL SUB NOT PUSH1 0x4 SLOAD AND OR PUSH1 0x4 SSTORE DUP6 PUSH2 0x2A9F JUMP JUMPDEST POP POP PUSH1 0x1 PUSH1 0x1 PUSH1 0xA0 SHL SUB PUSH1 0x40 DUP5 ADD MLOAD AND PUSH32 0xFFFFFFFFFFFFFFFFFFFFFFFF0000000000000000000000000000000000000000 DUP6 SLOAD AND OR DUP5 SSTORE PUSH2 0x2A87 JUMP JUMPDEST POP PUSH1 0x1 PUSH1 0x1 PUSH1 0xA0 SHL SUB PUSH1 0x64 CALLDATALOAD AND PUSH1 0x1 PUSH1 0x1 PUSH1 0xA0 SHL SUB PUSH1 0x40 DUP10 ADD MLOAD AND EQ ISZERO PUSH2 0x1CDC JUMP JUMPDEST PUSH1 0x2 SLOAD SWAP1 PUSH2 0x1C9F JUMP JUMPDEST PUSH4 0x4E487B71 PUSH1 0xE0 SHL DUP8 MSTORE PUSH1 0x41 PUSH1 0x4 MSTORE PUSH1 0x24 DUP8 REVERT JUMPDEST PUSH1 0xF PUSH1 0xA0 DUP6 ADD MLOAD PUSH1 0x4 SHR AND SWAP3 PUSH2 0x1C2E JUMP JUMPDEST PUSH1 0x64 PUSH1 0x40 MLOAD PUSH3 0x461BCD PUSH1 0xE5 SHL DUP2 MSTORE PUSH1 0x20 PUSH1 0x4 DUP3 ADD MSTORE PUSH1 0x20 PUSH1 0x24 DUP3 ADD MSTORE PUSH32 0x4B6F7274616E61506F6F6C3A20494E56414C49445F50524943455F4C494D4954 PUSH1 0x44 DUP3 ADD MSTORE REVERT JUMPDEST POP PUSH5 0x1000276A3 PUSH1 0x1 PUSH1 0x1 PUSH1 0xA0 SHL SUB PUSH1 0x64 CALLDATALOAD AND GT PUSH2 0x1C01 JUMP JUMPDEST PUSH1 0x1 PUSH1 0x1 PUSH1 0xA0 SHL SUB DUP5 MLOAD AND PUSH1 0x1 PUSH1 0x1 PUSH1 0xA0 SHL SUB PUSH1 0x64 CALLDATALOAD AND GT DUP1 ISZERO PUSH2 0x1C01 JUMPI POP PUSH20 0xFFFD8963EFD1FC6A506488495D951D5263988D26 PUSH1 0x1 PUSH1 0x1 PUSH1 0xA0 SHL SUB PUSH1 0x64 CALLDATALOAD AND LT PUSH2 0x1C01 JUMP JUMPDEST SWAP1 POP CALLVALUE PUSH2 0x349 JUMPI DUP2 PUSH1 0x3 NOT CALLDATASIZE ADD SLT PUSH2 0x349 JUMPI PUSH1 0x20 SWAP1 PUSH1 0x1 PUSH1 0x1 PUSH1 0xA0 SHL SUB PUSH32 0x0 AND DUP2 MSTORE RETURN JUMPDEST PUSH1 0x4 CALLDATALOAD SWAP1 PUSH1 0x1 PUSH1 0x1 PUSH1 0xA0 SHL SUB DUP3 AND DUP3 SUB PUSH2 0xCB9 JUMPI JUMP JUMPDEST SWAP2 DUP2 PUSH1 0x1F DUP5 ADD SLT ISZERO PUSH2 0xCB9 JUMPI DUP3 CALLDATALOAD SWAP2 PUSH8 0xFFFFFFFFFFFFFFFF DUP4 GT PUSH2 0xCB9 JUMPI PUSH1 0x20 DUP4 DUP2 DUP7 ADD SWAP6 ADD ADD GT PUSH2 0xCB9 JUMPI JUMP JUMPDEST PUSH1 0x24 CALLDATALOAD SWAP1 DUP2 PUSH1 0x2 SIGNEXTEND DUP3 SUB PUSH2 0xCB9 JUMPI JUMP JUMPDEST PUSH1 0x44 CALLDATALOAD SWAP1 DUP2 PUSH1 0x2 SIGNEXTEND DUP3 SUB PUSH2 0xCB9 JUMPI JUMP JUMPDEST PUSH1 0x4 CALLDATALOAD SWAP1 DUP2 PUSH1 0x2 SIGNEXTEND DUP3 SUB PUSH2 0xCB9 JUMPI JUMP JUMPDEST PUSH1 0x64 CALLDATALOAD SWAP1 PUSH1 0x1 PUSH1 0x1 PUSH1 0x80 SHL SUB DUP3 AND DUP3 SUB PUSH2 0xCB9 JUMPI JUMP JUMPDEST PUSH1 0x44 CALLDATALOAD SWAP1 PUSH1 0x1 PUSH1 0x1 PUSH1 0x80 SHL SUB DUP3 AND DUP3 SUB PUSH2 0xCB9 JUMPI JUMP JUMPDEST PUSH1 0xE0 DUP2 ADD SWAP1 DUP2 LT PUSH8 0xFFFFFFFFFFFFFFFF DUP3 GT OR PUSH2 0x30BC JUMPI PUSH1 0x40 MSTORE JUMP JUMPDEST PUSH4 0x4E487B71 PUSH1 0xE0 SHL PUSH1 0x0 MSTORE PUSH1 0x41 PUSH1 0x4 MSTORE PUSH1 0x24 PUSH1 0x0 REVERT JUMPDEST PUSH8 0xFFFFFFFFFFFFFFFF DUP2 GT PUSH2 0x30BC JUMPI PUSH1 0x40 MSTORE JUMP JUMPDEST PUSH1 0x80 DUP2 ADD SWAP1 DUP2 LT PUSH8 0xFFFFFFFFFFFFFFFF DUP3 GT OR PUSH2 0x30BC JUMPI PUSH1 0x40 MSTORE JUMP JUMPDEST SWAP1 PUSH1 0x1F DUP1 NOT SWAP2 ADD AND DUP2 ADD SWAP1 DUP2 LT PUSH8 0xFFFFFFFFFFFFFFFF DUP3 GT OR PUSH2 0x30BC JUMPI PUSH1 0x40 MSTORE JUMP JUMPDEST ISZERO PUSH2 0x312B JUMPI JUMP JUMPDEST PUSH1 0x40 MLOAD PUSH3 0x461BCD PUSH1 0xE5 SHL DUP2 MSTORE PUSH1 0x20 PUSH1 0x4 DUP3 ADD MSTORE PUSH1 0x13 PUSH1 0x24 DUP3 ADD MSTORE PUSH32 0x4B6F7274616E61506F6F6C3A204C4F434B454400000000000000000000000000 PUSH1 0x44 DUP3 ADD MSTORE PUSH1 0x64 SWAP1 REVERT JUMPDEST ISZERO PUSH2 0x3177 JUMPI JUMP JUMPDEST PUSH1 0x40 MLOAD PUSH3 0x461BCD PUSH1 0xE5 SHL DUP2 MSTORE PUSH1 0x20 PUSH1 0x4 DUP3 ADD MSTORE PUSH1 0xF PUSH1 0x24 DUP3 ADD MSTORE PUSH32 0x4E6F2064656C656761746563616C6C0000000000000000000000000000000000 PUSH1 0x44 DUP3 ADD MSTORE PUSH1 0x64 SWAP1 REVERT JUMPDEST ISZERO PUSH2 0x31C3 JUMPI JUMP JUMPDEST PUSH1 0x40 MLOAD PUSH3 0x461BCD PUSH1 0xE5 SHL DUP2 MSTORE PUSH1 0x20 PUSH1 0x4 DUP3 ADD MSTORE PUSH1 0x18 PUSH1 0x24 DUP3 ADD MSTORE PUSH32 0x4B6F7274616E61506F6F6C3A205A45524F5F414D4F554E540000000000000000 PUSH1 0x44 DUP3 ADD MSTORE PUSH1 0x64 SWAP1 REVERT JUMPDEST SWAP3 DUP5 SWAP3 PUSH1 0x80 SWAP6 SWAP3 DUP6 MSTORE PUSH1 0x20 DUP6 ADD MSTORE PUSH1 0x60 PUSH1 0x40 DUP6 ADD MSTORE DUP2 PUSH1 0x60 DUP6 ADD MSTORE DUP5 DUP5 ADD CALLDATACOPY PUSH1 0x0 DUP3 DUP3 ADD DUP5 ADD MSTORE PUSH1 0x1F ADD PUSH1 0x1F NOT AND ADD ADD SWAP1 JUMP JUMPDEST SWAP2 SWAP1 DUP3 ADD DUP1 SWAP3 GT PUSH2 0x3248 JUMPI JUMP JUMPDEST PUSH4 0x4E487B71 PUSH1 0xE0 SHL PUSH1 0x0 MSTORE PUSH1 0x11 PUSH1 0x4 MSTORE PUSH1 0x24 PUSH1 0x0 REVERT JUMPDEST PUSH1 0x1 PUSH1 0x1 PUSH1 0x80 SHL SUB SWAP2 DUP3 AND SWAP1 DUP3 AND SUB SWAP2 SWAP1 DUP3 GT PUSH2 0x3248 JUMPI JUMP JUMPDEST SWAP1 DUP2 PUSH1 0x20 SWAP2 SUB SLT PUSH2 0xCB9 JUMPI MLOAD DUP1 ISZERO ISZERO DUP2 SUB PUSH2 0xCB9 JUMPI SWAP1 JUMP JUMPDEST PUSH1 0xF SIGNEXTEND PUSH16 0x7FFFFFFFFFFFFFFFFFFFFFFFFFFFFFFF NOT DUP2 EQ PUSH2 0x3248 JUMPI PUSH1 0x0 SUB SWAP1 JUMP JUMPDEST PUSH1 0x1 PUSH1 0xFF SHL DUP2 EQ PUSH2 0x3248 JUMPI PUSH1 0x0 SUB SWAP1 JUMP JUMPDEST SWAP2 SWAP1 SWAP2 PUSH1 0x1 PUSH1 0x1 PUSH1 0x80 SHL SUB DUP1 DUP1 SWAP5 AND SWAP2 AND ADD SWAP2 DUP3 GT PUSH2 0x3248 JUMPI JUMP JUMPDEST SWAP2 SWAP1 SWAP2 PUSH1 0x0 DUP4 DUP3 ADD SWAP4 DUP5 SLT SWAP2 SLT SWAP1 DUP1 ISZERO DUP3 AND SWAP2 ISZERO AND OR PUSH2 0x3248 JUMPI JUMP JUMPDEST DUP2 DUP2 SUB SWAP3 SWAP2 PUSH1 0x0 SGT DUP1 ISZERO DUP3 DUP6 SGT AND SWAP2 DUP5 SLT AND OR PUSH2 0x3248 JUMPI JUMP JUMPDEST DUP2 ISZERO PUSH2 0x331B JUMPI DIV SWAP1 JUMP JUMPDEST PUSH4 0x4E487B71 PUSH1 0xE0 SHL PUSH1 0x0 MSTORE PUSH1 0x12 PUSH1 0x4 MSTORE PUSH1 0x24 PUSH1 0x0 REVERT JUMPDEST SWAP2 SWAP1 DUP3 SUB SWAP2 DUP3 GT PUSH2 0x3248 JUMPI JUMP JUMPDEST ISZERO PUSH2 0x3345 JUMPI JUMP JUMPDEST PUSH1 0x40 MLOAD PUSH3 0x461BCD PUSH1 0xE5 SHL DUP2 MSTORE PUSH1 0x20 PUSH1 0x4 DUP3 ADD MSTORE PUSH1 0x10 PUSH1 0x24 DUP3 ADD MSTORE PUSH32 0x4B6F7274616E61506F6F6C3A2049494100000000000000000000000000000000 PUSH1 0x44 DUP3 ADD MSTORE PUSH1 0x64 SWAP1 REVERT JUMPDEST PUSH1 0x1 PUSH1 0x1 PUSH1 0x80 SHL SUB AND DUP1 ISZERO PUSH2 0x3248 JUMPI PUSH1 0x0 NOT ADD SWAP1 JUMP JUMPDEST PUSH1 0x40 MLOAD PUSH4 0x70A08231 PUSH1 0xE0 SHL DUP2 MSTORE ADDRESS PUSH1 0x4 DUP3 ADD MSTORE PUSH1 0x20 DUP2 PUSH1 0x24 DUP2 PUSH32 0x0 PUSH1 0x1 PUSH1 0x1 PUSH1 0xA0 SHL SUB AND GAS STATICCALL SWAP1 DUP2 ISZERO PUSH2 0x3425 JUMPI PUSH1 0x0 SWAP2 PUSH2 0x33F7 JUMPI POP SWAP1 JUMP JUMPDEST SWAP1 PUSH1 0x20 DUP3 RETURNDATASIZE DUP3 GT PUSH2 0x341D JUMPI JUMPDEST DUP2 PUSH2 0x3410 PUSH1 0x20 SWAP4 DUP4 PUSH2 0x3102 JUMP JUMPDEST DUP2 ADD SUB SLT PUSH2 0x34D JUMPI POP MLOAD SWAP1 JUMP JUMPDEST RETURNDATASIZE SWAP2 POP PUSH2 0x3403 JUMP JUMPDEST PUSH1 0x40 MLOAD RETURNDATASIZE PUSH1 0x0 DUP3 RETURNDATACOPY RETURNDATASIZE SWAP1 REVERT JUMPDEST PUSH1 0x40 MLOAD PUSH4 0x70A08231 PUSH1 0xE0 SHL DUP2 MSTORE ADDRESS PUSH1 0x4 DUP3 ADD MSTORE PUSH1 0x20 DUP2 PUSH1 0x24 DUP2 PUSH32 0x0 PUSH1 0x1 PUSH1 0x1 PUSH1 0xA0 SHL SUB AND GAS STATICCALL SWAP1 DUP2 ISZERO PUSH2 0x3425 JUMPI PUSH1 0x0 SWAP2 PUSH2 0x33F7 JUMPI POP SWAP1 JUMP JUMPDEST SWAP2 SWAP5 SWAP3 SWAP1 SWAP4 SWAP5 PUSH1 0x0 SWAP6 PUSH1 0x0 SWAP4 PUSH1 0x40 MLOAD PUSH2 0x34D4 DUP2 PUSH2 0xE37 DUP7 DUP12 PUSH1 0x20 DUP5 ADD SWAP7 DUP8 SWAP2 PUSH1 0x1A SWAP4 SWAP2 PUSH12 0xFFFFFFFFFFFFFFFFFFFFFFFF NOT SWAP1 PUSH1 0x60 SHL AND DUP4 MSTORE PUSH1 0xE8 SHL PUSH1 0x14 DUP4 ADD MSTORE PUSH1 0xE8 SHL PUSH1 0x17 DUP3 ADD MSTORE ADD SWAP1 JUMP JUMPDEST MLOAD SWAP1 KECCAK256 PUSH1 0x0 MSTORE PUSH1 0x7 PUSH1 0x20 MSTORE PUSH1 0x40 PUSH1 0x0 KECCAK256 SWAP7 PUSH1 0x1 SLOAD PUSH1 0x2 SLOAD SWAP3 DUP6 PUSH1 0xF SIGNEXTEND PUSH2 0x374D JUMPI JUMPDEST PUSH2 0x3579 PUSH2 0x350F DUP11 PUSH1 0x2 SIGNEXTEND PUSH1 0x0 MSTORE PUSH1 0x5 PUSH1 0x20 MSTORE PUSH1 0x40 PUSH1 0x0 KECCAK256 SWAP1 JUMP JUMPDEST SWAP3 PUSH2 0x356E PUSH2 0x352A DUP9 PUSH1 0x2 SIGNEXTEND PUSH1 0x0 MSTORE PUSH1 0x5 PUSH1 0x20 MSTORE PUSH1 0x40 PUSH1 0x0 KECCAK256 SWAP1 JUMP JUMPDEST SWAP4 PUSH1 0x2 SIGNEXTEND PUSH2 0x3573 DUP14 PUSH1 0x2 SIGNEXTEND DUP3 SLT SWAP6 DUP7 ISZERO PUSH1 0x0 EQ PUSH2 0x3728 JUMPI PUSH2 0x356E PUSH1 0x2 PUSH1 0x1 DUP11 ADD SLOAD SWAP10 ADD SLOAD SWAP4 JUMPDEST DUP13 PUSH1 0x2 SIGNEXTEND SGT SWAP9 DUP10 PUSH1 0x0 EQ PUSH2 0x370C JUMPI PUSH1 0x2 PUSH1 0x1 DUP5 ADD SLOAD SWAP4 ADD SLOAD SWAP7 PUSH2 0x3331 JUMP JUMPDEST PUSH2 0x3331 JUMP JUMPDEST SWAP8 PUSH2 0x3331 JUMP JUMPDEST DUP11 SLOAD PUSH1 0x1 PUSH1 0x1 PUSH1 0x80 SHL SUB SWAP6 DUP7 DUP3 AND SWAP2 PUSH1 0x0 DUP11 PUSH1 0xF SIGNEXTEND SLT PUSH1 0x0 EQ PUSH2 0x36FA JUMPI DUP8 PUSH2 0x35AB PUSH2 0x35A3 DUP13 PUSH2 0x328F JUMP JUMPDEST DUP3 AND DUP6 PUSH2 0x325E JUMP JUMPDEST DUP12 PUSH1 0xF SIGNEXTEND PUSH2 0x36E3 JUMPI JUMPDEST POP POP POP PUSH1 0x1 DUP14 ADD DUP14 DUP9 PUSH2 0x35D1 DUP6 PUSH2 0x35CC DUP6 SLOAD DUP8 PUSH2 0x3331 JUMP JUMPDEST PUSH2 0x3CA2 JUMP JUMPDEST AND DUP10 PUSH2 0x35E6 PUSH1 0x2 DUP5 ADD SWAP7 PUSH2 0x35CC DUP9 SLOAD DUP11 PUSH2 0x3331 JUMP JUMPDEST AND SWAP2 DUP2 ISZERO DUP1 ISZERO SWAP1 PUSH2 0x36DA JUMPI JUMPDEST PUSH2 0x369F JUMPI JUMPDEST POP POP POP SSTORE SSTORE ISZERO PUSH2 0x3624 JUMPI POP POP POP PUSH2 0x361B PUSH2 0x3615 PUSH2 0x3621 SWAP5 SWAP6 SWAP7 PUSH2 0x4BEF JUMP JUMPDEST SWAP2 PUSH2 0x4BEF JUMP JUMPDEST SWAP1 PUSH2 0x479B JUMP JUMPDEST SWAP2 JUMP JUMPDEST SWAP2 SWAP6 SWAP5 POP SWAP1 ISZERO PUSH2 0x3683 JUMPI POP DUP2 PUSH2 0x3661 SWAP2 PUSH2 0x365C PUSH2 0x3656 DUP4 PUSH2 0x3650 PUSH1 0x1 PUSH1 0x1 PUSH1 0xA0 SHL SUB PUSH1 0x0 SLOAD AND SWAP5 PUSH2 0x4BEF JUMP JUMPDEST DUP5 PUSH2 0x479B JUMP JUMPDEST SWAP8 PUSH2 0x4BEF JUMP JUMPDEST PUSH2 0x48E9 JUMP JUMPDEST SWAP3 PUSH2 0x3671 PUSH1 0x4 SLOAD SWAP3 DUP3 DUP5 AND PUSH2 0x3E92 JUMP JUMPDEST AND SWAP1 PUSH1 0x1 PUSH1 0x1 PUSH1 0x80 SHL SUB NOT AND OR PUSH1 0x4 SSTORE JUMP JUMPDEST SWAP5 PUSH2 0x369C SWAP4 SWAP5 POP PUSH2 0x3615 PUSH2 0x3696 SWAP2 PUSH2 0x4BEF JUMP JUMPDEST SWAP1 PUSH2 0x48E9 JUMP JUMPDEST SWAP1 JUMP JUMPDEST PUSH2 0x36D2 SWAP3 PUSH1 0x3 PUSH2 0x681 SWAP3 ADD SWAP3 DUP13 PUSH2 0x36BA DUP6 SLOAD SWAP3 DUP3 DUP5 AND PUSH2 0x32C1 JUMP JUMPDEST AND SWAP1 PUSH1 0x1 PUSH1 0x1 PUSH1 0x80 SHL SUB NOT AND OR DUP1 DUP5 SSTORE PUSH1 0x80 SHR PUSH2 0x32C1 JUMP JUMPDEST CODESIZE DUP1 DUP16 PUSH2 0x35F7 JUMP JUMPDEST POP DUP3 ISZERO ISZERO PUSH2 0x35F2 JUMP JUMPDEST AND SWAP1 PUSH1 0x1 PUSH1 0x1 PUSH1 0x80 SHL SUB NOT AND OR DUP14 SSTORE CODESIZE DUP8 DUP2 PUSH2 0x35B4 JUMP JUMPDEST DUP8 PUSH2 0x3707 DUP12 DUP3 AND DUP6 PUSH2 0x32C1 JUMP JUMPDEST PUSH2 0x35AB JUMP JUMPDEST PUSH2 0x1229 PUSH1 0x2 PUSH2 0x371F PUSH1 0x1 DUP7 ADD SLOAD DUP11 PUSH2 0x3331 JUMP JUMPDEST SWAP5 ADD SLOAD DUP14 PUSH2 0x3331 JUMP JUMPDEST PUSH2 0x356E PUSH2 0x3747 PUSH1 0x2 PUSH2 0x373E PUSH1 0x1 DUP13 ADD SLOAD DUP10 PUSH2 0x3331 JUMP JUMPDEST SWAP11 ADD SLOAD DUP13 PUSH2 0x3331 JUMP JUMPDEST SWAP4 PUSH2 0x3550 JUMP JUMPDEST PUSH2 0x377B PUSH1 0x0 SLOAD PUSH1 0x1 PUSH1 0x1 PUSH1 0x80 SHL SUB PUSH1 0x4 SLOAD AND SWAP1 PUSH2 0xFFFF DUP2 PUSH1 0xB8 SHR AND SWAP1 PUSH1 0xA0 SHR PUSH1 0x2 SIGNEXTEND PUSH4 0xFFFFFFFF TIMESTAMP AND PUSH2 0x4336 JUMP JUMPDEST SWAP1 DUP11 PUSH1 0x2 SIGNEXTEND PUSH1 0x0 MSTORE PUSH1 0x5 PUSH1 0x20 MSTORE PUSH1 0x40 PUSH1 0x0 KECCAK256 PUSH1 0x1 PUSH1 0x1 PUSH1 0x80 SHL SUB DUP2 SLOAD AND PUSH2 0x37A2 DUP11 DUP3 PUSH2 0x3E92 JUMP JUMPDEST SWAP2 PUSH1 0x1 PUSH1 0x1 PUSH1 0x80 SHL SUB PUSH32 0x0 AND PUSH1 0x1 PUSH1 0x1 PUSH1 0x80 SHL SUB DUP5 AND GT PUSH2 0x3A8E JUMPI DUP2 ISZERO PUSH2 0x3AB8 JUMPI JUMPDEST DUP11 PUSH1 0xF SIGNEXTEND PUSH1 0x1 PUSH1 0x1 PUSH1 0x80 SHL SUB DUP5 AND PUSH1 0x1 PUSH1 0x1 PUSH1 0x80 SHL SUB NOT DUP4 SLOAD AND OR PUSH1 0x80 SAR PUSH1 0xF SIGNEXTEND ADD PUSH16 0x7FFFFFFFFFFFFFFFFFFFFFFFFFFFFFFF NOT DUP2 SLT PUSH16 0x7FFFFFFFFFFFFFFFFFFFFFFFFFFFFFFF DUP3 SGT OR PUSH2 0x3248 JUMPI PUSH2 0x3846 PUSH1 0x1 PUSH1 0x1 PUSH1 0x80 SHL SUB NOT SWAP2 PUSH1 0xF SIGNEXTEND PUSH2 0x4AA6 JUMP JUMPDEST PUSH1 0x80 SHL AND PUSH1 0x1 PUSH1 0x1 PUSH1 0x80 SHL SUB DUP5 AND OR SWAP1 SSTORE DUP9 PUSH1 0x2 SIGNEXTEND PUSH1 0x0 MSTORE PUSH1 0x5 PUSH1 0x20 MSTORE PUSH1 0x40 PUSH1 0x0 KECCAK256 SWAP1 PUSH1 0x1 PUSH1 0x1 PUSH1 0x80 SHL SUB DUP3 SLOAD AND SWAP4 PUSH1 0x1 PUSH1 0x1 PUSH1 0x80 SHL SUB PUSH2 0x3887 DUP14 DUP8 PUSH2 0x3E92 JUMP JUMPDEST AND SWAP6 PUSH1 0x1 PUSH1 0x1 PUSH1 0x80 SHL SUB PUSH32 0x0 AND DUP8 GT PUSH2 0x3A8E JUMPI DUP6 ISZERO PUSH2 0x3998 JUMPI JUMPDEST POP POP DUP11 PUSH1 0xF SIGNEXTEND DUP6 PUSH1 0x1 PUSH1 0x1 PUSH1 0x80 SHL SUB NOT DUP5 SLOAD AND OR PUSH1 0x80 SAR PUSH1 0xF SIGNEXTEND SUB SWAP2 PUSH16 0x7FFFFFFFFFFFFFFFFFFFFFFFFFFFFFFF DUP4 SGT PUSH16 0x7FFFFFFFFFFFFFFFFFFFFFFFFFFFFFFF NOT DUP5 SLT OR PUSH2 0x3248 JUMPI PUSH1 0x1 PUSH1 0x1 PUSH1 0x80 SHL SUB SWAP3 PUSH2 0x391F DUP5 NOT SWAP2 PUSH1 0xF SIGNEXTEND PUSH2 0x4AA6 JUMP JUMPDEST PUSH1 0x80 SHL AND DUP7 OR SWAP1 SSTORE ISZERO SWAP2 AND ISZERO SUB PUSH2 0x3969 JUMPI JUMPDEST ISZERO SWAP1 ISZERO SUB ISZERO PUSH2 0x34F5 JUMPI PUSH2 0x3964 PUSH32 0x0 DUP7 PUSH2 0x4B1A JUMP JUMPDEST PUSH2 0x34F5 JUMP JUMPDEST PUSH2 0x3993 PUSH32 0x0 DUP13 PUSH2 0x4B1A JUMP JUMPDEST PUSH2 0x3931 JUMP JUMPDEST DUP8 PUSH1 0x2 SIGNEXTEND DUP13 PUSH1 0x2 SIGNEXTEND SGT ISZERO PUSH2 0x39DF JUMPI JUMPDEST POP POP PUSH1 0x3 DUP3 ADD DUP1 SLOAD PUSH31 0xFFFFFFFFFFFFFFFFFFFFFFFFFFFFFFFFFFFFFFFFFFFFFFFFFFFFFFFFFFFFFF AND PUSH1 0x1 PUSH1 0xF8 SHL OR SWAP1 SSTORE CODESIZE DUP1 PUSH2 0x38C0 JUMP JUMPDEST PUSH2 0x3A87 SWAP2 DUP10 PUSH1 0x1 DUP7 ADD SSTORE DUP12 PUSH1 0x2 DUP7 ADD SSTORE PUSH2 0x3A44 PUSH1 0x3 DUP7 ADD SWAP3 DUP4 SWAP1 PUSH32 0xFFFFFFFFFF0000000000000000000000000000000000000000FFFFFFFFFFFFFF PUSH27 0xFFFFFFFFFFFFFFFFFFFFFFFFFFFFFFFFFFFFFFFF00000000000000 DUP4 SLOAD SWAP3 PUSH1 0x38 SHL AND SWAP2 AND OR SWAP1 SSTORE JUMP JUMPDEST DUP2 SLOAD PUSH32 0xFF00000000FFFFFFFFFFFFFFFFFFFFFFFFFFFFFFFFFFFFFFFF00000000000000 AND PUSH7 0xFFFFFFFFFFFFFF SWAP2 SWAP1 SWAP2 AND OR TIMESTAMP PUSH1 0xD8 SHL PUSH4 0xFFFFFFFF PUSH1 0xD8 SHL AND OR SWAP1 SSTORE JUMP JUMPDEST CODESIZE DUP1 PUSH2 0x39A7 JUMP JUMPDEST PUSH1 0x40 MLOAD PUSH3 0x461BCD PUSH1 0xE5 SHL DUP2 MSTORE PUSH1 0x20 PUSH1 0x4 DUP3 ADD MSTORE PUSH1 0x2 PUSH1 0x24 DUP3 ADD MSTORE PUSH2 0x4C4F PUSH1 0xF0 SHL PUSH1 0x44 DUP3 ADD MSTORE PUSH1 0x64 SWAP1 REVERT JUMPDEST DUP14 DUP7 PUSH1 0x2 SIGNEXTEND SWAP1 PUSH1 0x2 SIGNEXTEND SGT ISZERO PUSH2 0x3AFC JUMPI JUMPDEST PUSH1 0x3 DUP2 ADD DUP1 SLOAD PUSH31 0xFFFFFFFFFFFFFFFFFFFFFFFFFFFFFFFFFFFFFFFFFFFFFFFFFFFFFFFFFFFFFF AND PUSH1 0x1 PUSH1 0xF8 SHL OR SWAP1 SSTORE PUSH2 0x37E3 JUMP JUMPDEST DUP7 PUSH1 0x1 DUP3 ADD SSTORE DUP9 PUSH1 0x2 DUP3 ADD SSTORE PUSH2 0x3BA1 PUSH1 0x3 DUP3 ADD PUSH2 0x3B60 DUP8 DUP3 SWAP1 PUSH32 0xFFFFFFFFFF0000000000000000000000000000000000000000FFFFFFFFFFFFFF PUSH27 0xFFFFFFFFFFFFFFFFFFFFFFFFFFFFFFFFFFFFFFFF00000000000000 DUP4 SLOAD SWAP3 PUSH1 0x38 SHL AND SWAP2 AND OR SWAP1 SSTORE JUMP JUMPDEST DUP1 SLOAD PUSH32 0xFF00000000FFFFFFFFFFFFFFFFFFFFFFFFFFFFFFFFFFFFFFFF00000000000000 AND PUSH7 0xFFFFFFFFFFFFFF DUP8 AND OR TIMESTAMP PUSH1 0xD8 SHL PUSH4 0xFFFFFFFF PUSH1 0xD8 SHL AND OR SWAP1 SSTORE JUMP JUMPDEST PUSH2 0x3AC8 JUMP JUMPDEST SWAP1 PUSH1 0x0 NOT DUP2 DUP4 MULMOD DUP2 DUP4 MUL SWAP2 DUP3 DUP1 DUP4 LT SWAP3 SUB SWAP2 DUP1 DUP4 SUB SWAP3 EQ PUSH2 0x3C04 JUMPI PUSH3 0xF4240 SWAP1 DUP3 DUP3 GT ISZERO PUSH2 0xCB9 JUMPI PUSH32 0xDE8F6CEFED634549B62C77574F722E1AC57E23F24D8FD5CB790FB65668C26139 SWAP5 MULMOD SWAP1 DUP3 DUP3 GT SWAP1 SUB PUSH1 0xFA SHL SWAP2 SUB PUSH1 0x6 SHR OR MUL SWAP1 JUMP JUMPDEST POP POP PUSH3 0xF4240 SWAP2 POP DIV SWAP1 JUMP JUMPDEST SWAP1 PUSH1 0x1 PUSH1 0x80 SHL SWAP1 PUSH1 0x0 NOT DUP3 DUP5 MULMOD SWAP3 DUP1 PUSH1 0x80 SHL SWAP3 DUP4 DUP1 DUP7 LT SWAP6 SUB SWAP5 DUP1 DUP7 SUB SWAP6 EQ PUSH2 0x3C94 JUMPI DUP5 DUP4 GT ISZERO PUSH2 0xCB9 JUMPI DUP3 SWAP2 MULMOD PUSH1 0x1 DUP3 NOT ADD DUP3 AND DUP1 SWAP3 DIV PUSH1 0x1 PUSH2 0x3C57 DUP5 DUP3 DUP2 NOT ADD PUSH2 0x3311 JUMP JUMPDEST ADD SWAP1 PUSH1 0x2 DUP1 DUP3 PUSH1 0x3 MUL XOR DUP1 DUP4 MUL DUP3 SUB MUL DUP1 DUP4 MUL DUP3 SUB MUL DUP1 DUP4 MUL DUP3 SUB MUL DUP1 DUP4 MUL DUP3 SUB MUL DUP1 DUP4 MUL DUP3 SUB MUL DUP1 SWAP3 MUL SWAP1 SUB MUL SWAP5 DUP5 DUP4 GT SWAP1 SUB MUL SWAP3 SUB DIV OR MUL SWAP1 JUMP JUMPDEST POP POP DUP1 SWAP3 POP ISZERO PUSH2 0xCB9 JUMPI DIV SWAP1 JUMP JUMPDEST PUSH1 0x0 NOT DUP3 DUP3 MULMOD SWAP1 DUP3 DUP2 MUL SWAP3 DUP4 DUP1 DUP5 LT SWAP4 SUB SWAP3 DUP1 DUP5 SUB SWAP4 EQ PUSH2 0x3CDE JUMPI PUSH1 0x1 PUSH1 0x80 SHL SWAP2 DUP4 DUP4 GT ISZERO PUSH2 0xCB9 JUMPI MULMOD SWAP1 DUP3 DUP3 GT SWAP1 SUB PUSH1 0x80 SHL SWAP2 SUB PUSH1 0x80 SHR OR SWAP1 JUMP JUMPDEST POP POP POP PUSH1 0x80 SHR SWAP1 JUMP JUMPDEST PUSH1 0x0 NOT PUSH1 0x1 DUP3 MULMOD SWAP2 DUP2 DUP1 DUP5 LT SWAP4 SUB SWAP3 DUP1 DUP5 SUB SWAP4 EQ PUSH2 0x3D25 JUMPI DUP3 DUP2 GT ISZERO PUSH2 0xCB9 JUMPI DUP1 PUSH1 0x1 DUP4 MULMOD PUSH1 0x1 DUP3 NOT ADD DUP3 AND DUP1 SWAP3 DIV PUSH1 0x1 PUSH2 0x3C57 DUP5 DUP3 DUP2 NOT ADD PUSH2 0x3311 JUMP JUMPDEST DUP1 SWAP3 POP ISZERO PUSH2 0xCB9 JUMPI DIV SWAP1 JUMP JUMPDEST PUSH1 0x0 NOT DUP3 DUP3 MULMOD SWAP1 DUP3 DUP2 MUL SWAP3 DUP4 DUP1 DUP5 LT SWAP4 SUB SWAP3 DUP1 DUP5 SUB SWAP4 EQ PUSH2 0x3D6D JUMPI PUSH1 0x1 PUSH1 0x60 SHL SWAP2 DUP4 DUP4 GT ISZERO PUSH2 0xCB9 JUMPI MULMOD SWAP1 DUP3 DUP3 GT SWAP1 SUB PUSH1 0xA0 SHL SWAP2 SUB PUSH1 0x60 SHR OR SWAP1 JUMP JUMPDEST POP POP POP PUSH1 0x60 SHR SWAP1 JUMP JUMPDEST SWAP1 PUSH1 0x1 PUSH1 0x60 SHL SWAP1 PUSH1 0x0 NOT DUP3 DUP5 MULMOD SWAP3 DUP1 PUSH1 0x60 SHL SWAP3 DUP4 DUP1 DUP7 LT SWAP6 SUB SWAP5 DUP1 DUP7 SUB SWAP6 EQ PUSH2 0x3C94 JUMPI DUP5 DUP4 GT ISZERO PUSH2 0xCB9 JUMPI DUP3 SWAP2 MULMOD PUSH1 0x1 DUP3 NOT ADD DUP3 AND DUP1 SWAP3 DIV PUSH1 0x1 PUSH2 0x3C57 DUP5 DUP3 DUP2 NOT ADD PUSH2 0x3311 JUMP JUMPDEST SWAP2 PUSH1 0x0 NOT DUP3 DUP5 MULMOD SWAP3 DUP3 DUP2 MUL SWAP3 DUP4 DUP1 DUP7 LT SWAP6 SUB SWAP5 DUP1 DUP7 SUB SWAP6 EQ PUSH2 0x3C94 JUMPI DUP5 DUP4 GT ISZERO PUSH2 0xCB9 JUMPI DUP3 SWAP2 MULMOD PUSH1 0x1 DUP3 NOT ADD DUP3 AND DUP1 SWAP3 DIV PUSH1 0x1 PUSH2 0x3C57 DUP5 DUP3 DUP2 NOT ADD PUSH2 0x3311 JUMP JUMPDEST PUSH1 0x0 NOT DUP2 EQ PUSH2 0x3248 JUMPI PUSH1 0x1 ADD SWAP1 JUMP JUMPDEST SWAP2 SWAP1 PUSH3 0xF4240 SWAP1 PUSH2 0x3E1D DUP2 DUP6 PUSH2 0x3BA6 JUMP JUMPDEST SWAP4 MULMOD PUSH2 0x3E25 JUMPI JUMP JUMPDEST SWAP1 PUSH1 0x0 NOT DUP2 LT ISZERO PUSH2 0xCB9 JUMPI PUSH2 0x369C SWAP1 PUSH2 0x3DFD JUMP JUMPDEST SWAP2 SWAP1 PUSH2 0x3E45 DUP2 DUP5 PUSH2 0x3CE7 JUMP JUMPDEST SWAP3 DUP2 ISZERO PUSH2 0x331B JUMPI PUSH1 0x1 SWAP1 MULMOD PUSH2 0x3E25 JUMPI JUMP JUMPDEST SWAP2 SWAP1 PUSH2 0x3E62 DUP2 DUP5 PUSH2 0x3D76 JUMP JUMPDEST SWAP3 DUP2 ISZERO PUSH2 0x331B JUMPI PUSH1 0x1 PUSH1 0x60 SHL SWAP1 MULMOD PUSH2 0x3E25 JUMPI JUMP JUMPDEST SWAP3 SWAP2 SWAP1 PUSH2 0x3E84 DUP3 DUP3 DUP7 PUSH2 0x3DBD JUMP JUMPDEST SWAP4 DUP3 ISZERO PUSH2 0x331B JUMPI MULMOD PUSH2 0x3E25 JUMPI JUMP JUMPDEST SWAP2 SWAP1 PUSH1 0x0 DUP2 PUSH1 0xF SIGNEXTEND SLT PUSH1 0x0 EQ PUSH2 0x3EF8 JUMPI PUSH2 0x3EAE PUSH2 0x3EC1 SWAP2 PUSH2 0x328F JUMP JUMPDEST PUSH1 0x1 PUSH1 0x1 PUSH1 0x80 SHL SUB SWAP2 DUP3 SWAP2 DUP3 AND DUP6 PUSH2 0x325E JUMP JUMPDEST SWAP4 AND SWAP1 DUP4 AND LT ISZERO PUSH2 0x3ECE JUMPI JUMP JUMPDEST PUSH1 0x40 MLOAD PUSH3 0x461BCD PUSH1 0xE5 SHL DUP2 MSTORE PUSH1 0x20 PUSH1 0x4 DUP3 ADD MSTORE PUSH1 0x2 PUSH1 0x24 DUP3 ADD MSTORE PUSH2 0x4C53 PUSH1 0xF0 SHL PUSH1 0x44 DUP3 ADD MSTORE PUSH1 0x64 SWAP1 REVERT JUMPDEST PUSH2 0x3F0F SWAP1 PUSH1 0x1 PUSH1 0x1 PUSH1 0x80 SHL SUB SWAP2 DUP3 SWAP2 DUP3 AND DUP6 PUSH2 0x32C1 JUMP JUMPDEST SWAP4 AND SWAP1 DUP4 AND LT PUSH2 0x3F1B JUMPI JUMP JUMPDEST PUSH1 0x40 MLOAD PUSH3 0x461BCD PUSH1 0xE5 SHL DUP2 MSTORE PUSH1 0x20 PUSH1 0x4 DUP3 ADD MSTORE PUSH1 0x2 PUSH1 0x24 DUP3 ADD MSTORE PUSH2 0x4C41 PUSH1 0xF0 SHL PUSH1 0x44 DUP3 ADD MSTORE PUSH1 0x64 SWAP1 REVERT JUMPDEST SWAP1 PUSH1 0x40 MLOAD PUSH2 0x3F52 DUP2 PUSH2 0x30E6 JUMP JUMPDEST PUSH1 0x60 DUP2 SWAP4 SLOAD PUSH4 0xFFFFFFFF DUP2 AND DUP4 MSTORE DUP1 PUSH1 0x20 SHR PUSH1 0x6 SIGNEXTEND PUSH1 0x20 DUP5 ADD MSTORE PUSH1 0x1 PUSH1 0x1 PUSH1 0xA0 SHL SUB DUP2 PUSH1 0x58 SHR AND PUSH1 0x40 DUP5 ADD MSTORE PUSH1 0xF8 SHR ISZERO ISZERO SWAP2 ADD MSTORE JUMP JUMPDEST SWAP1 PUSH1 0x1 PUSH2 0xFFFF DUP1 SWAP4 AND ADD SWAP2 DUP3 GT PUSH2 0x3248 JUMPI JUMP JUMPDEST SWAP1 PUSH2 0xFFFF DUP1 SWAP2 AND SWAP2 DUP3 ISZERO PUSH2 0x331B JUMPI AND MOD SWAP1 JUMP JUMPDEST SWAP5 SWAP6 SWAP4 SWAP2 SWAP3 SWAP1 SWAP3 PUSH2 0xFFFF SWAP4 DUP5 DUP8 LT ISZERO PUSH2 0x407F JUMPI PUSH2 0x3FCD DUP8 PUSH1 0x8 ADD PUSH2 0x3F45 JUMP JUMPDEST SWAP8 PUSH4 0xFFFFFFFF SWAP5 DUP6 DUP11 MLOAD AND DUP7 DUP5 AND EQ PUSH2 0x40C1 JUMPI DUP7 DUP2 AND DUP8 DUP4 AND GT DUP1 PUSH2 0x409F JUMPI JUMPDEST SWAP9 PUSH2 0x4018 SWAP6 SWAP5 SWAP4 SWAP3 PUSH2 0x4012 SWAP3 PUSH2 0x400D SWAP12 PUSH1 0x0 EQ PUSH2 0x4095 JUMPI POP SWAP10 DUP11 SWAP2 PUSH2 0x3F88 JUMP JUMPDEST PUSH2 0x3F9B JUMP JUMPDEST SWAP9 PUSH2 0x415F JUMP JUMPDEST SWAP2 DUP6 LT ISZERO PUSH2 0x407F JUMPI DUP2 MLOAD AND SWAP1 PUSH1 0x20 DUP2 ADD MLOAD PUSH1 0x20 SHL SWAP2 PUSH11 0xFFFFFFFFFFFFFF00000000 PUSH31 0xFFFFFFFFFFFFFFFFFFFFFFFFFFFFFFFFFFFFFFFF0000000000000000000000 PUSH1 0x40 DUP5 ADD MLOAD PUSH1 0x58 SHL AND SWAP3 PUSH1 0x60 PUSH1 0xFF PUSH1 0xF8 SHL SWAP2 ADD MLOAD ISZERO ISZERO PUSH1 0xF8 SHL AND SWAP4 AND OR OR OR DUP4 PUSH1 0x8 ADD SSTORE JUMP JUMPDEST PUSH4 0x4E487B71 PUSH1 0xE0 SHL PUSH1 0x0 MSTORE PUSH1 0x32 PUSH1 0x4 MSTORE PUSH1 0x24 PUSH1 0x0 REVERT JUMPDEST SWAP1 POP SWAP10 DUP11 SWAP2 PUSH2 0x3F88 JUMP JUMPDEST POP DUP7 DUP2 SWAP6 SWAP5 SWAP4 SWAP3 SWAP6 LT ISZERO PUSH2 0x407F JUMPI PUSH1 0x8 DUP2 ADD SLOAD SWAP4 SWAP5 SWAP3 SWAP4 SWAP2 SWAP3 SWAP2 DUP7 AND ISZERO PUSH2 0x3FED JUMP JUMPDEST SWAP8 SWAP9 POP POP POP POP POP POP POP JUMP JUMPDEST PUSH1 0x40 MLOAD SWAP1 PUSH2 0x40D9 DUP3 PUSH2 0x30E6 JUMP JUMPDEST PUSH1 0x0 PUSH1 0x60 DUP4 DUP3 DUP2 MSTORE DUP3 PUSH1 0x20 DUP3 ADD MSTORE DUP3 PUSH1 0x40 DUP3 ADD MSTORE ADD MSTORE JUMP JUMPDEST PUSH4 0xFFFFFFFF SWAP2 DUP3 AND SWAP1 DUP3 AND SUB SWAP2 SWAP1 DUP3 GT PUSH2 0x3248 JUMPI JUMP JUMPDEST SWAP1 PUSH1 0x6 SIGNEXTEND SWAP1 PUSH1 0x6 SIGNEXTEND MUL SWAP1 DUP2 PUSH1 0x6 SIGNEXTEND SWAP2 DUP3 SUB PUSH2 0x3248 JUMPI JUMP JUMPDEST SWAP1 PUSH1 0x6 SIGNEXTEND SWAP1 PUSH1 0x6 SIGNEXTEND ADD SWAP1 PUSH7 0x7FFFFFFFFFFFFF NOT DUP3 SLT PUSH7 0x7FFFFFFFFFFFFF DUP4 SGT OR PUSH2 0x3248 JUMPI JUMP JUMPDEST SWAP2 SWAP1 SWAP2 PUSH1 0x1 PUSH1 0x1 PUSH1 0xA0 SHL SUB DUP1 DUP1 SWAP5 AND SWAP2 AND ADD SWAP2 DUP3 GT PUSH2 0x3248 JUMPI JUMP JUMPDEST SWAP1 SWAP3 SWAP2 PUSH2 0x41FA PUSH1 0x40 SWAP4 PUSH2 0x4170 PUSH2 0x40CC JUMP JUMPDEST POP PUSH4 0xFFFFFFFF SWAP4 PUSH2 0x41F3 PUSH2 0x41AC PUSH2 0x418A DUP8 DUP5 MLOAD AND DUP11 PUSH2 0x40F1 JUMP JUMPDEST SWAP6 PUSH2 0x41A3 PUSH1 0x20 DUP6 ADD MLOAD SWAP2 DUP10 DUP10 AND PUSH1 0x6 SIGNEXTEND SWAP1 PUSH1 0x2 SIGNEXTEND PUSH2 0x4107 JUMP JUMPDEST SWAP1 PUSH1 0x6 SIGNEXTEND PUSH2 0x411E JUMP JUMPDEST SWAP5 PUSH20 0xFFFFFFFF00000000000000000000000000000000 PUSH1 0x1 PUSH1 0x1 PUSH1 0xA0 SHL SUB DUP1 SWAP10 DUP2 SWAP6 ADD MLOAD AND SWAP5 PUSH1 0x1 PUSH1 0x1 PUSH1 0x80 SHL SUB SWAP1 DUP2 DUP2 AND ISZERO ISZERO PUSH1 0x0 EQ PUSH2 0x4223 JUMPI JUMPDEST AND SWAP2 PUSH1 0x80 SHL AND PUSH2 0x3311 JUMP JUMPDEST AND SWAP1 PUSH2 0x4144 JUMP JUMPDEST SWAP2 PUSH1 0x40 MLOAD SWAP5 PUSH2 0x4208 DUP7 PUSH2 0x30E6 JUMP JUMPDEST AND DUP5 MSTORE PUSH1 0x6 SIGNEXTEND PUSH1 0x20 DUP5 ADD MSTORE AND PUSH1 0x40 DUP3 ADD MSTORE PUSH1 0x1 PUSH1 0x60 DUP3 ADD MSTORE SWAP1 JUMP JUMPDEST POP PUSH1 0x1 PUSH2 0x41E8 JUMP JUMPDEST ISZERO PUSH2 0x4232 JUMPI JUMP JUMPDEST PUSH1 0x40 MLOAD PUSH3 0x461BCD PUSH1 0xE5 SHL DUP2 MSTORE PUSH1 0x20 PUSH1 0x4 DUP3 ADD MSTORE PUSH1 0x1 PUSH1 0x24 DUP3 ADD MSTORE PUSH1 0x49 PUSH1 0xF8 SHL PUSH1 0x44 DUP3 ADD MSTORE PUSH1 0x64 SWAP1 REVERT JUMPDEST PUSH2 0xFFFF SWAP1 DUP2 DUP2 AND SWAP1 PUSH2 0x426E DUP3 ISZERO ISZERO PUSH2 0x422B JUMP JUMPDEST DUP3 DUP5 AND SWAP2 DUP3 GT ISZERO PUSH2 0x42DE JUMPI JUMPDEST DUP2 DUP4 DUP3 AND LT PUSH2 0x4289 JUMPI POP POP POP SWAP1 JUMP JUMPDEST DUP3 DUP2 LT ISZERO PUSH2 0x42C9 JUMPI PUSH1 0x8 DUP2 ADD DUP1 SLOAD PUSH4 0xFFFFFFFF NOT AND PUSH1 0x1 OR SWAP1 SSTORE DUP3 AND DUP1 DUP4 EQ PUSH2 0x42B4 JUMPI PUSH1 0x1 ADD PUSH2 0x427A JUMP JUMPDEST PUSH1 0x24 PUSH1 0x0 PUSH4 0x4E487B71 PUSH1 0xE0 SHL DUP2 MSTORE PUSH1 0x11 PUSH1 0x4 MSTORE REVERT JUMPDEST PUSH1 0x24 PUSH1 0x0 PUSH4 0x4E487B71 PUSH1 0xE0 SHL DUP2 MSTORE PUSH1 0x32 PUSH1 0x4 MSTORE REVERT JUMPDEST SWAP3 POP POP POP SWAP1 JUMP JUMPDEST PUSH1 0x6 SWAP2 DUP3 SIGNEXTEND SWAP2 SIGNEXTEND SUB SWAP1 PUSH7 0x7FFFFFFFFFFFFF NOT DUP3 SLT PUSH7 0x7FFFFFFFFFFFFF DUP4 SGT OR PUSH2 0x3248 JUMPI JUMP JUMPDEST PUSH1 0x1 PUSH1 0x1 PUSH1 0xA0 SHL SUB SWAP2 DUP3 AND SWAP1 DUP3 AND SUB SWAP2 SWAP1 DUP3 GT PUSH2 0x3248 JUMPI JUMP JUMPDEST DUP2 DUP2 MUL SWAP3 SWAP2 DUP2 ISZERO SWAP2 DUP5 DIV EQ OR ISZERO PUSH2 0x3248 JUMPI JUMP JUMPDEST SWAP4 SWAP3 SWAP2 PUSH2 0xFFFF DUP2 LT ISZERO PUSH2 0x407F JUMPI PUSH2 0x434F SWAP1 PUSH1 0x8 ADD PUSH2 0x3F45 JUMP JUMPDEST SWAP4 PUSH4 0xFFFFFFFF DUP1 DUP7 MLOAD AND SWAP1 DUP3 AND SUB PUSH2 0x437E JUMPI JUMPDEST POP POP POP PUSH1 0x1 PUSH1 0x1 PUSH1 0xA0 SHL SUB PUSH1 0x40 PUSH1 0x20 DUP5 ADD MLOAD PUSH1 0x6 SIGNEXTEND SWAP4 ADD MLOAD AND SWAP1 JUMP JUMPDEST PUSH2 0x4388 SWAP4 SWAP5 PUSH2 0x415F JUMP JUMPDEST SWAP1 CODESIZE DUP1 DUP1 PUSH2 0x4362 JUMP JUMPDEST SWAP3 SWAP6 SWAP5 SWAP2 SWAP6 SWAP4 SWAP1 SWAP4 PUSH4 0xFFFFFFFF SWAP7 DUP8 DUP7 AND ISZERO PUSH2 0x44CA JUMPI PUSH2 0x43B5 DUP6 SWAP7 PUSH2 0x43BC SWAP7 PUSH2 0x40F1 JUMP JUMPDEST DUP1 SWAP7 PUSH2 0x453B JUMP JUMPDEST SWAP2 SWAP1 SWAP4 DUP1 DUP6 MLOAD AND DUP2 DUP4 AND DUP2 DUP2 EQ PUSH1 0x0 EQ PUSH2 0x43EE JUMPI POP POP POP POP POP PUSH1 0x1 PUSH1 0x1 PUSH1 0xA0 SHL SUB PUSH1 0x40 PUSH1 0x20 DUP5 ADD MLOAD PUSH1 0x6 SIGNEXTEND SWAP4 ADD MLOAD AND SWAP1 JUMP JUMPDEST DUP3 DUP6 SWAP8 SWAP6 MLOAD AND DUP1 SWAP2 EQ PUSH1 0x0 EQ PUSH2 0x441C JUMPI POP POP POP POP POP PUSH1 0x1 PUSH1 0x1 PUSH1 0xA0 SHL SUB PUSH1 0x40 PUSH1 0x20 DUP5 ADD MLOAD PUSH1 0x6 SIGNEXTEND SWAP4 ADD MLOAD AND SWAP1 JUMP JUMPDEST PUSH2 0x4434 SWAP2 PUSH2 0x4429 SWAP2 PUSH2 0x40F1 JUMP JUMPDEST SWAP3 DUP3 DUP6 MLOAD AND SWAP1 PUSH2 0x40F1 JUMP JUMPDEST PUSH1 0x20 DUP5 ADD MLOAD PUSH1 0x6 SIGNEXTEND SWAP1 DUP3 PUSH2 0x444F DUP4 PUSH1 0x20 DUP11 ADD MLOAD PUSH1 0x6 SIGNEXTEND PUSH2 0x42E5 JUMP JUMPDEST SWAP5 AND SWAP1 DUP2 PUSH1 0x6 SIGNEXTEND SWAP5 PUSH1 0x6 SIGNEXTEND SWAP5 DUP1 ISZERO PUSH2 0x331B JUMPI PUSH7 0x7FFFFFFFFFFFFF NOT DUP7 EQ PUSH1 0x0 NOT DUP3 EQ AND PUSH2 0x3248 JUMPI PUSH2 0x369C SWAP7 PUSH2 0x44BF PUSH2 0x44A3 PUSH2 0x41F3 SWAP7 PUSH2 0x449D PUSH1 0x40 SWAP11 DUP12 SWAP11 PUSH2 0x44C5 SWAP9 AND SWAP7 DUP8 PUSH1 0x6 SIGNEXTEND SWAP2 SDIV PUSH2 0x4107 JUMP JUMPDEST SWAP1 PUSH2 0x411E JUMP JUMPDEST SWAP11 PUSH1 0x1 PUSH1 0x1 PUSH1 0xA0 SHL SUB DUP1 DUP1 SWAP10 DUP2 SWAP6 ADD MLOAD AND SWAP10 DUP11 SWAP3 ADD MLOAD AND PUSH2 0x430A JUMP JUMPDEST AND PUSH2 0x4323 JUMP JUMPDEST PUSH2 0x3311 JUMP JUMPDEST SWAP4 SWAP3 POP SWAP1 SWAP4 POP PUSH2 0xFFFF DUP2 LT ISZERO PUSH2 0x407F JUMPI PUSH2 0x44E6 SWAP1 PUSH1 0x8 ADD PUSH2 0x3F45 JUMP JUMPDEST SWAP5 DUP1 DUP7 MLOAD AND SWAP1 DUP3 AND SUB PUSH2 0x437E JUMPI POP POP POP PUSH1 0x1 PUSH1 0x1 PUSH1 0xA0 SHL SUB PUSH1 0x40 PUSH1 0x20 DUP5 ADD MLOAD PUSH1 0x6 SIGNEXTEND SWAP4 ADD MLOAD AND SWAP1 JUMP JUMPDEST PUSH8 0xFFFFFFFFFFFFFFFF DUP2 GT PUSH2 0x30BC JUMPI PUSH1 0x5 SHL PUSH1 0x20 ADD SWAP1 JUMP JUMPDEST DUP1 MLOAD DUP3 LT ISZERO PUSH2 0x407F JUMPI PUSH1 0x20 SWAP2 PUSH1 0x5 SHL ADD ADD SWAP1 JUMP JUMPDEST SWAP2 SWAP6 SWAP1 SWAP3 PUSH2 0x4547 PUSH2 0x40CC JUMP JUMPDEST POP PUSH2 0x4550 PUSH2 0x40CC JUMP JUMPDEST POP PUSH2 0xFFFF SWAP7 DUP8 DUP3 LT ISZERO PUSH2 0x407F JUMPI PUSH1 0x8 SWAP6 PUSH2 0x456B DUP4 DUP9 ADD PUSH2 0x3F45 JUMP JUMPDEST SWAP2 PUSH4 0xFFFFFFFF SWAP6 DUP7 DUP5 MLOAD AND DUP8 DUP3 AND SUB PUSH2 0x4762 JUMPI JUMPDEST POP POP POP DUP4 DUP1 DUP3 MLOAD AND SWAP6 AND SWAP5 DUP6 DUP2 GT ISZERO PUSH2 0x4749 JUMPI POP POP PUSH2 0x45A1 DUP7 PUSH2 0x400D DUP4 PUSH2 0x3F88 JUMP JUMPDEST DUP8 DUP2 LT ISZERO PUSH2 0x407F JUMPI PUSH2 0x45B4 SWAP1 DUP7 ADD PUSH2 0x3F45 JUMP JUMPDEST SWAP1 DUP5 DUP5 PUSH1 0x60 SWAP4 DUP5 DUP2 ADD MLOAD ISZERO PUSH2 0x4709 JUMPI JUMPDEST MLOAD AND GT PUSH2 0x46DE JUMPI DUP8 PUSH2 0x45EC DUP9 PUSH2 0x400D DUP4 SWAP5 PUSH2 0x45DD PUSH2 0x40CC JUMP JUMPDEST POP PUSH2 0x45E6 PUSH2 0x40CC JUMP JUMPDEST POP PUSH2 0x3F88 JUMP JUMPDEST AND SWAP7 AND SWAP5 PUSH2 0x45FA DUP7 DUP9 PUSH2 0x323B JUMP JUMPDEST PUSH1 0x0 NOT SWAP8 DUP2 DUP10 ADD SWAP2 DUP3 GT PUSH2 0x3248 JUMPI JUMPDEST PUSH2 0x4613 DUP3 DUP3 PUSH2 0x323B JUMP JUMPDEST SWAP2 PUSH1 0x1 SWAP3 DUP4 SHR SWAP3 PUSH2 0x4624 DUP11 DUP6 PUSH2 0x4773 JUMP JUMPDEST DUP13 DUP2 LT ISZERO PUSH2 0x407F JUMPI PUSH2 0x4637 SWAP1 DUP7 ADD PUSH2 0x3F45 JUMP JUMPDEST SWAP1 DUP7 DUP3 ADD MLOAD ISZERO PUSH2 0x46C8 JUMPI DUP5 ADD SWAP1 DUP2 DUP6 GT PUSH2 0x3248 JUMPI PUSH2 0x4655 DUP12 DUP4 PUSH2 0x4773 JUMP JUMPDEST DUP14 DUP2 LT ISZERO PUSH2 0x407F JUMPI PUSH2 0x4668 SWAP1 DUP8 ADD PUSH2 0x3F45 JUMP JUMPDEST DUP11 DUP11 DUP4 MLOAD AND GT SWAP2 DUP3 ISZERO DUP1 PUSH2 0x46BB JUMPI JUMPDEST PUSH2 0x46A9 JUMPI POP POP ISZERO PUSH2 0x469C JUMPI POP POP DUP9 DUP3 ADD SWAP2 DUP3 GT PUSH2 0x3248 JUMPI PUSH2 0x4613 SWAP2 SWAP1 JUMPDEST SWAP1 SWAP2 POP PUSH2 0x4609 JUMP JUMPDEST SWAP1 SWAP2 POP PUSH2 0x4613 SWAP3 POP PUSH2 0x4694 JUMP JUMPDEST SWAP14 POP SWAP12 POP SWAP7 SWAP10 POP POP POP POP POP POP POP POP POP POP JUMP JUMPDEST POP DUP11 DUP3 MLOAD AND DUP13 GT ISZERO PUSH2 0x4677 JUMP JUMPDEST SWAP2 SWAP3 POP POP DUP3 ADD DUP1 SWAP3 GT PUSH2 0x3248 JUMPI PUSH2 0x4613 SWAP2 PUSH2 0x4694 JUMP JUMPDEST PUSH1 0x40 MLOAD PUSH3 0x461BCD PUSH1 0xE5 SHL DUP2 MSTORE PUSH1 0x20 PUSH1 0x4 DUP3 ADD MSTORE PUSH1 0x3 PUSH1 0x24 DUP3 ADD MSTORE PUSH3 0x13D311 PUSH1 0xEA SHL PUSH1 0x44 DUP3 ADD MSTORE PUSH1 0x64 SWAP1 REVERT JUMPDEST POP PUSH1 0x40 MLOAD PUSH2 0x4716 DUP2 PUSH2 0x30E6 JUMP JUMPDEST DUP9 SLOAD DUP3 DUP2 AND DUP3 MSTORE DUP1 PUSH1 0x20 SHR PUSH1 0x6 SIGNEXTEND PUSH1 0x20 DUP4 ADD MSTORE PUSH1 0x1 PUSH1 0x1 PUSH1 0xA0 SHL SUB DUP2 PUSH1 0x58 SHR AND PUSH1 0x40 DUP4 ADD MSTORE PUSH1 0xF8 SHR ISZERO ISZERO DUP6 DUP3 ADD MSTORE PUSH2 0x45C4 JUMP JUMPDEST SWAP5 SWAP6 POP SWAP7 POP POP SWAP4 POP POP EQ PUSH1 0x0 EQ PUSH2 0x475E JUMPI DUP2 SWAP1 JUMP JUMPDEST DUP2 SWAP1 JUMP JUMPDEST PUSH2 0x476B SWAP4 PUSH2 0x415F JUMP JUMPDEST CODESIZE DUP1 DUP1 PUSH2 0x457F JUMP JUMPDEST DUP2 ISZERO PUSH2 0x331B JUMPI MOD SWAP1 JUMP JUMPDEST PUSH16 0x80000000000000000000000000000000 DUP2 LT ISZERO PUSH2 0xCB9 JUMPI PUSH1 0xF SIGNEXTEND SWAP1 JUMP JUMPDEST PUSH1 0x0 DUP4 PUSH1 0xF SIGNEXTEND SLT PUSH1 0x0 EQ PUSH2 0x4818 JUMPI SWAP1 PUSH2 0x4805 SWAP2 PUSH2 0x47BA PUSH2 0x369C SWAP5 PUSH2 0x328F JUMP JUMPDEST DUP2 SWAP3 DUP1 PUSH1 0x1 PUSH1 0x1 PUSH1 0xA0 SHL SUB SWAP4 DUP5 DUP3 AND DUP6 DUP3 AND GT PUSH2 0x480A JUMPI JUMPDEST POP POP SWAP1 DUP2 PUSH1 0x1 PUSH1 0x60 SHL PUSH1 0x1 PUSH1 0xE0 SHL SUB DUP5 DUP1 PUSH2 0x47F0 DUP9 PUSH2 0x47FD SWAP8 PUSH2 0x430A JUMP JUMPDEST AND SWAP3 AND SWAP3 PUSH1 0x60 SHL AND PUSH2 0x3DBD JUMP JUMPDEST SWAP2 AND SWAP1 PUSH2 0x3CE7 JUMP JUMPDEST PUSH2 0x32B0 JUMP JUMPDEST SWAP1 SWAP5 POP SWAP1 POP PUSH2 0x47FD CODESIZE PUSH2 0x47D2 JUMP JUMPDEST PUSH2 0x369C SWAP3 DUP2 SWAP3 DUP1 PUSH1 0x1 PUSH1 0x1 PUSH1 0xA0 SHL SUB SWAP4 DUP5 DUP3 AND DUP6 DUP3 AND GT PUSH2 0x4867 JUMPI JUMPDEST POP POP SWAP1 DUP2 PUSH1 0x1 PUSH1 0x60 SHL PUSH1 0x1 PUSH1 0xE0 SHL SUB DUP5 DUP1 PUSH2 0x4852 DUP9 PUSH2 0x485F SWAP8 PUSH2 0x430A JUMP JUMPDEST AND SWAP3 AND SWAP3 PUSH1 0x60 SHL AND PUSH2 0x3E76 JUMP JUMPDEST SWAP2 AND SWAP1 PUSH2 0x3E39 JUMP JUMPDEST SWAP1 SWAP5 POP SWAP1 POP PUSH2 0x485F CODESIZE PUSH2 0x4834 JUMP JUMPDEST SWAP1 PUSH2 0x47FD PUSH2 0x369C SWAP4 PUSH1 0x1 PUSH1 0x1 PUSH1 0xA0 SHL SUB SWAP3 DUP4 DUP2 AND DUP5 DUP7 AND GT PUSH2 0x48A9 JUMPI JUMPDEST PUSH1 0x1 PUSH1 0x60 SHL PUSH1 0x1 PUSH1 0xE0 SHL SUB DUP5 DUP1 PUSH2 0x47F0 DUP9 DUP6 PUSH2 0x430A JUMP JUMPDEST SWAP4 PUSH2 0x4892 JUMP JUMPDEST SWAP1 PUSH2 0x485F PUSH2 0x369C SWAP4 PUSH1 0x1 PUSH1 0x1 PUSH1 0xA0 SHL SUB SWAP3 DUP4 DUP2 AND DUP5 DUP7 AND GT PUSH2 0x48E3 JUMPI JUMPDEST PUSH1 0x1 PUSH1 0x60 SHL PUSH1 0x1 PUSH1 0xE0 SHL SUB DUP5 DUP1 PUSH2 0x4852 DUP9 DUP6 PUSH2 0x430A JUMP JUMPDEST SWAP4 PUSH2 0x48CC JUMP JUMPDEST SWAP1 PUSH1 0x0 DUP4 PUSH1 0xF SIGNEXTEND SLT PUSH1 0x0 EQ PUSH2 0x4918 JUMPI SWAP1 PUSH2 0x4805 SWAP2 PUSH2 0x4909 PUSH2 0x369C SWAP5 PUSH2 0x328F JUMP JUMPDEST PUSH1 0x1 PUSH1 0x1 PUSH1 0x80 SHL SUB AND SWAP2 PUSH2 0x492B JUMP JUMPDEST PUSH2 0x369C SWAP3 PUSH1 0x1 PUSH1 0x1 PUSH1 0x80 SHL SUB AND SWAP2 PUSH2 0x4963 JUMP JUMPDEST PUSH2 0x369C SWAP3 SWAP2 PUSH2 0x4955 PUSH1 0x1 PUSH1 0x1 PUSH1 0x80 SHL SUB SWAP3 PUSH1 0x1 PUSH1 0x1 PUSH1 0xA0 SHL SUB SWAP3 DUP4 DUP2 AND DUP5 DUP4 AND GT PUSH2 0x495D JUMPI PUSH2 0x430A JUMP JUMPDEST AND SWAP2 AND PUSH2 0x3D31 JUMP JUMPDEST SWAP1 PUSH2 0x430A JUMP JUMPDEST SWAP1 PUSH1 0x1 PUSH1 0x1 PUSH1 0x80 SHL SUB PUSH2 0x498E PUSH1 0x1 PUSH1 0x60 SHL SWAP4 PUSH1 0x1 PUSH1 0x1 PUSH1 0xA0 SHL SUB SWAP4 DUP5 DUP2 AND DUP6 DUP4 AND GT PUSH2 0x495D JUMPI PUSH2 0x430A JUMP JUMPDEST SWAP4 AND SWAP3 AND PUSH2 0x499C DUP2 DUP5 PUSH2 0x3D31 JUMP JUMPDEST SWAP3 MULMOD PUSH2 0x49A5 JUMPI SWAP1 JUMP JUMPDEST PUSH1 0x0 NOT DUP2 LT ISZERO PUSH2 0xCB9 JUMPI PUSH2 0x369C SWAP1 PUSH2 0x3DFD JUMP JUMPDEST SWAP1 PUSH3 0xFFFFFF DUP1 SWAP3 AND PUSH3 0xF4240 SUB SWAP2 DUP3 GT PUSH2 0x3248 JUMPI JUMP JUMPDEST SWAP2 SWAP1 DUP2 ISZERO PUSH2 0x4A2A JUMPI PUSH1 0x1 PUSH1 0x60 SHL PUSH1 0x1 PUSH1 0xE0 SHL SUB SWAP1 PUSH1 0x60 SHL AND PUSH1 0x1 PUSH1 0x1 PUSH1 0xA0 SHL SUB DUP1 SWAP4 AND DUP1 PUSH2 0x4A06 PUSH2 0x49FF DUP3 DUP7 PUSH2 0x4323 JUMP JUMPDEST SWAP5 DUP6 PUSH2 0x3311 JUMP JUMPDEST SUB PUSH2 0xCB9 JUMPI DUP3 DUP3 GT ISZERO PUSH2 0xCB9 JUMPI PUSH2 0x4A20 PUSH2 0x4A26 SWAP4 DUP4 PUSH2 0x3331 JUMP JUMPDEST SWAP2 PUSH2 0x3E76 JUMP JUMPDEST AND SWAP1 JUMP JUMPDEST POP POP SWAP1 JUMP JUMPDEST SWAP2 SWAP1 DUP2 ISZERO PUSH2 0x4A2A JUMPI PUSH1 0x1 PUSH1 0x60 SHL PUSH1 0x1 PUSH1 0xE0 SHL SUB SWAP1 PUSH1 0x60 SHL AND PUSH1 0x1 PUSH1 0x1 PUSH1 0xA0 SHL SUB DUP1 SWAP4 AND PUSH2 0x4A5C DUP2 DUP5 PUSH2 0x4323 JUMP JUMPDEST DUP2 PUSH2 0x4A67 DUP6 DUP4 PUSH2 0x3311 JUMP JUMPDEST EQ PUSH2 0x4A8A JUMPI JUMPDEST POP PUSH2 0x4A26 SWAP3 PUSH2 0x4A7F PUSH2 0x4A84 SWAP3 DUP5 PUSH2 0x3311 JUMP JUMPDEST PUSH2 0x323B JUMP JUMPDEST SWAP1 PUSH2 0x3E39 JUMP JUMPDEST PUSH2 0x4A94 SWAP1 DUP4 PUSH2 0x323B JUMP JUMPDEST DUP3 DUP2 LT PUSH2 0x4A6D JUMPI SWAP2 PUSH2 0x4A26 SWAP4 POP PUSH2 0x3E76 JUMP JUMPDEST PUSH16 0x7FFFFFFFFFFFFFFFFFFFFFFFFFFFFFFF NOT DUP2 SLT ISZERO DUP1 PUSH2 0x4ACC JUMPI JUMPDEST ISZERO PUSH2 0xCB9 JUMPI PUSH1 0xF SIGNEXTEND SWAP1 JUMP JUMPDEST POP PUSH16 0x80000000000000000000000000000000 DUP2 SLT PUSH2 0x4AC1 JUMP JUMPDEST SWAP1 PUSH1 0x2 SIGNEXTEND SWAP1 DUP2 ISZERO PUSH2 0x331B JUMPI PUSH1 0x2 SIGNEXTEND SMOD SWAP1 JUMP JUMPDEST PUSH1 0x2 SIGNEXTEND SWAP1 PUSH1 0x2 SIGNEXTEND SWAP1 DUP2 ISZERO PUSH2 0x331B JUMPI PUSH3 0x7FFFFF NOT DUP2 EQ PUSH1 0x0 NOT DUP4 EQ AND PUSH2 0x3248 JUMPI SDIV SWAP1 JUMP JUMPDEST SWAP1 PUSH2 0x4B25 DUP2 DUP4 PUSH2 0x4AE5 JUMP JUMPDEST PUSH1 0x2 SIGNEXTEND PUSH2 0xCB9 JUMPI PUSH2 0x4B35 SWAP2 PUSH2 0x4AF7 JUMP JUMPDEST DUP1 PUSH1 0x2 SIGNEXTEND PUSH1 0x8 SAR PUSH1 0x1 SIGNEXTEND PUSH1 0x0 MSTORE PUSH1 0x6 PUSH1 0x20 MSTORE PUSH1 0x1 PUSH1 0xFF PUSH1 0x40 PUSH1 0x0 KECCAK256 SWAP3 AND SHL DUP2 SLOAD XOR SWAP1 SSTORE JUMP JUMPDEST SWAP1 PUSH1 0x2 SIGNEXTEND SWAP1 PUSH1 0x2 SIGNEXTEND MUL SWAP1 DUP2 PUSH1 0x2 SIGNEXTEND SWAP2 DUP3 SUB PUSH2 0x3248 JUMPI JUMP JUMPDEST PUSH1 0xFF PUSH1 0x40 SWAP2 AND ADD SWAP1 PUSH1 0xFF DUP3 GT PUSH2 0x3248 JUMPI JUMP JUMPDEST PUSH1 0xFF PUSH1 0x20 SWAP2 AND ADD SWAP1 PUSH1 0xFF DUP3 GT PUSH2 0x3248 JUMPI JUMP JUMPDEST PUSH1 0xFF PUSH1 0x10 SWAP2 AND ADD SWAP1 PUSH1 0xFF DUP3 GT PUSH2 0x3248 JUMPI JUMP JUMPDEST PUSH1 0xFF PUSH1 0x8 SWAP2 AND ADD SWAP1 PUSH1 0xFF DUP3 GT PUSH2 0x3248 JUMPI JUMP JUMPDEST PUSH1 0xFF PUSH1 0x4 SWAP2 AND ADD SWAP1 PUSH1 0xFF DUP3 GT PUSH2 0x3248 JUMPI JUMP JUMPDEST PUSH1 0xFF PUSH1 0x2 SWAP2 AND ADD SWAP1 PUSH1 0xFF DUP3 GT PUSH2 0x3248 JUMPI JUMP JUMPDEST PUSH1 0xFF PUSH1 0x1 SWAP2 AND ADD SWAP1 PUSH1 0xFF DUP3 GT PUSH2 0x3248 JUMPI JUMP JUMPDEST PUSH1 0x2 SIGNEXTEND PUSH1 0x0 DUP2 SLT ISZERO PUSH2 0x5131 JUMPI PUSH2 0x4C04 DUP2 PUSH2 0x32B0 JUMP JUMPDEST PUSH3 0xD89E8 DUP2 GT PUSH2 0x5108 JUMPI PUSH1 0x1 DUP2 AND ISZERO PUSH2 0x50EC JUMPI PUSH17 0xFFFFFFFFFFFFFFFFFFFFFFFFFFFFFFFFFF PUSH16 0xFFFCB933BD6FAD37AA2D162D1A594001 JUMPDEST AND SWAP2 PUSH1 0x2 DUP3 AND PUSH2 0x50C0 JUMPI JUMPDEST PUSH1 0x4 SWAP2 DUP3 DUP2 AND PUSH2 0x5094 JUMPI JUMPDEST PUSH1 0x8 DUP2 AND PUSH2 0x5068 JUMPI JUMPDEST PUSH1 0x10 DUP2 AND PUSH2 0x503C JUMPI JUMPDEST PUSH1 0x20 DUP2 AND PUSH2 0x5010 JUMPI JUMPDEST PUSH1 0x40 DUP2 AND PUSH2 0x4FE4 JUMPI JUMPDEST PUSH1 0x80 SWAP1 DUP2 DUP2 AND PUSH2 0x4FB9 JUMPI JUMPDEST PUSH2 0x100 DUP2 AND PUSH2 0x4F8E JUMPI JUMPDEST PUSH2 0x200 DUP2 AND PUSH2 0x4F63 JUMPI JUMPDEST PUSH2 0x400 DUP2 AND PUSH2 0x4F38 JUMPI JUMPDEST PUSH2 0x800 DUP2 AND PUSH2 0x4F0D JUMPI JUMPDEST PUSH2 0x1000 DUP2 AND PUSH2 0x4EE2 JUMPI JUMPDEST PUSH2 0x2000 DUP2 AND PUSH2 0x4EB7 JUMPI JUMPDEST PUSH2 0x4000 DUP2 AND PUSH2 0x4E8C JUMPI JUMPDEST PUSH2 0x8000 DUP2 AND PUSH2 0x4E61 JUMPI JUMPDEST PUSH3 0x10000 DUP2 AND PUSH2 0x4E36 JUMPI JUMPDEST PUSH3 0x20000 DUP2 AND PUSH2 0x4E0B JUMPI JUMPDEST PUSH3 0x40000 DUP2 AND PUSH2 0x4DE2 JUMPI JUMPDEST PUSH3 0x80000 DUP2 AND PUSH2 0x4DA6 JUMPI JUMPDEST PUSH3 0x100000 AND PUSH2 0x4D6B JUMPI JUMPDEST POP PUSH1 0x0 SLT PUSH2 0x4D43 JUMPI JUMPDEST POP PUSH2 0x4A26 PUSH1 0x1 PUSH1 0x1 PUSH1 0xA0 SHL SUB SWAP2 PUSH4 0xFFFFFFFF DUP2 AND ISZERO PUSH1 0x0 EQ PUSH2 0x4D3A JUMPI PUSH1 0xFF PUSH1 0x0 JUMPDEST AND SWAP1 PUSH1 0x20 SHR PUSH2 0x323B JUMP JUMPDEST PUSH1 0xFF PUSH1 0x1 PUSH2 0x4D30 JUMP JUMPDEST DUP2 ISZERO PUSH2 0x4D56 JUMPI POP PUSH1 0x0 NOT DIV PUSH2 0x4A26 PUSH2 0x4D0F JUMP JUMPDEST PUSH1 0x12 SWAP1 PUSH4 0x4E487B71 PUSH1 0xE0 SHL PUSH1 0x0 MSTORE MSTORE PUSH1 0x24 PUSH1 0x0 REVERT JUMPDEST PUSH8 0x149B3712F532921 SWAP4 SWAP2 SWAP4 SWAP2 DUP3 DUP2 MUL SWAP3 DUP2 DUP5 DIV EQ SWAP1 ISZERO OR ISZERO PUSH2 0x4D91 JUMPI SHR SWAP2 PUSH1 0x0 PUSH2 0x4D06 JUMP JUMPDEST PUSH1 0x11 DUP4 PUSH4 0x4E487B71 PUSH1 0xE0 SHL PUSH1 0x0 MSTORE MSTORE PUSH1 0x24 PUSH1 0x0 REVERT JUMPDEST SWAP4 PUSH12 0x48A170391F7DC42444E8FA2 SWAP1 DUP2 DUP2 MUL SWAP2 DUP2 DUP4 DIV EQ SWAP1 ISZERO OR ISZERO PUSH2 0x4DCD JUMPI DUP2 SHR SWAP4 PUSH2 0x4CFC JUMP JUMPDEST PUSH1 0x11 DUP5 PUSH4 0x4E487B71 PUSH1 0xE0 SHL PUSH1 0x0 MSTORE MSTORE PUSH1 0x24 PUSH1 0x0 REVERT JUMPDEST SWAP4 PUSH14 0x2216E584F5FA1EA926041BEDFE98 SWAP1 DUP2 DUP2 MUL SWAP2 DUP2 DUP4 DIV EQ SWAP1 ISZERO OR ISZERO PUSH2 0x4DCD JUMPI DUP2 SHR SWAP4 PUSH2 0x4CF1 JUMP JUMPDEST SWAP4 PUSH16 0x5D06B12A7396A414630E4A0D2DC2E65 SWAP1 DUP2 DUP2 MUL SWAP2 DUP2 DUP4 DIV EQ SWAP1 ISZERO OR ISZERO PUSH2 0x4DCD JUMPI DUP2 SHR SWAP4 PUSH2 0x4CE6 JUMP JUMPDEST SWAP4 PUSH16 0x9AA508B5B7A84E1C677DE54F3E99BC9 SWAP1 DUP2 DUP2 MUL SWAP2 DUP2 DUP4 DIV EQ SWAP1 ISZERO OR ISZERO PUSH2 0x4DCD JUMPI DUP2 SHR SWAP4 PUSH2 0x4CDB JUMP JUMPDEST SWAP4 PUSH16 0x31BE135F97D514839F323C2334812328 SWAP1 DUP2 DUP2 MUL SWAP2 DUP2 DUP4 DIV EQ SWAP1 ISZERO OR ISZERO PUSH2 0x4DCD JUMPI DUP2 SHR SWAP4 PUSH2 0x4CD0 JUMP JUMPDEST SWAP4 PUSH16 0x70D869A156D2A1B890BB3DF62BAF32F7 SWAP1 DUP2 DUP2 MUL SWAP2 DUP2 DUP4 DIV EQ SWAP1 ISZERO OR ISZERO PUSH2 0x4DCD JUMPI DUP2 SHR SWAP4 PUSH2 0x4CC6 JUMP JUMPDEST SWAP4 PUSH16 0xA9F746462D870FDF8A65DC1F90E061E5 SWAP1 DUP2 DUP2 MUL SWAP2 DUP2 DUP4 DIV EQ SWAP1 ISZERO OR ISZERO PUSH2 0x4DCD JUMPI DUP2 SHR SWAP4 PUSH2 0x4CBC JUMP JUMPDEST SWAP4 PUSH16 0xD097F3BDFD2022B8845AD8F792AA5825 SWAP1 DUP2 DUP2 MUL SWAP2 DUP2 DUP4 DIV EQ SWAP1 ISZERO OR ISZERO PUSH2 0x4DCD JUMPI DUP2 SHR SWAP4 PUSH2 0x4CB2 JUMP JUMPDEST SWAP4 PUSH16 0xE7159475A2C29B7443B29C7FA6E889D9 SWAP1 DUP2 DUP2 MUL SWAP2 DUP2 DUP4 DIV EQ SWAP1 ISZERO OR ISZERO PUSH2 0x4DCD JUMPI DUP2 SHR SWAP4 PUSH2 0x4CA8 JUMP JUMPDEST SWAP4 PUSH16 0xF3392B0822B70005940C7A398E4B70F3 SWAP1 DUP2 DUP2 MUL SWAP2 DUP2 DUP4 DIV EQ SWAP1 ISZERO OR ISZERO PUSH2 0x4DCD JUMPI DUP2 SHR SWAP4 PUSH2 0x4C9E JUMP JUMPDEST SWAP4 PUSH16 0xF987A7253AC413176F2B074CF7815E54 SWAP1 DUP2 DUP2 MUL SWAP2 DUP2 DUP4 DIV EQ SWAP1 ISZERO OR ISZERO PUSH2 0x4DCD JUMPI DUP2 SHR SWAP4 PUSH2 0x4C94 JUMP JUMPDEST SWAP4 PUSH16 0xFCBE8617E027FF05CC2B1327117E35BB SWAP1 DUP2 DUP2 MUL SWAP2 DUP2 DUP4 DIV EQ SWAP1 ISZERO OR ISZERO PUSH2 0x4DCD JUMPI DUP2 SHR SWAP4 PUSH2 0x4C8A JUMP JUMPDEST SWAP4 PUSH16 0xFE5DEE046A99A2A811C461F1969C3053 SWAP1 DUP2 DUP2 MUL SWAP2 DUP2 DUP4 DIV EQ SWAP1 ISZERO OR ISZERO PUSH2 0x4DCD JUMPI DUP2 SHR SWAP4 PUSH2 0x4C80 JUMP JUMPDEST SWAP3 PUSH16 0xFF2EA16466C96A0C843982797B9376BD SWAP1 DUP2 DUP2 MUL SWAP2 DUP2 DUP4 DIV EQ SWAP1 ISZERO OR ISZERO PUSH2 0x4D91 JUMPI PUSH1 0x80 SHR SWAP3 PUSH2 0x4C75 JUMP JUMPDEST SWAP3 PUSH16 0xFF973B41FA98C081472E6896DFB254C0 SWAP1 DUP2 DUP2 MUL SWAP2 DUP2 DUP4 DIV EQ SWAP1 ISZERO OR ISZERO PUSH2 0x4D91 JUMPI PUSH1 0x80 SHR SWAP3 PUSH2 0x4C6C JUMP JUMPDEST SWAP3 PUSH16 0xFFCB9843D60F6159C9DB58835C926644 SWAP1 DUP2 DUP2 MUL SWAP2 DUP2 DUP4 DIV EQ SWAP1 ISZERO OR ISZERO PUSH2 0x4D91 JUMPI PUSH1 0x80 SHR SWAP3 PUSH2 0x4C63 JUMP JUMPDEST SWAP3 PUSH16 0xFFE5CABA7EAA351859731E26960B1469 SWAP1 DUP2 DUP2 MUL SWAP2 DUP2 DUP4 DIV EQ SWAP1 ISZERO OR ISZERO PUSH2 0x4D91 JUMPI PUSH1 0x80 SHR SWAP3 PUSH2 0x4C5A JUMP JUMPDEST SWAP3 PUSH16 0xFFF2E50F5F656932EF12357CF3C7FDCC SWAP1 DUP2 DUP2 MUL SWAP2 DUP2 DUP4 DIV EQ SWAP1 ISZERO OR ISZERO PUSH2 0x4D91 JUMPI PUSH1 0x80 SHR SWAP3 PUSH2 0x4C51 JUMP JUMPDEST SWAP2 PUSH16 0xFFF97272373D413259A46990580E213A SWAP1 DUP2 DUP2 MUL SWAP2 DUP2 DUP4 DIV EQ SWAP1 ISZERO OR ISZERO PUSH2 0x3248 JUMPI PUSH1 0x80 SHR SWAP2 PUSH2 0x4C46 JUMP JUMPDEST PUSH17 0xFFFFFFFFFFFFFFFFFFFFFFFFFFFFFFFFFF PUSH1 0x1 PUSH1 0x80 SHL PUSH2 0x4C3B JUMP JUMPDEST PUSH1 0x40 MLOAD PUSH3 0x461BCD PUSH1 0xE5 SHL DUP2 MSTORE PUSH1 0x20 PUSH1 0x4 DUP3 ADD MSTORE PUSH1 0x1 PUSH1 0x24 DUP3 ADD MSTORE PUSH1 0x15 PUSH1 0xFA SHL PUSH1 0x44 DUP3 ADD MSTORE PUSH1 0x64 SWAP1 REVERT JUMPDEST DUP1 PUSH2 0x4C04 JUMP JUMPDEST PUSH1 0x1 PUSH1 0x1 PUSH1 0xA0 SHL SUB DUP1 DUP3 AND SWAP2 PUSH5 0x1000276A3 DUP4 LT ISZERO DUP1 PUSH2 0x547F JUMPI JUMPDEST ISZERO PUSH2 0x5456 JUMPI PUSH24 0xFFFFFFFFFFFFFFFFFFFFFFFFFFFFFFFFFFFFFFFF00000000 SWAP1 PUSH1 0x20 SHL AND SWAP1 DUP2 PUSH1 0x1 PUSH1 0x1 PUSH1 0x80 SHL SUB DUP4 GT PUSH1 0x7 SHL SWAP3 DUP1 DUP5 SHR SWAP2 PUSH8 0xFFFFFFFFFFFFFFFF DUP4 GT PUSH1 0x6 SHL SWAP3 DUP4 SHR SWAP5 PUSH4 0xFFFFFFFF DUP7 GT PUSH1 0x5 SHL SWAP6 DUP7 SHR SWAP4 PUSH1 0x4 SWAP7 PUSH2 0xFFFF DUP7 GT DUP9 SHL SWAP6 DUP7 SHR PUSH1 0xFF SWAP7 DUP8 DUP3 GT PUSH1 0x3 SHL SWAP2 DUP3 SHR SWAP3 PUSH1 0xF DUP5 GT PUSH1 0x2 SHL SWAP4 DUP5 SHR SWAP5 PUSH1 0x1 PUSH1 0x3 DUP8 GT DUP2 SHL SWAP7 DUP8 SHR GT SWAP7 OR OR OR OR OR OR OR SWAP2 PUSH1 0x80 DUP4 LT ISZERO PUSH1 0x0 EQ PUSH2 0x5442 JUMPI POP PUSH1 0x7E NOT DUP3 ADD DUP3 DUP2 GT PUSH2 0x542D JUMPI SHR JUMPDEST PUSH1 0x7F NOT DUP3 ADD SWAP2 DUP3 SGT PUSH1 0x1 AND PUSH2 0x5418 JUMPI DUP1 MUL PUSH1 0x7F SWAP3 DUP4 SWAP3 DUP3 DUP5 SWAP4 DUP5 SHR DUP2 DUP5 SHR SHR DUP1 MUL DUP1 DUP6 SHR DUP2 DUP6 SHR SHR DUP1 MUL DUP1 DUP7 SHR DUP2 DUP7 SHR SHR DUP1 MUL DUP1 DUP8 SHR DUP2 DUP8 SHR SHR DUP1 MUL SWAP1 DUP2 DUP9 SHR DUP3 DUP9 SHR SHR DUP1 MUL SWAP3 DUP4 DUP10 SHR DUP5 DUP10 SHR SHR DUP1 MUL SWAP5 DUP6 DUP11 SHR DUP7 DUP11 SHR SHR DUP1 MUL SWAP7 DUP8 DUP12 SHR DUP9 DUP12 SHR SHR DUP1 MUL SWAP9 DUP10 DUP13 SHR DUP11 DUP13 SHR SHR DUP1 MUL SWAP11 DUP12 DUP14 SHR DUP13 DUP3 SHR SHR DUP1 MUL DUP1 SWAP14 SHR DUP14 DUP3 SHR SHR DUP1 MUL DUP1 SWAP15 DUP2 SWAP1 SHR SWAP1 DUP3 SHR SHR DUP1 MUL SWAP15 DUP16 DUP1 SWAP2 SHR SWAP2 SHR SHR DUP1 MUL PUSH1 0xCD SHR PUSH7 0x4000000000000 AND SWAP14 PUSH1 0xCC SHR PUSH7 0x8000000000000 AND SWAP13 PUSH1 0xCB SHR PUSH7 0x10000000000000 AND SWAP12 PUSH1 0xCA SHR PUSH7 0x20000000000000 AND SWAP11 PUSH1 0xC9 SHR PUSH7 0x40000000000000 AND SWAP10 PUSH1 0xC8 SHR PUSH7 0x80000000000000 AND SWAP9 PUSH1 0xC7 SHR PUSH8 0x100000000000000 AND SWAP8 PUSH1 0xC6 SHR PUSH8 0x200000000000000 AND SWAP7 PUSH1 0xC5 SHR PUSH8 0x400000000000000 AND SWAP6 PUSH1 0xC4 SHR PUSH8 0x800000000000000 AND SWAP5 PUSH1 0xC3 SHR PUSH8 0x1000000000000000 AND SWAP4 PUSH1 0xC2 SHR PUSH8 0x2000000000000000 AND SWAP3 PUSH1 0xC1 SHR PUSH8 0x4000000000000000 AND SWAP2 PUSH1 0xC0 SHR PUSH8 0x8000000000000000 AND SWAP1 PUSH1 0x40 SHL OR OR OR OR OR OR OR OR OR OR OR OR OR OR PUSH10 0x3627A301D71055774C85 SWAP1 DUP2 DUP2 MUL SWAP2 DUP2 DUP4 SDIV EQ SWAP1 ISZERO OR ISZERO PUSH2 0x4D91 JUMPI PUSH17 0xA00209A85E82900F339C8C74D48E535C3 NOT DUP2 ADD PUSH1 0x1 DUP3 DUP3 SGT AND PUSH2 0x4DCD JUMPI PUSH1 0x80 SAR PUSH1 0x2 SIGNEXTEND SWAP3 PUSH17 0x559DF1FDEA9E7052B4CA8A5D0B76409DCF SWAP2 PUSH1 0x0 DUP4 DUP3 ADD SWAP4 DUP5 SLT SWAP2 SLT SWAP1 DUP1 ISZERO DUP3 AND SWAP2 ISZERO AND OR PUSH2 0x5403 JUMPI POP PUSH1 0x80 SAR PUSH1 0x2 SIGNEXTEND SWAP3 PUSH1 0x0 SWAP2 DUP4 DUP6 SUB PUSH2 0x53E9 JUMPI POP POP POP SWAP1 POP SWAP1 JUMP JUMPDEST PUSH2 0x53F2 DUP6 PUSH2 0x4BEF JUMP JUMPDEST AND GT SWAP1 POP PUSH2 0x53FE JUMPI POP SWAP1 JUMP JUMPDEST SWAP1 POP SWAP1 JUMP JUMPDEST PUSH1 0x11 SWAP1 PUSH4 0x4E487B71 PUSH1 0xE0 SHL PUSH1 0x0 MSTORE MSTORE PUSH1 0x24 PUSH1 0x0 REVERT JUMPDEST PUSH1 0x11 DUP6 PUSH4 0x4E487B71 PUSH1 0xE0 SHL PUSH1 0x0 MSTORE MSTORE PUSH1 0x24 PUSH1 0x0 REVERT JUMPDEST PUSH1 0x11 DUP7 PUSH4 0x4E487B71 PUSH1 0xE0 SHL PUSH1 0x0 MSTORE MSTORE PUSH1 0x24 PUSH1 0x0 REVERT JUMPDEST SWAP1 POP DUP2 PUSH1 0x7F SUB PUSH1 0x7F DUP2 GT PUSH2 0x542D JUMPI SHL PUSH2 0x51FE JUMP JUMPDEST PUSH1 0x40 MLOAD PUSH3 0x461BCD PUSH1 0xE5 SHL DUP2 MSTORE PUSH1 0x20 PUSH1 0x4 DUP3 ADD MSTORE PUSH1 0x1 PUSH1 0x24 DUP3 ADD MSTORE PUSH1 0x29 PUSH1 0xF9 SHL PUSH1 0x44 DUP3 ADD MSTORE PUSH1 0x64 SWAP1 REVERT JUMPDEST POP PUSH20 0xFFFD8963EFD1FC6A506488495D951D5263988D26 DUP4 LT PUSH2 0x5152 JUMP INVALID LOG2 PUSH5 0x6970667358 0x22 SLT KECCAK256 SWAP8 0xE4 0xE4 POP 0x2A 0xB3 0x23 0xE INVALID CHAINID 0xE8 EXTCODEHASH SWAP7 PUSH21 0xDA9FCCC3E411F37E43EF8E604C137818B9564736F PUSH13 0x63430008140033A26469706673 PC 0x22 SLT KECCAK256 0x49 CALLDATACOPY 0xD3 SLT 0x22 SWAP7 MSIZE 0x2F DUP10 0xE5 PUSH1 0x45 0xAD 0x2D PUSH23 0xA4C6EB8788F9D5907C41CCF3D8ABE6F97864736F6C6343 STOP ADDMOD EQ STOP CALLER 0x4B PUSH16 0x7274616E61466163746F72793A204645 GASLIMIT PUSH0 COINBASE 0x4C MSTORE GASLIMIT COINBASE PREVRANDAO MSIZE PUSH0 GASLIMIT 0x4E COINBASE TIMESTAMP "},"methodIdentifiers":{"allPools(uint256)":"41d1de97","allPoolsLength()":"efde4e64","collectProtocol(address,address,uint128,uint128)":"43db87da","createPool(address,address,uint24)":"a1671295","enableFeeAmount(uint24,int24)":"8a7c195f","feeAmountTickSpacing(uint24)":"22afcccb","feeCollector()":"c415b95c","feeProtocol()":"527eb4bc","getPool(address,address,uint24)":"1698ee82","owner()":"8da5cb5b","parameters()":"89035730","setFeeCollector(address)":"a42dce80","setFeeProtocol(uint8)":"b613a141","setOwner(address)":"13af4035"}}}}}