{"contracts/KortanaPoolDeployer.sol":{"KortanaPoolDeployer":{"abi":[{"inputs":[],"name":"parameters","outputs":[{"internalType":"address","name":"factory","type":"address"},{"internalType":"address","name":"token0","type":"address"},{"internalType":"address","name":"token1","type":"address"},{"internalType":"uint24","name":"fee","type":"uint24"},{"internalType":"int24","name":"tickSpacing","type":"int24"}],"stateMutability":"view","type":"function"}],"evm":{"bytecode":{"linkReferences":{},"object":"608080604052346100155760be908161001b8239f35b600080fdfe6080806040526004361015601257600080fd5b600090813560e01c638903573014602857600080fd5b346084578160031936011260845760a09173ffffffffffffffffffffffffffffffffffffffff8091541690806001541660025492845260208401528116604083015262ffffff81841c16606083015260b81c60020b6080820152f35b5080fdfea2646970667358221220106553f3e9b881fb4eddbbbad5cc5ccb8b8d3a4015e214870257f0693f5cf9a064736f6c63430008140033","opcodes":"PUSH1 0x80 DUP1 PUSH1 0x40 MSTORE CALLVALUE PUSH2 0x15 JUMPI PUSH1 0xBE SWAP1 DUP2 PUSH2 0x1B DUP3 CODECOPY RETURN JUMPDEST PUSH1 0x0 DUP1 REVERT INVALID PUSH1 0x80 DUP1 PUSH1 0x40 MSTORE PUSH1 0x4 CALLDATASIZE LT ISZERO PUSH1 0x12 JUMPI PUSH1 0x0 DUP1 REVERT JUMPDEST PUSH1 0x0 SWAP1 DUP2 CALLDATALOAD PUSH1 0xE0 SHR PUSH4 0x89035730 EQ PUSH1 0x28 JUMPI PUSH1 0x0 DUP1 REVERT JUMPDEST CALLVALUE PUSH1 0x84 JUMPI DUP2 PUSH1 0x3 NOT CALLDATASIZE ADD SLT PUSH1 0x84 JUMPI PUSH1 0xA0 SWAP2 PUSH20 0xFFFFFFFFFFFFFFFFFFFFFFFFFFFFFFFFFFFFFFFF DUP1 SWAP2 SLOAD AND SWAP1 DUP1 PUSH1 0x1 SLOAD AND PUSH1 0x2 SLOAD SWAP3 DUP5 MSTORE PUSH1 0x20 DUP5 ADD MSTORE DUP2 AND PUSH1 0x40 DUP4 ADD MSTORE PUSH3 0xFFFFFF DUP2 DUP5 SHR AND PUSH1 0x60 DUP4 ADD MSTORE PUSH1 0xB8 SHR PUSH1 0x2 SIGNEXTEND PUSH1 0x80 DUP3 ADD MSTORE RETURN JUMPDEST POP DUP1 REVERT INVALID LOG2 PUSH5 0x6970667358 0x22 SLT KECCAK256 LT PUSH6 0x53F3E9B881FB 0x4E 0xDD 0xBB 0xBA 0xD5 0xCC 0x5C 0xCB DUP12 DUP14 GASPRICE BLOCKHASH ISZERO 0xE2 EQ DUP8 MUL JUMPI CREATE PUSH10 0x3F5CF9A064736F6C6343 STOP ADDMOD EQ STOP CALLER "},"methodIdentifiers":{"parameters()":"89035730"}}}}}