{"contracts/SwapRouter.sol":{"SwapRouter":{"abi":[{"inputs":[{"internalType":"address","name":"_factory","type":"address"},{"internalType":"address","name":"_WDNR","type":"address"}],"stateMutability":"nonpayable","type":"constructor"},{"inputs":[],"name":"WDNR","outputs":[{"internalType":"address","name":"","type":"address"}],"stateMutability":"view","type":"function"},{"inputs":[{"components":[{"internalType":"bytes","name":"path","type":"bytes"},{"internalType":"address","name":"recipient","type":"address"},{"internalType":"uint256","name":"deadline","type":"uint256"},{"internalType":"uint256","name":"amountIn","type":"uint256"},{"internalType":"uint256","name":"amountOutMinimum","type":"uint256"}],"internalType":"struct ISwapRouter.ExactInputParams","name":"params","type":"tuple"}],"name":"exactInput","outputs":[{"internalType":"uint256","name":"amountOut","type":"uint256"}],"stateMutability":"payable","type":"function"},{"inputs":[{"components":[{"internalType":"address","name":"tokenIn","type":"address"},{"internalType":"address","name":"tokenOut","type":"address"},{"internalType":"uint24","name":"fee","type":"uint24"},{"internalType":"address","name":"recipient","type":"address"},{"internalType":"uint256","name":"deadline","type":"uint256"},{"internalType":"uint256","name":"amountIn","type":"uint256"},{"internalType":"uint256","name":"amountOutMinimum","type":"uint256"},{"internalType":"uint160","name":"sqrtPriceLimitX96","type":"uint160"}],"internalType":"struct ISwapRouter.ExactInputSingleParams","name":"params","type":"tuple"}],"name":"exactInputSingle","outputs":[{"internalType":"uint256","name":"amountOut","type":"uint256"}],"stateMutability":"payable","type":"function"},{"inputs":[{"components":[{"internalType":"bytes","name":"path","type":"bytes"},{"internalType":"address","name":"recipient","type":"address"},{"internalType":"uint256","name":"deadline","type":"uint256"},{"internalType":"uint256","name":"amountOut","type":"uint256"},{"internalType":"uint256","name":"amountInMaximum","type":"uint256"}],"internalType":"struct ISwapRouter.ExactOutputParams","name":"params","type":"tuple"}],"name":"exactOutput","outputs":[{"internalType":"uint256","name":"amountIn","type":"uint256"}],"stateMutability":"payable","type":"function"},{"inputs":[{"components":[{"internalType":"address","name":"tokenIn","type":"address"},{"internalType":"address","name":"tokenOut","type":"address"},{"internalType":"uint24","name":"fee","type":"uint24"},{"internalType":"address","name":"recipient","type":"address"},{"internalType":"uint256","name":"deadline","type":"uint256"},{"internalType":"uint256","name":"amountOut","type":"uint256"},{"internalType":"uint256","name":"amountInMaximum","type":"uint256"},{"internalType":"uint160","name":"sqrtPriceLimitX96","type":"uint160"}],"internalType":"struct ISwapRouter.ExactOutputSingleParams","name":"params","type":"tuple"}],"name":"exactOutputSingle","outputs":[{"internalType":"uint256","name":"amountIn","type":"uint256"}],"stateMutability":"payable","type":"function"},{"inputs":[],"name":"factory","outputs":[{"internalType":"address","name":"","type":"address"}],"stateMutability":"view","type":"function"},{"inputs":[{"internalType":"int256","name":"amount0Delta","type":"int256"},{"internalType":"int256","name":"amount1Delta","type":"int256"},{"internalType":"bytes","name":"_data","type":"bytes"}],"name":"kortanaSwapCallback","outputs":[],"stateMutability":"nonpayable","type":"function"}],"evm":{"bytecode":{"linkReferences":{},"object":"60c03461008e57601f61149c38819003918201601f19168301916001600160401b0383118484101761009357808492604094855283398101031261008e57610052602061004b836100a9565b92016100a9565b9060805260a0526000196000556040516113de90816100be823960805181818161022f015281816104ea0152610a42015260a0518161052e0152f35b600080fd5b634e487b7160e01b600052604160045260246000fd5b51906001600160a01b038216820361008e5756fe6080604052600436101561001257600080fd5b60003560e01c8063414bf38914610087578063988abd2014610082578063c04b8d591461007d578063c45a015514610078578063d2d8d32f14610073578063db3e21981461006e5763f28c04981461006957600080fd5b6105f6565b610552565b61050e565b6104ca565b610437565b6101a7565b6101003660031901126101905761018c6100a036610195565b6100b06080820135421115610768565b61017c60c061017160608401356100c681610426565b60e08501356100d481610426565b8535916100e083610426565b6101526100ef604089016107b4565b9361014460208a013561010181610426565b604051968793602085019192602b936bffffffffffffffffffffffff19809360601b16845262ffffff60e81b9060e81b16601484015260601b1660178201520190565b03601f198101855284610384565b6040519261015f8461030f565b835233602084015260a0870135610b58565b9201358210156107c4565b6040519081529081906020820190565b0390f35b600080fd5b61010090600319011261019057600490565b346101905760603660031901126101905760443560243560043567ffffffffffffffff8084116101905736602385011215610190578360040135908111610190578301602401923684116101905761025361021b6000956024878613948580156102f0575b610215906106ba565b01610706565b936102268551611023565b818396939592957f0000000000000000000000000000000000000000000000000000000000000000610fa8565b50156102da57506001600160a01b03808216908316105b156102915750610287602061028e9401516001600160a01b031690565b3391610edc565b80f35b90506102a18351602b9051101590565b156102c35750906102bf916102b68251611125565b82523390610c5e565b5080f35b610287602061028e9401516001600160a01b031690565b92506001600160a01b038083169082161061026a565b5088881361020c565b634e487b7160e01b600052604160045260246000fd5b6040810190811067ffffffffffffffff82111761032b57604052565b6102f9565b60a0810190811067ffffffffffffffff82111761032b57604052565b6060810190811067ffffffffffffffff82111761032b57604052565b6080810190811067ffffffffffffffff82111761032b57604052565b90601f8019910116810190811067ffffffffffffffff82111761032b57604052565b604051906103b38261030f565b565b67ffffffffffffffff811161032b57601f01601f191660200190565b9291926103dd826103b5565b916103eb6040519384610384565b829481845281830111610190578281602093846000960137010152565b9080601f8301121561019057816020610423933591016103d1565b90565b6001600160a01b0381160361019057565b6003196020368201126101905760043567ffffffffffffffff918282116101905760a09082360301126101905760405161047081610330565b816004013592831161019057608461017c9261049561018c9560043691840101610408565b835260248101356104a581610426565b6020840152604481013560408401526064810135606084015201356080820152610810565b346101905760003660031901126101905760206040516001600160a01b037f0000000000000000000000000000000000000000000000000000000000000000168152f35b346101905760003660031901126101905760206040516001600160a01b037f0000000000000000000000000000000000000000000000000000000000000000168152f35b6101003660031901126101905761018c61056b36610195565b61057b6080820135421115610768565b61017c60c06105eb606084013561059181610426565b60e085013561059f81610426565b6020860135916105ae83610426565b6105cc6105bd604089016107b4565b93610144893561010181610426565b604051926105d98461030f565b835233602084015260a0870135610d89565b9201358211156108be565b6003196020368201126101905760043567ffffffffffffffff8082116101905760a082360393840112610190576106336044830135421115610768565b60248201359261064284610426565b600483013590602219018112156101905782016004810135918211610190576024019080360382136101905761018c9361068961069b936106816103a6565b9336916103d1565b82523360208301526064840135610c5e565b506106af60846000549201358211156108be565b60001960005561017c565b156106c157565b60405162461bcd60e51b815260206004820152601660248201527f53776170526f757465723a205a45524f5f44454c5441000000000000000000006044820152606490fd5b9060208282031261019057813567ffffffffffffffff928382116101905701604081830312610190576040519261073c8461030f565b813590811161019057602092610753918301610408565b8352013561076081610426565b602082015290565b1561076f57565b60405162461bcd60e51b815260206004820152601360248201527f5472616e73616374696f6e20746f6f206f6c64000000000000000000000000006044820152606490fd5b3562ffffff811681036101905790565b156107cb57565b60405162461bcd60e51b815260206004820152601f60248201527f53776170526f757465723a20494e53554646494349454e545f4f5554505554006044820152606490fd5b6108206040820151421115610768565b6000335b82519061086e602b8351101591606086019384518460001461089e5761086961084d30936110da565b936108566103a6565b9485526001600160a01b03166020850152565b6109fc565b80925260001461088b5750306108848351611125565b8352610824565b61042391506080909201518210156107c4565b61086961084d6108b860208b01516001600160a01b031690565b936110da565b156108c557565b60405162461bcd60e51b815260206004820152601b60248201527f53776170526f757465723a204558434553534956455f494e50555400000000006044820152606490fd5b634e487b7160e01b600052601160045260246000fd5b919082519283825260005b84811061094c575050826000602080949584010152601f8019910116010190565b60208183018101518483018201520161092b565b6020815260406001600160a01b036020610984855184838701526060860190610920565b9401511691015290565b9190826040910312610190576020825192015190565b919360a09361042396956001600160a01b0380941685521515602085015260408401521660608201528160808201520190610920565b6040513d6000823e3d90fd5b600160ff1b81146109f75760000390565b61090a565b6001600160a01b03929160409184821615610b50575b846000610a78610a72610a66610a66610a40610a2e8b51611023565b9198819e9116908916109c8d9861120b565b7f0000000000000000000000000000000000000000000000000000000000000000611266565b6001600160a01b031690565b93611320565b93828214610b2c57610ac9610a9f610aad6401000276a4995b895192839160208301610960565b03601f198101835282610384565b8751630251596160e31b815298899788968795600487016109a4565b03925af1908115610b2757610423926000918293610af5575b5015610aee57506109e6565b90506109e6565b909250610b19915060403d8111610b20575b610b118183610384565b81019061098e565b9138610ae2565b503d610b07565b6109da565b610ac9610a9f610aad73fffd8963efd1fc6a506488495d951d5263988d2599610a91565b309150610a12565b916040919392610a4060006001600160a01b0396879485821615610c0a575b610ba6610ba0610a66610a66610b8d8c51611023565b909e8f9a929a168c8b16109e8f9a61120b565b95611320565b958116158314610bfa5750828214610bd757610ac9610a9f610aad6401000276a45b99895192839160208301610960565b610ac9610a9f610aad73fffd8963efd1fc6a506488495d951d5263988d25610bc8565b610a9f610aad610ac99299610a91565b309150610b77565b15610c1957565b60405162461bcd60e51b815260206004820152601a60248201527f53776170526f757465723a20494e56414c49445f414d4f554e540000000000006044820152606490fd5b9291906001600160a01b039081811615610d82575b604090610c9c610a66610a66610a40610c8c8851611023565b919098808216908a16109861120b565b836000610cb0610cab8a611320565b6109e6565b93828214610d5e57610cf2610a9f610cd66401000276a49a895192839160208301610960565b8751630251596160e31b8152998a9788968795600487016109a4565b03925af1908115610b27576000928392610d3b575b5015610d2857610d19610d23916109e6565b935b829414610c12565b600055565b90610d35610d23916109e6565b93610d1b565b909250610d56915060403d8111610b2057610b118183610384565b909138610d07565b610cf2610a9f610cd673fffd8963efd1fc6a506488495d951d5263988d259a610a91565b5030610c73565b906040610a6691959493956001600160a01b039081811615610ed5575b610a406000610dce610a66610dbb8a51611023565b828916828a16109a8b979093909261120b565b92610ddb610cab89611320565b948b16159a8b8314610ec55750828214610ea257610e2a610a9f610e0e6401000276a45b9b895192839160208301610960565b8751630251596160e31b81529a8b9788968795600487016109a4565b03925af1908115610b27576000938492610e7f575b5015610e6f57610e4e906109e6565b905b8294610e5e575b5050600055565b610e689114610c12565b3880610e57565b91610e79906109e6565b90610e50565b909350610e9a915060403d8111610b2057610b118183610384565b909238610e3f565b610e2a610a9f610e0e73fffd8963efd1fc6a506488495d951d5263988d25610dff565b610a9f610e0e610e2a929b610a91565b5030610da6565b926001600160a01b03918216308103610f6d5750926000928380936103b39660405191602083019463a9059cbb60e01b8652166024830152604482015260448152610f2681610368565b51925af1610f3261132f565b81610f3e575b50611377565b8051801592508215610f53575b505038610f38565b610f66925060208091830101910161135f565b3880610f4b565b600080946103b3969382956040519260208401956323b872dd60e01b87526024850152166044830152606482015260648152610f2681610330565b906001600160a01b0393610fc593610fbf9261120b565b90611266565b1690813303610fd057565b60405162461bcd60e51b815260206004820152601060248201527f496e76616c69642063616c6c6261636b000000000000000000000000000000006044820152606490fd5b60170190816017116109f757565b90601482511061109557602082015160601c9160178151106110505761104d6017820151916111ac565b91565b60405162461bcd60e51b815260206004820152601460248201527f55696e743234206f7574206f6620626f756e64730000000000000000000000006044820152606490fd5b60405162461bcd60e51b815260206004820152601560248201527f41646472657373206f7574206f6620626f756e647300000000000000000000006044820152606490fd5b6110e8602b825110156111bf565b60405190600b8083019101603683015b808310611112575050602b8252601f01601f191660405290565b90918251815260208091019201906110f8565b805160161991828201908282116109f75761114b815161114484611015565b11156111bf565b816111655750505050604051600081526020810160405290565b60405193601f8316801560051b91828288010195860101920101905b8084106111995750508252601f01601f191660405290565b9092835181526020809101930190611181565b602b815110611095576037015160601c90565b156111c657565b60405162461bcd60e51b815260206004820152601360248201527f536c696365206f7574206f6620626f756e6473000000000000000000000000006044820152606490fd5b9162ffffff916000604080516112208161034c565b82815282602082015201526001600160a01b039081811682861611611260575b816040519561124e8761034c565b16855216602084015216604082015290565b93611240565b610a6690610423926001600160a01b039062ffffff6040838351169360208401511692015116604051916020830193845260408301526060820152606081526112ae81610368565b51902060405190602082019260ff60f81b84526bffffffffffffffffffffffff199060601b16602183015260358201527f96e8ac4277198ff8b6f785478aa9a0214c77174e92164ea594d232537617417e60558201526055815261131181610368565b5190206001600160a01b031690565b600160ff1b8110156101905790565b3d1561135a573d90611340826103b5565b9161134e6040519384610384565b82523d6000602084013e565b606090565b90816020910312610190575180151581036101905790565b1561137e57565b60405162461bcd60e51b81526020600482015260026024820152612a2360f11b6044820152606490fdfea2646970667358221220e04f3f7e362ed1cfff13864d6e649642b059aa56393ef54a1d8c826ca1e6b13964736f6c63430008140033","opcodes":"PUSH1 0xC0 CALLVALUE PUSH2 0x8E JUMPI PUSH1 0x1F PUSH2 0x149C CODESIZE DUP2 SWAP1 SUB SWAP2 DUP3 ADD PUSH1 0x1F NOT AND DUP4 ADD SWAP2 PUSH1 0x1 PUSH1 0x1 PUSH1 0x40 SHL SUB DUP4 GT DUP5 DUP5 LT OR PUSH2 0x93 JUMPI DUP1 DUP5 SWAP3 PUSH1 0x40 SWAP5 DUP6 MSTORE DUP4 CODECOPY DUP2 ADD SUB SLT PUSH2 0x8E JUMPI PUSH2 0x52 PUSH1 0x20 PUSH2 0x4B DUP4 PUSH2 0xA9 JUMP JUMPDEST SWAP3 ADD PUSH2 0xA9 JUMP JUMPDEST SWAP1 PUSH1 0x80 MSTORE PUSH1 0xA0 MSTORE PUSH1 0x0 NOT PUSH1 0x0 SSTORE PUSH1 0x40 MLOAD PUSH2 0x13DE SWAP1 DUP2 PUSH2 0xBE DUP3 CODECOPY PUSH1 0x80 MLOAD DUP2 DUP2 DUP2 PUSH2 0x22F ADD MSTORE DUP2 DUP2 PUSH2 0x4EA ADD MSTORE PUSH2 0xA42 ADD MSTORE PUSH1 0xA0 MLOAD DUP2 PUSH2 0x52E ADD MSTORE RETURN JUMPDEST PUSH1 0x0 DUP1 REVERT JUMPDEST PUSH4 0x4E487B71 PUSH1 0xE0 SHL PUSH1 0x0 MSTORE PUSH1 0x41 PUSH1 0x4 MSTORE PUSH1 0x24 PUSH1 0x0 REVERT JUMPDEST MLOAD SWAP1 PUSH1 0x1 PUSH1 0x1 PUSH1 0xA0 SHL SUB DUP3 AND DUP3 SUB PUSH2 0x8E JUMPI JUMP INVALID PUSH1 0x80 PUSH1 0x40 MSTORE PUSH1 0x4 CALLDATASIZE LT ISZERO PUSH2 0x12 JUMPI PUSH1 0x0 DUP1 REVERT JUMPDEST PUSH1 0x0 CALLDATALOAD PUSH1 0xE0 SHR DUP1 PUSH4 0x414BF389 EQ PUSH2 0x87 JUMPI DUP1 PUSH4 0x988ABD20 EQ PUSH2 0x82 JUMPI DUP1 PUSH4 0xC04B8D59 EQ PUSH2 0x7D JUMPI DUP1 PUSH4 0xC45A0155 EQ PUSH2 0x78 JUMPI DUP1 PUSH4 0xD2D8D32F EQ PUSH2 0x73 JUMPI DUP1 PUSH4 0xDB3E2198 EQ PUSH2 0x6E JUMPI PUSH4 0xF28C0498 EQ PUSH2 0x69 JUMPI PUSH1 0x0 DUP1 REVERT JUMPDEST PUSH2 0x5F6 JUMP JUMPDEST PUSH2 0x552 JUMP JUMPDEST PUSH2 0x50E JUMP JUMPDEST PUSH2 0x4CA JUMP JUMPDEST PUSH2 0x437 JUMP JUMPDEST PUSH2 0x1A7 JUMP JUMPDEST PUSH2 0x100 CALLDATASIZE PUSH1 0x3 NOT ADD SLT PUSH2 0x190 JUMPI PUSH2 0x18C PUSH2 0xA0 CALLDATASIZE PUSH2 0x195 JUMP JUMPDEST PUSH2 0xB0 PUSH1 0x80 DUP3 ADD CALLDATALOAD TIMESTAMP GT ISZERO PUSH2 0x768 JUMP JUMPDEST PUSH2 0x17C PUSH1 0xC0 PUSH2 0x171 PUSH1 0x60 DUP5 ADD CALLDATALOAD PUSH2 0xC6 DUP2 PUSH2 0x426 JUMP JUMPDEST PUSH1 0xE0 DUP6 ADD CALLDATALOAD PUSH2 0xD4 DUP2 PUSH2 0x426 JUMP JUMPDEST DUP6 CALLDATALOAD SWAP2 PUSH2 0xE0 DUP4 PUSH2 0x426 JUMP JUMPDEST PUSH2 0x152 PUSH2 0xEF PUSH1 0x40 DUP10 ADD PUSH2 0x7B4 JUMP JUMPDEST SWAP4 PUSH2 0x144 PUSH1 0x20 DUP11 ADD CALLDATALOAD PUSH2 0x101 DUP2 PUSH2 0x426 JUMP JUMPDEST PUSH1 0x40 MLOAD SWAP7 DUP8 SWAP4 PUSH1 0x20 DUP6 ADD SWAP2 SWAP3 PUSH1 0x2B SWAP4 PUSH12 0xFFFFFFFFFFFFFFFFFFFFFFFF NOT DUP1 SWAP4 PUSH1 0x60 SHL AND DUP5 MSTORE PUSH3 0xFFFFFF PUSH1 0xE8 SHL SWAP1 PUSH1 0xE8 SHL AND PUSH1 0x14 DUP5 ADD MSTORE PUSH1 0x60 SHL AND PUSH1 0x17 DUP3 ADD MSTORE ADD SWAP1 JUMP JUMPDEST SUB PUSH1 0x1F NOT DUP2 ADD DUP6 MSTORE DUP5 PUSH2 0x384 JUMP JUMPDEST PUSH1 0x40 MLOAD SWAP3 PUSH2 0x15F DUP5 PUSH2 0x30F JUMP JUMPDEST DUP4 MSTORE CALLER PUSH1 0x20 DUP5 ADD MSTORE PUSH1 0xA0 DUP8 ADD CALLDATALOAD PUSH2 0xB58 JUMP JUMPDEST SWAP3 ADD CALLDATALOAD DUP3 LT ISZERO PUSH2 0x7C4 JUMP JUMPDEST PUSH1 0x40 MLOAD SWAP1 DUP2 MSTORE SWAP1 DUP2 SWAP1 PUSH1 0x20 DUP3 ADD SWAP1 JUMP JUMPDEST SUB SWAP1 RETURN JUMPDEST PUSH1 0x0 DUP1 REVERT JUMPDEST PUSH2 0x100 SWAP1 PUSH1 0x3 NOT ADD SLT PUSH2 0x190 JUMPI PUSH1 0x4 SWAP1 JUMP JUMPDEST CALLVALUE PUSH2 0x190 JUMPI PUSH1 0x60 CALLDATASIZE PUSH1 0x3 NOT ADD SLT PUSH2 0x190 JUMPI PUSH1 0x44 CALLDATALOAD PUSH1 0x24 CALLDATALOAD PUSH1 0x4 CALLDATALOAD PUSH8 0xFFFFFFFFFFFFFFFF DUP1 DUP5 GT PUSH2 0x190 JUMPI CALLDATASIZE PUSH1 0x23 DUP6 ADD SLT ISZERO PUSH2 0x190 JUMPI DUP4 PUSH1 0x4 ADD CALLDATALOAD SWAP1 DUP2 GT PUSH2 0x190 JUMPI DUP4 ADD PUSH1 0x24 ADD SWAP3 CALLDATASIZE DUP5 GT PUSH2 0x190 JUMPI PUSH2 0x253 PUSH2 0x21B PUSH1 0x0 SWAP6 PUSH1 0x24 DUP8 DUP7 SGT SWAP5 DUP6 DUP1 ISZERO PUSH2 0x2F0 JUMPI JUMPDEST PUSH2 0x215 SWAP1 PUSH2 0x6BA JUMP JUMPDEST ADD PUSH2 0x706 JUMP JUMPDEST SWAP4 PUSH2 0x226 DUP6 MLOAD PUSH2 0x1023 JUMP JUMPDEST DUP2 DUP4 SWAP7 SWAP4 SWAP6 SWAP3 SWAP6 PUSH32 0x0 PUSH2 0xFA8 JUMP JUMPDEST POP ISZERO PUSH2 0x2DA JUMPI POP PUSH1 0x1 PUSH1 0x1 PUSH1 0xA0 SHL SUB DUP1 DUP3 AND SWAP1 DUP4 AND LT JUMPDEST ISZERO PUSH2 0x291 JUMPI POP PUSH2 0x287 PUSH1 0x20 PUSH2 0x28E SWAP5 ADD MLOAD PUSH1 0x1 PUSH1 0x1 PUSH1 0xA0 SHL SUB AND SWAP1 JUMP JUMPDEST CALLER SWAP2 PUSH2 0xEDC JUMP JUMPDEST DUP1 RETURN JUMPDEST SWAP1 POP PUSH2 0x2A1 DUP4 MLOAD PUSH1 0x2B SWAP1 MLOAD LT ISZERO SWAP1 JUMP JUMPDEST ISZERO PUSH2 0x2C3 JUMPI POP SWAP1 PUSH2 0x2BF SWAP2 PUSH2 0x2B6 DUP3 MLOAD PUSH2 0x1125 JUMP JUMPDEST DUP3 MSTORE CALLER SWAP1 PUSH2 0xC5E JUMP JUMPDEST POP DUP1 RETURN JUMPDEST PUSH2 0x287 PUSH1 0x20 PUSH2 0x28E SWAP5 ADD MLOAD PUSH1 0x1 PUSH1 0x1 PUSH1 0xA0 SHL SUB AND SWAP1 JUMP JUMPDEST SWAP3 POP PUSH1 0x1 PUSH1 0x1 PUSH1 0xA0 SHL SUB DUP1 DUP4 AND SWAP1 DUP3 AND LT PUSH2 0x26A JUMP JUMPDEST POP DUP9 DUP9 SGT PUSH2 0x20C JUMP JUMPDEST PUSH4 0x4E487B71 PUSH1 0xE0 SHL PUSH1 0x0 MSTORE PUSH1 0x41 PUSH1 0x4 MSTORE PUSH1 0x24 PUSH1 0x0 REVERT JUMPDEST PUSH1 0x40 DUP2 ADD SWAP1 DUP2 LT PUSH8 0xFFFFFFFFFFFFFFFF DUP3 GT OR PUSH2 0x32B JUMPI PUSH1 0x40 MSTORE JUMP JUMPDEST PUSH2 0x2F9 JUMP JUMPDEST PUSH1 0xA0 DUP2 ADD SWAP1 DUP2 LT PUSH8 0xFFFFFFFFFFFFFFFF DUP3 GT OR PUSH2 0x32B JUMPI PUSH1 0x40 MSTORE JUMP JUMPDEST PUSH1 0x60 DUP2 ADD SWAP1 DUP2 LT PUSH8 0xFFFFFFFFFFFFFFFF DUP3 GT OR PUSH2 0x32B JUMPI PUSH1 0x40 MSTORE JUMP JUMPDEST PUSH1 0x80 DUP2 ADD SWAP1 DUP2 LT PUSH8 0xFFFFFFFFFFFFFFFF DUP3 GT OR PUSH2 0x32B JUMPI PUSH1 0x40 MSTORE JUMP JUMPDEST SWAP1 PUSH1 0x1F DUP1 NOT SWAP2 ADD AND DUP2 ADD SWAP1 DUP2 LT PUSH8 0xFFFFFFFFFFFFFFFF DUP3 GT OR PUSH2 0x32B JUMPI PUSH1 0x40 MSTORE JUMP JUMPDEST PUSH1 0x40 MLOAD SWAP1 PUSH2 0x3B3 DUP3 PUSH2 0x30F JUMP JUMPDEST JUMP JUMPDEST PUSH8 0xFFFFFFFFFFFFFFFF DUP2 GT PUSH2 0x32B JUMPI PUSH1 0x1F ADD PUSH1 0x1F NOT AND PUSH1 0x20 ADD SWAP1 JUMP JUMPDEST SWAP3 SWAP2 SWAP3 PUSH2 0x3DD DUP3 PUSH2 0x3B5 JUMP JUMPDEST SWAP2 PUSH2 0x3EB PUSH1 0x40 MLOAD SWAP4 DUP5 PUSH2 0x384 JUMP JUMPDEST DUP3 SWAP5 DUP2 DUP5 MSTORE DUP2 DUP4 ADD GT PUSH2 0x190 JUMPI DUP3 DUP2 PUSH1 0x20 SWAP4 DUP5 PUSH1 0x0 SWAP7 ADD CALLDATACOPY ADD ADD MSTORE JUMP JUMPDEST SWAP1 DUP1 PUSH1 0x1F DUP4 ADD SLT ISZERO PUSH2 0x190 JUMPI DUP2 PUSH1 0x20 PUSH2 0x423 SWAP4 CALLDATALOAD SWAP2 ADD PUSH2 0x3D1 JUMP JUMPDEST SWAP1 JUMP JUMPDEST PUSH1 0x1 PUSH1 0x1 PUSH1 0xA0 SHL SUB DUP2 AND SUB PUSH2 0x190 JUMPI JUMP JUMPDEST PUSH1 0x3 NOT PUSH1 0x20 CALLDATASIZE DUP3 ADD SLT PUSH2 0x190 JUMPI PUSH1 0x4 CALLDATALOAD PUSH8 0xFFFFFFFFFFFFFFFF SWAP2 DUP3 DUP3 GT PUSH2 0x190 JUMPI PUSH1 0xA0 SWAP1 DUP3 CALLDATASIZE SUB ADD SLT PUSH2 0x190 JUMPI PUSH1 0x40 MLOAD PUSH2 0x470 DUP2 PUSH2 0x330 JUMP JUMPDEST DUP2 PUSH1 0x4 ADD CALLDATALOAD SWAP3 DUP4 GT PUSH2 0x190 JUMPI PUSH1 0x84 PUSH2 0x17C SWAP3 PUSH2 0x495 PUSH2 0x18C SWAP6 PUSH1 0x4 CALLDATASIZE SWAP2 DUP5 ADD ADD PUSH2 0x408 JUMP JUMPDEST DUP4 MSTORE PUSH1 0x24 DUP2 ADD CALLDATALOAD PUSH2 0x4A5 DUP2 PUSH2 0x426 JUMP JUMPDEST PUSH1 0x20 DUP5 ADD MSTORE PUSH1 0x44 DUP2 ADD CALLDATALOAD PUSH1 0x40 DUP5 ADD MSTORE PUSH1 0x64 DUP2 ADD CALLDATALOAD PUSH1 0x60 DUP5 ADD MSTORE ADD CALLDATALOAD PUSH1 0x80 DUP3 ADD MSTORE PUSH2 0x810 JUMP JUMPDEST CALLVALUE PUSH2 0x190 JUMPI PUSH1 0x0 CALLDATASIZE PUSH1 0x3 NOT ADD SLT PUSH2 0x190 JUMPI PUSH1 0x20 PUSH1 0x40 MLOAD PUSH1 0x1 PUSH1 0x1 PUSH1 0xA0 SHL SUB PUSH32 0x0 AND DUP2 MSTORE RETURN JUMPDEST CALLVALUE PUSH2 0x190 JUMPI PUSH1 0x0 CALLDATASIZE PUSH1 0x3 NOT ADD SLT PUSH2 0x190 JUMPI PUSH1 0x20 PUSH1 0x40 MLOAD PUSH1 0x1 PUSH1 0x1 PUSH1 0xA0 SHL SUB PUSH32 0x0 AND DUP2 MSTORE RETURN JUMPDEST PUSH2 0x100 CALLDATASIZE PUSH1 0x3 NOT ADD SLT PUSH2 0x190 JUMPI PUSH2 0x18C PUSH2 0x56B CALLDATASIZE PUSH2 0x195 JUMP JUMPDEST PUSH2 0x57B PUSH1 0x80 DUP3 ADD CALLDATALOAD TIMESTAMP GT ISZERO PUSH2 0x768 JUMP JUMPDEST PUSH2 0x17C PUSH1 0xC0 PUSH2 0x5EB PUSH1 0x60 DUP5 ADD CALLDATALOAD PUSH2 0x591 DUP2 PUSH2 0x426 JUMP JUMPDEST PUSH1 0xE0 DUP6 ADD CALLDATALOAD PUSH2 0x59F DUP2 PUSH2 0x426 JUMP JUMPDEST PUSH1 0x20 DUP7 ADD CALLDATALOAD SWAP2 PUSH2 0x5AE DUP4 PUSH2 0x426 JUMP JUMPDEST PUSH2 0x5CC PUSH2 0x5BD PUSH1 0x40 DUP10 ADD PUSH2 0x7B4 JUMP JUMPDEST SWAP4 PUSH2 0x144 DUP10 CALLDATALOAD PUSH2 0x101 DUP2 PUSH2 0x426 JUMP JUMPDEST PUSH1 0x40 MLOAD SWAP3 PUSH2 0x5D9 DUP5 PUSH2 0x30F JUMP JUMPDEST DUP4 MSTORE CALLER PUSH1 0x20 DUP5 ADD MSTORE PUSH1 0xA0 DUP8 ADD CALLDATALOAD PUSH2 0xD89 JUMP JUMPDEST SWAP3 ADD CALLDATALOAD DUP3 GT ISZERO PUSH2 0x8BE JUMP JUMPDEST PUSH1 0x3 NOT PUSH1 0x20 CALLDATASIZE DUP3 ADD SLT PUSH2 0x190 JUMPI PUSH1 0x4 CALLDATALOAD PUSH8 0xFFFFFFFFFFFFFFFF DUP1 DUP3 GT PUSH2 0x190 JUMPI PUSH1 0xA0 DUP3 CALLDATASIZE SUB SWAP4 DUP5 ADD SLT PUSH2 0x190 JUMPI PUSH2 0x633 PUSH1 0x44 DUP4 ADD CALLDATALOAD TIMESTAMP GT ISZERO PUSH2 0x768 JUMP JUMPDEST PUSH1 0x24 DUP3 ADD CALLDATALOAD SWAP3 PUSH2 0x642 DUP5 PUSH2 0x426 JUMP JUMPDEST PUSH1 0x4 DUP4 ADD CALLDATALOAD SWAP1 PUSH1 0x22 NOT ADD DUP2 SLT ISZERO PUSH2 0x190 JUMPI DUP3 ADD PUSH1 0x4 DUP2 ADD CALLDATALOAD SWAP2 DUP3 GT PUSH2 0x190 JUMPI PUSH1 0x24 ADD SWAP1 DUP1 CALLDATASIZE SUB DUP3 SGT PUSH2 0x190 JUMPI PUSH2 0x18C SWAP4 PUSH2 0x689 PUSH2 0x69B SWAP4 PUSH2 0x681 PUSH2 0x3A6 JUMP JUMPDEST SWAP4 CALLDATASIZE SWAP2 PUSH2 0x3D1 JUMP JUMPDEST DUP3 MSTORE CALLER PUSH1 0x20 DUP4 ADD MSTORE PUSH1 0x64 DUP5 ADD CALLDATALOAD PUSH2 0xC5E JUMP JUMPDEST POP PUSH2 0x6AF PUSH1 0x84 PUSH1 0x0 SLOAD SWAP3 ADD CALLDATALOAD DUP3 GT ISZERO PUSH2 0x8BE JUMP JUMPDEST PUSH1 0x0 NOT PUSH1 0x0 SSTORE PUSH2 0x17C JUMP JUMPDEST ISZERO PUSH2 0x6C1 JUMPI JUMP JUMPDEST PUSH1 0x40 MLOAD PUSH3 0x461BCD PUSH1 0xE5 SHL DUP2 MSTORE PUSH1 0x20 PUSH1 0x4 DUP3 ADD MSTORE PUSH1 0x16 PUSH1 0x24 DUP3 ADD MSTORE PUSH32 0x53776170526F757465723A205A45524F5F44454C544100000000000000000000 PUSH1 0x44 DUP3 ADD MSTORE PUSH1 0x64 SWAP1 REVERT JUMPDEST SWAP1 PUSH1 0x20 DUP3 DUP3 SUB SLT PUSH2 0x190 JUMPI DUP2 CALLDATALOAD PUSH8 0xFFFFFFFFFFFFFFFF SWAP3 DUP4 DUP3 GT PUSH2 0x190 JUMPI ADD PUSH1 0x40 DUP2 DUP4 SUB SLT PUSH2 0x190 JUMPI PUSH1 0x40 MLOAD SWAP3 PUSH2 0x73C DUP5 PUSH2 0x30F JUMP JUMPDEST DUP2 CALLDATALOAD SWAP1 DUP2 GT PUSH2 0x190 JUMPI PUSH1 0x20 SWAP3 PUSH2 0x753 SWAP2 DUP4 ADD PUSH2 0x408 JUMP JUMPDEST DUP4 MSTORE ADD CALLDATALOAD PUSH2 0x760 DUP2 PUSH2 0x426 JUMP JUMPDEST PUSH1 0x20 DUP3 ADD MSTORE SWAP1 JUMP JUMPDEST ISZERO PUSH2 0x76F JUMPI JUMP JUMPDEST PUSH1 0x40 MLOAD PUSH3 0x461BCD PUSH1 0xE5 SHL DUP2 MSTORE PUSH1 0x20 PUSH1 0x4 DUP3 ADD MSTORE PUSH1 0x13 PUSH1 0x24 DUP3 ADD MSTORE PUSH32 0x5472616E73616374696F6E20746F6F206F6C6400000000000000000000000000 PUSH1 0x44 DUP3 ADD MSTORE PUSH1 0x64 SWAP1 REVERT JUMPDEST CALLDATALOAD PUSH3 0xFFFFFF DUP2 AND DUP2 SUB PUSH2 0x190 JUMPI SWAP1 JUMP JUMPDEST ISZERO PUSH2 0x7CB JUMPI JUMP JUMPDEST PUSH1 0x40 MLOAD PUSH3 0x461BCD PUSH1 0xE5 SHL DUP2 MSTORE PUSH1 0x20 PUSH1 0x4 DUP3 ADD MSTORE PUSH1 0x1F PUSH1 0x24 DUP3 ADD MSTORE PUSH32 0x53776170526F757465723A20494E53554646494349454E545F4F555450555400 PUSH1 0x44 DUP3 ADD MSTORE PUSH1 0x64 SWAP1 REVERT JUMPDEST PUSH2 0x820 PUSH1 0x40 DUP3 ADD MLOAD TIMESTAMP GT ISZERO PUSH2 0x768 JUMP JUMPDEST PUSH1 0x0 CALLER JUMPDEST DUP3 MLOAD SWAP1 PUSH2 0x86E PUSH1 0x2B DUP4 MLOAD LT ISZERO SWAP2 PUSH1 0x60 DUP7 ADD SWAP4 DUP5 MLOAD DUP5 PUSH1 0x0 EQ PUSH2 0x89E JUMPI PUSH2 0x869 PUSH2 0x84D ADDRESS SWAP4 PUSH2 0x10DA JUMP JUMPDEST SWAP4 PUSH2 0x856 PUSH2 0x3A6 JUMP JUMPDEST SWAP5 DUP6 MSTORE PUSH1 0x1 PUSH1 0x1 PUSH1 0xA0 SHL SUB AND PUSH1 0x20 DUP6 ADD MSTORE JUMP JUMPDEST PUSH2 0x9FC JUMP JUMPDEST DUP1 SWAP3 MSTORE PUSH1 0x0 EQ PUSH2 0x88B JUMPI POP ADDRESS PUSH2 0x884 DUP4 MLOAD PUSH2 0x1125 JUMP JUMPDEST DUP4 MSTORE PUSH2 0x824 JUMP JUMPDEST PUSH2 0x423 SWAP2 POP PUSH1 0x80 SWAP1 SWAP3 ADD MLOAD DUP3 LT ISZERO PUSH2 0x7C4 JUMP JUMPDEST PUSH2 0x869 PUSH2 0x84D PUSH2 0x8B8 PUSH1 0x20 DUP12 ADD MLOAD PUSH1 0x1 PUSH1 0x1 PUSH1 0xA0 SHL SUB AND SWAP1 JUMP JUMPDEST SWAP4 PUSH2 0x10DA JUMP JUMPDEST ISZERO PUSH2 0x8C5 JUMPI JUMP JUMPDEST PUSH1 0x40 MLOAD PUSH3 0x461BCD PUSH1 0xE5 SHL DUP2 MSTORE PUSH1 0x20 PUSH1 0x4 DUP3 ADD MSTORE PUSH1 0x1B PUSH1 0x24 DUP3 ADD MSTORE PUSH32 0x53776170526F757465723A204558434553534956455F494E5055540000000000 PUSH1 0x44 DUP3 ADD MSTORE PUSH1 0x64 SWAP1 REVERT JUMPDEST PUSH4 0x4E487B71 PUSH1 0xE0 SHL PUSH1 0x0 MSTORE PUSH1 0x11 PUSH1 0x4 MSTORE PUSH1 0x24 PUSH1 0x0 REVERT JUMPDEST SWAP2 SWAP1 DUP3 MLOAD SWAP3 DUP4 DUP3 MSTORE PUSH1 0x0 JUMPDEST DUP5 DUP2 LT PUSH2 0x94C JUMPI POP POP DUP3 PUSH1 0x0 PUSH1 0x20 DUP1 SWAP5 SWAP6 DUP5 ADD ADD MSTORE PUSH1 0x1F DUP1 NOT SWAP2 ADD AND ADD ADD SWAP1 JUMP JUMPDEST PUSH1 0x20 DUP2 DUP4 ADD DUP2 ADD MLOAD DUP5 DUP4 ADD DUP3 ADD MSTORE ADD PUSH2 0x92B JUMP JUMPDEST PUSH1 0x20 DUP2 MSTORE PUSH1 0x40 PUSH1 0x1 PUSH1 0x1 PUSH1 0xA0 SHL SUB PUSH1 0x20 PUSH2 0x984 DUP6 MLOAD DUP5 DUP4 DUP8 ADD MSTORE PUSH1 0x60 DUP7 ADD SWAP1 PUSH2 0x920 JUMP JUMPDEST SWAP5 ADD MLOAD AND SWAP2 ADD MSTORE SWAP1 JUMP JUMPDEST SWAP2 SWAP1 DUP3 PUSH1 0x40 SWAP2 SUB SLT PUSH2 0x190 JUMPI PUSH1 0x20 DUP3 MLOAD SWAP3 ADD MLOAD SWAP1 JUMP JUMPDEST SWAP2 SWAP4 PUSH1 0xA0 SWAP4 PUSH2 0x423 SWAP7 SWAP6 PUSH1 0x1 PUSH1 0x1 PUSH1 0xA0 SHL SUB DUP1 SWAP5 AND DUP6 MSTORE ISZERO ISZERO PUSH1 0x20 DUP6 ADD MSTORE PUSH1 0x40 DUP5 ADD MSTORE AND PUSH1 0x60 DUP3 ADD MSTORE DUP2 PUSH1 0x80 DUP3 ADD MSTORE ADD SWAP1 PUSH2 0x920 JUMP JUMPDEST PUSH1 0x40 MLOAD RETURNDATASIZE PUSH1 0x0 DUP3 RETURNDATACOPY RETURNDATASIZE SWAP1 REVERT JUMPDEST PUSH1 0x1 PUSH1 0xFF SHL DUP2 EQ PUSH2 0x9F7 JUMPI PUSH1 0x0 SUB SWAP1 JUMP JUMPDEST PUSH2 0x90A JUMP JUMPDEST PUSH1 0x1 PUSH1 0x1 PUSH1 0xA0 SHL SUB SWAP3 SWAP2 PUSH1 0x40 SWAP2 DUP5 DUP3 AND ISZERO PUSH2 0xB50 JUMPI JUMPDEST DUP5 PUSH1 0x0 PUSH2 0xA78 PUSH2 0xA72 PUSH2 0xA66 PUSH2 0xA66 PUSH2 0xA40 PUSH2 0xA2E DUP12 MLOAD PUSH2 0x1023 JUMP JUMPDEST SWAP2 SWAP9 DUP2 SWAP15 SWAP2 AND SWAP1 DUP10 AND LT SWAP13 DUP14 SWAP9 PUSH2 0x120B JUMP JUMPDEST PUSH32 0x0 PUSH2 0x1266 JUMP JUMPDEST PUSH1 0x1 PUSH1 0x1 PUSH1 0xA0 SHL SUB AND SWAP1 JUMP JUMPDEST SWAP4 PUSH2 0x1320 JUMP JUMPDEST SWAP4 DUP3 DUP3 EQ PUSH2 0xB2C JUMPI PUSH2 0xAC9 PUSH2 0xA9F PUSH2 0xAAD PUSH5 0x1000276A4 SWAP10 JUMPDEST DUP10 MLOAD SWAP3 DUP4 SWAP2 PUSH1 0x20 DUP4 ADD PUSH2 0x960 JUMP JUMPDEST SUB PUSH1 0x1F NOT DUP2 ADD DUP4 MSTORE DUP3 PUSH2 0x384 JUMP JUMPDEST DUP8 MLOAD PUSH4 0x2515961 PUSH1 0xE3 SHL DUP2 MSTORE SWAP9 DUP10 SWAP8 DUP9 SWAP7 DUP8 SWAP6 PUSH1 0x4 DUP8 ADD PUSH2 0x9A4 JUMP JUMPDEST SUB SWAP3 GAS CALL SWAP1 DUP2 ISZERO PUSH2 0xB27 JUMPI PUSH2 0x423 SWAP3 PUSH1 0x0 SWAP2 DUP3 SWAP4 PUSH2 0xAF5 JUMPI JUMPDEST POP ISZERO PUSH2 0xAEE JUMPI POP PUSH2 0x9E6 JUMP JUMPDEST SWAP1 POP PUSH2 0x9E6 JUMP JUMPDEST SWAP1 SWAP3 POP PUSH2 0xB19 SWAP2 POP PUSH1 0x40 RETURNDATASIZE DUP2 GT PUSH2 0xB20 JUMPI JUMPDEST PUSH2 0xB11 DUP2 DUP4 PUSH2 0x384 JUMP JUMPDEST DUP2 ADD SWAP1 PUSH2 0x98E JUMP JUMPDEST SWAP2 CODESIZE PUSH2 0xAE2 JUMP JUMPDEST POP RETURNDATASIZE PUSH2 0xB07 JUMP JUMPDEST PUSH2 0x9DA JUMP JUMPDEST PUSH2 0xAC9 PUSH2 0xA9F PUSH2 0xAAD PUSH20 0xFFFD8963EFD1FC6A506488495D951D5263988D25 SWAP10 PUSH2 0xA91 JUMP JUMPDEST ADDRESS SWAP2 POP PUSH2 0xA12 JUMP JUMPDEST SWAP2 PUSH1 0x40 SWAP2 SWAP4 SWAP3 PUSH2 0xA40 PUSH1 0x0 PUSH1 0x1 PUSH1 0x1 PUSH1 0xA0 SHL SUB SWAP7 DUP8 SWAP5 DUP6 DUP3 AND ISZERO PUSH2 0xC0A JUMPI JUMPDEST PUSH2 0xBA6 PUSH2 0xBA0 PUSH2 0xA66 PUSH2 0xA66 PUSH2 0xB8D DUP13 MLOAD PUSH2 0x1023 JUMP JUMPDEST SWAP1 SWAP15 DUP16 SWAP11 SWAP3 SWAP11 AND DUP13 DUP12 AND LT SWAP15 DUP16 SWAP11 PUSH2 0x120B JUMP JUMPDEST SWAP6 PUSH2 0x1320 JUMP JUMPDEST SWAP6 DUP2 AND ISZERO DUP4 EQ PUSH2 0xBFA JUMPI POP DUP3 DUP3 EQ PUSH2 0xBD7 JUMPI PUSH2 0xAC9 PUSH2 0xA9F PUSH2 0xAAD PUSH5 0x1000276A4 JUMPDEST SWAP10 DUP10 MLOAD SWAP3 DUP4 SWAP2 PUSH1 0x20 DUP4 ADD PUSH2 0x960 JUMP JUMPDEST PUSH2 0xAC9 PUSH2 0xA9F PUSH2 0xAAD PUSH20 0xFFFD8963EFD1FC6A506488495D951D5263988D25 PUSH2 0xBC8 JUMP JUMPDEST PUSH2 0xA9F PUSH2 0xAAD PUSH2 0xAC9 SWAP3 SWAP10 PUSH2 0xA91 JUMP JUMPDEST ADDRESS SWAP2 POP PUSH2 0xB77 JUMP JUMPDEST ISZERO PUSH2 0xC19 JUMPI JUMP JUMPDEST PUSH1 0x40 MLOAD PUSH3 0x461BCD PUSH1 0xE5 SHL DUP2 MSTORE PUSH1 0x20 PUSH1 0x4 DUP3 ADD MSTORE PUSH1 0x1A PUSH1 0x24 DUP3 ADD MSTORE PUSH32 0x53776170526F757465723A20494E56414C49445F414D4F554E54000000000000 PUSH1 0x44 DUP3 ADD MSTORE PUSH1 0x64 SWAP1 REVERT JUMPDEST SWAP3 SWAP2 SWAP1 PUSH1 0x1 PUSH1 0x1 PUSH1 0xA0 SHL SUB SWAP1 DUP2 DUP2 AND ISZERO PUSH2 0xD82 JUMPI JUMPDEST PUSH1 0x40 SWAP1 PUSH2 0xC9C PUSH2 0xA66 PUSH2 0xA66 PUSH2 0xA40 PUSH2 0xC8C DUP9 MLOAD PUSH2 0x1023 JUMP JUMPDEST SWAP2 SWAP1 SWAP9 DUP1 DUP3 AND SWAP1 DUP11 AND LT SWAP9 PUSH2 0x120B JUMP JUMPDEST DUP4 PUSH1 0x0 PUSH2 0xCB0 PUSH2 0xCAB DUP11 PUSH2 0x1320 JUMP JUMPDEST PUSH2 0x9E6 JUMP JUMPDEST SWAP4 DUP3 DUP3 EQ PUSH2 0xD5E JUMPI PUSH2 0xCF2 PUSH2 0xA9F PUSH2 0xCD6 PUSH5 0x1000276A4 SWAP11 DUP10 MLOAD SWAP3 DUP4 SWAP2 PUSH1 0x20 DUP4 ADD PUSH2 0x960 JUMP JUMPDEST DUP8 MLOAD PUSH4 0x2515961 PUSH1 0xE3 SHL DUP2 MSTORE SWAP10 DUP11 SWAP8 DUP9 SWAP7 DUP8 SWAP6 PUSH1 0x4 DUP8 ADD PUSH2 0x9A4 JUMP JUMPDEST SUB SWAP3 GAS CALL SWAP1 DUP2 ISZERO PUSH2 0xB27 JUMPI PUSH1 0x0 SWAP3 DUP4 SWAP3 PUSH2 0xD3B JUMPI JUMPDEST POP ISZERO PUSH2 0xD28 JUMPI PUSH2 0xD19 PUSH2 0xD23 SWAP2 PUSH2 0x9E6 JUMP JUMPDEST SWAP4 JUMPDEST DUP3 SWAP5 EQ PUSH2 0xC12 JUMP JUMPDEST PUSH1 0x0 SSTORE JUMP JUMPDEST SWAP1 PUSH2 0xD35 PUSH2 0xD23 SWAP2 PUSH2 0x9E6 JUMP JUMPDEST SWAP4 PUSH2 0xD1B JUMP JUMPDEST SWAP1 SWAP3 POP PUSH2 0xD56 SWAP2 POP PUSH1 0x40 RETURNDATASIZE DUP2 GT PUSH2 0xB20 JUMPI PUSH2 0xB11 DUP2 DUP4 PUSH2 0x384 JUMP JUMPDEST SWAP1 SWAP2 CODESIZE PUSH2 0xD07 JUMP JUMPDEST PUSH2 0xCF2 PUSH2 0xA9F PUSH2 0xCD6 PUSH20 0xFFFD8963EFD1FC6A506488495D951D5263988D25 SWAP11 PUSH2 0xA91 JUMP JUMPDEST POP ADDRESS PUSH2 0xC73 JUMP JUMPDEST SWAP1 PUSH1 0x40 PUSH2 0xA66 SWAP2 SWAP6 SWAP5 SWAP4 SWAP6 PUSH1 0x1 PUSH1 0x1 PUSH1 0xA0 SHL SUB SWAP1 DUP2 DUP2 AND ISZERO PUSH2 0xED5 JUMPI JUMPDEST PUSH2 0xA40 PUSH1 0x0 PUSH2 0xDCE PUSH2 0xA66 PUSH2 0xDBB DUP11 MLOAD PUSH2 0x1023 JUMP JUMPDEST DUP3 DUP10 AND DUP3 DUP11 AND LT SWAP11 DUP12 SWAP8 SWAP1 SWAP4 SWAP1 SWAP3 PUSH2 0x120B JUMP JUMPDEST SWAP3 PUSH2 0xDDB PUSH2 0xCAB DUP10 PUSH2 0x1320 JUMP JUMPDEST SWAP5 DUP12 AND ISZERO SWAP11 DUP12 DUP4 EQ PUSH2 0xEC5 JUMPI POP DUP3 DUP3 EQ PUSH2 0xEA2 JUMPI PUSH2 0xE2A PUSH2 0xA9F PUSH2 0xE0E PUSH5 0x1000276A4 JUMPDEST SWAP12 DUP10 MLOAD SWAP3 DUP4 SWAP2 PUSH1 0x20 DUP4 ADD PUSH2 0x960 JUMP JUMPDEST DUP8 MLOAD PUSH4 0x2515961 PUSH1 0xE3 SHL DUP2 MSTORE SWAP11 DUP12 SWAP8 DUP9 SWAP7 DUP8 SWAP6 PUSH1 0x4 DUP8 ADD PUSH2 0x9A4 JUMP JUMPDEST SUB SWAP3 GAS CALL SWAP1 DUP2 ISZERO PUSH2 0xB27 JUMPI PUSH1 0x0 SWAP4 DUP5 SWAP3 PUSH2 0xE7F JUMPI JUMPDEST POP ISZERO PUSH2 0xE6F JUMPI PUSH2 0xE4E SWAP1 PUSH2 0x9E6 JUMP JUMPDEST SWAP1 JUMPDEST DUP3 SWAP5 PUSH2 0xE5E JUMPI JUMPDEST POP POP PUSH1 0x0 SSTORE JUMP JUMPDEST PUSH2 0xE68 SWAP2 EQ PUSH2 0xC12 JUMP JUMPDEST CODESIZE DUP1 PUSH2 0xE57 JUMP JUMPDEST SWAP2 PUSH2 0xE79 SWAP1 PUSH2 0x9E6 JUMP JUMPDEST SWAP1 PUSH2 0xE50 JUMP JUMPDEST SWAP1 SWAP4 POP PUSH2 0xE9A SWAP2 POP PUSH1 0x40 RETURNDATASIZE DUP2 GT PUSH2 0xB20 JUMPI PUSH2 0xB11 DUP2 DUP4 PUSH2 0x384 JUMP JUMPDEST SWAP1 SWAP3 CODESIZE PUSH2 0xE3F JUMP JUMPDEST PUSH2 0xE2A PUSH2 0xA9F PUSH2 0xE0E PUSH20 0xFFFD8963EFD1FC6A506488495D951D5263988D25 PUSH2 0xDFF JUMP JUMPDEST PUSH2 0xA9F PUSH2 0xE0E PUSH2 0xE2A SWAP3 SWAP12 PUSH2 0xA91 JUMP JUMPDEST POP ADDRESS PUSH2 0xDA6 JUMP JUMPDEST SWAP3 PUSH1 0x1 PUSH1 0x1 PUSH1 0xA0 SHL SUB SWAP2 DUP3 AND ADDRESS DUP2 SUB PUSH2 0xF6D JUMPI POP SWAP3 PUSH1 0x0 SWAP3 DUP4 DUP1 SWAP4 PUSH2 0x3B3 SWAP7 PUSH1 0x40 MLOAD SWAP2 PUSH1 0x20 DUP4 ADD SWAP5 PUSH4 0xA9059CBB PUSH1 0xE0 SHL DUP7 MSTORE AND PUSH1 0x24 DUP4 ADD MSTORE PUSH1 0x44 DUP3 ADD MSTORE PUSH1 0x44 DUP2 MSTORE PUSH2 0xF26 DUP2 PUSH2 0x368 JUMP JUMPDEST MLOAD SWAP3 GAS CALL PUSH2 0xF32 PUSH2 0x132F JUMP JUMPDEST DUP2 PUSH2 0xF3E JUMPI JUMPDEST POP PUSH2 0x1377 JUMP JUMPDEST DUP1 MLOAD DUP1 ISZERO SWAP3 POP DUP3 ISZERO PUSH2 0xF53 JUMPI JUMPDEST POP POP CODESIZE PUSH2 0xF38 JUMP JUMPDEST PUSH2 0xF66 SWAP3 POP PUSH1 0x20 DUP1 SWAP2 DUP4 ADD ADD SWAP2 ADD PUSH2 0x135F JUMP JUMPDEST CODESIZE DUP1 PUSH2 0xF4B JUMP JUMPDEST PUSH1 0x0 DUP1 SWAP5 PUSH2 0x3B3 SWAP7 SWAP4 DUP3 SWAP6 PUSH1 0x40 MLOAD SWAP3 PUSH1 0x20 DUP5 ADD SWAP6 PUSH4 0x23B872DD PUSH1 0xE0 SHL DUP8 MSTORE PUSH1 0x24 DUP6 ADD MSTORE AND PUSH1 0x44 DUP4 ADD MSTORE PUSH1 0x64 DUP3 ADD MSTORE PUSH1 0x64 DUP2 MSTORE PUSH2 0xF26 DUP2 PUSH2 0x330 JUMP JUMPDEST SWAP1 PUSH1 0x1 PUSH1 0x1 PUSH1 0xA0 SHL SUB SWAP4 PUSH2 0xFC5 SWAP4 PUSH2 0xFBF SWAP3 PUSH2 0x120B JUMP JUMPDEST SWAP1 PUSH2 0x1266 JUMP JUMPDEST AND SWAP1 DUP2 CALLER SUB PUSH2 0xFD0 JUMPI JUMP JUMPDEST PUSH1 0x40 MLOAD PUSH3 0x461BCD PUSH1 0xE5 SHL DUP2 MSTORE PUSH1 0x20 PUSH1 0x4 DUP3 ADD MSTORE PUSH1 0x10 PUSH1 0x24 DUP3 ADD MSTORE PUSH32 0x496E76616C69642063616C6C6261636B00000000000000000000000000000000 PUSH1 0x44 DUP3 ADD MSTORE PUSH1 0x64 SWAP1 REVERT JUMPDEST PUSH1 0x17 ADD SWAP1 DUP2 PUSH1 0x17 GT PUSH2 0x9F7 JUMPI JUMP JUMPDEST SWAP1 PUSH1 0x14 DUP3 MLOAD LT PUSH2 0x1095 JUMPI PUSH1 0x20 DUP3 ADD MLOAD PUSH1 0x60 SHR SWAP2 PUSH1 0x17 DUP2 MLOAD LT PUSH2 0x1050 JUMPI PUSH2 0x104D PUSH1 0x17 DUP3 ADD MLOAD SWAP2 PUSH2 0x11AC JUMP JUMPDEST SWAP2 JUMP JUMPDEST PUSH1 0x40 MLOAD PUSH3 0x461BCD PUSH1 0xE5 SHL DUP2 MSTORE PUSH1 0x20 PUSH1 0x4 DUP3 ADD MSTORE PUSH1 0x14 PUSH1 0x24 DUP3 ADD MSTORE PUSH32 0x55696E743234206F7574206F6620626F756E6473000000000000000000000000 PUSH1 0x44 DUP3 ADD MSTORE PUSH1 0x64 SWAP1 REVERT JUMPDEST PUSH1 0x40 MLOAD PUSH3 0x461BCD PUSH1 0xE5 SHL DUP2 MSTORE PUSH1 0x20 PUSH1 0x4 DUP3 ADD MSTORE PUSH1 0x15 PUSH1 0x24 DUP3 ADD MSTORE PUSH32 0x41646472657373206F7574206F6620626F756E64730000000000000000000000 PUSH1 0x44 DUP3 ADD MSTORE PUSH1 0x64 SWAP1 REVERT JUMPDEST PUSH2 0x10E8 PUSH1 0x2B DUP3 MLOAD LT ISZERO PUSH2 0x11BF JUMP JUMPDEST PUSH1 0x40 MLOAD SWAP1 PUSH1 0xB DUP1 DUP4 ADD SWAP2 ADD PUSH1 0x36 DUP4 ADD JUMPDEST DUP1 DUP4 LT PUSH2 0x1112 JUMPI POP POP PUSH1 0x2B DUP3 MSTORE PUSH1 0x1F ADD PUSH1 0x1F NOT AND PUSH1 0x40 MSTORE SWAP1 JUMP JUMPDEST SWAP1 SWAP2 DUP3 MLOAD DUP2 MSTORE PUSH1 0x20 DUP1 SWAP2 ADD SWAP3 ADD SWAP1 PUSH2 0x10F8 JUMP JUMPDEST DUP1 MLOAD PUSH1 0x16 NOT SWAP2 DUP3 DUP3 ADD SWAP1 DUP3 DUP3 GT PUSH2 0x9F7 JUMPI PUSH2 0x114B DUP2 MLOAD PUSH2 0x1144 DUP5 PUSH2 0x1015 JUMP JUMPDEST GT ISZERO PUSH2 0x11BF JUMP JUMPDEST DUP2 PUSH2 0x1165 JUMPI POP POP POP POP PUSH1 0x40 MLOAD PUSH1 0x0 DUP2 MSTORE PUSH1 0x20 DUP2 ADD PUSH1 0x40 MSTORE SWAP1 JUMP JUMPDEST PUSH1 0x40 MLOAD SWAP4 PUSH1 0x1F DUP4 AND DUP1 ISZERO PUSH1 0x5 SHL SWAP2 DUP3 DUP3 DUP9 ADD ADD SWAP6 DUP7 ADD ADD SWAP3 ADD ADD SWAP1 JUMPDEST DUP1 DUP5 LT PUSH2 0x1199 JUMPI POP POP DUP3 MSTORE PUSH1 0x1F ADD PUSH1 0x1F NOT AND PUSH1 0x40 MSTORE SWAP1 JUMP JUMPDEST SWAP1 SWAP3 DUP4 MLOAD DUP2 MSTORE PUSH1 0x20 DUP1 SWAP2 ADD SWAP4 ADD SWAP1 PUSH2 0x1181 JUMP JUMPDEST PUSH1 0x2B DUP2 MLOAD LT PUSH2 0x1095 JUMPI PUSH1 0x37 ADD MLOAD PUSH1 0x60 SHR SWAP1 JUMP JUMPDEST ISZERO PUSH2 0x11C6 JUMPI JUMP JUMPDEST PUSH1 0x40 MLOAD PUSH3 0x461BCD PUSH1 0xE5 SHL DUP2 MSTORE PUSH1 0x20 PUSH1 0x4 DUP3 ADD MSTORE PUSH1 0x13 PUSH1 0x24 DUP3 ADD MSTORE PUSH32 0x536C696365206F7574206F6620626F756E647300000000000000000000000000 PUSH1 0x44 DUP3 ADD MSTORE PUSH1 0x64 SWAP1 REVERT JUMPDEST SWAP2 PUSH3 0xFFFFFF SWAP2 PUSH1 0x0 PUSH1 0x40 DUP1 MLOAD PUSH2 0x1220 DUP2 PUSH2 0x34C JUMP JUMPDEST DUP3 DUP2 MSTORE DUP3 PUSH1 0x20 DUP3 ADD MSTORE ADD MSTORE PUSH1 0x1 PUSH1 0x1 PUSH1 0xA0 SHL SUB SWAP1 DUP2 DUP2 AND DUP3 DUP7 AND GT PUSH2 0x1260 JUMPI JUMPDEST DUP2 PUSH1 0x40 MLOAD SWAP6 PUSH2 0x124E DUP8 PUSH2 0x34C JUMP JUMPDEST AND DUP6 MSTORE AND PUSH1 0x20 DUP5 ADD MSTORE AND PUSH1 0x40 DUP3 ADD MSTORE SWAP1 JUMP JUMPDEST SWAP4 PUSH2 0x1240 JUMP JUMPDEST PUSH2 0xA66 SWAP1 PUSH2 0x423 SWAP3 PUSH1 0x1 PUSH1 0x1 PUSH1 0xA0 SHL SUB SWAP1 PUSH3 0xFFFFFF PUSH1 0x40 DUP4 DUP4 MLOAD AND SWAP4 PUSH1 0x20 DUP5 ADD MLOAD AND SWAP3 ADD MLOAD AND PUSH1 0x40 MLOAD SWAP2 PUSH1 0x20 DUP4 ADD SWAP4 DUP5 MSTORE PUSH1 0x40 DUP4 ADD MSTORE PUSH1 0x60 DUP3 ADD MSTORE PUSH1 0x60 DUP2 MSTORE PUSH2 0x12AE DUP2 PUSH2 0x368 JUMP JUMPDEST MLOAD SWAP1 KECCAK256 PUSH1 0x40 MLOAD SWAP1 PUSH1 0x20 DUP3 ADD SWAP3 PUSH1 0xFF PUSH1 0xF8 SHL DUP5 MSTORE PUSH12 0xFFFFFFFFFFFFFFFFFFFFFFFF NOT SWAP1 PUSH1 0x60 SHL AND PUSH1 0x21 DUP4 ADD MSTORE PUSH1 0x35 DUP3 ADD MSTORE PUSH32 0x96E8AC4277198FF8B6F785478AA9A0214C77174E92164EA594D232537617417E PUSH1 0x55 DUP3 ADD MSTORE PUSH1 0x55 DUP2 MSTORE PUSH2 0x1311 DUP2 PUSH2 0x368 JUMP JUMPDEST MLOAD SWAP1 KECCAK256 PUSH1 0x1 PUSH1 0x1 PUSH1 0xA0 SHL SUB AND SWAP1 JUMP JUMPDEST PUSH1 0x1 PUSH1 0xFF SHL DUP2 LT ISZERO PUSH2 0x190 JUMPI SWAP1 JUMP JUMPDEST RETURNDATASIZE ISZERO PUSH2 0x135A JUMPI RETURNDATASIZE SWAP1 PUSH2 0x1340 DUP3 PUSH2 0x3B5 JUMP JUMPDEST SWAP2 PUSH2 0x134E PUSH1 0x40 MLOAD SWAP4 DUP5 PUSH2 0x384 JUMP JUMPDEST DUP3 MSTORE RETURNDATASIZE PUSH1 0x0 PUSH1 0x20 DUP5 ADD RETURNDATACOPY JUMP JUMPDEST PUSH1 0x60 SWAP1 JUMP JUMPDEST SWAP1 DUP2 PUSH1 0x20 SWAP2 SUB SLT PUSH2 0x190 JUMPI MLOAD DUP1 ISZERO ISZERO DUP2 SUB PUSH2 0x190 JUMPI SWAP1 JUMP JUMPDEST ISZERO PUSH2 0x137E JUMPI JUMP JUMPDEST PUSH1 0x40 MLOAD PUSH3 0x461BCD PUSH1 0xE5 SHL DUP2 MSTORE PUSH1 0x20 PUSH1 0x4 DUP3 ADD MSTORE PUSH1 0x2 PUSH1 0x24 DUP3 ADD MSTORE PUSH2 0x2A23 PUSH1 0xF1 SHL PUSH1 0x44 DUP3 ADD MSTORE PUSH1 0x64 SWAP1 REVERT INVALID LOG2 PUSH5 0x6970667358 0x22 SLT KECCAK256 0xE0 0x4F EXTCODEHASH PUSH31 0x362ED1CFFF13864D6E649642B059AA56393EF54A1D8C826CA1E6B13964736F PUSH13 0x63430008140033000000000000 "},"methodIdentifiers":{"WDNR()":"d2d8d32f","exactInput((bytes,address,uint256,uint256,uint256))":"c04b8d59","exactInputSingle((address,address,uint24,address,uint256,uint256,uint256,uint160))":"414bf389","exactOutput((bytes,address,uint256,uint256,uint256))":"f28c0498","exactOutputSingle((address,address,uint24,address,uint256,uint256,uint256,uint160))":"db3e2198","factory()":"c45a0155","kortanaSwapCallback(int256,int256,bytes)":"988abd20"}}}}}