{
  "_format": "hh-sol-artifact-1",
  "contractName": "KortanaLicenseNFT",
  "sourceName": "contracts/KortanaLicenseNFT.sol",
  "abi": [
    {
      "inputs": [],
      "stateMutability": "nonpayable",
      "type": "constructor"
    },
    {
      "inputs": [
        {
          "internalType": "address",
          "name": "sender",
          "type": "address"
        },
        {
          "internalType": "uint256",
          "name": "tokenId",
          "type": "uint256"
        },
        {
          "internalType": "address",
          "name": "owner",
          "type": "address"
        }
      ],
      "name": "ERC721IncorrectOwner",
      "type": "error"
    },
    {
      "inputs": [
        {
          "internalType": "address",
          "name": "operator",
          "type": "address"
        },
        {
          "internalType": "uint256",
          "name": "tokenId",
          "type": "uint256"
        }
      ],
      "name": "ERC721InsufficientApproval",
      "type": "error"
    },
    {
      "inputs": [
        {
          "internalType": "address",
          "name": "approver",
          "type": "address"
        }
      ],
      "name": "ERC721InvalidApprover",
      "type": "error"
    },
    {
      "inputs": [
        {
          "internalType": "address",
          "name": "operator",
          "type": "address"
        }
      ],
      "name": "ERC721InvalidOperator",
      "type": "error"
    },
    {
      "inputs": [
        {
          "internalType": "address",
          "name": "owner",
          "type": "address"
        }
      ],
      "name": "ERC721InvalidOwner",
      "type": "error"
    },
    {
      "inputs": [
        {
          "internalType": "address",
          "name": "receiver",
          "type": "address"
        }
      ],
      "name": "ERC721InvalidReceiver",
      "type": "error"
    },
    {
      "inputs": [
        {
          "internalType": "address",
          "name": "sender",
          "type": "address"
        }
      ],
      "name": "ERC721InvalidSender",
      "type": "error"
    },
    {
      "inputs": [
        {
          "internalType": "uint256",
          "name": "tokenId",
          "type": "uint256"
        }
      ],
      "name": "ERC721NonexistentToken",
      "type": "error"
    },
    {
      "inputs": [],
      "name": "EnforcedPause",
      "type": "error"
    },
    {
      "inputs": [],
      "name": "ExpectedPause",
      "type": "error"
    },
    {
      "inputs": [
        {
          "internalType": "address",
          "name": "owner",
          "type": "address"
        }
      ],
      "name": "OwnableInvalidOwner",
      "type": "error"
    },
    {
      "inputs": [
        {
          "internalType": "address",
          "name": "account",
          "type": "address"
        }
      ],
      "name": "OwnableUnauthorizedAccount",
      "type": "error"
    },
    {
      "inputs": [],
      "name": "ReentrancyGuardReentrantCall",
      "type": "error"
    },
    {
      "anonymous": false,
      "inputs": [
        {
          "indexed": true,
          "internalType": "address",
          "name": "owner",
          "type": "address"
        },
        {
          "indexed": true,
          "internalType": "address",
          "name": "approved",
          "type": "address"
        },
        {
          "indexed": true,
          "internalType": "uint256",
          "name": "tokenId",
          "type": "uint256"
        }
      ],
      "name": "Approval",
      "type": "event"
    },
    {
      "anonymous": false,
      "inputs": [
        {
          "indexed": true,
          "internalType": "address",
          "name": "owner",
          "type": "address"
        },
        {
          "indexed": true,
          "internalType": "address",
          "name": "operator",
          "type": "address"
        },
        {
          "indexed": false,
          "internalType": "bool",
          "name": "approved",
          "type": "bool"
        }
      ],
      "name": "ApprovalForAll",
      "type": "event"
    },
    {
      "anonymous": false,
      "inputs": [
        {
          "indexed": false,
          "internalType": "uint256",
          "name": "amount",
          "type": "uint256"
        }
      ],
      "name": "EmergencyWithdraw",
      "type": "event"
    },
    {
      "anonymous": false,
      "inputs": [
        {
          "indexed": false,
          "internalType": "uint256",
          "name": "newEpoch",
          "type": "uint256"
        },
        {
          "indexed": false,
          "internalType": "uint256",
          "name": "timestamp",
          "type": "uint256"
        }
      ],
      "name": "EpochAdvanced",
      "type": "event"
    },
    {
      "anonymous": false,
      "inputs": [
        {
          "indexed": false,
          "internalType": "uint256",
          "name": "licenseId",
          "type": "uint256"
        },
        {
          "indexed": false,
          "internalType": "uint256",
          "name": "requiredAmount",
          "type": "uint256"
        }
      ],
      "name": "InsufficientBalance",
      "type": "event"
    },
    {
      "anonymous": false,
      "inputs": [
        {
          "indexed": true,
          "internalType": "address",
          "name": "buyer",
          "type": "address"
        },
        {
          "indexed": true,
          "internalType": "uint256",
          "name": "licenseId",
          "type": "uint256"
        },
        {
          "indexed": false,
          "internalType": "enum KortanaLicenseNFT.Tier",
          "name": "tier",
          "type": "uint8"
        },
        {
          "indexed": false,
          "internalType": "uint256",
          "name": "timestamp",
          "type": "uint256"
        }
      ],
      "name": "LicenseMinted",
      "type": "event"
    },
    {
      "anonymous": false,
      "inputs": [
        {
          "indexed": true,
          "internalType": "uint256",
          "name": "licenseId",
          "type": "uint256"
        }
      ],
      "name": "LicenseRevoked",
      "type": "event"
    },
    {
      "anonymous": false,
      "inputs": [
        {
          "indexed": true,
          "internalType": "address",
          "name": "previousOwner",
          "type": "address"
        },
        {
          "indexed": true,
          "internalType": "address",
          "name": "newOwner",
          "type": "address"
        }
      ],
      "name": "OwnershipTransferred",
      "type": "event"
    },
    {
      "anonymous": false,
      "inputs": [
        {
          "indexed": false,
          "internalType": "address",
          "name": "account",
          "type": "address"
        }
      ],
      "name": "Paused",
      "type": "event"
    },
    {
      "anonymous": false,
      "inputs": [
        {
          "indexed": true,
          "internalType": "address",
          "name": "holder",
          "type": "address"
        },
        {
          "indexed": true,
          "internalType": "uint256",
          "name": "licenseId",
          "type": "uint256"
        },
        {
          "indexed": false,
          "internalType": "uint256",
          "name": "dnrAmount",
          "type": "uint256"
        },
        {
          "indexed": false,
          "internalType": "uint256",
          "name": "epoch",
          "type": "uint256"
        }
      ],
      "name": "RewardDistributed",
      "type": "event"
    },
    {
      "anonymous": false,
      "inputs": [
        {
          "indexed": false,
          "internalType": "uint256",
          "name": "dnrAmount",
          "type": "uint256"
        },
        {
          "indexed": false,
          "internalType": "address",
          "name": "funder",
          "type": "address"
        }
      ],
      "name": "RewardPoolFunded",
      "type": "event"
    },
    {
      "anonymous": false,
      "inputs": [
        {
          "indexed": false,
          "internalType": "uint8",
          "name": "tier",
          "type": "uint8"
        },
        {
          "indexed": false,
          "internalType": "uint256",
          "name": "newRate",
          "type": "uint256"
        }
      ],
      "name": "RewardRateUpdated",
      "type": "event"
    },
    {
      "anonymous": false,
      "inputs": [
        {
          "indexed": true,
          "internalType": "address",
          "name": "from",
          "type": "address"
        },
        {
          "indexed": true,
          "internalType": "address",
          "name": "to",
          "type": "address"
        },
        {
          "indexed": true,
          "internalType": "uint256",
          "name": "tokenId",
          "type": "uint256"
        }
      ],
      "name": "Transfer",
      "type": "event"
    },
    {
      "anonymous": false,
      "inputs": [
        {
          "indexed": false,
          "internalType": "address",
          "name": "account",
          "type": "address"
        }
      ],
      "name": "Unpaused",
      "type": "event"
    },
    {
      "inputs": [],
      "name": "EPOCH_DURATION",
      "outputs": [
        {
          "internalType": "uint256",
          "name": "",
          "type": "uint256"
        }
      ],
      "stateMutability": "view",
      "type": "function"
    },
    {
      "inputs": [],
      "name": "advanceEpoch",
      "outputs": [],
      "stateMutability": "nonpayable",
      "type": "function"
    },
    {
      "inputs": [
        {
          "internalType": "address",
          "name": "to",
          "type": "address"
        },
        {
          "internalType": "uint256",
          "name": "tokenId",
          "type": "uint256"
        }
      ],
      "name": "approve",
      "outputs": [],
      "stateMutability": "nonpayable",
      "type": "function"
    },
    {
      "inputs": [
        {
          "internalType": "address",
          "name": "owner",
          "type": "address"
        }
      ],
      "name": "balanceOf",
      "outputs": [
        {
          "internalType": "uint256",
          "name": "",
          "type": "uint256"
        }
      ],
      "stateMutability": "view",
      "type": "function"
    },
    {
      "inputs": [
        {
          "internalType": "address[]",
          "name": "buyers",
          "type": "address[]"
        },
        {
          "internalType": "enum KortanaLicenseNFT.Tier[]",
          "name": "tiers",
          "type": "uint8[]"
        }
      ],
      "name": "batchMintLicense",
      "outputs": [],
      "stateMutability": "nonpayable",
      "type": "function"
    },
    {
      "inputs": [],
      "name": "currentEpoch",
      "outputs": [
        {
          "internalType": "uint256",
          "name": "",
          "type": "uint256"
        }
      ],
      "stateMutability": "view",
      "type": "function"
    },
    {
      "inputs": [
        {
          "internalType": "uint256",
          "name": "startId",
          "type": "uint256"
        },
        {
          "internalType": "uint256",
          "name": "endId",
          "type": "uint256"
        }
      ],
      "name": "distributeAllRewards",
      "outputs": [],
      "stateMutability": "nonpayable",
      "type": "function"
    },
    {
      "inputs": [
        {
          "internalType": "uint256",
          "name": "licenseId",
          "type": "uint256"
        }
      ],
      "name": "distributeReward",
      "outputs": [],
      "stateMutability": "nonpayable",
      "type": "function"
    },
    {
      "inputs": [
        {
          "internalType": "uint256",
          "name": "tokenId",
          "type": "uint256"
        }
      ],
      "name": "getApproved",
      "outputs": [
        {
          "internalType": "address",
          "name": "",
          "type": "address"
        }
      ],
      "stateMutability": "view",
      "type": "function"
    },
    {
      "inputs": [
        {
          "internalType": "address",
          "name": "holder",
          "type": "address"
        }
      ],
      "name": "getLicenses",
      "outputs": [
        {
          "internalType": "uint256[]",
          "name": "",
          "type": "uint256[]"
        }
      ],
      "stateMutability": "view",
      "type": "function"
    },
    {
      "inputs": [
        {
          "internalType": "enum KortanaLicenseNFT.Tier",
          "name": "tier",
          "type": "uint8"
        }
      ],
      "name": "getRemainingSupply",
      "outputs": [
        {
          "internalType": "uint256",
          "name": "",
          "type": "uint256"
        }
      ],
      "stateMutability": "view",
      "type": "function"
    },
    {
      "inputs": [
        {
          "internalType": "address",
          "name": "owner",
          "type": "address"
        },
        {
          "internalType": "address",
          "name": "operator",
          "type": "address"
        }
      ],
      "name": "isApprovedForAll",
      "outputs": [
        {
          "internalType": "bool",
          "name": "",
          "type": "bool"
        }
      ],
      "stateMutability": "view",
      "type": "function"
    },
    {
      "inputs": [
        {
          "internalType": "uint256",
          "name": "",
          "type": "uint256"
        }
      ],
      "name": "lastClaimedEpoch",
      "outputs": [
        {
          "internalType": "uint256",
          "name": "",
          "type": "uint256"
        }
      ],
      "stateMutability": "view",
      "type": "function"
    },
    {
      "inputs": [],
      "name": "lastEpochTime",
      "outputs": [
        {
          "internalType": "uint256",
          "name": "",
          "type": "uint256"
        }
      ],
      "stateMutability": "view",
      "type": "function"
    },
    {
      "inputs": [
        {
          "internalType": "uint256",
          "name": "licenseId",
          "type": "uint256"
        }
      ],
      "name": "licenseActive",
      "outputs": [
        {
          "internalType": "bool",
          "name": "",
          "type": "bool"
        }
      ],
      "stateMutability": "view",
      "type": "function"
    },
    {
      "inputs": [
        {
          "internalType": "enum KortanaLicenseNFT.Tier",
          "name": "",
          "type": "uint8"
        }
      ],
      "name": "maxSupply",
      "outputs": [
        {
          "internalType": "uint256",
          "name": "",
          "type": "uint256"
        }
      ],
      "stateMutability": "view",
      "type": "function"
    },
    {
      "inputs": [
        {
          "internalType": "address",
          "name": "buyer",
          "type": "address"
        },
        {
          "internalType": "enum KortanaLicenseNFT.Tier",
          "name": "tier",
          "type": "uint8"
        }
      ],
      "name": "mintLicense",
      "outputs": [],
      "stateMutability": "nonpayable",
      "type": "function"
    },
    {
      "inputs": [],
      "name": "name",
      "outputs": [
        {
          "internalType": "string",
          "name": "",
          "type": "string"
        }
      ],
      "stateMutability": "view",
      "type": "function"
    },
    {
      "inputs": [],
      "name": "nextLicenseId",
      "outputs": [
        {
          "internalType": "uint256",
          "name": "",
          "type": "uint256"
        }
      ],
      "stateMutability": "view",
      "type": "function"
    },
    {
      "inputs": [],
      "name": "owner",
      "outputs": [
        {
          "internalType": "address",
          "name": "",
          "type": "address"
        }
      ],
      "stateMutability": "view",
      "type": "function"
    },
    {
      "inputs": [
        {
          "internalType": "uint256",
          "name": "tokenId",
          "type": "uint256"
        }
      ],
      "name": "ownerOf",
      "outputs": [
        {
          "internalType": "address",
          "name": "",
          "type": "address"
        }
      ],
      "stateMutability": "view",
      "type": "function"
    },
    {
      "inputs": [],
      "name": "pause",
      "outputs": [],
      "stateMutability": "nonpayable",
      "type": "function"
    },
    {
      "inputs": [],
      "name": "paused",
      "outputs": [
        {
          "internalType": "bool",
          "name": "",
          "type": "bool"
        }
      ],
      "stateMutability": "view",
      "type": "function"
    },
    {
      "inputs": [],
      "name": "renounceOwnership",
      "outputs": [],
      "stateMutability": "nonpayable",
      "type": "function"
    },
    {
      "inputs": [
        {
          "internalType": "uint256",
          "name": "licenseId",
          "type": "uint256"
        }
      ],
      "name": "revokeLicense",
      "outputs": [],
      "stateMutability": "nonpayable",
      "type": "function"
    },
    {
      "inputs": [
        {
          "internalType": "uint8",
          "name": "",
          "type": "uint8"
        }
      ],
      "name": "rewardPerEpoch",
      "outputs": [
        {
          "internalType": "uint256",
          "name": "",
          "type": "uint256"
        }
      ],
      "stateMutability": "view",
      "type": "function"
    },
    {
      "inputs": [
        {
          "internalType": "address",
          "name": "from",
          "type": "address"
        },
        {
          "internalType": "address",
          "name": "to",
          "type": "address"
        },
        {
          "internalType": "uint256",
          "name": "tokenId",
          "type": "uint256"
        }
      ],
      "name": "safeTransferFrom",
      "outputs": [],
      "stateMutability": "nonpayable",
      "type": "function"
    },
    {
      "inputs": [
        {
          "internalType": "address",
          "name": "from",
          "type": "address"
        },
        {
          "internalType": "address",
          "name": "to",
          "type": "address"
        },
        {
          "internalType": "uint256",
          "name": "tokenId",
          "type": "uint256"
        },
        {
          "internalType": "bytes",
          "name": "data",
          "type": "bytes"
        }
      ],
      "name": "safeTransferFrom",
      "outputs": [],
      "stateMutability": "nonpayable",
      "type": "function"
    },
    {
      "inputs": [
        {
          "internalType": "address",
          "name": "operator",
          "type": "address"
        },
        {
          "internalType": "bool",
          "name": "approved",
          "type": "bool"
        }
      ],
      "name": "setApprovalForAll",
      "outputs": [],
      "stateMutability": "nonpayable",
      "type": "function"
    },
    {
      "inputs": [
        {
          "internalType": "string",
          "name": "baseURI_",
          "type": "string"
        }
      ],
      "name": "setBaseURI",
      "outputs": [],
      "stateMutability": "nonpayable",
      "type": "function"
    },
    {
      "inputs": [
        {
          "internalType": "bytes4",
          "name": "interfaceId",
          "type": "bytes4"
        }
      ],
      "name": "supportsInterface",
      "outputs": [
        {
          "internalType": "bool",
          "name": "",
          "type": "bool"
        }
      ],
      "stateMutability": "view",
      "type": "function"
    },
    {
      "inputs": [],
      "name": "symbol",
      "outputs": [
        {
          "internalType": "string",
          "name": "",
          "type": "string"
        }
      ],
      "stateMutability": "view",
      "type": "function"
    },
    {
      "inputs": [
        {
          "internalType": "uint256",
          "name": "licenseId",
          "type": "uint256"
        }
      ],
      "name": "tierOf",
      "outputs": [
        {
          "internalType": "uint8",
          "name": "",
          "type": "uint8"
        }
      ],
      "stateMutability": "view",
      "type": "function"
    },
    {
      "inputs": [
        {
          "internalType": "uint256",
          "name": "tokenId",
          "type": "uint256"
        }
      ],
      "name": "tokenURI",
      "outputs": [
        {
          "internalType": "string",
          "name": "",
          "type": "string"
        }
      ],
      "stateMutability": "view",
      "type": "function"
    },
    {
      "inputs": [],
      "name": "totalDistributed",
      "outputs": [
        {
          "internalType": "uint256",
          "name": "",
          "type": "uint256"
        }
      ],
      "stateMutability": "view",
      "type": "function"
    },
    {
      "inputs": [
        {
          "internalType": "enum KortanaLicenseNFT.Tier",
          "name": "",
          "type": "uint8"
        }
      ],
      "name": "totalMinted",
      "outputs": [
        {
          "internalType": "uint256",
          "name": "",
          "type": "uint256"
        }
      ],
      "stateMutability": "view",
      "type": "function"
    },
    {
      "inputs": [
        {
          "internalType": "address",
          "name": "from",
          "type": "address"
        },
        {
          "internalType": "address",
          "name": "to",
          "type": "address"
        },
        {
          "internalType": "uint256",
          "name": "tokenId",
          "type": "uint256"
        }
      ],
      "name": "transferFrom",
      "outputs": [],
      "stateMutability": "nonpayable",
      "type": "function"
    },
    {
      "inputs": [
        {
          "internalType": "address",
          "name": "newOwner",
          "type": "address"
        }
      ],
      "name": "transferOwnership",
      "outputs": [],
      "stateMutability": "nonpayable",
      "type": "function"
    },
    {
      "inputs": [],
      "name": "unpause",
      "outputs": [],
      "stateMutability": "nonpayable",
      "type": "function"
    },
    {
      "stateMutability": "payable",
      "type": "receive"
    }
  ],
  "bytecode": "0x60806040526001600855610870600d553480156200001c57600080fd5b50336040518060400160405280601481526020017f4b6f7274616e61204e6f6465204c6963656e73650000000000000000000000008152506040518060400160405280600381526020016212d39360ea1b815250816000908162000081919062000333565b50600162000090828262000333565b5050506001600160a01b038116620000c257604051631e4fbdf760e01b81526000600482015260240160405180910390fd5b620000cd816200023c565b506006805460ff60a01b19169055600160078190556103e87f13da86008ba1c6922daee3e07db95305ef49ebced9f5467a0b8613fcc6b343e38190556107d07fbbc70db1b6c7afd11e79c0fb0051300458f1a3acb8ee9789d9b6b26c61ad9bc7557fbff4442b8ed600beeb8e26b1279a0f0d14c6edfaec26d968ee13c86f7d4c2ba85560036000526101f47fa856840544dc26124927add067d799967eac11be13e14d82cc281ea46fa397595542600f55600e55601060205268022b1c8c1227a000007f6e0956cda88cad152e89927e53611735b61a5c762d1428573c6931b0a5efcb01556804563918244f4000007f8c6065603763fec3f5742441d3833f3f43b982453612d76adb39a885e3006b5f55680ad78ebc5ac62000007f853b2fefe141400fef543280f93d98bd49996069f632d0d20236afeeed8e46a2556815af1d78b58c4000007fb3edd0d534d647cffdae9f1294f11ad21f3fcf2814bea44c92bbb8d384a57d9e55620003ff565b600680546001600160a01b038381166001600160a01b0319831681179093556040519116919082907f8be0079c531659141344cd1fd0a4f28419497f9722a3daafe3b4186f6b6457e090600090a35050565b634e487b7160e01b600052604160045260246000fd5b600181811c90821680620002b957607f821691505b602082108103620002da57634e487b7160e01b600052602260045260246000fd5b50919050565b601f8211156200032e57600081815260208120601f850160051c81016020861015620003095750805b601f850160051c820191505b818110156200032a5782815560010162000315565b5050505b505050565b81516001600160401b038111156200034f576200034f6200028e565b6200036781620003608454620002a4565b84620002e0565b602080601f8311600181146200039f5760008415620003865750858301515b600019600386901b1c1916600185901b1785556200032a565b600085815260208120601f198616915b82811015620003d057888601518255948401946001909101908401620003af565b5085821015620003ef5787850151600019600388901b60f8161c191681555b5050505050600190811b01905550565b6123f3806200040f6000396000f3fe6080604052600436106102345760003560e01c80636352211e1161012e57806398dcd2ca116100ab578063e985e9c51161006f578063e985e9c5146106fd578063efca2eed1461071d578063effa26fc14610733578063f2fde38b14610753578063fa3f33a61461077357600080fd5b806398dcd2ca1461065a578063a22cb46514610687578063a70b9f0c146106a7578063b88d4fde146106bd578063c87b56dd146106dd57600080fd5b80638456cb59116100f25780638456cb59146105dc57806389c614b8146105f15780638da5cb5b14610607578063940a4e451461062557806395d89b411461064557600080fd5b80636352211e1461055157806370a0823114610571578063715018a61461059157806376671808146105a65780637eedd90d146105bc57600080fd5b80632d8120b5116101bc578063492f471c11610180578063492f471c1461049d57806353f47f95146104b357806353f96df2146104e057806355f804b3146105125780635c975abb1461053257600080fd5b80632d8120b5146104065780633cf80e6c146104335780633f4ba83a1461044857806342842e0e1461045d578063439d4b5c1461047d57600080fd5b8063095ea7b311610203578063095ea7b31461032957806314773b4f14610349578063216694a11461037657806323b872dd146103b157806329523c5c146103d157600080fd5b806301ffc9a71461027857806306fdde03146102ad578063081812fc146102cf57806308d07bdc1461030757600080fd5b3661027357604080513481523360208201527f56b382c0989cb3caa548f6382ea515b7700267067998b761d377320e08679490910160405180910390a1005b600080fd5b34801561028457600080fd5b50610298610293366004611c74565b610793565b60405190151581526020015b60405180910390f35b3480156102b957600080fd5b506102c26107e5565b6040516102a49190611ce1565b3480156102db57600080fd5b506102ef6102ea366004611cf4565b610877565b6040516001600160a01b0390911681526020016102a4565b34801561031357600080fd5b50610327610322366004611d0d565b6108a0565b005b34801561033557600080fd5b50610327610344366004611d4b565b61090b565b34801561035557600080fd5b50610369610364366004611d75565b610916565b6040516102a49190611d90565b34801561038257600080fd5b506103a3610391366004611cf4565b60116020526000908152604090205481565b6040519081526020016102a4565b3480156103bd57600080fd5b506103276103cc366004611dd4565b610982565b3480156103dd57600080fd5b506102986103ec366004611cf4565b600090815260096020526040902054610100900460ff1690565b34801561041257600080fd5b506103a3610421366004611e1f565b600a6020526000908152604090205481565b34801561043f57600080fd5b50610327610a12565b34801561045457600080fd5b50610327610acf565b34801561046957600080fd5b50610327610478366004611dd4565b610ae1565b34801561048957600080fd5b50610327610498366004611cf4565b610b01565b3480156104a957600080fd5b506103a360085481565b3480156104bf57600080fd5b506103a36104ce366004611e1f565b600b6020526000908152604090205481565b3480156104ec57600080fd5b506105006104fb366004611cf4565b610b4a565b60405160ff90911681526020016102a4565b34801561051e57600080fd5b5061032761052d366004611e3a565b610b6d565b34801561053e57600080fd5b50600654600160a01b900460ff16610298565b34801561055d57600080fd5b506102ef61056c366004611cf4565b610b82565b34801561057d57600080fd5b506103a361058c366004611d75565b610b8d565b34801561059d57600080fd5b50610327610bd5565b3480156105b257600080fd5b506103a3600e5481565b3480156105c857600080fd5b506103276105d7366004611eac565b610be7565b3480156105e857600080fd5b50610327610c0b565b3480156105fd57600080fd5b506103a3600f5481565b34801561061357600080fd5b506006546001600160a01b03166102ef565b34801561063157600080fd5b50610327610640366004611cf4565b610c1b565b34801561065157600080fd5b506102c2610c41565b34801561066657600080fd5b506103a3610675366004611edf565b60106020526000908152604090205481565b34801561069357600080fd5b506103276106a2366004611f02565b610c50565b3480156106b357600080fd5b506103a3600d5481565b3480156106c957600080fd5b506103276106d8366004611f54565b610c5b565b3480156106e957600080fd5b506102c26106f8366004611cf4565b610c72565b34801561070957600080fd5b50610298610718366004612030565b610cda565b34801561072957600080fd5b506103a360125481565b34801561073f57600080fd5b5061032761074e3660046120a6565b610d08565b34801561075f57600080fd5b5061032761076e366004611d75565b610de5565b34801561077f57600080fd5b506103a361078e366004611e1f565b610e20565b60006001600160e01b031982166380ac58cd60e01b14806107c457506001600160e01b03198216635b5e139f60e01b145b806107df57506301ffc9a760e01b6001600160e01b03198316145b92915050565b6060600080546107f490612112565b80601f016020809104026020016040519081016040528092919081815260200182805461082090612112565b801561086d5780601f106108425761010080835404028352916020019161086d565b820191906000526020600020905b81548152906001019060200180831161085057829003601f168201915b5050505050905090565b600061088282610e98565b506000828152600460205260409020546001600160a01b03166107df565b6108a8610ed1565b6108b0610efb565b60085460008183106108cc576108c7600183612162565b6108ce565b825b9050835b8181116108fa5780156108e8576108e881610f26565b806108f281612175565b9150506108d2565b5050506109076001600755565b5050565b61090782823361114d565b6001600160a01b0381166000908152600c602090815260409182902080548351818402810184019094528084526060939283018282801561097657602002820191906000526020600020905b815481526020019060010190808311610962575b50505050509050919050565b6001600160a01b0382166109b157604051633250574960e11b8152600060048201526024015b60405180910390fd5b60006109be83833361115a565b9050836001600160a01b0316816001600160a01b031614610a0c576040516364283d7b60e01b81526001600160a01b03808616600483015260248201849052821660448201526064016109a8565b50505050565b600d54600f54610a22919061218e565b421015610a715760405162461bcd60e51b815260206004820152601a60248201527f45706f6368206475726174696f6e206e6f74207265616368656400000000000060448201526064016109a8565b600e8054906000610a8183612175565b909155505042600f819055600e546040517facfa06cebbab8226f9a388bff9f5fcf4569298028d939f4765958dc57dbb330b92610ac5928252602082015260400190565b60405180910390a1565b610ad76111c6565b610adf6111f3565b565b610afc83838360405180602001604052806000815250610c5b565b505050565b610b096111c6565b600081815260096020526040808220805461ff00191690555182917ff8ecc300d4504a2b49692052f138b7e697df679cf0580522720ce405bd01be5591a250565b60008181526009602052604081205460ff1660038111156107df576107df6121a1565b610b756111c6565b6013610afc828483612205565b60006107df82610e98565b60006001600160a01b038216610bb9576040516322718ad960e21b8152600060048201526024016109a8565b506001600160a01b031660009081526003602052604090205490565b610bdd6111c6565b610adf6000611243565b610bef6111c6565b610bf7610ed1565b610c018282611295565b6109076001600755565b610c136111c6565b610adf61148d565b610c23610ed1565b610c2b610efb565b610c3481610f26565b610c3e6001600755565b50565b6060600180546107f490612112565b6109073383836114d0565b610c66848484610982565b610a0c84848484611567565b6060610c7d82610e98565b506000610c88611690565b90506000815111610ca85760405180602001604052806000815250610cd3565b80610cb28461169f565b604051602001610cc39291906122c5565b6040516020818303038152906040525b9392505050565b6001600160a01b03918216600090815260056020908152604080832093909416825291909152205460ff1690565b610d106111c6565b610d18610ed1565b828114610d675760405162461bcd60e51b815260206004820152601860248201527f4172726179206c656e67746873206d757374206d61746368000000000000000060448201526064016109a8565b60005b83811015610dda57610dc8858583818110610d8757610d876122f4565b9050602002016020810190610d9c9190611d75565b848484818110610dae57610dae6122f4565b9050602002016020810190610dc39190611e1f565b611295565b80610dd281612175565b915050610d6a565b50610a0c6001600755565b610ded6111c6565b6001600160a01b038116610e1757604051631e4fbdf760e01b8152600060048201526024016109a8565b610c3e81611243565b6000600b6000836003811115610e3857610e386121a1565b6003811115610e4957610e496121a1565b815260200190815260200160002054600a6000846003811115610e6e57610e6e6121a1565b6003811115610e7f57610e7f6121a1565b8152602001908152602001600020546107df9190612162565b6000818152600260205260408120546001600160a01b0316806107df57604051637e27328960e01b8152600481018490526024016109a8565b600260075403610ef457604051633ee5aeb560e01b815260040160405180910390fd5b6002600755565b600654600160a01b900460ff1615610adf5760405163d93c066560e01b815260040160405180910390fd5b600081815260096020526040902054610100900460ff16610f445750565b60008181526011602052604081205490819003610f715750600e5460009182526011602052604090912055565b80600e5411610f7e575050565b600081600e54610f8e9190612162565b6000848152600960205260408120549192509060ff166003811115610fb557610fb56121a1565b60ff811660009081526010602052604081205491925090610fd6908461230a565b9050804710156110205760408051868152602081018390527fcf4791818fba6e019216eb4864093b4947f674afada5d305e57d598b641dad1d910160405180910390a15050505050565b600061102b86610b82565b9050600e5460116000888152602001908152602001600020819055508160126000828254611059919061218e565b90915550506040516000906001600160a01b0383169084908381818185875af1925050503d80600081146110a9576040519150601f19603f3d011682016040523d82523d6000602084013e6110ae565b606091505b50509050806110f55760405162461bcd60e51b815260206004820152601360248201527211139488151c985b9cd9995c8811985a5b1959606a1b60448201526064016109a8565b86826001600160a01b03167ff0f44087179a926066b42ce5c1720884709cd0766b995b4595a33c8e4fd3a2b285600e5460405161113c929190918252602082015260400190565b60405180910390a350505050505050565b610afc8383836001611732565b600080611168858585611838565b90506001600160a01b03811615611183576111838185611931565b6001600160a01b038516156111be576001600160a01b0385166000908152600c60209081526040822080546001810182559083529120018490555b949350505050565b6006546001600160a01b03163314610adf5760405163118cdaa760e01b81523360048201526024016109a8565b6111fb6119ff565b6006805460ff60a01b191690557f5db9ee0a495bf2e6ff9c91a7834c1ba4fdd244a5e8aa4e537bd38aeae4b073aa335b6040516001600160a01b039091168152602001610ac5565b600680546001600160a01b038381166001600160a01b0319831681179093556040519116919082907f8be0079c531659141344cd1fd0a4f28419497f9722a3daafe3b4186f6b6457e090600090a35050565b600a60008260038111156112ab576112ab6121a1565b60038111156112bc576112bc6121a1565b815260200190815260200160002054600b60008360038111156112e1576112e16121a1565b60038111156112f2576112f26121a1565b8152602001908152602001600020541061134e5760405162461bcd60e51b815260206004820152601d60248201527f537570706c7920657863656564656420666f722074686973207469657200000060448201526064016109a8565b600880546000918261135f83612175565b91905055905061136f8382611a29565b604051806060016040528083600381111561138c5761138c6121a1565b8152600160208083018290524260409384015260008581526009909152919091208251815491929091839160ff19909116908360038111156113d0576113d06121a1565b0217905550602082015181549015156101000261ff0019909116178155604090910151600190910155600b600083600381111561140f5761140f6121a1565b6003811115611420576114206121a1565b8152602001908152602001600020600081548092919061143f90612175565b919050555080836001600160a01b03167f086d86777613c0607b2b012890e8fd22e796dd3c9572baf2247f7b22de396f1b8442604051611480929190612321565b60405180910390a3505050565b611495610efb565b6006805460ff60a01b1916600160a01b1790557f62e78cea01bee320cd4e420270b5ea74000d11b0c9f74754ebdbfc544b05a25861122b3390565b6001600160a01b03821661150257604051630b61174360e31b81526001600160a01b03831660048201526024016109a8565b6001600160a01b03838116600081815260056020908152604080832094871680845294825291829020805460ff191686151590811790915591519182527f17307eab39ab6107e8899845ad3d59bd9653f200f220920489ca2b5937696c319101611480565b6001600160a01b0383163b15610a0c57604051630a85bd0160e11b81526001600160a01b0384169063150b7a02906115a990339088908790879060040161234d565b6020604051808303816000875af19250505080156115e4575060408051601f3d908101601f191682019092526115e19181019061238a565b60015b61164d573d808015611612576040519150601f19603f3d011682016040523d82523d6000602084013e611617565b606091505b50805160000361164557604051633250574960e11b81526001600160a01b03851660048201526024016109a8565b805181602001fd5b6001600160e01b03198116630a85bd0160e11b1461168957604051633250574960e11b81526001600160a01b03851660048201526024016109a8565b5050505050565b6060601380546107f490612112565b606060006116ac83611a43565b600101905060008167ffffffffffffffff8111156116cc576116cc611f3e565b6040519080825280601f01601f1916602001820160405280156116f6576020820181803683370190505b5090508181016020015b600019016f181899199a1a9b1b9c1cb0b131b232b360811b600a86061a8153600a850494508461170057509392505050565b808061174657506001600160a01b03821615155b1561180857600061175684610e98565b90506001600160a01b038316158015906117825750826001600160a01b0316816001600160a01b031614155b801561179557506117938184610cda565b155b156117be5760405163a9fbf51f60e01b81526001600160a01b03841660048201526024016109a8565b81156118065783856001600160a01b0316826001600160a01b03167f8c5be1e5ebec7d5bd14f71427d1e84f3dd0314c0f7b2291e5b200ac8c7c3b92560405160405180910390a45b505b5050600090815260046020526040902080546001600160a01b0319166001600160a01b0392909216919091179055565b6000828152600260205260408120546001600160a01b039081169083161561186557611865818486611b1b565b6001600160a01b038116156118a357611882600085600080611732565b6001600160a01b038116600090815260036020526040902080546000190190555b6001600160a01b038516156118d2576001600160a01b0385166000908152600360205260409020805460010190555b60008481526002602052604080822080546001600160a01b0319166001600160a01b0389811691821790925591518793918516917fddf252ad1be2c89b69c2b068fc378daa952ba7f163c4a11628f55a4df523b3ef91a4949350505050565b6001600160a01b0382166000908152600c60205260408120905b8154811015610a0c5782828281548110611967576119676122f4565b9060005260206000200154036119ed578154829061198790600190612162565b81548110611997576119976122f4565b90600052602060002001548282815481106119b4576119b46122f4565b9060005260206000200181905550818054806119d2576119d26123a7565b60019003818190600052602060002001600090559055610a0c565b806119f781612175565b91505061194b565b600654600160a01b900460ff16610adf57604051638dfc202b60e01b815260040160405180910390fd5b610907828260405180602001604052806000815250611b7f565b60008072184f03e93ff9f4daa797ed6e38ed64bf6a1f0160401b8310611a825772184f03e93ff9f4daa797ed6e38ed64bf6a1f0160401b830492506040015b6d04ee2d6d415b85acef81000000008310611aae576d04ee2d6d415b85acef8100000000830492506020015b662386f26fc100008310611acc57662386f26fc10000830492506010015b6305f5e1008310611ae4576305f5e100830492506008015b6127108310611af857612710830492506004015b60648310611b0a576064830492506002015b600a83106107df5760010192915050565b611b26838383611b96565b610afc576001600160a01b038316611b5457604051637e27328960e01b8152600481018290526024016109a8565b60405163177e802f60e01b81526001600160a01b0383166004820152602481018290526044016109a8565b611b898383611bf9565b610afc6000848484611567565b60006001600160a01b038316158015906111be5750826001600160a01b0316846001600160a01b03161480611bd05750611bd08484610cda565b806111be5750506000908152600460205260409020546001600160a01b03908116911614919050565b6001600160a01b038216611c2357604051633250574960e11b8152600060048201526024016109a8565b6000611c318383600061115a565b90506001600160a01b03811615610afc576040516339e3563760e11b8152600060048201526024016109a8565b6001600160e01b031981168114610c3e57600080fd5b600060208284031215611c8657600080fd5b8135610cd381611c5e565b60005b83811015611cac578181015183820152602001611c94565b50506000910152565b60008151808452611ccd816020860160208601611c91565b601f01601f19169290920160200192915050565b602081526000610cd36020830184611cb5565b600060208284031215611d0657600080fd5b5035919050565b60008060408385031215611d2057600080fd5b50508035926020909101359150565b80356001600160a01b0381168114611d4657600080fd5b919050565b60008060408385031215611d5e57600080fd5b611d6783611d2f565b946020939093013593505050565b600060208284031215611d8757600080fd5b610cd382611d2f565b6020808252825182820181905260009190848201906040850190845b81811015611dc857835183529284019291840191600101611dac565b50909695505050505050565b600080600060608486031215611de957600080fd5b611df284611d2f565b9250611e0060208501611d2f565b9150604084013590509250925092565b803560048110611d4657600080fd5b600060208284031215611e3157600080fd5b610cd382611e10565b60008060208385031215611e4d57600080fd5b823567ffffffffffffffff80821115611e6557600080fd5b818501915085601f830112611e7957600080fd5b813581811115611e8857600080fd5b866020828501011115611e9a57600080fd5b60209290920196919550909350505050565b60008060408385031215611ebf57600080fd5b611ec883611d2f565b9150611ed660208401611e10565b90509250929050565b600060208284031215611ef157600080fd5b813560ff81168114610cd357600080fd5b60008060408385031215611f1557600080fd5b611f1e83611d2f565b915060208301358015158114611f3357600080fd5b809150509250929050565b634e487b7160e01b600052604160045260246000fd5b60008060008060808587031215611f6a57600080fd5b611f7385611d2f565b9350611f8160208601611d2f565b925060408501359150606085013567ffffffffffffffff80821115611fa557600080fd5b818701915087601f830112611fb957600080fd5b813581811115611fcb57611fcb611f3e565b604051601f8201601f19908116603f01168101908382118183101715611ff357611ff3611f3e565b816040528281528a602084870101111561200c57600080fd5b82602086016020830137600060208483010152809550505050505092959194509250565b6000806040838503121561204357600080fd5b61204c83611d2f565b9150611ed660208401611d2f565b60008083601f84011261206c57600080fd5b50813567ffffffffffffffff81111561208457600080fd5b6020830191508360208260051b850101111561209f57600080fd5b9250929050565b600080600080604085870312156120bc57600080fd5b843567ffffffffffffffff808211156120d457600080fd5b6120e08883890161205a565b909650945060208701359150808211156120f957600080fd5b506121068782880161205a565b95989497509550505050565b600181811c9082168061212657607f821691505b60208210810361214657634e487b7160e01b600052602260045260246000fd5b50919050565b634e487b7160e01b600052601160045260246000fd5b818103818111156107df576107df61214c565b6000600182016121875761218761214c565b5060010190565b808201808211156107df576107df61214c565b634e487b7160e01b600052602160045260246000fd5b601f821115610afc57600081815260208120601f850160051c810160208610156121de5750805b601f850160051c820191505b818110156121fd578281556001016121ea565b505050505050565b67ffffffffffffffff83111561221d5761221d611f3e565b6122318361222b8354612112565b836121b7565b6000601f841160018114612265576000851561224d5750838201355b600019600387901b1c1916600186901b178355611689565b600083815260209020601f19861690835b828110156122965786850135825560209485019460019092019101612276565b50868210156122b35760001960f88860031b161c19848701351681555b505060018560011b0183555050505050565b600083516122d7818460208801611c91565b8351908301906122eb818360208801611c91565b01949350505050565b634e487b7160e01b600052603260045260246000fd5b80820281158282048414176107df576107df61214c565b604081016004841061234357634e487b7160e01b600052602160045260246000fd5b9281526020015290565b6001600160a01b038581168252841660208201526040810183905260806060820181905260009061238090830184611cb5565b9695505050505050565b60006020828403121561239c57600080fd5b8151610cd381611c5e565b634e487b7160e01b600052603160045260246000fdfea2646970667358221220e6de265dbce98a32079711d8474847d78428d174de5a42848f1ef2ec0ec495cf64736f6c63430008140033",
  "linkReferences": {},
  "deployedLinkReferences": {}
}