{
  "_format": "hh-sol-artifact-1",
  "contractName": "KortanaLicenseNFT",
  "sourceName": "contracts/KortanaLicenseNFT.sol",
  "abi": [
    {
      "inputs": [],
      "stateMutability": "nonpayable",
      "type": "constructor"
    },
    {
      "inputs": [
        {
          "internalType": "address",
          "name": "sender",
          "type": "address"
        },
        {
          "internalType": "uint256",
          "name": "tokenId",
          "type": "uint256"
        },
        {
          "internalType": "address",
          "name": "owner",
          "type": "address"
        }
      ],
      "name": "ERC721IncorrectOwner",
      "type": "error"
    },
    {
      "inputs": [
        {
          "internalType": "address",
          "name": "operator",
          "type": "address"
        },
        {
          "internalType": "uint256",
          "name": "tokenId",
          "type": "uint256"
        }
      ],
      "name": "ERC721InsufficientApproval",
      "type": "error"
    },
    {
      "inputs": [
        {
          "internalType": "address",
          "name": "approver",
          "type": "address"
        }
      ],
      "name": "ERC721InvalidApprover",
      "type": "error"
    },
    {
      "inputs": [
        {
          "internalType": "address",
          "name": "operator",
          "type": "address"
        }
      ],
      "name": "ERC721InvalidOperator",
      "type": "error"
    },
    {
      "inputs": [
        {
          "internalType": "address",
          "name": "owner",
          "type": "address"
        }
      ],
      "name": "ERC721InvalidOwner",
      "type": "error"
    },
    {
      "inputs": [
        {
          "internalType": "address",
          "name": "receiver",
          "type": "address"
        }
      ],
      "name": "ERC721InvalidReceiver",
      "type": "error"
    },
    {
      "inputs": [
        {
          "internalType": "address",
          "name": "sender",
          "type": "address"
        }
      ],
      "name": "ERC721InvalidSender",
      "type": "error"
    },
    {
      "inputs": [
        {
          "internalType": "uint256",
          "name": "tokenId",
          "type": "uint256"
        }
      ],
      "name": "ERC721NonexistentToken",
      "type": "error"
    },
    {
      "inputs": [],
      "name": "EnforcedPause",
      "type": "error"
    },
    {
      "inputs": [],
      "name": "ExpectedPause",
      "type": "error"
    },
    {
      "inputs": [
        {
          "internalType": "address",
          "name": "owner",
          "type": "address"
        }
      ],
      "name": "OwnableInvalidOwner",
      "type": "error"
    },
    {
      "inputs": [
        {
          "internalType": "address",
          "name": "account",
          "type": "address"
        }
      ],
      "name": "OwnableUnauthorizedAccount",
      "type": "error"
    },
    {
      "inputs": [],
      "name": "ReentrancyGuardReentrantCall",
      "type": "error"
    },
    {
      "anonymous": false,
      "inputs": [
        {
          "indexed": true,
          "internalType": "address",
          "name": "owner",
          "type": "address"
        },
        {
          "indexed": true,
          "internalType": "address",
          "name": "approved",
          "type": "address"
        },
        {
          "indexed": true,
          "internalType": "uint256",
          "name": "tokenId",
          "type": "uint256"
        }
      ],
      "name": "Approval",
      "type": "event"
    },
    {
      "anonymous": false,
      "inputs": [
        {
          "indexed": true,
          "internalType": "address",
          "name": "owner",
          "type": "address"
        },
        {
          "indexed": true,
          "internalType": "address",
          "name": "operator",
          "type": "address"
        },
        {
          "indexed": false,
          "internalType": "bool",
          "name": "approved",
          "type": "bool"
        }
      ],
      "name": "ApprovalForAll",
      "type": "event"
    },
    {
      "anonymous": false,
      "inputs": [
        {
          "indexed": false,
          "internalType": "uint256",
          "name": "amount",
          "type": "uint256"
        }
      ],
      "name": "EmergencyWithdraw",
      "type": "event"
    },
    {
      "anonymous": false,
      "inputs": [
        {
          "indexed": false,
          "internalType": "uint256",
          "name": "newEpoch",
          "type": "uint256"
        },
        {
          "indexed": false,
          "internalType": "uint256",
          "name": "timestamp",
          "type": "uint256"
        }
      ],
      "name": "EpochAdvanced",
      "type": "event"
    },
    {
      "anonymous": false,
      "inputs": [
        {
          "indexed": false,
          "internalType": "uint256",
          "name": "licenseId",
          "type": "uint256"
        },
        {
          "indexed": false,
          "internalType": "uint256",
          "name": "requiredAmount",
          "type": "uint256"
        }
      ],
      "name": "InsufficientBalance",
      "type": "event"
    },
    {
      "anonymous": false,
      "inputs": [
        {
          "indexed": true,
          "internalType": "address",
          "name": "buyer",
          "type": "address"
        },
        {
          "indexed": true,
          "internalType": "uint256",
          "name": "licenseId",
          "type": "uint256"
        },
        {
          "indexed": false,
          "internalType": "enum KortanaLicenseNFT.Tier",
          "name": "tier",
          "type": "uint8"
        },
        {
          "indexed": false,
          "internalType": "uint256",
          "name": "timestamp",
          "type": "uint256"
        }
      ],
      "name": "LicenseMinted",
      "type": "event"
    },
    {
      "anonymous": false,
      "inputs": [
        {
          "indexed": true,
          "internalType": "uint256",
          "name": "licenseId",
          "type": "uint256"
        }
      ],
      "name": "LicenseRevoked",
      "type": "event"
    },
    {
      "anonymous": false,
      "inputs": [
        {
          "indexed": true,
          "internalType": "address",
          "name": "previousOwner",
          "type": "address"
        },
        {
          "indexed": true,
          "internalType": "address",
          "name": "newOwner",
          "type": "address"
        }
      ],
      "name": "OwnershipTransferred",
      "type": "event"
    },
    {
      "anonymous": false,
      "inputs": [
        {
          "indexed": false,
          "internalType": "address",
          "name": "account",
          "type": "address"
        }
      ],
      "name": "Paused",
      "type": "event"
    },
    {
      "anonymous": false,
      "inputs": [
        {
          "indexed": true,
          "internalType": "address",
          "name": "holder",
          "type": "address"
        },
        {
          "indexed": true,
          "internalType": "uint256",
          "name": "licenseId",
          "type": "uint256"
        },
        {
          "indexed": false,
          "internalType": "uint256",
          "name": "dnrAmount",
          "type": "uint256"
        },
        {
          "indexed": false,
          "internalType": "uint256",
          "name": "epoch",
          "type": "uint256"
        }
      ],
      "name": "RewardDistributed",
      "type": "event"
    },
    {
      "anonymous": false,
      "inputs": [
        {
          "indexed": false,
          "internalType": "uint256",
          "name": "dnrAmount",
          "type": "uint256"
        },
        {
          "indexed": false,
          "internalType": "address",
          "name": "funder",
          "type": "address"
        }
      ],
      "name": "RewardPoolFunded",
      "type": "event"
    },
    {
      "anonymous": false,
      "inputs": [
        {
          "indexed": false,
          "internalType": "uint8",
          "name": "tier",
          "type": "uint8"
        },
        {
          "indexed": false,
          "internalType": "uint256",
          "name": "newRate",
          "type": "uint256"
        }
      ],
      "name": "RewardRateUpdated",
      "type": "event"
    },
    {
      "anonymous": false,
      "inputs": [
        {
          "indexed": true,
          "internalType": "address",
          "name": "from",
          "type": "address"
        },
        {
          "indexed": true,
          "internalType": "address",
          "name": "to",
          "type": "address"
        },
        {
          "indexed": true,
          "internalType": "uint256",
          "name": "tokenId",
          "type": "uint256"
        }
      ],
      "name": "Transfer",
      "type": "event"
    },
    {
      "anonymous": false,
      "inputs": [
        {
          "indexed": false,
          "internalType": "address",
          "name": "account",
          "type": "address"
        }
      ],
      "name": "Unpaused",
      "type": "event"
    },
    {
      "inputs": [],
      "name": "EPOCH_DURATION",
      "outputs": [
        {
          "internalType": "uint256",
          "name": "",
          "type": "uint256"
        }
      ],
      "stateMutability": "view",
      "type": "function"
    },
    {
      "inputs": [],
      "name": "advanceEpoch",
      "outputs": [],
      "stateMutability": "nonpayable",
      "type": "function"
    },
    {
      "inputs": [
        {
          "internalType": "address",
          "name": "to",
          "type": "address"
        },
        {
          "internalType": "uint256",
          "name": "tokenId",
          "type": "uint256"
        }
      ],
      "name": "approve",
      "outputs": [],
      "stateMutability": "nonpayable",
      "type": "function"
    },
    {
      "inputs": [
        {
          "internalType": "address",
          "name": "owner",
          "type": "address"
        }
      ],
      "name": "balanceOf",
      "outputs": [
        {
          "internalType": "uint256",
          "name": "",
          "type": "uint256"
        }
      ],
      "stateMutability": "view",
      "type": "function"
    },
    {
      "inputs": [
        {
          "internalType": "address[]",
          "name": "buyers",
          "type": "address[]"
        },
        {
          "internalType": "enum KortanaLicenseNFT.Tier[]",
          "name": "tiers",
          "type": "uint8[]"
        }
      ],
      "name": "batchMintLicense",
      "outputs": [],
      "stateMutability": "nonpayable",
      "type": "function"
    },
    {
      "inputs": [],
      "name": "currentEpoch",
      "outputs": [
        {
          "internalType": "uint256",
          "name": "",
          "type": "uint256"
        }
      ],
      "stateMutability": "view",
      "type": "function"
    },
    {
      "inputs": [
        {
          "internalType": "uint256",
          "name": "startId",
          "type": "uint256"
        },
        {
          "internalType": "uint256",
          "name": "endId",
          "type": "uint256"
        }
      ],
      "name": "distributeAllRewards",
      "outputs": [],
      "stateMutability": "nonpayable",
      "type": "function"
    },
    {
      "inputs": [
        {
          "internalType": "uint256",
          "name": "licenseId",
          "type": "uint256"
        }
      ],
      "name": "distributeReward",
      "outputs": [],
      "stateMutability": "nonpayable",
      "type": "function"
    },
    {
      "inputs": [
        {
          "internalType": "uint256",
          "name": "tokenId",
          "type": "uint256"
        }
      ],
      "name": "getApproved",
      "outputs": [
        {
          "internalType": "address",
          "name": "",
          "type": "address"
        }
      ],
      "stateMutability": "view",
      "type": "function"
    },
    {
      "inputs": [
        {
          "internalType": "address",
          "name": "holder",
          "type": "address"
        }
      ],
      "name": "getLicenses",
      "outputs": [
        {
          "internalType": "uint256[]",
          "name": "",
          "type": "uint256[]"
        }
      ],
      "stateMutability": "view",
      "type": "function"
    },
    {
      "inputs": [
        {
          "internalType": "enum KortanaLicenseNFT.Tier",
          "name": "tier",
          "type": "uint8"
        }
      ],
      "name": "getRemainingSupply",
      "outputs": [
        {
          "internalType": "uint256",
          "name": "",
          "type": "uint256"
        }
      ],
      "stateMutability": "view",
      "type": "function"
    },
    {
      "inputs": [
        {
          "internalType": "address",
          "name": "owner",
          "type": "address"
        },
        {
          "internalType": "address",
          "name": "operator",
          "type": "address"
        }
      ],
      "name": "isApprovedForAll",
      "outputs": [
        {
          "internalType": "bool",
          "name": "",
          "type": "bool"
        }
      ],
      "stateMutability": "view",
      "type": "function"
    },
    {
      "inputs": [
        {
          "internalType": "uint256",
          "name": "",
          "type": "uint256"
        }
      ],
      "name": "lastClaimedEpoch",
      "outputs": [
        {
          "internalType": "uint256",
          "name": "",
          "type": "uint256"
        }
      ],
      "stateMutability": "view",
      "type": "function"
    },
    {
      "inputs": [],
      "name": "lastEpochTime",
      "outputs": [
        {
          "internalType": "uint256",
          "name": "",
          "type": "uint256"
        }
      ],
      "stateMutability": "view",
      "type": "function"
    },
    {
      "inputs": [
        {
          "internalType": "uint256",
          "name": "licenseId",
          "type": "uint256"
        }
      ],
      "name": "licenseActive",
      "outputs": [
        {
          "internalType": "bool",
          "name": "",
          "type": "bool"
        }
      ],
      "stateMutability": "view",
      "type": "function"
    },
    {
      "inputs": [
        {
          "internalType": "enum KortanaLicenseNFT.Tier",
          "name": "",
          "type": "uint8"
        }
      ],
      "name": "maxSupply",
      "outputs": [
        {
          "internalType": "uint256",
          "name": "",
          "type": "uint256"
        }
      ],
      "stateMutability": "view",
      "type": "function"
    },
    {
      "inputs": [
        {
          "internalType": "address",
          "name": "buyer",
          "type": "address"
        },
        {
          "internalType": "enum KortanaLicenseNFT.Tier",
          "name": "tier",
          "type": "uint8"
        }
      ],
      "name": "mintLicense",
      "outputs": [],
      "stateMutability": "nonpayable",
      "type": "function"
    },
    {
      "inputs": [],
      "name": "name",
      "outputs": [
        {
          "internalType": "string",
          "name": "",
          "type": "string"
        }
      ],
      "stateMutability": "view",
      "type": "function"
    },
    {
      "inputs": [],
      "name": "nextLicenseId",
      "outputs": [
        {
          "internalType": "uint256",
          "name": "",
          "type": "uint256"
        }
      ],
      "stateMutability": "view",
      "type": "function"
    },
    {
      "inputs": [],
      "name": "owner",
      "outputs": [
        {
          "internalType": "address",
          "name": "",
          "type": "address"
        }
      ],
      "stateMutability": "view",
      "type": "function"
    },
    {
      "inputs": [
        {
          "internalType": "uint256",
          "name": "tokenId",
          "type": "uint256"
        }
      ],
      "name": "ownerOf",
      "outputs": [
        {
          "internalType": "address",
          "name": "",
          "type": "address"
        }
      ],
      "stateMutability": "view",
      "type": "function"
    },
    {
      "inputs": [],
      "name": "pause",
      "outputs": [],
      "stateMutability": "nonpayable",
      "type": "function"
    },
    {
      "inputs": [],
      "name": "paused",
      "outputs": [
        {
          "internalType": "bool",
          "name": "",
          "type": "bool"
        }
      ],
      "stateMutability": "view",
      "type": "function"
    },
    {
      "inputs": [],
      "name": "renounceOwnership",
      "outputs": [],
      "stateMutability": "nonpayable",
      "type": "function"
    },
    {
      "inputs": [
        {
          "internalType": "uint256",
          "name": "licenseId",
          "type": "uint256"
        }
      ],
      "name": "revokeLicense",
      "outputs": [],
      "stateMutability": "nonpayable",
      "type": "function"
    },
    {
      "inputs": [
        {
          "internalType": "uint8",
          "name": "",
          "type": "uint8"
        }
      ],
      "name": "rewardPerEpoch",
      "outputs": [
        {
          "internalType": "uint256",
          "name": "",
          "type": "uint256"
        }
      ],
      "stateMutability": "view",
      "type": "function"
    },
    {
      "inputs": [
        {
          "internalType": "address",
          "name": "from",
          "type": "address"
        },
        {
          "internalType": "address",
          "name": "to",
          "type": "address"
        },
        {
          "internalType": "uint256",
          "name": "tokenId",
          "type": "uint256"
        }
      ],
      "name": "safeTransferFrom",
      "outputs": [],
      "stateMutability": "nonpayable",
      "type": "function"
    },
    {
      "inputs": [
        {
          "internalType": "address",
          "name": "from",
          "type": "address"
        },
        {
          "internalType": "address",
          "name": "to",
          "type": "address"
        },
        {
          "internalType": "uint256",
          "name": "tokenId",
          "type": "uint256"
        },
        {
          "internalType": "bytes",
          "name": "data",
          "type": "bytes"
        }
      ],
      "name": "safeTransferFrom",
      "outputs": [],
      "stateMutability": "nonpayable",
      "type": "function"
    },
    {
      "inputs": [
        {
          "internalType": "address",
          "name": "operator",
          "type": "address"
        },
        {
          "internalType": "bool",
          "name": "approved",
          "type": "bool"
        }
      ],
      "name": "setApprovalForAll",
      "outputs": [],
      "stateMutability": "nonpayable",
      "type": "function"
    },
    {
      "inputs": [
        {
          "internalType": "string",
          "name": "baseURI_",
          "type": "string"
        }
      ],
      "name": "setBaseURI",
      "outputs": [],
      "stateMutability": "nonpayable",
      "type": "function"
    },
    {
      "inputs": [
        {
          "internalType": "uint256",
          "name": "newDuration",
          "type": "uint256"
        }
      ],
      "name": "setEpochDuration",
      "outputs": [],
      "stateMutability": "nonpayable",
      "type": "function"
    },
    {
      "inputs": [
        {
          "internalType": "bytes4",
          "name": "interfaceId",
          "type": "bytes4"
        }
      ],
      "name": "supportsInterface",
      "outputs": [
        {
          "internalType": "bool",
          "name": "",
          "type": "bool"
        }
      ],
      "stateMutability": "view",
      "type": "function"
    },
    {
      "inputs": [],
      "name": "symbol",
      "outputs": [
        {
          "internalType": "string",
          "name": "",
          "type": "string"
        }
      ],
      "stateMutability": "view",
      "type": "function"
    },
    {
      "inputs": [
        {
          "internalType": "uint256",
          "name": "licenseId",
          "type": "uint256"
        }
      ],
      "name": "tierOf",
      "outputs": [
        {
          "internalType": "uint8",
          "name": "",
          "type": "uint8"
        }
      ],
      "stateMutability": "view",
      "type": "function"
    },
    {
      "inputs": [
        {
          "internalType": "uint256",
          "name": "tokenId",
          "type": "uint256"
        }
      ],
      "name": "tokenURI",
      "outputs": [
        {
          "internalType": "string",
          "name": "",
          "type": "string"
        }
      ],
      "stateMutability": "view",
      "type": "function"
    },
    {
      "inputs": [],
      "name": "totalDistributed",
      "outputs": [
        {
          "internalType": "uint256",
          "name": "",
          "type": "uint256"
        }
      ],
      "stateMutability": "view",
      "type": "function"
    },
    {
      "inputs": [
        {
          "internalType": "enum KortanaLicenseNFT.Tier",
          "name": "",
          "type": "uint8"
        }
      ],
      "name": "totalMinted",
      "outputs": [
        {
          "internalType": "uint256",
          "name": "",
          "type": "uint256"
        }
      ],
      "stateMutability": "view",
      "type": "function"
    },
    {
      "inputs": [
        {
          "internalType": "address",
          "name": "from",
          "type": "address"
        },
        {
          "internalType": "address",
          "name": "to",
          "type": "address"
        },
        {
          "internalType": "uint256",
          "name": "tokenId",
          "type": "uint256"
        }
      ],
      "name": "transferFrom",
      "outputs": [],
      "stateMutability": "nonpayable",
      "type": "function"
    },
    {
      "inputs": [
        {
          "internalType": "address",
          "name": "newOwner",
          "type": "address"
        }
      ],
      "name": "transferOwnership",
      "outputs": [],
      "stateMutability": "nonpayable",
      "type": "function"
    },
    {
      "inputs": [],
      "name": "unpause",
      "outputs": [],
      "stateMutability": "nonpayable",
      "type": "function"
    },
    {
      "stateMutability": "payable",
      "type": "receive"
    }
  ],
  "bytecode": "0x60806040526001600855610870600d553480156200001c57600080fd5b50336040518060400160405280601481526020017f4b6f7274616e61204e6f6465204c6963656e73650000000000000000000000008152506040518060400160405280600381526020016212d39360ea1b815250816000908162000081919062000333565b50600162000090828262000333565b5050506001600160a01b038116620000c257604051631e4fbdf760e01b81526000600482015260240160405180910390fd5b620000cd816200023c565b506006805460ff60a01b19169055600160078190556103e87f13da86008ba1c6922daee3e07db95305ef49ebced9f5467a0b8613fcc6b343e38190556107d07fbbc70db1b6c7afd11e79c0fb0051300458f1a3acb8ee9789d9b6b26c61ad9bc7557fbff4442b8ed600beeb8e26b1279a0f0d14c6edfaec26d968ee13c86f7d4c2ba85560036000526101f47fa856840544dc26124927add067d799967eac11be13e14d82cc281ea46fa397595542600f55600e55601060205268022b1c8c1227a000007f6e0956cda88cad152e89927e53611735b61a5c762d1428573c6931b0a5efcb01556804563918244f4000007f8c6065603763fec3f5742441d3833f3f43b982453612d76adb39a885e3006b5f55680ad78ebc5ac62000007f853b2fefe141400fef543280f93d98bd49996069f632d0d20236afeeed8e46a2556815af1d78b58c4000007fb3edd0d534d647cffdae9f1294f11ad21f3fcf2814bea44c92bbb8d384a57d9e55620003ff565b600680546001600160a01b038381166001600160a01b0319831681179093556040519116919082907f8be0079c531659141344cd1fd0a4f28419497f9722a3daafe3b4186f6b6457e090600090a35050565b634e487b7160e01b600052604160045260246000fd5b600181811c90821680620002b957607f821691505b602082108103620002da57634e487b7160e01b600052602260045260246000fd5b50919050565b601f8211156200032e57600081815260208120601f850160051c81016020861015620003095750805b601f850160051c820191505b818110156200032a5782815560010162000315565b5050505b505050565b81516001600160401b038111156200034f576200034f6200028e565b6200036781620003608454620002a4565b84620002e0565b602080601f8311600181146200039f5760008415620003865750858301515b600019600386901b1c1916600185901b1785556200032a565b600085815260208120601f198616915b82811015620003d057888601518255948401946001909101908401620003af565b5085821015620003ef5787850151600019600388901b60f8161c191681555b5050505050600190811b01905550565b612439806200040f6000396000f3fe60806040526004361061023f5760003560e01c80636352211e1161012e57806398dcd2ca116100ab578063e985e9c51161006f578063e985e9c514610728578063efca2eed14610748578063effa26fc1461075e578063f2fde38b1461077e578063fa3f33a61461079e57600080fd5b806398dcd2ca14610685578063a22cb465146106b2578063a70b9f0c146106d2578063b88d4fde146106e8578063c87b56dd1461070857600080fd5b80638456cb59116100f25780638456cb591461060757806389c614b81461061c5780638da5cb5b14610632578063940a4e451461065057806395d89b411461067057600080fd5b80636352211e1461057c57806370a082311461059c578063715018a6146105bc57806376671808146105d15780637eedd90d146105e757600080fd5b806330024dfe116101bc578063492f471c11610180578063492f471c146104c857806353f47f95146104de57806353f96df21461050b57806355f804b31461053d5780635c975abb1461055d57600080fd5b806330024dfe1461043e5780633cf80e6c1461045e5780633f4ba83a1461047357806342842e0e14610488578063439d4b5c146104a857600080fd5b806314773b4f1161020357806314773b4f14610354578063216694a11461038157806323b872dd146103bc57806329523c5c146103dc5780632d8120b51461041157600080fd5b806301ffc9a71461028357806306fdde03146102b8578063081812fc146102da57806308d07bdc14610312578063095ea7b31461033457600080fd5b3661027e57604080513481523360208201527f56b382c0989cb3caa548f6382ea515b7700267067998b761d377320e08679490910160405180910390a1005b600080fd5b34801561028f57600080fd5b506102a361029e366004611cba565b6107be565b60405190151581526020015b60405180910390f35b3480156102c457600080fd5b506102cd610810565b6040516102af9190611d27565b3480156102e657600080fd5b506102fa6102f5366004611d3a565b6108a2565b6040516001600160a01b0390911681526020016102af565b34801561031e57600080fd5b5061033261032d366004611d53565b6108cb565b005b34801561034057600080fd5b5061033261034f366004611d91565b610936565b34801561036057600080fd5b5061037461036f366004611dbb565b610941565b6040516102af9190611dd6565b34801561038d57600080fd5b506103ae61039c366004611d3a565b60116020526000908152604090205481565b6040519081526020016102af565b3480156103c857600080fd5b506103326103d7366004611e1a565b6109ad565b3480156103e857600080fd5b506102a36103f7366004611d3a565b600090815260096020526040902054610100900460ff1690565b34801561041d57600080fd5b506103ae61042c366004611e65565b600a6020526000908152604090205481565b34801561044a57600080fd5b50610332610459366004611d3a565b610a3d565b34801561046a57600080fd5b50610332610a4a565b34801561047f57600080fd5b50610332610b07565b34801561049457600080fd5b506103326104a3366004611e1a565b610b19565b3480156104b457600080fd5b506103326104c3366004611d3a565b610b39565b3480156104d457600080fd5b506103ae60085481565b3480156104ea57600080fd5b506103ae6104f9366004611e65565b600b6020526000908152604090205481565b34801561051757600080fd5b5061052b610526366004611d3a565b610b82565b60405160ff90911681526020016102af565b34801561054957600080fd5b50610332610558366004611e80565b610ba5565b34801561056957600080fd5b50600654600160a01b900460ff166102a3565b34801561058857600080fd5b506102fa610597366004611d3a565b610bba565b3480156105a857600080fd5b506103ae6105b7366004611dbb565b610bc5565b3480156105c857600080fd5b50610332610c0d565b3480156105dd57600080fd5b506103ae600e5481565b3480156105f357600080fd5b50610332610602366004611ef2565b610c1f565b34801561061357600080fd5b50610332610c43565b34801561062857600080fd5b506103ae600f5481565b34801561063e57600080fd5b506006546001600160a01b03166102fa565b34801561065c57600080fd5b5061033261066b366004611d3a565b610c53565b34801561067c57600080fd5b506102cd610c79565b34801561069157600080fd5b506103ae6106a0366004611f25565b60106020526000908152604090205481565b3480156106be57600080fd5b506103326106cd366004611f48565b610c88565b3480156106de57600080fd5b506103ae600d5481565b3480156106f457600080fd5b50610332610703366004611f9a565b610c93565b34801561071457600080fd5b506102cd610723366004611d3a565b610caa565b34801561073457600080fd5b506102a3610743366004612076565b610d12565b34801561075457600080fd5b506103ae60125481565b34801561076a57600080fd5b506103326107793660046120ec565b610d40565b34801561078a57600080fd5b50610332610799366004611dbb565b610e1d565b3480156107aa57600080fd5b506103ae6107b9366004611e65565b610e58565b60006001600160e01b031982166380ac58cd60e01b14806107ef57506001600160e01b03198216635b5e139f60e01b145b8061080a57506301ffc9a760e01b6001600160e01b03198316145b92915050565b60606000805461081f90612158565b80601f016020809104026020016040519081016040528092919081815260200182805461084b90612158565b80156108985780601f1061086d57610100808354040283529160200191610898565b820191906000526020600020905b81548152906001019060200180831161087b57829003601f168201915b5050505050905090565b60006108ad82610ed0565b506000828152600460205260409020546001600160a01b031661080a565b6108d3610f09565b6108db610f33565b60085460008183106108f7576108f26001836121a8565b6108f9565b825b9050835b8181116109255780156109135761091381610f5e565b8061091d816121bb565b9150506108fd565b5050506109326001600755565b5050565b610932828233611165565b6001600160a01b0381166000908152600c60209081526040918290208054835181840281018401909452808452606093928301828280156109a157602002820191906000526020600020905b81548152602001906001019080831161098d575b50505050509050919050565b6001600160a01b0382166109dc57604051633250574960e11b8152600060048201526024015b60405180910390fd5b60006109e9838333611172565b9050836001600160a01b0316816001600160a01b031614610a37576040516364283d7b60e01b81526001600160a01b03808616600483015260248201849052821660448201526064016109d3565b50505050565b610a456111de565b600d55565b600d54600f54610a5a91906121d4565b421015610aa95760405162461bcd60e51b815260206004820152601a60248201527f45706f6368206475726174696f6e206e6f74207265616368656400000000000060448201526064016109d3565b600e8054906000610ab9836121bb565b909155505042600f819055600e546040517facfa06cebbab8226f9a388bff9f5fcf4569298028d939f4765958dc57dbb330b92610afd928252602082015260400190565b60405180910390a1565b610b0f6111de565b610b1761120b565b565b610b3483838360405180602001604052806000815250610c93565b505050565b610b416111de565b600081815260096020526040808220805461ff00191690555182917ff8ecc300d4504a2b49692052f138b7e697df679cf0580522720ce405bd01be5591a250565b60008181526009602052604081205460ff16600381111561080a5761080a6121e7565b610bad6111de565b6013610b3482848361224b565b600061080a82610ed0565b60006001600160a01b038216610bf1576040516322718ad960e21b8152600060048201526024016109d3565b506001600160a01b031660009081526003602052604090205490565b610c156111de565b610b17600061125b565b610c276111de565b610c2f610f09565b610c3982826112ad565b6109326001600755565b610c4b6111de565b610b176114d3565b610c5b610f09565b610c63610f33565b610c6c81610f5e565b610c766001600755565b50565b60606001805461081f90612158565b610932338383611516565b610c9e8484846109ad565b610a37848484846115ad565b6060610cb582610ed0565b506000610cc06116d6565b90506000815111610ce05760405180602001604052806000815250610d0b565b80610cea846116e5565b604051602001610cfb92919061230b565b6040516020818303038152906040525b9392505050565b6001600160a01b03918216600090815260056020908152604080832093909416825291909152205460ff1690565b610d486111de565b610d50610f09565b828114610d9f5760405162461bcd60e51b815260206004820152601860248201527f4172726179206c656e67746873206d757374206d61746368000000000000000060448201526064016109d3565b60005b83811015610e1257610e00858583818110610dbf57610dbf61233a565b9050602002016020810190610dd49190611dbb565b848484818110610de657610de661233a565b9050602002016020810190610dfb9190611e65565b6112ad565b80610e0a816121bb565b915050610da2565b50610a376001600755565b610e256111de565b6001600160a01b038116610e4f57604051631e4fbdf760e01b8152600060048201526024016109d3565b610c768161125b565b6000600b6000836003811115610e7057610e706121e7565b6003811115610e8157610e816121e7565b815260200190815260200160002054600a6000846003811115610ea657610ea66121e7565b6003811115610eb757610eb76121e7565b81526020019081526020016000205461080a91906121a8565b6000818152600260205260408120546001600160a01b03168061080a57604051637e27328960e01b8152600481018490526024016109d3565b600260075403610f2c57604051633ee5aeb560e01b815260040160405180910390fd5b6002600755565b600654600160a01b900460ff1615610b175760405163d93c066560e01b815260040160405180910390fd5b600081815260096020526040902054610100900460ff16610f7c5750565b600081815260116020526040902054600e548110610f98575050565b600081600e54610fa891906121a8565b6000848152600960205260408120549192509060ff166003811115610fcf57610fcf6121e7565b60ff811660009081526010602052604081205491925090610ff09084612350565b90508047101561103a5760408051868152602081018390527fcf4791818fba6e019216eb4864093b4947f674afada5d305e57d598b641dad1d910160405180910390a15050505050565b600061104586610bba565b90506000816001600160a01b031683620186a090604051600060405180830381858888f193505050503d806000811461109a576040519150601f19603f3d011682016040523d82523d6000602084013e61109f565b606091505b50509050806110e65760405162461bcd60e51b815260206004820152601360248201527211139488151c985b9cd9995c8811985a5b1959606a1b60448201526064016109d3565b600e546000888152601160205260408120919091556012805485929061110d9084906121d4565b9091555050600e5460408051858152602081019290925288916001600160a01b038516917ff0f44087179a926066b42ce5c1720884709cd0766b995b4595a33c8e4fd3a2b2910160405180910390a350505050505050565b610b348383836001611778565b60008061118085858561187e565b90506001600160a01b0381161561119b5761119b8185611977565b6001600160a01b038516156111d6576001600160a01b0385166000908152600c60209081526040822080546001810182559083529120018490555b949350505050565b6006546001600160a01b03163314610b175760405163118cdaa760e01b81523360048201526024016109d3565b611213611a45565b6006805460ff60a01b191690557f5db9ee0a495bf2e6ff9c91a7834c1ba4fdd244a5e8aa4e537bd38aeae4b073aa335b6040516001600160a01b039091168152602001610afd565b600680546001600160a01b038381166001600160a01b0319831681179093556040519116919082907f8be0079c531659141344cd1fd0a4f28419497f9722a3daafe3b4186f6b6457e090600090a35050565b600a60008260038111156112c3576112c36121e7565b60038111156112d4576112d46121e7565b815260200190815260200160002054600b60008360038111156112f9576112f96121e7565b600381111561130a5761130a6121e7565b815260200190815260200160002054106113665760405162461bcd60e51b815260206004820152601d60248201527f537570706c7920657863656564656420666f722074686973207469657200000060448201526064016109d3565b6008805460009182611377836121bb565b9190505590506113878382611a6f565b60405180606001604052808360038111156113a4576113a46121e7565b8152600160208083018290524260409384015260008581526009909152919091208251815491929091839160ff19909116908360038111156113e8576113e86121e7565b0217905550602082015181549015156101000261ff0019909116178155604090910151600190910155600e5461141f57600061142e565b6001600e5461142e91906121a8565b600082815260116020526040812091909155600b90836003811115611455576114556121e7565b6003811115611466576114666121e7565b81526020019081526020016000206000815480929190611485906121bb565b919050555080836001600160a01b03167f086d86777613c0607b2b012890e8fd22e796dd3c9572baf2247f7b22de396f1b84426040516114c6929190612367565b60405180910390a3505050565b6114db610f33565b6006805460ff60a01b1916600160a01b1790557f62e78cea01bee320cd4e420270b5ea74000d11b0c9f74754ebdbfc544b05a2586112433390565b6001600160a01b03821661154857604051630b61174360e31b81526001600160a01b03831660048201526024016109d3565b6001600160a01b03838116600081815260056020908152604080832094871680845294825291829020805460ff191686151590811790915591519182527f17307eab39ab6107e8899845ad3d59bd9653f200f220920489ca2b5937696c3191016114c6565b6001600160a01b0383163b15610a3757604051630a85bd0160e11b81526001600160a01b0384169063150b7a02906115ef903390889087908790600401612393565b6020604051808303816000875af192505050801561162a575060408051601f3d908101601f19168201909252611627918101906123d0565b60015b611693573d808015611658576040519150601f19603f3d011682016040523d82523d6000602084013e61165d565b606091505b50805160000361168b57604051633250574960e11b81526001600160a01b03851660048201526024016109d3565b805181602001fd5b6001600160e01b03198116630a85bd0160e11b146116cf57604051633250574960e11b81526001600160a01b03851660048201526024016109d3565b5050505050565b60606013805461081f90612158565b606060006116f283611a89565b600101905060008167ffffffffffffffff81111561171257611712611f84565b6040519080825280601f01601f19166020018201604052801561173c576020820181803683370190505b5090508181016020015b600019016f181899199a1a9b1b9c1cb0b131b232b360811b600a86061a8153600a850494508461174657509392505050565b808061178c57506001600160a01b03821615155b1561184e57600061179c84610ed0565b90506001600160a01b038316158015906117c85750826001600160a01b0316816001600160a01b031614155b80156117db57506117d98184610d12565b155b156118045760405163a9fbf51f60e01b81526001600160a01b03841660048201526024016109d3565b811561184c5783856001600160a01b0316826001600160a01b03167f8c5be1e5ebec7d5bd14f71427d1e84f3dd0314c0f7b2291e5b200ac8c7c3b92560405160405180910390a45b505b5050600090815260046020526040902080546001600160a01b0319166001600160a01b0392909216919091179055565b6000828152600260205260408120546001600160a01b03908116908316156118ab576118ab818486611b61565b6001600160a01b038116156118e9576118c8600085600080611778565b6001600160a01b038116600090815260036020526040902080546000190190555b6001600160a01b03851615611918576001600160a01b0385166000908152600360205260409020805460010190555b60008481526002602052604080822080546001600160a01b0319166001600160a01b0389811691821790925591518793918516917fddf252ad1be2c89b69c2b068fc378daa952ba7f163c4a11628f55a4df523b3ef91a4949350505050565b6001600160a01b0382166000908152600c60205260408120905b8154811015610a3757828282815481106119ad576119ad61233a565b906000526020600020015403611a3357815482906119cd906001906121a8565b815481106119dd576119dd61233a565b90600052602060002001548282815481106119fa576119fa61233a565b906000526020600020018190555081805480611a1857611a186123ed565b60019003818190600052602060002001600090559055610a37565b80611a3d816121bb565b915050611991565b600654600160a01b900460ff16610b1757604051638dfc202b60e01b815260040160405180910390fd5b610932828260405180602001604052806000815250611bc5565b60008072184f03e93ff9f4daa797ed6e38ed64bf6a1f0160401b8310611ac85772184f03e93ff9f4daa797ed6e38ed64bf6a1f0160401b830492506040015b6d04ee2d6d415b85acef81000000008310611af4576d04ee2d6d415b85acef8100000000830492506020015b662386f26fc100008310611b1257662386f26fc10000830492506010015b6305f5e1008310611b2a576305f5e100830492506008015b6127108310611b3e57612710830492506004015b60648310611b50576064830492506002015b600a831061080a5760010192915050565b611b6c838383611bdc565b610b34576001600160a01b038316611b9a57604051637e27328960e01b8152600481018290526024016109d3565b60405163177e802f60e01b81526001600160a01b0383166004820152602481018290526044016109d3565b611bcf8383611c3f565b610b3460008484846115ad565b60006001600160a01b038316158015906111d65750826001600160a01b0316846001600160a01b03161480611c165750611c168484610d12565b806111d65750506000908152600460205260409020546001600160a01b03908116911614919050565b6001600160a01b038216611c6957604051633250574960e11b8152600060048201526024016109d3565b6000611c7783836000611172565b90506001600160a01b03811615610b34576040516339e3563760e11b8152600060048201526024016109d3565b6001600160e01b031981168114610c7657600080fd5b600060208284031215611ccc57600080fd5b8135610d0b81611ca4565b60005b83811015611cf2578181015183820152602001611cda565b50506000910152565b60008151808452611d13816020860160208601611cd7565b601f01601f19169290920160200192915050565b602081526000610d0b6020830184611cfb565b600060208284031215611d4c57600080fd5b5035919050565b60008060408385031215611d6657600080fd5b50508035926020909101359150565b80356001600160a01b0381168114611d8c57600080fd5b919050565b60008060408385031215611da457600080fd5b611dad83611d75565b946020939093013593505050565b600060208284031215611dcd57600080fd5b610d0b82611d75565b6020808252825182820181905260009190848201906040850190845b81811015611e0e57835183529284019291840191600101611df2565b50909695505050505050565b600080600060608486031215611e2f57600080fd5b611e3884611d75565b9250611e4660208501611d75565b9150604084013590509250925092565b803560048110611d8c57600080fd5b600060208284031215611e7757600080fd5b610d0b82611e56565b60008060208385031215611e9357600080fd5b823567ffffffffffffffff80821115611eab57600080fd5b818501915085601f830112611ebf57600080fd5b813581811115611ece57600080fd5b866020828501011115611ee057600080fd5b60209290920196919550909350505050565b60008060408385031215611f0557600080fd5b611f0e83611d75565b9150611f1c60208401611e56565b90509250929050565b600060208284031215611f3757600080fd5b813560ff81168114610d0b57600080fd5b60008060408385031215611f5b57600080fd5b611f6483611d75565b915060208301358015158114611f7957600080fd5b809150509250929050565b634e487b7160e01b600052604160045260246000fd5b60008060008060808587031215611fb057600080fd5b611fb985611d75565b9350611fc760208601611d75565b925060408501359150606085013567ffffffffffffffff80821115611feb57600080fd5b818701915087601f830112611fff57600080fd5b81358181111561201157612011611f84565b604051601f8201601f19908116603f0116810190838211818310171561203957612039611f84565b816040528281528a602084870101111561205257600080fd5b82602086016020830137600060208483010152809550505050505092959194509250565b6000806040838503121561208957600080fd5b61209283611d75565b9150611f1c60208401611d75565b60008083601f8401126120b257600080fd5b50813567ffffffffffffffff8111156120ca57600080fd5b6020830191508360208260051b85010111156120e557600080fd5b9250929050565b6000806000806040858703121561210257600080fd5b843567ffffffffffffffff8082111561211a57600080fd5b612126888389016120a0565b9096509450602087013591508082111561213f57600080fd5b5061214c878288016120a0565b95989497509550505050565b600181811c9082168061216c57607f821691505b60208210810361218c57634e487b7160e01b600052602260045260246000fd5b50919050565b634e487b7160e01b600052601160045260246000fd5b8181038181111561080a5761080a612192565b6000600182016121cd576121cd612192565b5060010190565b8082018082111561080a5761080a612192565b634e487b7160e01b600052602160045260246000fd5b601f821115610b3457600081815260208120601f850160051c810160208610156122245750805b601f850160051c820191505b8181101561224357828155600101612230565b505050505050565b67ffffffffffffffff83111561226357612263611f84565b612277836122718354612158565b836121fd565b6000601f8411600181146122ab57600085156122935750838201355b600019600387901b1c1916600186901b1783556116cf565b600083815260209020601f19861690835b828110156122dc57868501358255602094850194600190920191016122bc565b50868210156122f95760001960f88860031b161c19848701351681555b505060018560011b0183555050505050565b6000835161231d818460208801611cd7565b835190830190612331818360208801611cd7565b01949350505050565b634e487b7160e01b600052603260045260246000fd5b808202811582820484141761080a5761080a612192565b604081016004841061238957634e487b7160e01b600052602160045260246000fd5b9281526020015290565b6001600160a01b03858116825284166020820152604081018390526080606082018190526000906123c690830184611cfb565b9695505050505050565b6000602082840312156123e257600080fd5b8151610d0b81611ca4565b634e487b7160e01b600052603160045260246000fdfea26469706673582212206b8fc07036f674833dc60eabc776b6236394e9a6d08590ae6b03426bc97bd16864736f6c63430008140033",
  "linkReferences": {},
  "deployedLinkReferences": {}
}