{
  "_format": "hh-sol-artifact-1",
  "contractName": "KortanaLicenseNFT",
  "sourceName": "contracts/KortanaLicenseNFT.sol",
  "abi": [
    {
      "inputs": [],
      "stateMutability": "nonpayable",
      "type": "constructor"
    },
    {
      "inputs": [
        {
          "internalType": "address",
          "name": "sender",
          "type": "address"
        },
        {
          "internalType": "uint256",
          "name": "tokenId",
          "type": "uint256"
        },
        {
          "internalType": "address",
          "name": "owner",
          "type": "address"
        }
      ],
      "name": "ERC721IncorrectOwner",
      "type": "error"
    },
    {
      "inputs": [
        {
          "internalType": "address",
          "name": "operator",
          "type": "address"
        },
        {
          "internalType": "uint256",
          "name": "tokenId",
          "type": "uint256"
        }
      ],
      "name": "ERC721InsufficientApproval",
      "type": "error"
    },
    {
      "inputs": [
        {
          "internalType": "address",
          "name": "approver",
          "type": "address"
        }
      ],
      "name": "ERC721InvalidApprover",
      "type": "error"
    },
    {
      "inputs": [
        {
          "internalType": "address",
          "name": "operator",
          "type": "address"
        }
      ],
      "name": "ERC721InvalidOperator",
      "type": "error"
    },
    {
      "inputs": [
        {
          "internalType": "address",
          "name": "owner",
          "type": "address"
        }
      ],
      "name": "ERC721InvalidOwner",
      "type": "error"
    },
    {
      "inputs": [
        {
          "internalType": "address",
          "name": "receiver",
          "type": "address"
        }
      ],
      "name": "ERC721InvalidReceiver",
      "type": "error"
    },
    {
      "inputs": [
        {
          "internalType": "address",
          "name": "sender",
          "type": "address"
        }
      ],
      "name": "ERC721InvalidSender",
      "type": "error"
    },
    {
      "inputs": [
        {
          "internalType": "uint256",
          "name": "tokenId",
          "type": "uint256"
        }
      ],
      "name": "ERC721NonexistentToken",
      "type": "error"
    },
    {
      "inputs": [],
      "name": "EnforcedPause",
      "type": "error"
    },
    {
      "inputs": [],
      "name": "ExpectedPause",
      "type": "error"
    },
    {
      "inputs": [
        {
          "internalType": "address",
          "name": "owner",
          "type": "address"
        }
      ],
      "name": "OwnableInvalidOwner",
      "type": "error"
    },
    {
      "inputs": [
        {
          "internalType": "address",
          "name": "account",
          "type": "address"
        }
      ],
      "name": "OwnableUnauthorizedAccount",
      "type": "error"
    },
    {
      "inputs": [],
      "name": "ReentrancyGuardReentrantCall",
      "type": "error"
    },
    {
      "anonymous": false,
      "inputs": [
        {
          "indexed": true,
          "internalType": "address",
          "name": "owner",
          "type": "address"
        },
        {
          "indexed": true,
          "internalType": "address",
          "name": "approved",
          "type": "address"
        },
        {
          "indexed": true,
          "internalType": "uint256",
          "name": "tokenId",
          "type": "uint256"
        }
      ],
      "name": "Approval",
      "type": "event"
    },
    {
      "anonymous": false,
      "inputs": [
        {
          "indexed": true,
          "internalType": "address",
          "name": "owner",
          "type": "address"
        },
        {
          "indexed": true,
          "internalType": "address",
          "name": "operator",
          "type": "address"
        },
        {
          "indexed": false,
          "internalType": "bool",
          "name": "approved",
          "type": "bool"
        }
      ],
      "name": "ApprovalForAll",
      "type": "event"
    },
    {
      "anonymous": false,
      "inputs": [
        {
          "indexed": true,
          "internalType": "address",
          "name": "buyer",
          "type": "address"
        },
        {
          "indexed": true,
          "internalType": "uint256",
          "name": "licenseId",
          "type": "uint256"
        },
        {
          "indexed": false,
          "internalType": "enum KortanaLicenseNFT.Tier",
          "name": "tier",
          "type": "uint8"
        },
        {
          "indexed": false,
          "internalType": "uint256",
          "name": "timestamp",
          "type": "uint256"
        }
      ],
      "name": "LicenseMinted",
      "type": "event"
    },
    {
      "anonymous": false,
      "inputs": [
        {
          "indexed": true,
          "internalType": "uint256",
          "name": "licenseId",
          "type": "uint256"
        }
      ],
      "name": "LicenseRevoked",
      "type": "event"
    },
    {
      "anonymous": false,
      "inputs": [
        {
          "indexed": true,
          "internalType": "address",
          "name": "previousOwner",
          "type": "address"
        },
        {
          "indexed": true,
          "internalType": "address",
          "name": "newOwner",
          "type": "address"
        }
      ],
      "name": "OwnershipTransferred",
      "type": "event"
    },
    {
      "anonymous": false,
      "inputs": [
        {
          "indexed": false,
          "internalType": "address",
          "name": "account",
          "type": "address"
        }
      ],
      "name": "Paused",
      "type": "event"
    },
    {
      "anonymous": false,
      "inputs": [
        {
          "indexed": true,
          "internalType": "address",
          "name": "from",
          "type": "address"
        },
        {
          "indexed": true,
          "internalType": "address",
          "name": "to",
          "type": "address"
        },
        {
          "indexed": true,
          "internalType": "uint256",
          "name": "tokenId",
          "type": "uint256"
        }
      ],
      "name": "Transfer",
      "type": "event"
    },
    {
      "anonymous": false,
      "inputs": [
        {
          "indexed": false,
          "internalType": "address",
          "name": "account",
          "type": "address"
        }
      ],
      "name": "Unpaused",
      "type": "event"
    },
    {
      "inputs": [
        {
          "internalType": "address",
          "name": "to",
          "type": "address"
        },
        {
          "internalType": "uint256",
          "name": "tokenId",
          "type": "uint256"
        }
      ],
      "name": "approve",
      "outputs": [],
      "stateMutability": "nonpayable",
      "type": "function"
    },
    {
      "inputs": [
        {
          "internalType": "address",
          "name": "owner",
          "type": "address"
        }
      ],
      "name": "balanceOf",
      "outputs": [
        {
          "internalType": "uint256",
          "name": "",
          "type": "uint256"
        }
      ],
      "stateMutability": "view",
      "type": "function"
    },
    {
      "inputs": [
        {
          "internalType": "address[]",
          "name": "buyers",
          "type": "address[]"
        },
        {
          "internalType": "enum KortanaLicenseNFT.Tier[]",
          "name": "tiers",
          "type": "uint8[]"
        }
      ],
      "name": "batchMintLicense",
      "outputs": [],
      "stateMutability": "nonpayable",
      "type": "function"
    },
    {
      "inputs": [
        {
          "internalType": "uint256",
          "name": "tokenId",
          "type": "uint256"
        }
      ],
      "name": "getApproved",
      "outputs": [
        {
          "internalType": "address",
          "name": "",
          "type": "address"
        }
      ],
      "stateMutability": "view",
      "type": "function"
    },
    {
      "inputs": [
        {
          "internalType": "uint256",
          "name": "licenseId",
          "type": "uint256"
        }
      ],
      "name": "getLicenseDetails",
      "outputs": [
        {
          "internalType": "address",
          "name": "owner",
          "type": "address"
        },
        {
          "internalType": "enum KortanaLicenseNFT.Tier",
          "name": "tier",
          "type": "uint8"
        },
        {
          "internalType": "bool",
          "name": "active",
          "type": "bool"
        },
        {
          "internalType": "uint256",
          "name": "mintedAt",
          "type": "uint256"
        }
      ],
      "stateMutability": "view",
      "type": "function"
    },
    {
      "inputs": [
        {
          "internalType": "address",
          "name": "holder",
          "type": "address"
        }
      ],
      "name": "getLicenses",
      "outputs": [
        {
          "internalType": "uint256[]",
          "name": "",
          "type": "uint256[]"
        }
      ],
      "stateMutability": "view",
      "type": "function"
    },
    {
      "inputs": [
        {
          "internalType": "enum KortanaLicenseNFT.Tier",
          "name": "tier",
          "type": "uint8"
        }
      ],
      "name": "getRemainingSupply",
      "outputs": [
        {
          "internalType": "uint256",
          "name": "",
          "type": "uint256"
        }
      ],
      "stateMutability": "view",
      "type": "function"
    },
    {
      "inputs": [
        {
          "internalType": "address",
          "name": "owner",
          "type": "address"
        },
        {
          "internalType": "address",
          "name": "operator",
          "type": "address"
        }
      ],
      "name": "isApprovedForAll",
      "outputs": [
        {
          "internalType": "bool",
          "name": "",
          "type": "bool"
        }
      ],
      "stateMutability": "view",
      "type": "function"
    },
    {
      "inputs": [
        {
          "internalType": "uint256",
          "name": "licenseId",
          "type": "uint256"
        }
      ],
      "name": "licenseActive",
      "outputs": [
        {
          "internalType": "bool",
          "name": "",
          "type": "bool"
        }
      ],
      "stateMutability": "view",
      "type": "function"
    },
    {
      "inputs": [
        {
          "internalType": "enum KortanaLicenseNFT.Tier",
          "name": "",
          "type": "uint8"
        }
      ],
      "name": "maxSupply",
      "outputs": [
        {
          "internalType": "uint256",
          "name": "",
          "type": "uint256"
        }
      ],
      "stateMutability": "view",
      "type": "function"
    },
    {
      "inputs": [
        {
          "internalType": "address",
          "name": "buyer",
          "type": "address"
        },
        {
          "internalType": "enum KortanaLicenseNFT.Tier",
          "name": "tier",
          "type": "uint8"
        }
      ],
      "name": "mintLicense",
      "outputs": [],
      "stateMutability": "nonpayable",
      "type": "function"
    },
    {
      "inputs": [],
      "name": "name",
      "outputs": [
        {
          "internalType": "string",
          "name": "",
          "type": "string"
        }
      ],
      "stateMutability": "view",
      "type": "function"
    },
    {
      "inputs": [],
      "name": "nextLicenseId",
      "outputs": [
        {
          "internalType": "uint256",
          "name": "",
          "type": "uint256"
        }
      ],
      "stateMutability": "view",
      "type": "function"
    },
    {
      "inputs": [],
      "name": "owner",
      "outputs": [
        {
          "internalType": "address",
          "name": "",
          "type": "address"
        }
      ],
      "stateMutability": "view",
      "type": "function"
    },
    {
      "inputs": [
        {
          "internalType": "uint256",
          "name": "tokenId",
          "type": "uint256"
        }
      ],
      "name": "ownerOf",
      "outputs": [
        {
          "internalType": "address",
          "name": "",
          "type": "address"
        }
      ],
      "stateMutability": "view",
      "type": "function"
    },
    {
      "inputs": [],
      "name": "pause",
      "outputs": [],
      "stateMutability": "nonpayable",
      "type": "function"
    },
    {
      "inputs": [],
      "name": "paused",
      "outputs": [
        {
          "internalType": "bool",
          "name": "",
          "type": "bool"
        }
      ],
      "stateMutability": "view",
      "type": "function"
    },
    {
      "inputs": [],
      "name": "renounceOwnership",
      "outputs": [],
      "stateMutability": "nonpayable",
      "type": "function"
    },
    {
      "inputs": [
        {
          "internalType": "uint256",
          "name": "licenseId",
          "type": "uint256"
        }
      ],
      "name": "revokeLicense",
      "outputs": [],
      "stateMutability": "nonpayable",
      "type": "function"
    },
    {
      "inputs": [
        {
          "internalType": "address",
          "name": "from",
          "type": "address"
        },
        {
          "internalType": "address",
          "name": "to",
          "type": "address"
        },
        {
          "internalType": "uint256",
          "name": "tokenId",
          "type": "uint256"
        }
      ],
      "name": "safeTransferFrom",
      "outputs": [],
      "stateMutability": "nonpayable",
      "type": "function"
    },
    {
      "inputs": [
        {
          "internalType": "address",
          "name": "from",
          "type": "address"
        },
        {
          "internalType": "address",
          "name": "to",
          "type": "address"
        },
        {
          "internalType": "uint256",
          "name": "tokenId",
          "type": "uint256"
        },
        {
          "internalType": "bytes",
          "name": "data",
          "type": "bytes"
        }
      ],
      "name": "safeTransferFrom",
      "outputs": [],
      "stateMutability": "nonpayable",
      "type": "function"
    },
    {
      "inputs": [
        {
          "internalType": "address",
          "name": "operator",
          "type": "address"
        },
        {
          "internalType": "bool",
          "name": "approved",
          "type": "bool"
        }
      ],
      "name": "setApprovalForAll",
      "outputs": [],
      "stateMutability": "nonpayable",
      "type": "function"
    },
    {
      "inputs": [
        {
          "internalType": "string",
          "name": "baseURI_",
          "type": "string"
        }
      ],
      "name": "setBaseURI",
      "outputs": [],
      "stateMutability": "nonpayable",
      "type": "function"
    },
    {
      "inputs": [
        {
          "internalType": "bytes4",
          "name": "interfaceId",
          "type": "bytes4"
        }
      ],
      "name": "supportsInterface",
      "outputs": [
        {
          "internalType": "bool",
          "name": "",
          "type": "bool"
        }
      ],
      "stateMutability": "view",
      "type": "function"
    },
    {
      "inputs": [],
      "name": "symbol",
      "outputs": [
        {
          "internalType": "string",
          "name": "",
          "type": "string"
        }
      ],
      "stateMutability": "view",
      "type": "function"
    },
    {
      "inputs": [
        {
          "internalType": "uint256",
          "name": "licenseId",
          "type": "uint256"
        }
      ],
      "name": "tierOf",
      "outputs": [
        {
          "internalType": "uint8",
          "name": "",
          "type": "uint8"
        }
      ],
      "stateMutability": "view",
      "type": "function"
    },
    {
      "inputs": [
        {
          "internalType": "uint256",
          "name": "tokenId",
          "type": "uint256"
        }
      ],
      "name": "tokenURI",
      "outputs": [
        {
          "internalType": "string",
          "name": "",
          "type": "string"
        }
      ],
      "stateMutability": "view",
      "type": "function"
    },
    {
      "inputs": [
        {
          "internalType": "enum KortanaLicenseNFT.Tier",
          "name": "",
          "type": "uint8"
        }
      ],
      "name": "totalMinted",
      "outputs": [
        {
          "internalType": "uint256",
          "name": "",
          "type": "uint256"
        }
      ],
      "stateMutability": "view",
      "type": "function"
    },
    {
      "inputs": [
        {
          "internalType": "address",
          "name": "from",
          "type": "address"
        },
        {
          "internalType": "address",
          "name": "to",
          "type": "address"
        },
        {
          "internalType": "uint256",
          "name": "tokenId",
          "type": "uint256"
        }
      ],
      "name": "transferFrom",
      "outputs": [],
      "stateMutability": "nonpayable",
      "type": "function"
    },
    {
      "inputs": [
        {
          "internalType": "address",
          "name": "newOwner",
          "type": "address"
        }
      ],
      "name": "transferOwnership",
      "outputs": [],
      "stateMutability": "nonpayable",
      "type": "function"
    },
    {
      "inputs": [],
      "name": "unpause",
      "outputs": [],
      "stateMutability": "nonpayable",
      "type": "function"
    },
    {
      "inputs": [
        {
          "internalType": "address",
          "name": "newFoundation",
          "type": "address"
        }
      ],
      "name": "updateFoundation",
      "outputs": [],
      "stateMutability": "nonpayable",
      "type": "function"
    }
  ],
  "bytecode": "0x608060405260016008553480156200001657600080fd5b50336040518060400160405280601481526020017f4b6f7274616e61204e6f6465204c6963656e73650000000000000000000000008152506040518060400160405280600381526020016212d39360ea1b81525081600090816200007b919062000274565b5060016200008a828262000274565b5050506001600160a01b038116620000bc57604051631e4fbdf760e01b81526000600482015260240160405180910390fd5b620000c7816200017d565b506006805460ff60a01b191690556001600755600a6020526103e87f13da86008ba1c6922daee3e07db95305ef49ebced9f5467a0b8613fcc6b343e38190556107d07fbbc70db1b6c7afd11e79c0fb0051300458f1a3acb8ee9789d9b6b26c61ad9bc7557fbff4442b8ed600beeb8e26b1279a0f0d14c6edfaec26d968ee13c86f7d4c2ba85560036000526101f47fa856840544dc26124927add067d799967eac11be13e14d82cc281ea46fa397595562000340565b600680546001600160a01b038381166001600160a01b0319831681179093556040519116919082907f8be0079c531659141344cd1fd0a4f28419497f9722a3daafe3b4186f6b6457e090600090a35050565b634e487b7160e01b600052604160045260246000fd5b600181811c90821680620001fa57607f821691505b6020821081036200021b57634e487b7160e01b600052602260045260246000fd5b50919050565b601f8211156200026f57600081815260208120601f850160051c810160208610156200024a5750805b601f850160051c820191505b818110156200026b5782815560010162000256565b5050505b505050565b81516001600160401b03811115620002905762000290620001cf565b620002a881620002a18454620001e5565b8462000221565b602080601f831160018114620002e05760008415620002c75750858301515b600019600386901b1c1916600185901b1785556200026b565b600085815260208120601f198616915b828110156200031157888601518255948401946001909101908401620002f0565b5085821015620003305787850151600019600388901b60f8161c191681555b5050505050600190811b01905550565b611ea480620003506000396000f3fe608060405234801561001057600080fd5b50600436106101f05760003560e01c80636352211e1161010f578063a22cb465116100a2578063e985e9c511610071578063e985e9c51461046d578063effa26fc14610480578063f2fde38b14610493578063fa3f33a6146104a657600080fd5b8063a22cb46514610421578063b88d4fde14610434578063c3ab251014610447578063c87b56dd1461045a57600080fd5b80638456cb59116100de5780638456cb59146103dd5780638da5cb5b146103e557806395d89b41146103f6578063967d56fd146103fe57600080fd5b80636352211e1461039c57806370a08231146103af578063715018a6146103c25780637eedd90d146103ca57600080fd5b80633f4ba83a1161018757806353f47f951161015657806353f47f951461033257806353f96df21461035257806355f804b3146103775780635c975abb1461038a57600080fd5b80633f4ba83a146102fb57806342842e0e14610303578063439d4b5c14610316578063492f471c1461032957600080fd5b806314773b4f116101c357806314773b4f1461027257806323b872dd1461029257806329523c5c146102a55780632d8120b5146102cd57600080fd5b806301ffc9a7146101f557806306fdde031461021d578063081812fc14610232578063095ea7b31461025d575b600080fd5b610208610203366004611754565b6104b9565b60405190151581526020015b60405180910390f35b61022561050b565b60405161021491906117c1565b6102456102403660046117d4565b61059d565b6040516001600160a01b039091168152602001610214565b61027061026b366004611809565b6105c6565b005b610285610280366004611833565b6105d5565b604051610214919061184e565b6102706102a0366004611892565b610641565b6102086102b33660046117d4565b600090815260096020526040902054610100900460ff1690565b6102ed6102db3660046118dd565b600a6020526000908152604090205481565b604051908152602001610214565b6102706106d1565b610270610311366004611892565b6106e3565b6102706103243660046117d4565b610703565b6102ed60085481565b6102ed6103403660046118dd565b600b6020526000908152604090205481565b6103656103603660046117d4565b61074c565b60405160ff9091168152602001610214565b6102706103853660046118f8565b6107c6565b600654600160a01b900460ff16610208565b6102456103aa3660046117d4565b6107db565b6102ed6103bd366004611833565b6107e6565b61027061082e565b6102706103d836600461196a565b610840565b610270610864565b6006546001600160a01b0316610245565b610225610874565b61041161040c3660046117d4565b610883565b60405161021494939291906119d5565b61027061042f366004611a04565b610919565b610270610442366004611a56565b610924565b610270610455366004611833565b61093b565b6102256104683660046117d4565b61094f565b61020861047b366004611b32565b6109b7565b61027061048e366004611ba8565b6109e5565b6102706104a1366004611833565b610ac2565b6102ed6104b43660046118dd565b610afd565b60006001600160e01b031982166380ac58cd60e01b14806104ea57506001600160e01b03198216635b5e139f60e01b145b8061050557506301ffc9a760e01b6001600160e01b03198316145b92915050565b60606000805461051a90611c14565b80601f016020809104026020016040519081016040528092919081815260200182805461054690611c14565b80156105935780601f1061056857610100808354040283529160200191610593565b820191906000526020600020905b81548152906001019060200180831161057657829003601f168201915b5050505050905090565b60006105a882610b75565b506000828152600460205260409020546001600160a01b0316610505565b6105d1828233610bae565b5050565b6001600160a01b0381166000908152600c602090815260409182902080548351818402810184019094528084526060939283018282801561063557602002820191906000526020600020905b815481526020019060010190808311610621575b50505050509050919050565b6001600160a01b03821661067057604051633250574960e11b8152600060048201526024015b60405180910390fd5b600061067d838333610bbb565b9050836001600160a01b0316816001600160a01b0316146106cb576040516364283d7b60e01b81526001600160a01b0380861660048301526024820184905282166044820152606401610667565b50505050565b6106d9610c27565b6106e1610c54565b565b6106fe83838360405180602001604052806000815250610924565b505050565b61070b610c27565b600081815260096020526040808220805461ff00191690555182917ff8ecc300d4504a2b49692052f138b7e697df679cf0580522720ce405bd01be5591a250565b6000818152600960205260408120600101546107a35760405162461bcd60e51b8152602060048201526016602482015275131a58d95b9cd948191bd95cc81b9bdd08195e1a5cdd60521b6044820152606401610667565b60008281526009602052604090205460ff1660038111156105055761050561199d565b6107ce610c27565b600d6106fe828483611c9c565b600061050582610b75565b60006001600160a01b038216610812576040516322718ad960e21b815260006004820152602401610667565b506001600160a01b031660009081526003602052604090205490565b610836610c27565b6106e16000610ca9565b610848610c27565b610850610cfb565b61085a8282610d25565b6105d16001600755565b61086c610c27565b6106e1610f42565b60606001805461051a90611c14565b6000818152600960205260408120600101548190819081906108e05760405162461bcd60e51b8152602060048201526016602482015275131a58d95b9cd948191bd95cc81b9bdd08195e1a5cdd60521b6044820152606401610667565b6108e9856107db565b6000958652600960205260409095208054600190910154959660ff80831697610100909304169550909350915050565b6105d1338383610f85565b61092f848484610641565b6106cb8484848461101c565b610943610c27565b61094c81610ac2565b50565b606061095a82610b75565b506000610965611145565b9050600081511161098557604051806020016040528060008152506109b0565b8061098f84611154565b6040516020016109a0929190611d5c565b6040516020818303038152906040525b9392505050565b6001600160a01b03918216600090815260056020908152604080832093909416825291909152205460ff1690565b6109ed610c27565b6109f5610cfb565b828114610a445760405162461bcd60e51b815260206004820152601860248201527f4172726179206c656e67746873206d757374206d6174636800000000000000006044820152606401610667565b60005b83811015610ab757610aa5858583818110610a6457610a64611d8b565b9050602002016020810190610a799190611833565b848484818110610a8b57610a8b611d8b565b9050602002016020810190610aa091906118dd565b610d25565b80610aaf81611db7565b915050610a47565b506106cb6001600755565b610aca610c27565b6001600160a01b038116610af457604051631e4fbdf760e01b815260006004820152602401610667565b61094c81610ca9565b6000600b6000836003811115610b1557610b1561199d565b6003811115610b2657610b2661199d565b815260200190815260200160002054600a6000846003811115610b4b57610b4b61199d565b6003811115610b5c57610b5c61199d565b8152602001908152602001600020546105059190611dd0565b6000818152600260205260408120546001600160a01b03168061050557604051637e27328960e01b815260048101849052602401610667565b6106fe83838360016111e7565b600080610bc98585856112ed565b90506001600160a01b03811615610be457610be481856113e6565b6001600160a01b03851615610c1f576001600160a01b0385166000908152600c60209081526040822080546001810182559083529120018490555b949350505050565b6006546001600160a01b031633146106e15760405163118cdaa760e01b8152336004820152602401610667565b610c5c6114b4565b6006805460ff60a01b191690557f5db9ee0a495bf2e6ff9c91a7834c1ba4fdd244a5e8aa4e537bd38aeae4b073aa335b6040516001600160a01b03909116815260200160405180910390a1565b600680546001600160a01b038381166001600160a01b0319831681179093556040519116919082907f8be0079c531659141344cd1fd0a4f28419497f9722a3daafe3b4186f6b6457e090600090a35050565b600260075403610d1e57604051633ee5aeb560e01b815260040160405180910390fd5b6002600755565b600a6000826003811115610d3b57610d3b61199d565b6003811115610d4c57610d4c61199d565b815260200190815260200160002054600b6000836003811115610d7157610d7161199d565b6003811115610d8257610d8261199d565b81526020019081526020016000205410610dde5760405162461bcd60e51b815260206004820152601d60248201527f537570706c7920657863656564656420666f72207468697320746965720000006044820152606401610667565b6008805460009182610def83611db7565b919050559050610dff83826114de565b6040518060600160405280836003811115610e1c57610e1c61199d565b8152600160208083018290524260409384015260008581526009909152919091208251815491929091839160ff1990911690836003811115610e6057610e6061199d565b0217905550602082015181549015156101000261ff0019909116178155604090910151600190910155600b6000836003811115610e9f57610e9f61199d565b6003811115610eb057610eb061199d565b81526020019081526020016000206000815480929190610ecf90611db7565b90915550506001600160a01b0383166000818152600c6020908152604080832080546001810182559084529190922001839055518291907f086d86777613c0607b2b012890e8fd22e796dd3c9572baf2247f7b22de396f1b90610f359086904290611de3565b60405180910390a3505050565b610f4a6114f8565b6006805460ff60a01b1916600160a01b1790557f62e78cea01bee320cd4e420270b5ea74000d11b0c9f74754ebdbfc544b05a258610c8c3390565b6001600160a01b038216610fb757604051630b61174360e31b81526001600160a01b0383166004820152602401610667565b6001600160a01b03838116600081815260056020908152604080832094871680845294825291829020805460ff191686151590811790915591519182527f17307eab39ab6107e8899845ad3d59bd9653f200f220920489ca2b5937696c319101610f35565b6001600160a01b0383163b156106cb57604051630a85bd0160e11b81526001600160a01b0384169063150b7a029061105e903390889087908790600401611dfe565b6020604051808303816000875af1925050508015611099575060408051601f3d908101601f1916820190925261109691810190611e3b565b60015b611102573d8080156110c7576040519150601f19603f3d011682016040523d82523d6000602084013e6110cc565b606091505b5080516000036110fa57604051633250574960e11b81526001600160a01b0385166004820152602401610667565b805181602001fd5b6001600160e01b03198116630a85bd0160e11b1461113e57604051633250574960e11b81526001600160a01b0385166004820152602401610667565b5050505050565b6060600d805461051a90611c14565b6060600061116183611523565b600101905060008167ffffffffffffffff81111561118157611181611a40565b6040519080825280601f01601f1916602001820160405280156111ab576020820181803683370190505b5090508181016020015b600019016f181899199a1a9b1b9c1cb0b131b232b360811b600a86061a8153600a85049450846111b557509392505050565b80806111fb57506001600160a01b03821615155b156112bd57600061120b84610b75565b90506001600160a01b038316158015906112375750826001600160a01b0316816001600160a01b031614155b801561124a575061124881846109b7565b155b156112735760405163a9fbf51f60e01b81526001600160a01b0384166004820152602401610667565b81156112bb5783856001600160a01b0316826001600160a01b03167f8c5be1e5ebec7d5bd14f71427d1e84f3dd0314c0f7b2291e5b200ac8c7c3b92560405160405180910390a45b505b5050600090815260046020526040902080546001600160a01b0319166001600160a01b0392909216919091179055565b6000828152600260205260408120546001600160a01b039081169083161561131a5761131a8184866115fb565b6001600160a01b03811615611358576113376000856000806111e7565b6001600160a01b038116600090815260036020526040902080546000190190555b6001600160a01b03851615611387576001600160a01b0385166000908152600360205260409020805460010190555b60008481526002602052604080822080546001600160a01b0319166001600160a01b0389811691821790925591518793918516917fddf252ad1be2c89b69c2b068fc378daa952ba7f163c4a11628f55a4df523b3ef91a4949350505050565b6001600160a01b0382166000908152600c60205260408120905b81548110156106cb578282828154811061141c5761141c611d8b565b9060005260206000200154036114a2578154829061143c90600190611dd0565b8154811061144c5761144c611d8b565b906000526020600020015482828154811061146957611469611d8b565b90600052602060002001819055508180548061148757611487611e58565b600190038181906000526020600020016000905590556106cb565b806114ac81611db7565b915050611400565b600654600160a01b900460ff166106e157604051638dfc202b60e01b815260040160405180910390fd5b6105d182826040518060200160405280600081525061165f565b600654600160a01b900460ff16156106e15760405163d93c066560e01b815260040160405180910390fd5b60008072184f03e93ff9f4daa797ed6e38ed64bf6a1f0160401b83106115625772184f03e93ff9f4daa797ed6e38ed64bf6a1f0160401b830492506040015b6d04ee2d6d415b85acef8100000000831061158e576d04ee2d6d415b85acef8100000000830492506020015b662386f26fc1000083106115ac57662386f26fc10000830492506010015b6305f5e10083106115c4576305f5e100830492506008015b61271083106115d857612710830492506004015b606483106115ea576064830492506002015b600a83106105055760010192915050565b611606838383611676565b6106fe576001600160a01b03831661163457604051637e27328960e01b815260048101829052602401610667565b60405163177e802f60e01b81526001600160a01b038316600482015260248101829052604401610667565b61166983836116d9565b6106fe600084848461101c565b60006001600160a01b03831615801590610c1f5750826001600160a01b0316846001600160a01b031614806116b057506116b084846109b7565b80610c1f5750506000908152600460205260409020546001600160a01b03908116911614919050565b6001600160a01b03821661170357604051633250574960e11b815260006004820152602401610667565b600061171183836000610bbb565b90506001600160a01b038116156106fe576040516339e3563760e11b815260006004820152602401610667565b6001600160e01b03198116811461094c57600080fd5b60006020828403121561176657600080fd5b81356109b08161173e565b60005b8381101561178c578181015183820152602001611774565b50506000910152565b600081518084526117ad816020860160208601611771565b601f01601f19169290920160200192915050565b6020815260006109b06020830184611795565b6000602082840312156117e657600080fd5b5035919050565b80356001600160a01b038116811461180457600080fd5b919050565b6000806040838503121561181c57600080fd5b611825836117ed565b946020939093013593505050565b60006020828403121561184557600080fd5b6109b0826117ed565b6020808252825182820181905260009190848201906040850190845b818110156118865783518352928401929184019160010161186a565b50909695505050505050565b6000806000606084860312156118a757600080fd5b6118b0846117ed565b92506118be602085016117ed565b9150604084013590509250925092565b80356004811061180457600080fd5b6000602082840312156118ef57600080fd5b6109b0826118ce565b6000806020838503121561190b57600080fd5b823567ffffffffffffffff8082111561192357600080fd5b818501915085601f83011261193757600080fd5b81358181111561194657600080fd5b86602082850101111561195857600080fd5b60209290920196919550909350505050565b6000806040838503121561197d57600080fd5b611986836117ed565b9150611994602084016118ce565b90509250929050565b634e487b7160e01b600052602160045260246000fd5b600481106119d157634e487b7160e01b600052602160045260246000fd5b9052565b6001600160a01b0385168152608081016119f260208301866119b3565b92151560408201526060015292915050565b60008060408385031215611a1757600080fd5b611a20836117ed565b915060208301358015158114611a3557600080fd5b809150509250929050565b634e487b7160e01b600052604160045260246000fd5b60008060008060808587031215611a6c57600080fd5b611a75856117ed565b9350611a83602086016117ed565b925060408501359150606085013567ffffffffffffffff80821115611aa757600080fd5b818701915087601f830112611abb57600080fd5b813581811115611acd57611acd611a40565b604051601f8201601f19908116603f01168101908382118183101715611af557611af5611a40565b816040528281528a6020848701011115611b0e57600080fd5b82602086016020830137600060208483010152809550505050505092959194509250565b60008060408385031215611b4557600080fd5b611b4e836117ed565b9150611994602084016117ed565b60008083601f840112611b6e57600080fd5b50813567ffffffffffffffff811115611b8657600080fd5b6020830191508360208260051b8501011115611ba157600080fd5b9250929050565b60008060008060408587031215611bbe57600080fd5b843567ffffffffffffffff80821115611bd657600080fd5b611be288838901611b5c565b90965094506020870135915080821115611bfb57600080fd5b50611c0887828801611b5c565b95989497509550505050565b600181811c90821680611c2857607f821691505b602082108103611c4857634e487b7160e01b600052602260045260246000fd5b50919050565b601f8211156106fe57600081815260208120601f850160051c81016020861015611c755750805b601f850160051c820191505b81811015611c9457828155600101611c81565b505050505050565b67ffffffffffffffff831115611cb457611cb4611a40565b611cc883611cc28354611c14565b83611c4e565b6000601f841160018114611cfc5760008515611ce45750838201355b600019600387901b1c1916600186901b17835561113e565b600083815260209020601f19861690835b82811015611d2d5786850135825560209485019460019092019101611d0d565b5086821015611d4a5760001960f88860031b161c19848701351681555b505060018560011b0183555050505050565b60008351611d6e818460208801611771565b835190830190611d82818360208801611771565b01949350505050565b634e487b7160e01b600052603260045260246000fd5b634e487b7160e01b600052601160045260246000fd5b600060018201611dc957611dc9611da1565b5060010190565b8181038181111561050557610505611da1565b60408101611df182856119b3565b8260208301529392505050565b6001600160a01b0385811682528416602082015260408101839052608060608201819052600090611e3190830184611795565b9695505050505050565b600060208284031215611e4d57600080fd5b81516109b08161173e565b634e487b7160e01b600052603160045260246000fdfea264697066735822122008ed53fe3d3b5da6d47e2911eeabcc5ad54dec2d0fc82a640ff5a82b19d3bd0864736f6c63430008140033",
  "linkReferences": {},
  "deployedLinkReferences": {}
}