{
  "_format": "hh-sol-artifact-1",
  "contractName": "KortanaLicenseNFT",
  "sourceName": "contracts/KortanaLicenseNFT.sol",
  "abi": [
    {
      "inputs": [],
      "stateMutability": "nonpayable",
      "type": "constructor"
    },
    {
      "inputs": [
        {
          "internalType": "address",
          "name": "sender",
          "type": "address"
        },
        {
          "internalType": "uint256",
          "name": "tokenId",
          "type": "uint256"
        },
        {
          "internalType": "address",
          "name": "owner",
          "type": "address"
        }
      ],
      "name": "ERC721IncorrectOwner",
      "type": "error"
    },
    {
      "inputs": [
        {
          "internalType": "address",
          "name": "operator",
          "type": "address"
        },
        {
          "internalType": "uint256",
          "name": "tokenId",
          "type": "uint256"
        }
      ],
      "name": "ERC721InsufficientApproval",
      "type": "error"
    },
    {
      "inputs": [
        {
          "internalType": "address",
          "name": "approver",
          "type": "address"
        }
      ],
      "name": "ERC721InvalidApprover",
      "type": "error"
    },
    {
      "inputs": [
        {
          "internalType": "address",
          "name": "operator",
          "type": "address"
        }
      ],
      "name": "ERC721InvalidOperator",
      "type": "error"
    },
    {
      "inputs": [
        {
          "internalType": "address",
          "name": "owner",
          "type": "address"
        }
      ],
      "name": "ERC721InvalidOwner",
      "type": "error"
    },
    {
      "inputs": [
        {
          "internalType": "address",
          "name": "receiver",
          "type": "address"
        }
      ],
      "name": "ERC721InvalidReceiver",
      "type": "error"
    },
    {
      "inputs": [
        {
          "internalType": "address",
          "name": "sender",
          "type": "address"
        }
      ],
      "name": "ERC721InvalidSender",
      "type": "error"
    },
    {
      "inputs": [
        {
          "internalType": "uint256",
          "name": "tokenId",
          "type": "uint256"
        }
      ],
      "name": "ERC721NonexistentToken",
      "type": "error"
    },
    {
      "inputs": [],
      "name": "EnforcedPause",
      "type": "error"
    },
    {
      "inputs": [],
      "name": "ExpectedPause",
      "type": "error"
    },
    {
      "inputs": [
        {
          "internalType": "address",
          "name": "owner",
          "type": "address"
        }
      ],
      "name": "OwnableInvalidOwner",
      "type": "error"
    },
    {
      "inputs": [
        {
          "internalType": "address",
          "name": "account",
          "type": "address"
        }
      ],
      "name": "OwnableUnauthorizedAccount",
      "type": "error"
    },
    {
      "inputs": [],
      "name": "ReentrancyGuardReentrantCall",
      "type": "error"
    },
    {
      "anonymous": false,
      "inputs": [
        {
          "indexed": true,
          "internalType": "address",
          "name": "owner",
          "type": "address"
        },
        {
          "indexed": true,
          "internalType": "address",
          "name": "approved",
          "type": "address"
        },
        {
          "indexed": true,
          "internalType": "uint256",
          "name": "tokenId",
          "type": "uint256"
        }
      ],
      "name": "Approval",
      "type": "event"
    },
    {
      "anonymous": false,
      "inputs": [
        {
          "indexed": true,
          "internalType": "address",
          "name": "owner",
          "type": "address"
        },
        {
          "indexed": true,
          "internalType": "address",
          "name": "operator",
          "type": "address"
        },
        {
          "indexed": false,
          "internalType": "bool",
          "name": "approved",
          "type": "bool"
        }
      ],
      "name": "ApprovalForAll",
      "type": "event"
    },
    {
      "anonymous": false,
      "inputs": [
        {
          "indexed": false,
          "internalType": "uint256",
          "name": "amount",
          "type": "uint256"
        }
      ],
      "name": "EmergencyWithdraw",
      "type": "event"
    },
    {
      "anonymous": false,
      "inputs": [
        {
          "indexed": false,
          "internalType": "uint256",
          "name": "newEpoch",
          "type": "uint256"
        },
        {
          "indexed": false,
          "internalType": "uint256",
          "name": "timestamp",
          "type": "uint256"
        }
      ],
      "name": "EpochAdvanced",
      "type": "event"
    },
    {
      "anonymous": false,
      "inputs": [
        {
          "indexed": false,
          "internalType": "uint256",
          "name": "licenseId",
          "type": "uint256"
        },
        {
          "indexed": false,
          "internalType": "uint256",
          "name": "requiredAmount",
          "type": "uint256"
        }
      ],
      "name": "InsufficientBalance",
      "type": "event"
    },
    {
      "anonymous": false,
      "inputs": [
        {
          "indexed": true,
          "internalType": "address",
          "name": "buyer",
          "type": "address"
        },
        {
          "indexed": true,
          "internalType": "uint256",
          "name": "licenseId",
          "type": "uint256"
        },
        {
          "indexed": false,
          "internalType": "enum KortanaLicenseNFT.Tier",
          "name": "tier",
          "type": "uint8"
        },
        {
          "indexed": false,
          "internalType": "uint256",
          "name": "timestamp",
          "type": "uint256"
        }
      ],
      "name": "LicenseMinted",
      "type": "event"
    },
    {
      "anonymous": false,
      "inputs": [
        {
          "indexed": true,
          "internalType": "uint256",
          "name": "licenseId",
          "type": "uint256"
        }
      ],
      "name": "LicenseRevoked",
      "type": "event"
    },
    {
      "anonymous": false,
      "inputs": [
        {
          "indexed": true,
          "internalType": "address",
          "name": "previousOwner",
          "type": "address"
        },
        {
          "indexed": true,
          "internalType": "address",
          "name": "newOwner",
          "type": "address"
        }
      ],
      "name": "OwnershipTransferred",
      "type": "event"
    },
    {
      "anonymous": false,
      "inputs": [
        {
          "indexed": false,
          "internalType": "address",
          "name": "account",
          "type": "address"
        }
      ],
      "name": "Paused",
      "type": "event"
    },
    {
      "anonymous": false,
      "inputs": [
        {
          "indexed": true,
          "internalType": "address",
          "name": "holder",
          "type": "address"
        },
        {
          "indexed": true,
          "internalType": "uint256",
          "name": "licenseId",
          "type": "uint256"
        },
        {
          "indexed": false,
          "internalType": "uint256",
          "name": "dnrAmount",
          "type": "uint256"
        },
        {
          "indexed": false,
          "internalType": "uint256",
          "name": "epoch",
          "type": "uint256"
        }
      ],
      "name": "RewardDistributed",
      "type": "event"
    },
    {
      "anonymous": false,
      "inputs": [
        {
          "indexed": false,
          "internalType": "uint256",
          "name": "dnrAmount",
          "type": "uint256"
        },
        {
          "indexed": false,
          "internalType": "address",
          "name": "funder",
          "type": "address"
        }
      ],
      "name": "RewardPoolFunded",
      "type": "event"
    },
    {
      "anonymous": false,
      "inputs": [
        {
          "indexed": false,
          "internalType": "uint8",
          "name": "tier",
          "type": "uint8"
        },
        {
          "indexed": false,
          "internalType": "uint256",
          "name": "newRate",
          "type": "uint256"
        }
      ],
      "name": "RewardRateUpdated",
      "type": "event"
    },
    {
      "anonymous": false,
      "inputs": [
        {
          "indexed": true,
          "internalType": "address",
          "name": "from",
          "type": "address"
        },
        {
          "indexed": true,
          "internalType": "address",
          "name": "to",
          "type": "address"
        },
        {
          "indexed": true,
          "internalType": "uint256",
          "name": "tokenId",
          "type": "uint256"
        }
      ],
      "name": "Transfer",
      "type": "event"
    },
    {
      "anonymous": false,
      "inputs": [
        {
          "indexed": false,
          "internalType": "address",
          "name": "account",
          "type": "address"
        }
      ],
      "name": "Unpaused",
      "type": "event"
    },
    {
      "inputs": [],
      "name": "EPOCH_DURATION",
      "outputs": [
        {
          "internalType": "uint256",
          "name": "",
          "type": "uint256"
        }
      ],
      "stateMutability": "view",
      "type": "function"
    },
    {
      "inputs": [],
      "name": "advanceEpoch",
      "outputs": [],
      "stateMutability": "nonpayable",
      "type": "function"
    },
    {
      "inputs": [
        {
          "internalType": "address",
          "name": "to",
          "type": "address"
        },
        {
          "internalType": "uint256",
          "name": "tokenId",
          "type": "uint256"
        }
      ],
      "name": "approve",
      "outputs": [],
      "stateMutability": "nonpayable",
      "type": "function"
    },
    {
      "inputs": [
        {
          "internalType": "address",
          "name": "owner",
          "type": "address"
        }
      ],
      "name": "balanceOf",
      "outputs": [
        {
          "internalType": "uint256",
          "name": "",
          "type": "uint256"
        }
      ],
      "stateMutability": "view",
      "type": "function"
    },
    {
      "inputs": [
        {
          "internalType": "address[]",
          "name": "buyers",
          "type": "address[]"
        },
        {
          "internalType": "enum KortanaLicenseNFT.Tier[]",
          "name": "tiers",
          "type": "uint8[]"
        }
      ],
      "name": "batchMintLicense",
      "outputs": [],
      "stateMutability": "nonpayable",
      "type": "function"
    },
    {
      "inputs": [],
      "name": "currentEpoch",
      "outputs": [
        {
          "internalType": "uint256",
          "name": "",
          "type": "uint256"
        }
      ],
      "stateMutability": "view",
      "type": "function"
    },
    {
      "inputs": [
        {
          "internalType": "uint256",
          "name": "startId",
          "type": "uint256"
        },
        {
          "internalType": "uint256",
          "name": "endId",
          "type": "uint256"
        }
      ],
      "name": "distributeAllRewards",
      "outputs": [],
      "stateMutability": "nonpayable",
      "type": "function"
    },
    {
      "inputs": [
        {
          "internalType": "uint256",
          "name": "licenseId",
          "type": "uint256"
        }
      ],
      "name": "distributeReward",
      "outputs": [],
      "stateMutability": "nonpayable",
      "type": "function"
    },
    {
      "inputs": [
        {
          "internalType": "uint256",
          "name": "tokenId",
          "type": "uint256"
        }
      ],
      "name": "getApproved",
      "outputs": [
        {
          "internalType": "address",
          "name": "",
          "type": "address"
        }
      ],
      "stateMutability": "view",
      "type": "function"
    },
    {
      "inputs": [
        {
          "internalType": "address",
          "name": "holder",
          "type": "address"
        }
      ],
      "name": "getLicenses",
      "outputs": [
        {
          "internalType": "uint256[]",
          "name": "",
          "type": "uint256[]"
        }
      ],
      "stateMutability": "view",
      "type": "function"
    },
    {
      "inputs": [
        {
          "internalType": "enum KortanaLicenseNFT.Tier",
          "name": "tier",
          "type": "uint8"
        }
      ],
      "name": "getRemainingSupply",
      "outputs": [
        {
          "internalType": "uint256",
          "name": "",
          "type": "uint256"
        }
      ],
      "stateMutability": "view",
      "type": "function"
    },
    {
      "inputs": [
        {
          "internalType": "address",
          "name": "owner",
          "type": "address"
        },
        {
          "internalType": "address",
          "name": "operator",
          "type": "address"
        }
      ],
      "name": "isApprovedForAll",
      "outputs": [
        {
          "internalType": "bool",
          "name": "",
          "type": "bool"
        }
      ],
      "stateMutability": "view",
      "type": "function"
    },
    {
      "inputs": [
        {
          "internalType": "uint256",
          "name": "",
          "type": "uint256"
        }
      ],
      "name": "lastClaimedEpoch",
      "outputs": [
        {
          "internalType": "uint256",
          "name": "",
          "type": "uint256"
        }
      ],
      "stateMutability": "view",
      "type": "function"
    },
    {
      "inputs": [],
      "name": "lastEpochTime",
      "outputs": [
        {
          "internalType": "uint256",
          "name": "",
          "type": "uint256"
        }
      ],
      "stateMutability": "view",
      "type": "function"
    },
    {
      "inputs": [
        {
          "internalType": "uint256",
          "name": "licenseId",
          "type": "uint256"
        }
      ],
      "name": "licenseActive",
      "outputs": [
        {
          "internalType": "bool",
          "name": "",
          "type": "bool"
        }
      ],
      "stateMutability": "view",
      "type": "function"
    },
    {
      "inputs": [
        {
          "internalType": "enum KortanaLicenseNFT.Tier",
          "name": "",
          "type": "uint8"
        }
      ],
      "name": "maxSupply",
      "outputs": [
        {
          "internalType": "uint256",
          "name": "",
          "type": "uint256"
        }
      ],
      "stateMutability": "view",
      "type": "function"
    },
    {
      "inputs": [
        {
          "internalType": "address",
          "name": "buyer",
          "type": "address"
        },
        {
          "internalType": "enum KortanaLicenseNFT.Tier",
          "name": "tier",
          "type": "uint8"
        }
      ],
      "name": "mintLicense",
      "outputs": [],
      "stateMutability": "nonpayable",
      "type": "function"
    },
    {
      "inputs": [],
      "name": "name",
      "outputs": [
        {
          "internalType": "string",
          "name": "",
          "type": "string"
        }
      ],
      "stateMutability": "view",
      "type": "function"
    },
    {
      "inputs": [],
      "name": "nextLicenseId",
      "outputs": [
        {
          "internalType": "uint256",
          "name": "",
          "type": "uint256"
        }
      ],
      "stateMutability": "view",
      "type": "function"
    },
    {
      "inputs": [],
      "name": "owner",
      "outputs": [
        {
          "internalType": "address",
          "name": "",
          "type": "address"
        }
      ],
      "stateMutability": "view",
      "type": "function"
    },
    {
      "inputs": [
        {
          "internalType": "uint256",
          "name": "tokenId",
          "type": "uint256"
        }
      ],
      "name": "ownerOf",
      "outputs": [
        {
          "internalType": "address",
          "name": "",
          "type": "address"
        }
      ],
      "stateMutability": "view",
      "type": "function"
    },
    {
      "inputs": [],
      "name": "pause",
      "outputs": [],
      "stateMutability": "nonpayable",
      "type": "function"
    },
    {
      "inputs": [],
      "name": "paused",
      "outputs": [
        {
          "internalType": "bool",
          "name": "",
          "type": "bool"
        }
      ],
      "stateMutability": "view",
      "type": "function"
    },
    {
      "inputs": [],
      "name": "renounceOwnership",
      "outputs": [],
      "stateMutability": "nonpayable",
      "type": "function"
    },
    {
      "inputs": [
        {
          "internalType": "uint256",
          "name": "licenseId",
          "type": "uint256"
        }
      ],
      "name": "revokeLicense",
      "outputs": [],
      "stateMutability": "nonpayable",
      "type": "function"
    },
    {
      "inputs": [
        {
          "internalType": "uint8",
          "name": "",
          "type": "uint8"
        }
      ],
      "name": "rewardPerEpoch",
      "outputs": [
        {
          "internalType": "uint256",
          "name": "",
          "type": "uint256"
        }
      ],
      "stateMutability": "view",
      "type": "function"
    },
    {
      "inputs": [
        {
          "internalType": "address",
          "name": "from",
          "type": "address"
        },
        {
          "internalType": "address",
          "name": "to",
          "type": "address"
        },
        {
          "internalType": "uint256",
          "name": "tokenId",
          "type": "uint256"
        }
      ],
      "name": "safeTransferFrom",
      "outputs": [],
      "stateMutability": "nonpayable",
      "type": "function"
    },
    {
      "inputs": [
        {
          "internalType": "address",
          "name": "from",
          "type": "address"
        },
        {
          "internalType": "address",
          "name": "to",
          "type": "address"
        },
        {
          "internalType": "uint256",
          "name": "tokenId",
          "type": "uint256"
        },
        {
          "internalType": "bytes",
          "name": "data",
          "type": "bytes"
        }
      ],
      "name": "safeTransferFrom",
      "outputs": [],
      "stateMutability": "nonpayable",
      "type": "function"
    },
    {
      "inputs": [
        {
          "internalType": "address",
          "name": "operator",
          "type": "address"
        },
        {
          "internalType": "bool",
          "name": "approved",
          "type": "bool"
        }
      ],
      "name": "setApprovalForAll",
      "outputs": [],
      "stateMutability": "nonpayable",
      "type": "function"
    },
    {
      "inputs": [
        {
          "internalType": "string",
          "name": "baseURI_",
          "type": "string"
        }
      ],
      "name": "setBaseURI",
      "outputs": [],
      "stateMutability": "nonpayable",
      "type": "function"
    },
    {
      "inputs": [
        {
          "internalType": "bytes4",
          "name": "interfaceId",
          "type": "bytes4"
        }
      ],
      "name": "supportsInterface",
      "outputs": [
        {
          "internalType": "bool",
          "name": "",
          "type": "bool"
        }
      ],
      "stateMutability": "view",
      "type": "function"
    },
    {
      "inputs": [],
      "name": "symbol",
      "outputs": [
        {
          "internalType": "string",
          "name": "",
          "type": "string"
        }
      ],
      "stateMutability": "view",
      "type": "function"
    },
    {
      "inputs": [
        {
          "internalType": "uint256",
          "name": "licenseId",
          "type": "uint256"
        }
      ],
      "name": "tierOf",
      "outputs": [
        {
          "internalType": "uint8",
          "name": "",
          "type": "uint8"
        }
      ],
      "stateMutability": "view",
      "type": "function"
    },
    {
      "inputs": [
        {
          "internalType": "uint256",
          "name": "tokenId",
          "type": "uint256"
        }
      ],
      "name": "tokenURI",
      "outputs": [
        {
          "internalType": "string",
          "name": "",
          "type": "string"
        }
      ],
      "stateMutability": "view",
      "type": "function"
    },
    {
      "inputs": [],
      "name": "totalDistributed",
      "outputs": [
        {
          "internalType": "uint256",
          "name": "",
          "type": "uint256"
        }
      ],
      "stateMutability": "view",
      "type": "function"
    },
    {
      "inputs": [
        {
          "internalType": "enum KortanaLicenseNFT.Tier",
          "name": "",
          "type": "uint8"
        }
      ],
      "name": "totalMinted",
      "outputs": [
        {
          "internalType": "uint256",
          "name": "",
          "type": "uint256"
        }
      ],
      "stateMutability": "view",
      "type": "function"
    },
    {
      "inputs": [
        {
          "internalType": "address",
          "name": "from",
          "type": "address"
        },
        {
          "internalType": "address",
          "name": "to",
          "type": "address"
        },
        {
          "internalType": "uint256",
          "name": "tokenId",
          "type": "uint256"
        }
      ],
      "name": "transferFrom",
      "outputs": [],
      "stateMutability": "nonpayable",
      "type": "function"
    },
    {
      "inputs": [
        {
          "internalType": "address",
          "name": "newOwner",
          "type": "address"
        }
      ],
      "name": "transferOwnership",
      "outputs": [],
      "stateMutability": "nonpayable",
      "type": "function"
    },
    {
      "inputs": [],
      "name": "unpause",
      "outputs": [],
      "stateMutability": "nonpayable",
      "type": "function"
    },
    {
      "stateMutability": "payable",
      "type": "receive"
    }
  ],
  "bytecode": "0x608060405260016008553480156200001657600080fd5b50336040518060400160405280601481526020017f4b6f7274616e61204e6f6465204c6963656e73650000000000000000000000008152506040518060400160405280600381526020016212d39360ea1b81525081600090816200007b91906200032d565b5060016200008a82826200032d565b5050506001600160a01b038116620000bc57604051631e4fbdf760e01b81526000600482015260240160405180910390fd5b620000c78162000236565b506006805460ff60a01b19169055600160078190556103e87f13da86008ba1c6922daee3e07db95305ef49ebced9f5467a0b8613fcc6b343e38190556107d07fbbc70db1b6c7afd11e79c0fb0051300458f1a3acb8ee9789d9b6b26c61ad9bc7557fbff4442b8ed600beeb8e26b1279a0f0d14c6edfaec26d968ee13c86f7d4c2ba85560036000526101f47fa856840544dc26124927add067d799967eac11be13e14d82cc281ea46fa397595542600e55600d55600f60205268022b1c8c1227a000007ff4803e074bd026baaf6ed2e288c9515f68c72fb7216eebdd7cae1718a53ec375556804563918244f4000007f169f97de0d9a84d840042b17d3c6b9638b3d6fd9024c9eb0c7a306a17b49f88f55680ad78ebc5ac62000007fa74ba3945261e09fde15ba3db55005b205e61eeb4ad811ac0faa2b315bffeead556815af1d78b58c4000007f45f76dafbbad695564362934e24d72eedc57f9fc1a65f39bca62176cc829682855620003f9565b600680546001600160a01b038381166001600160a01b0319831681179093556040519116919082907f8be0079c531659141344cd1fd0a4f28419497f9722a3daafe3b4186f6b6457e090600090a35050565b634e487b7160e01b600052604160045260246000fd5b600181811c90821680620002b357607f821691505b602082108103620002d457634e487b7160e01b600052602260045260246000fd5b50919050565b601f8211156200032857600081815260208120601f850160051c81016020861015620003035750805b601f850160051c820191505b8181101562000324578281556001016200030f565b5050505b505050565b81516001600160401b0381111562000349576200034962000288565b62000361816200035a84546200029e565b84620002da565b602080601f831160018114620003995760008415620003805750858301515b600019600386901b1c1916600185901b17855562000324565b600085815260208120601f198616915b82811015620003ca57888601518255948401946001909101908401620003a9565b5085821015620003e95787850151600019600388901b60f8161c191681555b5050505050600190811b01905550565b61241a80620004096000396000f3fe6080604052600436106102345760003560e01c80636352211e1161012e57806398dcd2ca116100ab578063e985e9c51161006f578063e985e9c5146106fe578063efca2eed1461071e578063effa26fc14610734578063f2fde38b14610754578063fa3f33a61461077457600080fd5b806398dcd2ca1461065a578063a22cb46514610687578063a70b9f0c146106a7578063b88d4fde146106be578063c87b56dd146106de57600080fd5b80638456cb59116100f25780638456cb59146105dc57806389c614b8146105f15780638da5cb5b14610607578063940a4e451461062557806395d89b411461064557600080fd5b80636352211e1461055157806370a0823114610571578063715018a61461059157806376671808146105a65780637eedd90d146105bc57600080fd5b80632d8120b5116101bc578063492f471c11610180578063492f471c1461049d57806353f47f95146104b357806353f96df2146104e057806355f804b3146105125780635c975abb1461053257600080fd5b80632d8120b5146104065780633cf80e6c146104335780633f4ba83a1461044857806342842e0e1461045d578063439d4b5c1461047d57600080fd5b8063095ea7b311610203578063095ea7b31461032957806314773b4f14610349578063216694a11461037657806323b872dd146103b157806329523c5c146103d157600080fd5b806301ffc9a71461027857806306fdde03146102ad578063081812fc146102cf57806308d07bdc1461030757600080fd5b3661027357604080513481523360208201527f56b382c0989cb3caa548f6382ea515b7700267067998b761d377320e08679490910160405180910390a1005b600080fd5b34801561028457600080fd5b50610298610293366004611c9b565b610794565b60405190151581526020015b60405180910390f35b3480156102b957600080fd5b506102c26107e6565b6040516102a49190611d08565b3480156102db57600080fd5b506102ef6102ea366004611d1b565b610878565b6040516001600160a01b0390911681526020016102a4565b34801561031357600080fd5b50610327610322366004611d34565b6108a1565b005b34801561033557600080fd5b50610327610344366004611d72565b61090c565b34801561035557600080fd5b50610369610364366004611d9c565b610917565b6040516102a49190611db7565b34801561038257600080fd5b506103a3610391366004611d1b565b60106020526000908152604090205481565b6040519081526020016102a4565b3480156103bd57600080fd5b506103276103cc366004611dfb565b610983565b3480156103dd57600080fd5b506102986103ec366004611d1b565b600090815260096020526040902054610100900460ff1690565b34801561041257600080fd5b506103a3610421366004611e46565b600a6020526000908152604090205481565b34801561043f57600080fd5b50610327610a13565b34801561045457600080fd5b50610327610ad1565b34801561046957600080fd5b50610327610478366004611dfb565b610ae3565b34801561048957600080fd5b50610327610498366004611d1b565b610b03565b3480156104a957600080fd5b506103a360085481565b3480156104bf57600080fd5b506103a36104ce366004611e46565b600b6020526000908152604090205481565b3480156104ec57600080fd5b506105006104fb366004611d1b565b610b4c565b60405160ff90911681526020016102a4565b34801561051e57600080fd5b5061032761052d366004611e61565b610b6f565b34801561053e57600080fd5b50600654600160a01b900460ff16610298565b34801561055d57600080fd5b506102ef61056c366004611d1b565b610b84565b34801561057d57600080fd5b506103a361058c366004611d9c565b610b8f565b34801561059d57600080fd5b50610327610bd7565b3480156105b257600080fd5b506103a3600d5481565b3480156105c857600080fd5b506103276105d7366004611ed3565b610be9565b3480156105e857600080fd5b50610327610c0d565b3480156105fd57600080fd5b506103a3600e5481565b34801561061357600080fd5b506006546001600160a01b03166102ef565b34801561063157600080fd5b50610327610640366004611d1b565b610c1d565b34801561065157600080fd5b506102c2610c43565b34801561066657600080fd5b506103a3610675366004611f06565b600f6020526000908152604090205481565b34801561069357600080fd5b506103276106a2366004611f29565b610c52565b3480156106b357600080fd5b506103a36201518081565b3480156106ca57600080fd5b506103276106d9366004611f7b565b610c5d565b3480156106ea57600080fd5b506102c26106f9366004611d1b565b610c74565b34801561070a57600080fd5b50610298610719366004612057565b610cdc565b34801561072a57600080fd5b506103a360115481565b34801561074057600080fd5b5061032761074f3660046120cd565b610d0a565b34801561076057600080fd5b5061032761076f366004611d9c565b610de7565b34801561078057600080fd5b506103a361078f366004611e46565b610e22565b60006001600160e01b031982166380ac58cd60e01b14806107c557506001600160e01b03198216635b5e139f60e01b145b806107e057506301ffc9a760e01b6001600160e01b03198316145b92915050565b6060600080546107f590612139565b80601f016020809104026020016040519081016040528092919081815260200182805461082190612139565b801561086e5780601f106108435761010080835404028352916020019161086e565b820191906000526020600020905b81548152906001019060200180831161085157829003601f168201915b5050505050905090565b600061088382610e9a565b506000828152600460205260409020546001600160a01b03166107e0565b6108a9610ed3565b6108b1610efd565b60085460008183106108cd576108c8600183612189565b6108cf565b825b9050835b8181116108fb5780156108e9576108e981610f28565b806108f38161219c565b9150506108d3565b5050506109086001600755565b5050565b61090882823361114f565b6001600160a01b0381166000908152600c602090815260409182902080548351818402810184019094528084526060939283018282801561097757602002820191906000526020600020905b815481526020019060010190808311610963575b50505050509050919050565b6001600160a01b0382166109b257604051633250574960e11b8152600060048201526024015b60405180910390fd5b60006109bf83833361115c565b9050836001600160a01b0316816001600160a01b031614610a0d576040516364283d7b60e01b81526001600160a01b03808616600483015260248201849052821660448201526064016109a9565b50505050565b62015180600e54610a2491906121b5565b421015610a735760405162461bcd60e51b815260206004820152601a60248201527f45706f6368206475726174696f6e206e6f74207265616368656400000000000060448201526064016109a9565b600d8054906000610a838361219c565b909155505042600e819055600d546040517facfa06cebbab8226f9a388bff9f5fcf4569298028d939f4765958dc57dbb330b92610ac7928252602082015260400190565b60405180910390a1565b610ad96111c8565b610ae16111f5565b565b610afe83838360405180602001604052806000815250610c5d565b505050565b610b0b6111c8565b600081815260096020526040808220805461ff00191690555182917ff8ecc300d4504a2b49692052f138b7e697df679cf0580522720ce405bd01be5591a250565b60008181526009602052604081205460ff1660038111156107e0576107e06121c8565b610b776111c8565b6012610afe82848361222c565b60006107e082610e9a565b60006001600160a01b038216610bbb576040516322718ad960e21b8152600060048201526024016109a9565b506001600160a01b031660009081526003602052604090205490565b610bdf6111c8565b610ae16000611245565b610bf16111c8565b610bf9610ed3565b610c038282611297565b6109086001600755565b610c156111c8565b610ae16114b4565b610c25610ed3565b610c2d610efd565b610c3681610f28565b610c406001600755565b50565b6060600180546107f590612139565b6109083383836114f7565b610c68848484610983565b610a0d8484848461158e565b6060610c7f82610e9a565b506000610c8a6116b7565b90506000815111610caa5760405180602001604052806000815250610cd5565b80610cb4846116c6565b604051602001610cc59291906122ec565b6040516020818303038152906040525b9392505050565b6001600160a01b03918216600090815260056020908152604080832093909416825291909152205460ff1690565b610d126111c8565b610d1a610ed3565b828114610d695760405162461bcd60e51b815260206004820152601860248201527f4172726179206c656e67746873206d757374206d61746368000000000000000060448201526064016109a9565b60005b83811015610ddc57610dca858583818110610d8957610d8961231b565b9050602002016020810190610d9e9190611d9c565b848484818110610db057610db061231b565b9050602002016020810190610dc59190611e46565b611297565b80610dd48161219c565b915050610d6c565b50610a0d6001600755565b610def6111c8565b6001600160a01b038116610e1957604051631e4fbdf760e01b8152600060048201526024016109a9565b610c4081611245565b6000600b6000836003811115610e3a57610e3a6121c8565b6003811115610e4b57610e4b6121c8565b815260200190815260200160002054600a6000846003811115610e7057610e706121c8565b6003811115610e8157610e816121c8565b8152602001908152602001600020546107e09190612189565b6000818152600260205260408120546001600160a01b0316806107e057604051637e27328960e01b8152600481018490526024016109a9565b600260075403610ef657604051633ee5aeb560e01b815260040160405180910390fd5b6002600755565b600654600160a01b900460ff1615610ae15760405163d93c066560e01b815260040160405180910390fd5b600081815260096020526040902054610100900460ff16610f465750565b60008181526010602052604081205490819003610f735750600d5460009182526010602052604090912055565b80600d5411610f80575050565b600081600d54610f909190612189565b6000848152600960205260408120549192509060ff166003811115610fb757610fb76121c8565b60ff81166000908152600f602052604081205491925090610fd89084612331565b9050804710156110225760408051868152602081018390527fcf4791818fba6e019216eb4864093b4947f674afada5d305e57d598b641dad1d910160405180910390a15050505050565b600061102d86610b84565b9050600d546010600088815260200190815260200160002081905550816011600082825461105b91906121b5565b90915550506040516000906001600160a01b0383169084908381818185875af1925050503d80600081146110ab576040519150601f19603f3d011682016040523d82523d6000602084013e6110b0565b606091505b50509050806110f75760405162461bcd60e51b815260206004820152601360248201527211139488151c985b9cd9995c8811985a5b1959606a1b60448201526064016109a9565b86826001600160a01b03167ff0f44087179a926066b42ce5c1720884709cd0766b995b4595a33c8e4fd3a2b285600d5460405161113e929190918252602082015260400190565b60405180910390a350505050505050565b610afe8383836001611759565b60008061116a85858561185f565b90506001600160a01b03811615611185576111858185611958565b6001600160a01b038516156111c0576001600160a01b0385166000908152600c60209081526040822080546001810182559083529120018490555b949350505050565b6006546001600160a01b03163314610ae15760405163118cdaa760e01b81523360048201526024016109a9565b6111fd611a26565b6006805460ff60a01b191690557f5db9ee0a495bf2e6ff9c91a7834c1ba4fdd244a5e8aa4e537bd38aeae4b073aa335b6040516001600160a01b039091168152602001610ac7565b600680546001600160a01b038381166001600160a01b0319831681179093556040519116919082907f8be0079c531659141344cd1fd0a4f28419497f9722a3daafe3b4186f6b6457e090600090a35050565b600a60008260038111156112ad576112ad6121c8565b60038111156112be576112be6121c8565b815260200190815260200160002054600b60008360038111156112e3576112e36121c8565b60038111156112f4576112f46121c8565b815260200190815260200160002054106113505760405162461bcd60e51b815260206004820152601d60248201527f537570706c7920657863656564656420666f722074686973207469657200000060448201526064016109a9565b60088054600091826113618361219c565b9190505590506113718382611a50565b604051806060016040528083600381111561138e5761138e6121c8565b8152600160208083018290524260409384015260008581526009909152919091208251815491929091839160ff19909116908360038111156113d2576113d26121c8565b0217905550602082015181549015156101000261ff0019909116178155604090910151600190910155600b6000836003811115611411576114116121c8565b6003811115611422576114226121c8565b815260200190815260200160002060008154809291906114419061219c565b90915550506001600160a01b0383166000818152600c6020908152604080832080546001810182559084529190922001839055518291907f086d86777613c0607b2b012890e8fd22e796dd3c9572baf2247f7b22de396f1b906114a79086904290612348565b60405180910390a3505050565b6114bc610efd565b6006805460ff60a01b1916600160a01b1790557f62e78cea01bee320cd4e420270b5ea74000d11b0c9f74754ebdbfc544b05a25861122d3390565b6001600160a01b03821661152957604051630b61174360e31b81526001600160a01b03831660048201526024016109a9565b6001600160a01b03838116600081815260056020908152604080832094871680845294825291829020805460ff191686151590811790915591519182527f17307eab39ab6107e8899845ad3d59bd9653f200f220920489ca2b5937696c3191016114a7565b6001600160a01b0383163b15610a0d57604051630a85bd0160e11b81526001600160a01b0384169063150b7a02906115d0903390889087908790600401612374565b6020604051808303816000875af192505050801561160b575060408051601f3d908101601f19168201909252611608918101906123b1565b60015b611674573d808015611639576040519150601f19603f3d011682016040523d82523d6000602084013e61163e565b606091505b50805160000361166c57604051633250574960e11b81526001600160a01b03851660048201526024016109a9565b805181602001fd5b6001600160e01b03198116630a85bd0160e11b146116b057604051633250574960e11b81526001600160a01b03851660048201526024016109a9565b5050505050565b6060601280546107f590612139565b606060006116d383611a6a565b600101905060008167ffffffffffffffff8111156116f3576116f3611f65565b6040519080825280601f01601f19166020018201604052801561171d576020820181803683370190505b5090508181016020015b600019016f181899199a1a9b1b9c1cb0b131b232b360811b600a86061a8153600a850494508461172757509392505050565b808061176d57506001600160a01b03821615155b1561182f57600061177d84610e9a565b90506001600160a01b038316158015906117a95750826001600160a01b0316816001600160a01b031614155b80156117bc57506117ba8184610cdc565b155b156117e55760405163a9fbf51f60e01b81526001600160a01b03841660048201526024016109a9565b811561182d5783856001600160a01b0316826001600160a01b03167f8c5be1e5ebec7d5bd14f71427d1e84f3dd0314c0f7b2291e5b200ac8c7c3b92560405160405180910390a45b505b5050600090815260046020526040902080546001600160a01b0319166001600160a01b0392909216919091179055565b6000828152600260205260408120546001600160a01b039081169083161561188c5761188c818486611b42565b6001600160a01b038116156118ca576118a9600085600080611759565b6001600160a01b038116600090815260036020526040902080546000190190555b6001600160a01b038516156118f9576001600160a01b0385166000908152600360205260409020805460010190555b60008481526002602052604080822080546001600160a01b0319166001600160a01b0389811691821790925591518793918516917fddf252ad1be2c89b69c2b068fc378daa952ba7f163c4a11628f55a4df523b3ef91a4949350505050565b6001600160a01b0382166000908152600c60205260408120905b8154811015610a0d578282828154811061198e5761198e61231b565b906000526020600020015403611a1457815482906119ae90600190612189565b815481106119be576119be61231b565b90600052602060002001548282815481106119db576119db61231b565b9060005260206000200181905550818054806119f9576119f96123ce565b60019003818190600052602060002001600090559055610a0d565b80611a1e8161219c565b915050611972565b600654600160a01b900460ff16610ae157604051638dfc202b60e01b815260040160405180910390fd5b610908828260405180602001604052806000815250611ba6565b60008072184f03e93ff9f4daa797ed6e38ed64bf6a1f0160401b8310611aa95772184f03e93ff9f4daa797ed6e38ed64bf6a1f0160401b830492506040015b6d04ee2d6d415b85acef81000000008310611ad5576d04ee2d6d415b85acef8100000000830492506020015b662386f26fc100008310611af357662386f26fc10000830492506010015b6305f5e1008310611b0b576305f5e100830492506008015b6127108310611b1f57612710830492506004015b60648310611b31576064830492506002015b600a83106107e05760010192915050565b611b4d838383611bbd565b610afe576001600160a01b038316611b7b57604051637e27328960e01b8152600481018290526024016109a9565b60405163177e802f60e01b81526001600160a01b0383166004820152602481018290526044016109a9565b611bb08383611c20565b610afe600084848461158e565b60006001600160a01b038316158015906111c05750826001600160a01b0316846001600160a01b03161480611bf75750611bf78484610cdc565b806111c05750506000908152600460205260409020546001600160a01b03908116911614919050565b6001600160a01b038216611c4a57604051633250574960e11b8152600060048201526024016109a9565b6000611c588383600061115c565b90506001600160a01b03811615610afe576040516339e3563760e11b8152600060048201526024016109a9565b6001600160e01b031981168114610c4057600080fd5b600060208284031215611cad57600080fd5b8135610cd581611c85565b60005b83811015611cd3578181015183820152602001611cbb565b50506000910152565b60008151808452611cf4816020860160208601611cb8565b601f01601f19169290920160200192915050565b602081526000610cd56020830184611cdc565b600060208284031215611d2d57600080fd5b5035919050565b60008060408385031215611d4757600080fd5b50508035926020909101359150565b80356001600160a01b0381168114611d6d57600080fd5b919050565b60008060408385031215611d8557600080fd5b611d8e83611d56565b946020939093013593505050565b600060208284031215611dae57600080fd5b610cd582611d56565b6020808252825182820181905260009190848201906040850190845b81811015611def57835183529284019291840191600101611dd3565b50909695505050505050565b600080600060608486031215611e1057600080fd5b611e1984611d56565b9250611e2760208501611d56565b9150604084013590509250925092565b803560048110611d6d57600080fd5b600060208284031215611e5857600080fd5b610cd582611e37565b60008060208385031215611e7457600080fd5b823567ffffffffffffffff80821115611e8c57600080fd5b818501915085601f830112611ea057600080fd5b813581811115611eaf57600080fd5b866020828501011115611ec157600080fd5b60209290920196919550909350505050565b60008060408385031215611ee657600080fd5b611eef83611d56565b9150611efd60208401611e37565b90509250929050565b600060208284031215611f1857600080fd5b813560ff81168114610cd557600080fd5b60008060408385031215611f3c57600080fd5b611f4583611d56565b915060208301358015158114611f5a57600080fd5b809150509250929050565b634e487b7160e01b600052604160045260246000fd5b60008060008060808587031215611f9157600080fd5b611f9a85611d56565b9350611fa860208601611d56565b925060408501359150606085013567ffffffffffffffff80821115611fcc57600080fd5b818701915087601f830112611fe057600080fd5b813581811115611ff257611ff2611f65565b604051601f8201601f19908116603f0116810190838211818310171561201a5761201a611f65565b816040528281528a602084870101111561203357600080fd5b82602086016020830137600060208483010152809550505050505092959194509250565b6000806040838503121561206a57600080fd5b61207383611d56565b9150611efd60208401611d56565b60008083601f84011261209357600080fd5b50813567ffffffffffffffff8111156120ab57600080fd5b6020830191508360208260051b85010111156120c657600080fd5b9250929050565b600080600080604085870312156120e357600080fd5b843567ffffffffffffffff808211156120fb57600080fd5b61210788838901612081565b9096509450602087013591508082111561212057600080fd5b5061212d87828801612081565b95989497509550505050565b600181811c9082168061214d57607f821691505b60208210810361216d57634e487b7160e01b600052602260045260246000fd5b50919050565b634e487b7160e01b600052601160045260246000fd5b818103818111156107e0576107e0612173565b6000600182016121ae576121ae612173565b5060010190565b808201808211156107e0576107e0612173565b634e487b7160e01b600052602160045260246000fd5b601f821115610afe57600081815260208120601f850160051c810160208610156122055750805b601f850160051c820191505b8181101561222457828155600101612211565b505050505050565b67ffffffffffffffff83111561224457612244611f65565b612258836122528354612139565b836121de565b6000601f84116001811461228c57600085156122745750838201355b600019600387901b1c1916600186901b1783556116b0565b600083815260209020601f19861690835b828110156122bd578685013582556020948501946001909201910161229d565b50868210156122da5760001960f88860031b161c19848701351681555b505060018560011b0183555050505050565b600083516122fe818460208801611cb8565b835190830190612312818360208801611cb8565b01949350505050565b634e487b7160e01b600052603260045260246000fd5b80820281158282048414176107e0576107e0612173565b604081016004841061236a57634e487b7160e01b600052602160045260246000fd5b9281526020015290565b6001600160a01b03858116825284166020820152604081018390526080606082018190526000906123a790830184611cdc565b9695505050505050565b6000602082840312156123c357600080fd5b8151610cd581611c85565b634e487b7160e01b600052603160045260246000fdfea2646970667358221220f7e94c9c2f4e8bbe9387e7c236b9c9d99290183e36bd725ce3eb8fa2e39edad864736f6c63430008140033",
  "linkReferences": {},
  "deployedLinkReferences": {}
}