{"contracts/KortanaLicenseNFT.sol":{"KortanaLicenseNFT":{"abi":[{"inputs":[],"stateMutability":"nonpayable","type":"constructor"},{"inputs":[{"internalType":"address","name":"sender","type":"address"},{"internalType":"uint256","name":"tokenId","type":"uint256"},{"internalType":"address","name":"owner","type":"address"}],"name":"ERC721IncorrectOwner","type":"error"},{"inputs":[{"internalType":"address","name":"operator","type":"address"},{"internalType":"uint256","name":"tokenId","type":"uint256"}],"name":"ERC721InsufficientApproval","type":"error"},{"inputs":[{"internalType":"address","name":"approver","type":"address"}],"name":"ERC721InvalidApprover","type":"error"},{"inputs":[{"internalType":"address","name":"operator","type":"address"}],"name":"ERC721InvalidOperator","type":"error"},{"inputs":[{"internalType":"address","name":"owner","type":"address"}],"name":"ERC721InvalidOwner","type":"error"},{"inputs":[{"internalType":"address","name":"receiver","type":"address"}],"name":"ERC721InvalidReceiver","type":"error"},{"inputs":[{"internalType":"address","name":"sender","type":"address"}],"name":"ERC721InvalidSender","type":"error"},{"inputs":[{"internalType":"uint256","name":"tokenId","type":"uint256"}],"name":"ERC721NonexistentToken","type":"error"},{"inputs":[],"name":"EnforcedPause","type":"error"},{"inputs":[],"name":"ExpectedPause","type":"error"},{"inputs":[{"internalType":"address","name":"owner","type":"address"}],"name":"OwnableInvalidOwner","type":"error"},{"inputs":[{"internalType":"address","name":"account","type":"address"}],"name":"OwnableUnauthorizedAccount","type":"error"},{"inputs":[],"name":"ReentrancyGuardReentrantCall","type":"error"},{"anonymous":false,"inputs":[{"indexed":true,"internalType":"address","name":"owner","type":"address"},{"indexed":true,"internalType":"address","name":"approved","type":"address"},{"indexed":true,"internalType":"uint256","name":"tokenId","type":"uint256"}],"name":"Approval","type":"event"},{"anonymous":false,"inputs":[{"indexed":true,"internalType":"address","name":"owner","type":"address"},{"indexed":true,"internalType":"address","name":"operator","type":"address"},{"indexed":false,"internalType":"bool","name":"approved","type":"bool"}],"name":"ApprovalForAll","type":"event"},{"anonymous":false,"inputs":[{"indexed":false,"internalType":"uint256","name":"amount","type":"uint256"}],"name":"EmergencyWithdraw","type":"event"},{"anonymous":false,"inputs":[{"indexed":false,"internalType":"uint256","name":"newEpoch","type":"uint256"},{"indexed":false,"internalType":"uint256","name":"timestamp","type":"uint256"}],"name":"EpochAdvanced","type":"event"},{"anonymous":false,"inputs":[{"indexed":false,"internalType":"uint256","name":"licenseId","type":"uint256"},{"indexed":false,"internalType":"uint256","name":"requiredAmount","type":"uint256"}],"name":"InsufficientBalance","type":"event"},{"anonymous":false,"inputs":[{"indexed":true,"internalType":"address","name":"buyer","type":"address"},{"indexed":true,"internalType":"uint256","name":"licenseId","type":"uint256"},{"indexed":false,"internalType":"enum KortanaLicenseNFT.Tier","name":"tier","type":"uint8"},{"indexed":false,"internalType":"uint256","name":"timestamp","type":"uint256"}],"name":"LicenseMinted","type":"event"},{"anonymous":false,"inputs":[{"indexed":true,"internalType":"uint256","name":"licenseId","type":"uint256"}],"name":"LicenseRevoked","type":"event"},{"anonymous":false,"inputs":[{"indexed":true,"internalType":"address","name":"previousOwner","type":"address"},{"indexed":true,"internalType":"address","name":"newOwner","type":"address"}],"name":"OwnershipTransferred","type":"event"},{"anonymous":false,"inputs":[{"indexed":false,"internalType":"address","name":"account","type":"address"}],"name":"Paused","type":"event"},{"anonymous":false,"inputs":[{"indexed":true,"internalType":"address","name":"holder","type":"address"},{"indexed":true,"internalType":"uint256","name":"licenseId","type":"uint256"},{"indexed":false,"internalType":"uint256","name":"dnrAmount","type":"uint256"},{"indexed":false,"internalType":"uint256","name":"epoch","type":"uint256"}],"name":"RewardDistributed","type":"event"},{"anonymous":false,"inputs":[{"indexed":false,"internalType":"uint256","name":"dnrAmount","type":"uint256"},{"indexed":false,"internalType":"address","name":"funder","type":"address"}],"name":"RewardPoolFunded","type":"event"},{"anonymous":false,"inputs":[{"indexed":false,"internalType":"uint8","name":"tier","type":"uint8"},{"indexed":false,"internalType":"uint256","name":"newRate","type":"uint256"}],"name":"RewardRateUpdated","type":"event"},{"anonymous":false,"inputs":[{"indexed":true,"internalType":"address","name":"from","type":"address"},{"indexed":true,"internalType":"address","name":"to","type":"address"},{"indexed":true,"internalType":"uint256","name":"tokenId","type":"uint256"}],"name":"Transfer","type":"event"},{"anonymous":false,"inputs":[{"indexed":false,"internalType":"address","name":"account","type":"address"}],"name":"Unpaused","type":"event"},{"inputs":[],"name":"EPOCH_DURATION","outputs":[{"internalType":"uint256","name":"","type":"uint256"}],"stateMutability":"view","type":"function"},{"inputs":[],"name":"advanceEpoch","outputs":[],"stateMutability":"nonpayable","type":"function"},{"inputs":[{"internalType":"address","name":"to","type":"address"},{"internalType":"uint256","name":"tokenId","type":"uint256"}],"name":"approve","outputs":[],"stateMutability":"nonpayable","type":"function"},{"inputs":[{"internalType":"address","name":"owner","type":"address"}],"name":"balanceOf","outputs":[{"internalType":"uint256","name":"","type":"uint256"}],"stateMutability":"view","type":"function"},{"inputs":[{"internalType":"address[]","name":"buyers","type":"address[]"},{"internalType":"enum KortanaLicenseNFT.Tier[]","name":"tiers","type":"uint8[]"}],"name":"batchMintLicense","outputs":[],"stateMutability":"nonpayable","type":"function"},{"inputs":[],"name":"currentEpoch","outputs":[{"internalType":"uint256","name":"","type":"uint256"}],"stateMutability":"view","type":"function"},{"inputs":[{"internalType":"uint256","name":"startId","type":"uint256"},{"internalType":"uint256","name":"endId","type":"uint256"}],"name":"distributeAllRewards","outputs":[],"stateMutability":"nonpayable","type":"function"},{"inputs":[{"internalType":"uint256","name":"licenseId","type":"uint256"}],"name":"distributeReward","outputs":[],"stateMutability":"nonpayable","type":"function"},{"inputs":[{"internalType":"uint256","name":"tokenId","type":"uint256"}],"name":"getApproved","outputs":[{"internalType":"address","name":"","type":"address"}],"stateMutability":"view","type":"function"},{"inputs":[{"internalType":"address","name":"holder","type":"address"}],"name":"getLicenses","outputs":[{"internalType":"uint256[]","name":"","type":"uint256[]"}],"stateMutability":"view","type":"function"},{"inputs":[{"internalType":"enum KortanaLicenseNFT.Tier","name":"tier","type":"uint8"}],"name":"getRemainingSupply","outputs":[{"internalType":"uint256","name":"","type":"uint256"}],"stateMutability":"view","type":"function"},{"inputs":[{"internalType":"address","name":"owner","type":"address"},{"internalType":"address","name":"operator","type":"address"}],"name":"isApprovedForAll","outputs":[{"internalType":"bool","name":"","type":"bool"}],"stateMutability":"view","type":"function"},{"inputs":[{"internalType":"uint256","name":"","type":"uint256"}],"name":"lastClaimedEpoch","outputs":[{"internalType":"uint256","name":"","type":"uint256"}],"stateMutability":"view","type":"function"},{"inputs":[],"name":"lastEpochTime","outputs":[{"internalType":"uint256","name":"","type":"uint256"}],"stateMutability":"view","type":"function"},{"inputs":[{"internalType":"uint256","name":"licenseId","type":"uint256"}],"name":"licenseActive","outputs":[{"internalType":"bool","name":"","type":"bool"}],"stateMutability":"view","type":"function"},{"inputs":[{"internalType":"enum KortanaLicenseNFT.Tier","name":"","type":"uint8"}],"name":"maxSupply","outputs":[{"internalType":"uint256","name":"","type":"uint256"}],"stateMutability":"view","type":"function"},{"inputs":[{"internalType":"address","name":"buyer","type":"address"},{"internalType":"enum KortanaLicenseNFT.Tier","name":"tier","type":"uint8"}],"name":"mintLicense","outputs":[],"stateMutability":"nonpayable","type":"function"},{"inputs":[],"name":"name","outputs":[{"internalType":"string","name":"","type":"string"}],"stateMutability":"view","type":"function"},{"inputs":[],"name":"nextLicenseId","outputs":[{"internalType":"uint256","name":"","type":"uint256"}],"stateMutability":"view","type":"function"},{"inputs":[],"name":"owner","outputs":[{"internalType":"address","name":"","type":"address"}],"stateMutability":"view","type":"function"},{"inputs":[{"internalType":"uint256","name":"tokenId","type":"uint256"}],"name":"ownerOf","outputs":[{"internalType":"address","name":"","type":"address"}],"stateMutability":"view","type":"function"},{"inputs":[],"name":"pause","outputs":[],"stateMutability":"nonpayable","type":"function"},{"inputs":[],"name":"paused","outputs":[{"internalType":"bool","name":"","type":"bool"}],"stateMutability":"view","type":"function"},{"inputs":[],"name":"renounceOwnership","outputs":[],"stateMutability":"nonpayable","type":"function"},{"inputs":[{"internalType":"uint256","name":"licenseId","type":"uint256"}],"name":"revokeLicense","outputs":[],"stateMutability":"nonpayable","type":"function"},{"inputs":[{"internalType":"uint8","name":"","type":"uint8"}],"name":"rewardPerEpoch","outputs":[{"internalType":"uint256","name":"","type":"uint256"}],"stateMutability":"view","type":"function"},{"inputs":[{"internalType":"address","name":"from","type":"address"},{"internalType":"address","name":"to","type":"address"},{"internalType":"uint256","name":"tokenId","type":"uint256"}],"name":"safeTransferFrom","outputs":[],"stateMutability":"nonpayable","type":"function"},{"inputs":[{"internalType":"address","name":"from","type":"address"},{"internalType":"address","name":"to","type":"address"},{"internalType":"uint256","name":"tokenId","type":"uint256"},{"internalType":"bytes","name":"data","type":"bytes"}],"name":"safeTransferFrom","outputs":[],"stateMutability":"nonpayable","type":"function"},{"inputs":[{"internalType":"address","name":"operator","type":"address"},{"internalType":"bool","name":"approved","type":"bool"}],"name":"setApprovalForAll","outputs":[],"stateMutability":"nonpayable","type":"function"},{"inputs":[{"internalType":"string","name":"baseURI_","type":"string"}],"name":"setBaseURI","outputs":[],"stateMutability":"nonpayable","type":"function"},{"inputs":[{"internalType":"uint256","name":"newDuration","type":"uint256"}],"name":"setEpochDuration","outputs":[],"stateMutability":"nonpayable","type":"function"},{"inputs":[{"internalType":"bytes4","name":"interfaceId","type":"bytes4"}],"name":"supportsInterface","outputs":[{"internalType":"bool","name":"","type":"bool"}],"stateMutability":"view","type":"function"},{"inputs":[],"name":"symbol","outputs":[{"internalType":"string","name":"","type":"string"}],"stateMutability":"view","type":"function"},{"inputs":[{"internalType":"uint256","name":"licenseId","type":"uint256"}],"name":"tierOf","outputs":[{"internalType":"uint8","name":"","type":"uint8"}],"stateMutability":"view","type":"function"},{"inputs":[{"internalType":"uint256","name":"tokenId","type":"uint256"}],"name":"tokenURI","outputs":[{"internalType":"string","name":"","type":"string"}],"stateMutability":"view","type":"function"},{"inputs":[],"name":"totalDistributed","outputs":[{"internalType":"uint256","name":"","type":"uint256"}],"stateMutability":"view","type":"function"},{"inputs":[{"internalType":"enum KortanaLicenseNFT.Tier","name":"","type":"uint8"}],"name":"totalMinted","outputs":[{"internalType":"uint256","name":"","type":"uint256"}],"stateMutability":"view","type":"function"},{"inputs":[{"internalType":"address","name":"from","type":"address"},{"internalType":"address","name":"to","type":"address"},{"internalType":"uint256","name":"tokenId","type":"uint256"}],"name":"transferFrom","outputs":[],"stateMutability":"nonpayable","type":"function"},{"inputs":[{"internalType":"address","name":"newOwner","type":"address"}],"name":"transferOwnership","outputs":[],"stateMutability":"nonpayable","type":"function"},{"inputs":[],"name":"unpause","outputs":[],"stateMutability":"nonpayable","type":"function"},{"stateMutability":"payable","type":"receive"}],"evm":{"bytecode":{"linkReferences":{},"object":"60806040526001600855610870600d553480156200001c57600080fd5b50336040518060400160405280601481526020017f4b6f7274616e61204e6f6465204c6963656e73650000000000000000000000008152506040518060400160405280600381526020016212d39360ea1b815250816000908162000081919062000333565b50600162000090828262000333565b5050506001600160a01b038116620000c257604051631e4fbdf760e01b81526000600482015260240160405180910390fd5b620000cd816200023c565b506006805460ff60a01b19169055600160078190556103e87f13da86008ba1c6922daee3e07db95305ef49ebced9f5467a0b8613fcc6b343e38190556107d07fbbc70db1b6c7afd11e79c0fb0051300458f1a3acb8ee9789d9b6b26c61ad9bc7557fbff4442b8ed600beeb8e26b1279a0f0d14c6edfaec26d968ee13c86f7d4c2ba85560036000526101f47fa856840544dc26124927add067d799967eac11be13e14d82cc281ea46fa397595542600f55600e55601060205268022b1c8c1227a000007f6e0956cda88cad152e89927e53611735b61a5c762d1428573c6931b0a5efcb01556804563918244f4000007f8c6065603763fec3f5742441d3833f3f43b982453612d76adb39a885e3006b5f55680ad78ebc5ac62000007f853b2fefe141400fef543280f93d98bd49996069f632d0d20236afeeed8e46a2556815af1d78b58c4000007fb3edd0d534d647cffdae9f1294f11ad21f3fcf2814bea44c92bbb8d384a57d9e55620003ff565b600680546001600160a01b038381166001600160a01b0319831681179093556040519116919082907f8be0079c531659141344cd1fd0a4f28419497f9722a3daafe3b4186f6b6457e090600090a35050565b634e487b7160e01b600052604160045260246000fd5b600181811c90821680620002b957607f821691505b602082108103620002da57634e487b7160e01b600052602260045260246000fd5b50919050565b601f8211156200032e57600081815260208120601f850160051c81016020861015620003095750805b601f850160051c820191505b818110156200032a5782815560010162000315565b5050505b505050565b81516001600160401b038111156200034f576200034f6200028e565b6200036781620003608454620002a4565b84620002e0565b602080601f8311600181146200039f5760008415620003865750858301515b600019600386901b1c1916600185901b1785556200032a565b600085815260208120601f198616915b82811015620003d057888601518255948401946001909101908401620003af565b5085821015620003ef5787850151600019600388901b60f8161c191681555b5050505050600190811b01905550565b612439806200040f6000396000f3fe60806040526004361061023f5760003560e01c80636352211e1161012e57806398dcd2ca116100ab578063e985e9c51161006f578063e985e9c514610728578063efca2eed14610748578063effa26fc1461075e578063f2fde38b1461077e578063fa3f33a61461079e57600080fd5b806398dcd2ca14610685578063a22cb465146106b2578063a70b9f0c146106d2578063b88d4fde146106e8578063c87b56dd1461070857600080fd5b80638456cb59116100f25780638456cb591461060757806389c614b81461061c5780638da5cb5b14610632578063940a4e451461065057806395d89b411461067057600080fd5b80636352211e1461057c57806370a082311461059c578063715018a6146105bc57806376671808146105d15780637eedd90d146105e757600080fd5b806330024dfe116101bc578063492f471c11610180578063492f471c146104c857806353f47f95146104de57806353f96df21461050b57806355f804b31461053d5780635c975abb1461055d57600080fd5b806330024dfe1461043e5780633cf80e6c1461045e5780633f4ba83a1461047357806342842e0e14610488578063439d4b5c146104a857600080fd5b806314773b4f1161020357806314773b4f14610354578063216694a11461038157806323b872dd146103bc57806329523c5c146103dc5780632d8120b51461041157600080fd5b806301ffc9a71461028357806306fdde03146102b8578063081812fc146102da57806308d07bdc14610312578063095ea7b31461033457600080fd5b3661027e57604080513481523360208201527f56b382c0989cb3caa548f6382ea515b7700267067998b761d377320e08679490910160405180910390a1005b600080fd5b34801561028f57600080fd5b506102a361029e366004611cba565b6107be565b60405190151581526020015b60405180910390f35b3480156102c457600080fd5b506102cd610810565b6040516102af9190611d27565b3480156102e657600080fd5b506102fa6102f5366004611d3a565b6108a2565b6040516001600160a01b0390911681526020016102af565b34801561031e57600080fd5b5061033261032d366004611d53565b6108cb565b005b34801561034057600080fd5b5061033261034f366004611d91565b610936565b34801561036057600080fd5b5061037461036f366004611dbb565b610941565b6040516102af9190611dd6565b34801561038d57600080fd5b506103ae61039c366004611d3a565b60116020526000908152604090205481565b6040519081526020016102af565b3480156103c857600080fd5b506103326103d7366004611e1a565b6109ad565b3480156103e857600080fd5b506102a36103f7366004611d3a565b600090815260096020526040902054610100900460ff1690565b34801561041d57600080fd5b506103ae61042c366004611e65565b600a6020526000908152604090205481565b34801561044a57600080fd5b50610332610459366004611d3a565b610a3d565b34801561046a57600080fd5b50610332610a4a565b34801561047f57600080fd5b50610332610b07565b34801561049457600080fd5b506103326104a3366004611e1a565b610b19565b3480156104b457600080fd5b506103326104c3366004611d3a565b610b39565b3480156104d457600080fd5b506103ae60085481565b3480156104ea57600080fd5b506103ae6104f9366004611e65565b600b6020526000908152604090205481565b34801561051757600080fd5b5061052b610526366004611d3a565b610b82565b60405160ff90911681526020016102af565b34801561054957600080fd5b50610332610558366004611e80565b610ba5565b34801561056957600080fd5b50600654600160a01b900460ff166102a3565b34801561058857600080fd5b506102fa610597366004611d3a565b610bba565b3480156105a857600080fd5b506103ae6105b7366004611dbb565b610bc5565b3480156105c857600080fd5b50610332610c0d565b3480156105dd57600080fd5b506103ae600e5481565b3480156105f357600080fd5b50610332610602366004611ef2565b610c1f565b34801561061357600080fd5b50610332610c43565b34801561062857600080fd5b506103ae600f5481565b34801561063e57600080fd5b506006546001600160a01b03166102fa565b34801561065c57600080fd5b5061033261066b366004611d3a565b610c53565b34801561067c57600080fd5b506102cd610c79565b34801561069157600080fd5b506103ae6106a0366004611f25565b60106020526000908152604090205481565b3480156106be57600080fd5b506103326106cd366004611f48565b610c88565b3480156106de57600080fd5b506103ae600d5481565b3480156106f457600080fd5b50610332610703366004611f9a565b610c93565b34801561071457600080fd5b506102cd610723366004611d3a565b610caa565b34801561073457600080fd5b506102a3610743366004612076565b610d12565b34801561075457600080fd5b506103ae60125481565b34801561076a57600080fd5b506103326107793660046120ec565b610d40565b34801561078a57600080fd5b50610332610799366004611dbb565b610e1d565b3480156107aa57600080fd5b506103ae6107b9366004611e65565b610e58565b60006001600160e01b031982166380ac58cd60e01b14806107ef57506001600160e01b03198216635b5e139f60e01b145b8061080a57506301ffc9a760e01b6001600160e01b03198316145b92915050565b60606000805461081f90612158565b80601f016020809104026020016040519081016040528092919081815260200182805461084b90612158565b80156108985780601f1061086d57610100808354040283529160200191610898565b820191906000526020600020905b81548152906001019060200180831161087b57829003601f168201915b5050505050905090565b60006108ad82610ed0565b506000828152600460205260409020546001600160a01b031661080a565b6108d3610f09565b6108db610f33565b60085460008183106108f7576108f26001836121a8565b6108f9565b825b9050835b8181116109255780156109135761091381610f5e565b8061091d816121bb565b9150506108fd565b5050506109326001600755565b5050565b610932828233611165565b6001600160a01b0381166000908152600c60209081526040918290208054835181840281018401909452808452606093928301828280156109a157602002820191906000526020600020905b81548152602001906001019080831161098d575b50505050509050919050565b6001600160a01b0382166109dc57604051633250574960e11b8152600060048201526024015b60405180910390fd5b60006109e9838333611172565b9050836001600160a01b0316816001600160a01b031614610a37576040516364283d7b60e01b81526001600160a01b03808616600483015260248201849052821660448201526064016109d3565b50505050565b610a456111de565b600d55565b600d54600f54610a5a91906121d4565b421015610aa95760405162461bcd60e51b815260206004820152601a60248201527f45706f6368206475726174696f6e206e6f74207265616368656400000000000060448201526064016109d3565b600e8054906000610ab9836121bb565b909155505042600f819055600e546040517facfa06cebbab8226f9a388bff9f5fcf4569298028d939f4765958dc57dbb330b92610afd928252602082015260400190565b60405180910390a1565b610b0f6111de565b610b1761120b565b565b610b3483838360405180602001604052806000815250610c93565b505050565b610b416111de565b600081815260096020526040808220805461ff00191690555182917ff8ecc300d4504a2b49692052f138b7e697df679cf0580522720ce405bd01be5591a250565b60008181526009602052604081205460ff16600381111561080a5761080a6121e7565b610bad6111de565b6013610b3482848361224b565b600061080a82610ed0565b60006001600160a01b038216610bf1576040516322718ad960e21b8152600060048201526024016109d3565b506001600160a01b031660009081526003602052604090205490565b610c156111de565b610b17600061125b565b610c276111de565b610c2f610f09565b610c3982826112ad565b6109326001600755565b610c4b6111de565b610b176114d3565b610c5b610f09565b610c63610f33565b610c6c81610f5e565b610c766001600755565b50565b60606001805461081f90612158565b610932338383611516565b610c9e8484846109ad565b610a37848484846115ad565b6060610cb582610ed0565b506000610cc06116d6565b90506000815111610ce05760405180602001604052806000815250610d0b565b80610cea846116e5565b604051602001610cfb92919061230b565b6040516020818303038152906040525b9392505050565b6001600160a01b03918216600090815260056020908152604080832093909416825291909152205460ff1690565b610d486111de565b610d50610f09565b828114610d9f5760405162461bcd60e51b815260206004820152601860248201527f4172726179206c656e67746873206d757374206d61746368000000000000000060448201526064016109d3565b60005b83811015610e1257610e00858583818110610dbf57610dbf61233a565b9050602002016020810190610dd49190611dbb565b848484818110610de657610de661233a565b9050602002016020810190610dfb9190611e65565b6112ad565b80610e0a816121bb565b915050610da2565b50610a376001600755565b610e256111de565b6001600160a01b038116610e4f57604051631e4fbdf760e01b8152600060048201526024016109d3565b610c768161125b565b6000600b6000836003811115610e7057610e706121e7565b6003811115610e8157610e816121e7565b815260200190815260200160002054600a6000846003811115610ea657610ea66121e7565b6003811115610eb757610eb76121e7565b81526020019081526020016000205461080a91906121a8565b6000818152600260205260408120546001600160a01b03168061080a57604051637e27328960e01b8152600481018490526024016109d3565b600260075403610f2c57604051633ee5aeb560e01b815260040160405180910390fd5b6002600755565b600654600160a01b900460ff1615610b175760405163d93c066560e01b815260040160405180910390fd5b600081815260096020526040902054610100900460ff16610f7c5750565b600081815260116020526040902054600e548110610f98575050565b600081600e54610fa891906121a8565b6000848152600960205260408120549192509060ff166003811115610fcf57610fcf6121e7565b60ff811660009081526010602052604081205491925090610ff09084612350565b90508047101561103a5760408051868152602081018390527fcf4791818fba6e019216eb4864093b4947f674afada5d305e57d598b641dad1d910160405180910390a15050505050565b600061104586610bba565b90506000816001600160a01b031683620186a090604051600060405180830381858888f193505050503d806000811461109a576040519150601f19603f3d011682016040523d82523d6000602084013e61109f565b606091505b50509050806110e65760405162461bcd60e51b815260206004820152601360248201527211139488151c985b9cd9995c8811985a5b1959606a1b60448201526064016109d3565b600e546000888152601160205260408120919091556012805485929061110d9084906121d4565b9091555050600e5460408051858152602081019290925288916001600160a01b038516917ff0f44087179a926066b42ce5c1720884709cd0766b995b4595a33c8e4fd3a2b2910160405180910390a350505050505050565b610b348383836001611778565b60008061118085858561187e565b90506001600160a01b0381161561119b5761119b8185611977565b6001600160a01b038516156111d6576001600160a01b0385166000908152600c60209081526040822080546001810182559083529120018490555b949350505050565b6006546001600160a01b03163314610b175760405163118cdaa760e01b81523360048201526024016109d3565b611213611a45565b6006805460ff60a01b191690557f5db9ee0a495bf2e6ff9c91a7834c1ba4fdd244a5e8aa4e537bd38aeae4b073aa335b6040516001600160a01b039091168152602001610afd565b600680546001600160a01b038381166001600160a01b0319831681179093556040519116919082907f8be0079c531659141344cd1fd0a4f28419497f9722a3daafe3b4186f6b6457e090600090a35050565b600a60008260038111156112c3576112c36121e7565b60038111156112d4576112d46121e7565b815260200190815260200160002054600b60008360038111156112f9576112f96121e7565b600381111561130a5761130a6121e7565b815260200190815260200160002054106113665760405162461bcd60e51b815260206004820152601d60248201527f537570706c7920657863656564656420666f722074686973207469657200000060448201526064016109d3565b6008805460009182611377836121bb565b9190505590506113878382611a6f565b60405180606001604052808360038111156113a4576113a46121e7565b8152600160208083018290524260409384015260008581526009909152919091208251815491929091839160ff19909116908360038111156113e8576113e86121e7565b0217905550602082015181549015156101000261ff0019909116178155604090910151600190910155600e5461141f57600061142e565b6001600e5461142e91906121a8565b600082815260116020526040812091909155600b90836003811115611455576114556121e7565b6003811115611466576114666121e7565b81526020019081526020016000206000815480929190611485906121bb565b919050555080836001600160a01b03167f086d86777613c0607b2b012890e8fd22e796dd3c9572baf2247f7b22de396f1b84426040516114c6929190612367565b60405180910390a3505050565b6114db610f33565b6006805460ff60a01b1916600160a01b1790557f62e78cea01bee320cd4e420270b5ea74000d11b0c9f74754ebdbfc544b05a2586112433390565b6001600160a01b03821661154857604051630b61174360e31b81526001600160a01b03831660048201526024016109d3565b6001600160a01b03838116600081815260056020908152604080832094871680845294825291829020805460ff191686151590811790915591519182527f17307eab39ab6107e8899845ad3d59bd9653f200f220920489ca2b5937696c3191016114c6565b6001600160a01b0383163b15610a3757604051630a85bd0160e11b81526001600160a01b0384169063150b7a02906115ef903390889087908790600401612393565b6020604051808303816000875af192505050801561162a575060408051601f3d908101601f19168201909252611627918101906123d0565b60015b611693573d808015611658576040519150601f19603f3d011682016040523d82523d6000602084013e61165d565b606091505b50805160000361168b57604051633250574960e11b81526001600160a01b03851660048201526024016109d3565b805181602001fd5b6001600160e01b03198116630a85bd0160e11b146116cf57604051633250574960e11b81526001600160a01b03851660048201526024016109d3565b5050505050565b60606013805461081f90612158565b606060006116f283611a89565b600101905060008167ffffffffffffffff81111561171257611712611f84565b6040519080825280601f01601f19166020018201604052801561173c576020820181803683370190505b5090508181016020015b600019016f181899199a1a9b1b9c1cb0b131b232b360811b600a86061a8153600a850494508461174657509392505050565b808061178c57506001600160a01b03821615155b1561184e57600061179c84610ed0565b90506001600160a01b038316158015906117c85750826001600160a01b0316816001600160a01b031614155b80156117db57506117d98184610d12565b155b156118045760405163a9fbf51f60e01b81526001600160a01b03841660048201526024016109d3565b811561184c5783856001600160a01b0316826001600160a01b03167f8c5be1e5ebec7d5bd14f71427d1e84f3dd0314c0f7b2291e5b200ac8c7c3b92560405160405180910390a45b505b5050600090815260046020526040902080546001600160a01b0319166001600160a01b0392909216919091179055565b6000828152600260205260408120546001600160a01b03908116908316156118ab576118ab818486611b61565b6001600160a01b038116156118e9576118c8600085600080611778565b6001600160a01b038116600090815260036020526040902080546000190190555b6001600160a01b03851615611918576001600160a01b0385166000908152600360205260409020805460010190555b60008481526002602052604080822080546001600160a01b0319166001600160a01b0389811691821790925591518793918516917fddf252ad1be2c89b69c2b068fc378daa952ba7f163c4a11628f55a4df523b3ef91a4949350505050565b6001600160a01b0382166000908152600c60205260408120905b8154811015610a3757828282815481106119ad576119ad61233a565b906000526020600020015403611a3357815482906119cd906001906121a8565b815481106119dd576119dd61233a565b90600052602060002001548282815481106119fa576119fa61233a565b906000526020600020018190555081805480611a1857611a186123ed565b60019003818190600052602060002001600090559055610a37565b80611a3d816121bb565b915050611991565b600654600160a01b900460ff16610b1757604051638dfc202b60e01b815260040160405180910390fd5b610932828260405180602001604052806000815250611bc5565b60008072184f03e93ff9f4daa797ed6e38ed64bf6a1f0160401b8310611ac85772184f03e93ff9f4daa797ed6e38ed64bf6a1f0160401b830492506040015b6d04ee2d6d415b85acef81000000008310611af4576d04ee2d6d415b85acef8100000000830492506020015b662386f26fc100008310611b1257662386f26fc10000830492506010015b6305f5e1008310611b2a576305f5e100830492506008015b6127108310611b3e57612710830492506004015b60648310611b50576064830492506002015b600a831061080a5760010192915050565b611b6c838383611bdc565b610b34576001600160a01b038316611b9a57604051637e27328960e01b8152600481018290526024016109d3565b60405163177e802f60e01b81526001600160a01b0383166004820152602481018290526044016109d3565b611bcf8383611c3f565b610b3460008484846115ad565b60006001600160a01b038316158015906111d65750826001600160a01b0316846001600160a01b03161480611c165750611c168484610d12565b806111d65750506000908152600460205260409020546001600160a01b03908116911614919050565b6001600160a01b038216611c6957604051633250574960e11b8152600060048201526024016109d3565b6000611c7783836000611172565b90506001600160a01b03811615610b34576040516339e3563760e11b8152600060048201526024016109d3565b6001600160e01b031981168114610c7657600080fd5b600060208284031215611ccc57600080fd5b8135610d0b81611ca4565b60005b83811015611cf2578181015183820152602001611cda565b50506000910152565b60008151808452611d13816020860160208601611cd7565b601f01601f19169290920160200192915050565b602081526000610d0b6020830184611cfb565b600060208284031215611d4c57600080fd5b5035919050565b60008060408385031215611d6657600080fd5b50508035926020909101359150565b80356001600160a01b0381168114611d8c57600080fd5b919050565b60008060408385031215611da457600080fd5b611dad83611d75565b946020939093013593505050565b600060208284031215611dcd57600080fd5b610d0b82611d75565b6020808252825182820181905260009190848201906040850190845b81811015611e0e57835183529284019291840191600101611df2565b50909695505050505050565b600080600060608486031215611e2f57600080fd5b611e3884611d75565b9250611e4660208501611d75565b9150604084013590509250925092565b803560048110611d8c57600080fd5b600060208284031215611e7757600080fd5b610d0b82611e56565b60008060208385031215611e9357600080fd5b823567ffffffffffffffff80821115611eab57600080fd5b818501915085601f830112611ebf57600080fd5b813581811115611ece57600080fd5b866020828501011115611ee057600080fd5b60209290920196919550909350505050565b60008060408385031215611f0557600080fd5b611f0e83611d75565b9150611f1c60208401611e56565b90509250929050565b600060208284031215611f3757600080fd5b813560ff81168114610d0b57600080fd5b60008060408385031215611f5b57600080fd5b611f6483611d75565b915060208301358015158114611f7957600080fd5b809150509250929050565b634e487b7160e01b600052604160045260246000fd5b60008060008060808587031215611fb057600080fd5b611fb985611d75565b9350611fc760208601611d75565b925060408501359150606085013567ffffffffffffffff80821115611feb57600080fd5b818701915087601f830112611fff57600080fd5b81358181111561201157612011611f84565b604051601f8201601f19908116603f0116810190838211818310171561203957612039611f84565b816040528281528a602084870101111561205257600080fd5b82602086016020830137600060208483010152809550505050505092959194509250565b6000806040838503121561208957600080fd5b61209283611d75565b9150611f1c60208401611d75565b60008083601f8401126120b257600080fd5b50813567ffffffffffffffff8111156120ca57600080fd5b6020830191508360208260051b85010111156120e557600080fd5b9250929050565b6000806000806040858703121561210257600080fd5b843567ffffffffffffffff8082111561211a57600080fd5b612126888389016120a0565b9096509450602087013591508082111561213f57600080fd5b5061214c878288016120a0565b95989497509550505050565b600181811c9082168061216c57607f821691505b60208210810361218c57634e487b7160e01b600052602260045260246000fd5b50919050565b634e487b7160e01b600052601160045260246000fd5b8181038181111561080a5761080a612192565b6000600182016121cd576121cd612192565b5060010190565b8082018082111561080a5761080a612192565b634e487b7160e01b600052602160045260246000fd5b601f821115610b3457600081815260208120601f850160051c810160208610156122245750805b601f850160051c820191505b8181101561224357828155600101612230565b505050505050565b67ffffffffffffffff83111561226357612263611f84565b612277836122718354612158565b836121fd565b6000601f8411600181146122ab57600085156122935750838201355b600019600387901b1c1916600186901b1783556116cf565b600083815260209020601f19861690835b828110156122dc57868501358255602094850194600190920191016122bc565b50868210156122f95760001960f88860031b161c19848701351681555b505060018560011b0183555050505050565b6000835161231d818460208801611cd7565b835190830190612331818360208801611cd7565b01949350505050565b634e487b7160e01b600052603260045260246000fd5b808202811582820484141761080a5761080a612192565b604081016004841061238957634e487b7160e01b600052602160045260246000fd5b9281526020015290565b6001600160a01b03858116825284166020820152604081018390526080606082018190526000906123c690830184611cfb565b9695505050505050565b6000602082840312156123e257600080fd5b8151610d0b81611ca4565b634e487b7160e01b600052603160045260246000fdfea26469706673582212206b8fc07036f674833dc60eabc776b6236394e9a6d08590ae6b03426bc97bd16864736f6c63430008140033","opcodes":"PUSH1 0x80 PUSH1 0x40 MSTORE PUSH1 0x1 PUSH1 0x8 SSTORE PUSH2 0x870 PUSH1 0xD SSTORE CALLVALUE DUP1 ISZERO PUSH3 0x1C JUMPI PUSH1 0x0 DUP1 REVERT JUMPDEST POP CALLER PUSH1 0x40 MLOAD DUP1 PUSH1 0x40 ADD PUSH1 0x40 MSTORE DUP1 PUSH1 0x14 DUP2 MSTORE PUSH1 0x20 ADD PUSH32 0x4B6F7274616E61204E6F6465204C6963656E7365000000000000000000000000 DUP2 MSTORE POP PUSH1 0x40 MLOAD DUP1 PUSH1 0x40 ADD PUSH1 0x40 MSTORE DUP1 PUSH1 0x3 DUP2 MSTORE PUSH1 0x20 ADD PUSH3 0x12D393 PUSH1 0xEA SHL DUP2 MSTORE POP DUP2 PUSH1 0x0 SWAP1 DUP2 PUSH3 0x81 SWAP2 SWAP1 PUSH3 0x333 JUMP JUMPDEST POP PUSH1 0x1 PUSH3 0x90 DUP3 DUP3 PUSH3 0x333 JUMP JUMPDEST POP POP POP PUSH1 0x1 PUSH1 0x1 PUSH1 0xA0 SHL SUB DUP2 AND PUSH3 0xC2 JUMPI PUSH1 0x40 MLOAD PUSH4 0x1E4FBDF7 PUSH1 0xE0 SHL DUP2 MSTORE PUSH1 0x0 PUSH1 0x4 DUP3 ADD MSTORE PUSH1 0x24 ADD PUSH1 0x40 MLOAD DUP1 SWAP2 SUB SWAP1 REVERT JUMPDEST PUSH3 0xCD DUP2 PUSH3 0x23C JUMP JUMPDEST POP PUSH1 0x6 DUP1 SLOAD PUSH1 0xFF PUSH1 0xA0 SHL NOT AND SWAP1 SSTORE PUSH1 0x1 PUSH1 0x7 DUP2 SWAP1 SSTORE PUSH2 0x3E8 PUSH32 0x13DA86008BA1C6922DAEE3E07DB95305EF49EBCED9F5467A0B8613FCC6B343E3 DUP2 SWAP1 SSTORE PUSH2 0x7D0 PUSH32 0xBBC70DB1B6C7AFD11E79C0FB0051300458F1A3ACB8EE9789D9B6B26C61AD9BC7 SSTORE PUSH32 0xBFF4442B8ED600BEEB8E26B1279A0F0D14C6EDFAEC26D968EE13C86F7D4C2BA8 SSTORE PUSH1 0x3 PUSH1 0x0 MSTORE PUSH2 0x1F4 PUSH32 0xA856840544DC26124927ADD067D799967EAC11BE13E14D82CC281EA46FA39759 SSTORE TIMESTAMP PUSH1 0xF SSTORE PUSH1 0xE SSTORE PUSH1 0x10 PUSH1 0x20 MSTORE PUSH9 0x22B1C8C1227A00000 PUSH32 0x6E0956CDA88CAD152E89927E53611735B61A5C762D1428573C6931B0A5EFCB01 SSTORE PUSH9 0x4563918244F400000 PUSH32 0x8C6065603763FEC3F5742441D3833F3F43B982453612D76ADB39A885E3006B5F SSTORE PUSH9 0xAD78EBC5AC6200000 PUSH32 0x853B2FEFE141400FEF543280F93D98BD49996069F632D0D20236AFEEED8E46A2 SSTORE PUSH9 0x15AF1D78B58C400000 PUSH32 0xB3EDD0D534D647CFFDAE9F1294F11AD21F3FCF2814BEA44C92BBB8D384A57D9E SSTORE PUSH3 0x3FF JUMP JUMPDEST PUSH1 0x6 DUP1 SLOAD PUSH1 0x1 PUSH1 0x1 PUSH1 0xA0 SHL SUB DUP4 DUP2 AND PUSH1 0x1 PUSH1 0x1 PUSH1 0xA0 SHL SUB NOT DUP4 AND DUP2 OR SWAP1 SWAP4 SSTORE PUSH1 0x40 MLOAD SWAP2 AND SWAP2 SWAP1 DUP3 SWAP1 PUSH32 0x8BE0079C531659141344CD1FD0A4F28419497F9722A3DAAFE3B4186F6B6457E0 SWAP1 PUSH1 0x0 SWAP1 LOG3 POP POP JUMP JUMPDEST PUSH4 0x4E487B71 PUSH1 0xE0 SHL PUSH1 0x0 MSTORE PUSH1 0x41 PUSH1 0x4 MSTORE PUSH1 0x24 PUSH1 0x0 REVERT JUMPDEST PUSH1 0x1 DUP2 DUP2 SHR SWAP1 DUP3 AND DUP1 PUSH3 0x2B9 JUMPI PUSH1 0x7F DUP3 AND SWAP2 POP JUMPDEST PUSH1 0x20 DUP3 LT DUP2 SUB PUSH3 0x2DA JUMPI PUSH4 0x4E487B71 PUSH1 0xE0 SHL PUSH1 0x0 MSTORE PUSH1 0x22 PUSH1 0x4 MSTORE PUSH1 0x24 PUSH1 0x0 REVERT JUMPDEST POP SWAP2 SWAP1 POP JUMP JUMPDEST PUSH1 0x1F DUP3 GT ISZERO PUSH3 0x32E JUMPI PUSH1 0x0 DUP2 DUP2 MSTORE PUSH1 0x20 DUP2 KECCAK256 PUSH1 0x1F DUP6 ADD PUSH1 0x5 SHR DUP2 ADD PUSH1 0x20 DUP7 LT ISZERO PUSH3 0x309 JUMPI POP DUP1 JUMPDEST PUSH1 0x1F DUP6 ADD PUSH1 0x5 SHR DUP3 ADD SWAP2 POP JUMPDEST DUP2 DUP2 LT ISZERO PUSH3 0x32A JUMPI DUP3 DUP2 SSTORE PUSH1 0x1 ADD PUSH3 0x315 JUMP JUMPDEST POP POP POP JUMPDEST POP POP POP JUMP JUMPDEST DUP2 MLOAD PUSH1 0x1 PUSH1 0x1 PUSH1 0x40 SHL SUB DUP2 GT ISZERO PUSH3 0x34F JUMPI PUSH3 0x34F PUSH3 0x28E JUMP JUMPDEST PUSH3 0x367 DUP2 PUSH3 0x360 DUP5 SLOAD PUSH3 0x2A4 JUMP JUMPDEST DUP5 PUSH3 0x2E0 JUMP JUMPDEST PUSH1 0x20 DUP1 PUSH1 0x1F DUP4 GT PUSH1 0x1 DUP2 EQ PUSH3 0x39F JUMPI PUSH1 0x0 DUP5 ISZERO PUSH3 0x386 JUMPI POP DUP6 DUP4 ADD MLOAD JUMPDEST PUSH1 0x0 NOT PUSH1 0x3 DUP7 SWAP1 SHL SHR NOT AND PUSH1 0x1 DUP6 SWAP1 SHL OR DUP6 SSTORE PUSH3 0x32A JUMP JUMPDEST PUSH1 0x0 DUP6 DUP2 MSTORE PUSH1 0x20 DUP2 KECCAK256 PUSH1 0x1F NOT DUP7 AND SWAP2 JUMPDEST DUP3 DUP2 LT ISZERO PUSH3 0x3D0 JUMPI DUP9 DUP7 ADD MLOAD DUP3 SSTORE SWAP5 DUP5 ADD SWAP5 PUSH1 0x1 SWAP1 SWAP2 ADD SWAP1 DUP5 ADD PUSH3 0x3AF JUMP JUMPDEST POP DUP6 DUP3 LT ISZERO PUSH3 0x3EF JUMPI DUP8 DUP6 ADD MLOAD PUSH1 0x0 NOT PUSH1 0x3 DUP9 SWAP1 SHL PUSH1 0xF8 AND SHR NOT AND DUP2 SSTORE JUMPDEST POP POP POP POP POP PUSH1 0x1 SWAP1 DUP2 SHL ADD SWAP1 SSTORE POP JUMP JUMPDEST PUSH2 0x2439 DUP1 PUSH3 0x40F PUSH1 0x0 CODECOPY PUSH1 0x0 RETURN INVALID PUSH1 0x80 PUSH1 0x40 MSTORE PUSH1 0x4 CALLDATASIZE LT PUSH2 0x23F JUMPI PUSH1 0x0 CALLDATALOAD PUSH1 0xE0 SHR DUP1 PUSH4 0x6352211E GT PUSH2 0x12E JUMPI DUP1 PUSH4 0x98DCD2CA GT PUSH2 0xAB JUMPI DUP1 PUSH4 0xE985E9C5 GT PUSH2 0x6F JUMPI DUP1 PUSH4 0xE985E9C5 EQ PUSH2 0x728 JUMPI DUP1 PUSH4 0xEFCA2EED EQ PUSH2 0x748 JUMPI DUP1 PUSH4 0xEFFA26FC EQ PUSH2 0x75E JUMPI DUP1 PUSH4 0xF2FDE38B EQ PUSH2 0x77E JUMPI DUP1 PUSH4 0xFA3F33A6 EQ PUSH2 0x79E JUMPI PUSH1 0x0 DUP1 REVERT JUMPDEST DUP1 PUSH4 0x98DCD2CA EQ PUSH2 0x685 JUMPI DUP1 PUSH4 0xA22CB465 EQ PUSH2 0x6B2 JUMPI DUP1 PUSH4 0xA70B9F0C EQ PUSH2 0x6D2 JUMPI DUP1 PUSH4 0xB88D4FDE EQ PUSH2 0x6E8 JUMPI DUP1 PUSH4 0xC87B56DD EQ PUSH2 0x708 JUMPI PUSH1 0x0 DUP1 REVERT JUMPDEST DUP1 PUSH4 0x8456CB59 GT PUSH2 0xF2 JUMPI DUP1 PUSH4 0x8456CB59 EQ PUSH2 0x607 JUMPI DUP1 PUSH4 0x89C614B8 EQ PUSH2 0x61C JUMPI DUP1 PUSH4 0x8DA5CB5B EQ PUSH2 0x632 JUMPI DUP1 PUSH4 0x940A4E45 EQ PUSH2 0x650 JUMPI DUP1 PUSH4 0x95D89B41 EQ PUSH2 0x670 JUMPI PUSH1 0x0 DUP1 REVERT JUMPDEST DUP1 PUSH4 0x6352211E EQ PUSH2 0x57C JUMPI DUP1 PUSH4 0x70A08231 EQ PUSH2 0x59C JUMPI DUP1 PUSH4 0x715018A6 EQ PUSH2 0x5BC JUMPI DUP1 PUSH4 0x76671808 EQ PUSH2 0x5D1 JUMPI DUP1 PUSH4 0x7EEDD90D EQ PUSH2 0x5E7 JUMPI PUSH1 0x0 DUP1 REVERT JUMPDEST DUP1 PUSH4 0x30024DFE GT PUSH2 0x1BC JUMPI DUP1 PUSH4 0x492F471C GT PUSH2 0x180 JUMPI DUP1 PUSH4 0x492F471C EQ PUSH2 0x4C8 JUMPI DUP1 PUSH4 0x53F47F95 EQ PUSH2 0x4DE JUMPI DUP1 PUSH4 0x53F96DF2 EQ PUSH2 0x50B JUMPI DUP1 PUSH4 0x55F804B3 EQ PUSH2 0x53D JUMPI DUP1 PUSH4 0x5C975ABB EQ PUSH2 0x55D JUMPI PUSH1 0x0 DUP1 REVERT JUMPDEST DUP1 PUSH4 0x30024DFE EQ PUSH2 0x43E JUMPI DUP1 PUSH4 0x3CF80E6C EQ PUSH2 0x45E JUMPI DUP1 PUSH4 0x3F4BA83A EQ PUSH2 0x473 JUMPI DUP1 PUSH4 0x42842E0E EQ PUSH2 0x488 JUMPI DUP1 PUSH4 0x439D4B5C EQ PUSH2 0x4A8 JUMPI PUSH1 0x0 DUP1 REVERT JUMPDEST DUP1 PUSH4 0x14773B4F GT PUSH2 0x203 JUMPI DUP1 PUSH4 0x14773B4F EQ PUSH2 0x354 JUMPI DUP1 PUSH4 0x216694A1 EQ PUSH2 0x381 JUMPI DUP1 PUSH4 0x23B872DD EQ PUSH2 0x3BC JUMPI DUP1 PUSH4 0x29523C5C EQ PUSH2 0x3DC JUMPI DUP1 PUSH4 0x2D8120B5 EQ PUSH2 0x411 JUMPI PUSH1 0x0 DUP1 REVERT JUMPDEST DUP1 PUSH4 0x1FFC9A7 EQ PUSH2 0x283 JUMPI DUP1 PUSH4 0x6FDDE03 EQ PUSH2 0x2B8 JUMPI DUP1 PUSH4 0x81812FC EQ PUSH2 0x2DA JUMPI DUP1 PUSH4 0x8D07BDC EQ PUSH2 0x312 JUMPI DUP1 PUSH4 0x95EA7B3 EQ PUSH2 0x334 JUMPI PUSH1 0x0 DUP1 REVERT JUMPDEST CALLDATASIZE PUSH2 0x27E JUMPI PUSH1 0x40 DUP1 MLOAD CALLVALUE DUP2 MSTORE CALLER PUSH1 0x20 DUP3 ADD MSTORE PUSH32 0x56B382C0989CB3CAA548F6382EA515B7700267067998B761D377320E08679490 SWAP2 ADD PUSH1 0x40 MLOAD DUP1 SWAP2 SUB SWAP1 LOG1 STOP JUMPDEST PUSH1 0x0 DUP1 REVERT JUMPDEST CALLVALUE DUP1 ISZERO PUSH2 0x28F JUMPI PUSH1 0x0 DUP1 REVERT JUMPDEST POP PUSH2 0x2A3 PUSH2 0x29E CALLDATASIZE PUSH1 0x4 PUSH2 0x1CBA JUMP JUMPDEST PUSH2 0x7BE JUMP JUMPDEST PUSH1 0x40 MLOAD SWAP1 ISZERO ISZERO DUP2 MSTORE PUSH1 0x20 ADD JUMPDEST PUSH1 0x40 MLOAD DUP1 SWAP2 SUB SWAP1 RETURN JUMPDEST CALLVALUE DUP1 ISZERO PUSH2 0x2C4 JUMPI PUSH1 0x0 DUP1 REVERT JUMPDEST POP PUSH2 0x2CD PUSH2 0x810 JUMP JUMPDEST PUSH1 0x40 MLOAD PUSH2 0x2AF SWAP2 SWAP1 PUSH2 0x1D27 JUMP JUMPDEST CALLVALUE DUP1 ISZERO PUSH2 0x2E6 JUMPI PUSH1 0x0 DUP1 REVERT JUMPDEST POP PUSH2 0x2FA PUSH2 0x2F5 CALLDATASIZE PUSH1 0x4 PUSH2 0x1D3A JUMP JUMPDEST PUSH2 0x8A2 JUMP JUMPDEST PUSH1 0x40 MLOAD PUSH1 0x1 PUSH1 0x1 PUSH1 0xA0 SHL SUB SWAP1 SWAP2 AND DUP2 MSTORE PUSH1 0x20 ADD PUSH2 0x2AF JUMP JUMPDEST CALLVALUE DUP1 ISZERO PUSH2 0x31E JUMPI PUSH1 0x0 DUP1 REVERT JUMPDEST POP PUSH2 0x332 PUSH2 0x32D CALLDATASIZE PUSH1 0x4 PUSH2 0x1D53 JUMP JUMPDEST PUSH2 0x8CB JUMP JUMPDEST STOP JUMPDEST CALLVALUE DUP1 ISZERO PUSH2 0x340 JUMPI PUSH1 0x0 DUP1 REVERT JUMPDEST POP PUSH2 0x332 PUSH2 0x34F CALLDATASIZE PUSH1 0x4 PUSH2 0x1D91 JUMP JUMPDEST PUSH2 0x936 JUMP JUMPDEST CALLVALUE DUP1 ISZERO PUSH2 0x360 JUMPI PUSH1 0x0 DUP1 REVERT JUMPDEST POP PUSH2 0x374 PUSH2 0x36F CALLDATASIZE PUSH1 0x4 PUSH2 0x1DBB JUMP JUMPDEST PUSH2 0x941 JUMP JUMPDEST PUSH1 0x40 MLOAD PUSH2 0x2AF SWAP2 SWAP1 PUSH2 0x1DD6 JUMP JUMPDEST CALLVALUE DUP1 ISZERO PUSH2 0x38D JUMPI PUSH1 0x0 DUP1 REVERT JUMPDEST POP PUSH2 0x3AE PUSH2 0x39C CALLDATASIZE PUSH1 0x4 PUSH2 0x1D3A JUMP JUMPDEST PUSH1 0x11 PUSH1 0x20 MSTORE PUSH1 0x0 SWAP1 DUP2 MSTORE PUSH1 0x40 SWAP1 KECCAK256 SLOAD DUP2 JUMP JUMPDEST PUSH1 0x40 MLOAD SWAP1 DUP2 MSTORE PUSH1 0x20 ADD PUSH2 0x2AF JUMP JUMPDEST CALLVALUE DUP1 ISZERO PUSH2 0x3C8 JUMPI PUSH1 0x0 DUP1 REVERT JUMPDEST POP PUSH2 0x332 PUSH2 0x3D7 CALLDATASIZE PUSH1 0x4 PUSH2 0x1E1A JUMP JUMPDEST PUSH2 0x9AD JUMP JUMPDEST CALLVALUE DUP1 ISZERO PUSH2 0x3E8 JUMPI PUSH1 0x0 DUP1 REVERT JUMPDEST POP PUSH2 0x2A3 PUSH2 0x3F7 CALLDATASIZE PUSH1 0x4 PUSH2 0x1D3A JUMP JUMPDEST PUSH1 0x0 SWAP1 DUP2 MSTORE PUSH1 0x9 PUSH1 0x20 MSTORE PUSH1 0x40 SWAP1 KECCAK256 SLOAD PUSH2 0x100 SWAP1 DIV PUSH1 0xFF AND SWAP1 JUMP JUMPDEST CALLVALUE DUP1 ISZERO PUSH2 0x41D JUMPI PUSH1 0x0 DUP1 REVERT JUMPDEST POP PUSH2 0x3AE PUSH2 0x42C CALLDATASIZE PUSH1 0x4 PUSH2 0x1E65 JUMP JUMPDEST PUSH1 0xA PUSH1 0x20 MSTORE PUSH1 0x0 SWAP1 DUP2 MSTORE PUSH1 0x40 SWAP1 KECCAK256 SLOAD DUP2 JUMP JUMPDEST CALLVALUE DUP1 ISZERO PUSH2 0x44A JUMPI PUSH1 0x0 DUP1 REVERT JUMPDEST POP PUSH2 0x332 PUSH2 0x459 CALLDATASIZE PUSH1 0x4 PUSH2 0x1D3A JUMP JUMPDEST PUSH2 0xA3D JUMP JUMPDEST CALLVALUE DUP1 ISZERO PUSH2 0x46A JUMPI PUSH1 0x0 DUP1 REVERT JUMPDEST POP PUSH2 0x332 PUSH2 0xA4A JUMP JUMPDEST CALLVALUE DUP1 ISZERO PUSH2 0x47F JUMPI PUSH1 0x0 DUP1 REVERT JUMPDEST POP PUSH2 0x332 PUSH2 0xB07 JUMP JUMPDEST CALLVALUE DUP1 ISZERO PUSH2 0x494 JUMPI PUSH1 0x0 DUP1 REVERT JUMPDEST POP PUSH2 0x332 PUSH2 0x4A3 CALLDATASIZE PUSH1 0x4 PUSH2 0x1E1A JUMP JUMPDEST PUSH2 0xB19 JUMP JUMPDEST CALLVALUE DUP1 ISZERO PUSH2 0x4B4 JUMPI PUSH1 0x0 DUP1 REVERT JUMPDEST POP PUSH2 0x332 PUSH2 0x4C3 CALLDATASIZE PUSH1 0x4 PUSH2 0x1D3A JUMP JUMPDEST PUSH2 0xB39 JUMP JUMPDEST CALLVALUE DUP1 ISZERO PUSH2 0x4D4 JUMPI PUSH1 0x0 DUP1 REVERT JUMPDEST POP PUSH2 0x3AE PUSH1 0x8 SLOAD DUP2 JUMP JUMPDEST CALLVALUE DUP1 ISZERO PUSH2 0x4EA JUMPI PUSH1 0x0 DUP1 REVERT JUMPDEST POP PUSH2 0x3AE PUSH2 0x4F9 CALLDATASIZE PUSH1 0x4 PUSH2 0x1E65 JUMP JUMPDEST PUSH1 0xB PUSH1 0x20 MSTORE PUSH1 0x0 SWAP1 DUP2 MSTORE PUSH1 0x40 SWAP1 KECCAK256 SLOAD DUP2 JUMP JUMPDEST CALLVALUE DUP1 ISZERO PUSH2 0x517 JUMPI PUSH1 0x0 DUP1 REVERT JUMPDEST POP PUSH2 0x52B PUSH2 0x526 CALLDATASIZE PUSH1 0x4 PUSH2 0x1D3A JUMP JUMPDEST PUSH2 0xB82 JUMP JUMPDEST PUSH1 0x40 MLOAD PUSH1 0xFF SWAP1 SWAP2 AND DUP2 MSTORE PUSH1 0x20 ADD PUSH2 0x2AF JUMP JUMPDEST CALLVALUE DUP1 ISZERO PUSH2 0x549 JUMPI PUSH1 0x0 DUP1 REVERT JUMPDEST POP PUSH2 0x332 PUSH2 0x558 CALLDATASIZE PUSH1 0x4 PUSH2 0x1E80 JUMP JUMPDEST PUSH2 0xBA5 JUMP JUMPDEST CALLVALUE DUP1 ISZERO PUSH2 0x569 JUMPI PUSH1 0x0 DUP1 REVERT JUMPDEST POP PUSH1 0x6 SLOAD PUSH1 0x1 PUSH1 0xA0 SHL SWAP1 DIV PUSH1 0xFF AND PUSH2 0x2A3 JUMP JUMPDEST CALLVALUE DUP1 ISZERO PUSH2 0x588 JUMPI PUSH1 0x0 DUP1 REVERT JUMPDEST POP PUSH2 0x2FA PUSH2 0x597 CALLDATASIZE PUSH1 0x4 PUSH2 0x1D3A JUMP JUMPDEST PUSH2 0xBBA JUMP JUMPDEST CALLVALUE DUP1 ISZERO PUSH2 0x5A8 JUMPI PUSH1 0x0 DUP1 REVERT JUMPDEST POP PUSH2 0x3AE PUSH2 0x5B7 CALLDATASIZE PUSH1 0x4 PUSH2 0x1DBB JUMP JUMPDEST PUSH2 0xBC5 JUMP JUMPDEST CALLVALUE DUP1 ISZERO PUSH2 0x5C8 JUMPI PUSH1 0x0 DUP1 REVERT JUMPDEST POP PUSH2 0x332 PUSH2 0xC0D JUMP JUMPDEST CALLVALUE DUP1 ISZERO PUSH2 0x5DD JUMPI PUSH1 0x0 DUP1 REVERT JUMPDEST POP PUSH2 0x3AE PUSH1 0xE SLOAD DUP2 JUMP JUMPDEST CALLVALUE DUP1 ISZERO PUSH2 0x5F3 JUMPI PUSH1 0x0 DUP1 REVERT JUMPDEST POP PUSH2 0x332 PUSH2 0x602 CALLDATASIZE PUSH1 0x4 PUSH2 0x1EF2 JUMP JUMPDEST PUSH2 0xC1F JUMP JUMPDEST CALLVALUE DUP1 ISZERO PUSH2 0x613 JUMPI PUSH1 0x0 DUP1 REVERT JUMPDEST POP PUSH2 0x332 PUSH2 0xC43 JUMP JUMPDEST CALLVALUE DUP1 ISZERO PUSH2 0x628 JUMPI PUSH1 0x0 DUP1 REVERT JUMPDEST POP PUSH2 0x3AE PUSH1 0xF SLOAD DUP2 JUMP JUMPDEST CALLVALUE DUP1 ISZERO PUSH2 0x63E JUMPI PUSH1 0x0 DUP1 REVERT JUMPDEST POP PUSH1 0x6 SLOAD PUSH1 0x1 PUSH1 0x1 PUSH1 0xA0 SHL SUB AND PUSH2 0x2FA JUMP JUMPDEST CALLVALUE DUP1 ISZERO PUSH2 0x65C JUMPI PUSH1 0x0 DUP1 REVERT JUMPDEST POP PUSH2 0x332 PUSH2 0x66B CALLDATASIZE PUSH1 0x4 PUSH2 0x1D3A JUMP JUMPDEST PUSH2 0xC53 JUMP JUMPDEST CALLVALUE DUP1 ISZERO PUSH2 0x67C JUMPI PUSH1 0x0 DUP1 REVERT JUMPDEST POP PUSH2 0x2CD PUSH2 0xC79 JUMP JUMPDEST CALLVALUE DUP1 ISZERO PUSH2 0x691 JUMPI PUSH1 0x0 DUP1 REVERT JUMPDEST POP PUSH2 0x3AE PUSH2 0x6A0 CALLDATASIZE PUSH1 0x4 PUSH2 0x1F25 JUMP JUMPDEST PUSH1 0x10 PUSH1 0x20 MSTORE PUSH1 0x0 SWAP1 DUP2 MSTORE PUSH1 0x40 SWAP1 KECCAK256 SLOAD DUP2 JUMP JUMPDEST CALLVALUE DUP1 ISZERO PUSH2 0x6BE JUMPI PUSH1 0x0 DUP1 REVERT JUMPDEST POP PUSH2 0x332 PUSH2 0x6CD CALLDATASIZE PUSH1 0x4 PUSH2 0x1F48 JUMP JUMPDEST PUSH2 0xC88 JUMP JUMPDEST CALLVALUE DUP1 ISZERO PUSH2 0x6DE JUMPI PUSH1 0x0 DUP1 REVERT JUMPDEST POP PUSH2 0x3AE PUSH1 0xD SLOAD DUP2 JUMP JUMPDEST CALLVALUE DUP1 ISZERO PUSH2 0x6F4 JUMPI PUSH1 0x0 DUP1 REVERT JUMPDEST POP PUSH2 0x332 PUSH2 0x703 CALLDATASIZE PUSH1 0x4 PUSH2 0x1F9A JUMP JUMPDEST PUSH2 0xC93 JUMP JUMPDEST CALLVALUE DUP1 ISZERO PUSH2 0x714 JUMPI PUSH1 0x0 DUP1 REVERT JUMPDEST POP PUSH2 0x2CD PUSH2 0x723 CALLDATASIZE PUSH1 0x4 PUSH2 0x1D3A JUMP JUMPDEST PUSH2 0xCAA JUMP JUMPDEST CALLVALUE DUP1 ISZERO PUSH2 0x734 JUMPI PUSH1 0x0 DUP1 REVERT JUMPDEST POP PUSH2 0x2A3 PUSH2 0x743 CALLDATASIZE PUSH1 0x4 PUSH2 0x2076 JUMP JUMPDEST PUSH2 0xD12 JUMP JUMPDEST CALLVALUE DUP1 ISZERO PUSH2 0x754 JUMPI PUSH1 0x0 DUP1 REVERT JUMPDEST POP PUSH2 0x3AE PUSH1 0x12 SLOAD DUP2 JUMP JUMPDEST CALLVALUE DUP1 ISZERO PUSH2 0x76A JUMPI PUSH1 0x0 DUP1 REVERT JUMPDEST POP PUSH2 0x332 PUSH2 0x779 CALLDATASIZE PUSH1 0x4 PUSH2 0x20EC JUMP JUMPDEST PUSH2 0xD40 JUMP JUMPDEST CALLVALUE DUP1 ISZERO PUSH2 0x78A JUMPI PUSH1 0x0 DUP1 REVERT JUMPDEST POP PUSH2 0x332 PUSH2 0x799 CALLDATASIZE PUSH1 0x4 PUSH2 0x1DBB JUMP JUMPDEST PUSH2 0xE1D JUMP JUMPDEST CALLVALUE DUP1 ISZERO PUSH2 0x7AA JUMPI PUSH1 0x0 DUP1 REVERT JUMPDEST POP PUSH2 0x3AE PUSH2 0x7B9 CALLDATASIZE PUSH1 0x4 PUSH2 0x1E65 JUMP JUMPDEST PUSH2 0xE58 JUMP JUMPDEST PUSH1 0x0 PUSH1 0x1 PUSH1 0x1 PUSH1 0xE0 SHL SUB NOT DUP3 AND PUSH4 0x80AC58CD PUSH1 0xE0 SHL EQ DUP1 PUSH2 0x7EF JUMPI POP PUSH1 0x1 PUSH1 0x1 PUSH1 0xE0 SHL SUB NOT DUP3 AND PUSH4 0x5B5E139F PUSH1 0xE0 SHL EQ JUMPDEST DUP1 PUSH2 0x80A JUMPI POP PUSH4 0x1FFC9A7 PUSH1 0xE0 SHL PUSH1 0x1 PUSH1 0x1 PUSH1 0xE0 SHL SUB NOT DUP4 AND EQ JUMPDEST SWAP3 SWAP2 POP POP JUMP JUMPDEST PUSH1 0x60 PUSH1 0x0 DUP1 SLOAD PUSH2 0x81F SWAP1 PUSH2 0x2158 JUMP JUMPDEST DUP1 PUSH1 0x1F ADD PUSH1 0x20 DUP1 SWAP2 DIV MUL PUSH1 0x20 ADD PUSH1 0x40 MLOAD SWAP1 DUP2 ADD PUSH1 0x40 MSTORE DUP1 SWAP3 SWAP2 SWAP1 DUP2 DUP2 MSTORE PUSH1 0x20 ADD DUP3 DUP1 SLOAD PUSH2 0x84B SWAP1 PUSH2 0x2158 JUMP JUMPDEST DUP1 ISZERO PUSH2 0x898 JUMPI DUP1 PUSH1 0x1F LT PUSH2 0x86D JUMPI PUSH2 0x100 DUP1 DUP4 SLOAD DIV MUL DUP4 MSTORE SWAP2 PUSH1 0x20 ADD SWAP2 PUSH2 0x898 JUMP JUMPDEST DUP3 ADD SWAP2 SWAP1 PUSH1 0x0 MSTORE PUSH1 0x20 PUSH1 0x0 KECCAK256 SWAP1 JUMPDEST DUP2 SLOAD DUP2 MSTORE SWAP1 PUSH1 0x1 ADD SWAP1 PUSH1 0x20 ADD DUP1 DUP4 GT PUSH2 0x87B JUMPI DUP3 SWAP1 SUB PUSH1 0x1F AND DUP3 ADD SWAP2 JUMPDEST POP POP POP POP POP SWAP1 POP SWAP1 JUMP JUMPDEST PUSH1 0x0 PUSH2 0x8AD DUP3 PUSH2 0xED0 JUMP JUMPDEST POP PUSH1 0x0 DUP3 DUP2 MSTORE PUSH1 0x4 PUSH1 0x20 MSTORE PUSH1 0x40 SWAP1 KECCAK256 SLOAD PUSH1 0x1 PUSH1 0x1 PUSH1 0xA0 SHL SUB AND PUSH2 0x80A JUMP JUMPDEST PUSH2 0x8D3 PUSH2 0xF09 JUMP JUMPDEST PUSH2 0x8DB PUSH2 0xF33 JUMP JUMPDEST PUSH1 0x8 SLOAD PUSH1 0x0 DUP2 DUP4 LT PUSH2 0x8F7 JUMPI PUSH2 0x8F2 PUSH1 0x1 DUP4 PUSH2 0x21A8 JUMP JUMPDEST PUSH2 0x8F9 JUMP JUMPDEST DUP3 JUMPDEST SWAP1 POP DUP4 JUMPDEST DUP2 DUP2 GT PUSH2 0x925 JUMPI DUP1 ISZERO PUSH2 0x913 JUMPI PUSH2 0x913 DUP2 PUSH2 0xF5E JUMP JUMPDEST DUP1 PUSH2 0x91D DUP2 PUSH2 0x21BB JUMP JUMPDEST SWAP2 POP POP PUSH2 0x8FD JUMP JUMPDEST POP POP POP PUSH2 0x932 PUSH1 0x1 PUSH1 0x7 SSTORE JUMP JUMPDEST POP POP JUMP JUMPDEST PUSH2 0x932 DUP3 DUP3 CALLER PUSH2 0x1165 JUMP JUMPDEST PUSH1 0x1 PUSH1 0x1 PUSH1 0xA0 SHL SUB DUP2 AND PUSH1 0x0 SWAP1 DUP2 MSTORE PUSH1 0xC PUSH1 0x20 SWAP1 DUP2 MSTORE PUSH1 0x40 SWAP2 DUP3 SWAP1 KECCAK256 DUP1 SLOAD DUP4 MLOAD DUP2 DUP5 MUL DUP2 ADD DUP5 ADD SWAP1 SWAP5 MSTORE DUP1 DUP5 MSTORE PUSH1 0x60 SWAP4 SWAP3 DUP4 ADD DUP3 DUP3 DUP1 ISZERO PUSH2 0x9A1 JUMPI PUSH1 0x20 MUL DUP3 ADD SWAP2 SWAP1 PUSH1 0x0 MSTORE PUSH1 0x20 PUSH1 0x0 KECCAK256 SWAP1 JUMPDEST DUP2 SLOAD DUP2 MSTORE PUSH1 0x20 ADD SWAP1 PUSH1 0x1 ADD SWAP1 DUP1 DUP4 GT PUSH2 0x98D JUMPI JUMPDEST POP POP POP POP POP SWAP1 POP SWAP2 SWAP1 POP JUMP JUMPDEST PUSH1 0x1 PUSH1 0x1 PUSH1 0xA0 SHL SUB DUP3 AND PUSH2 0x9DC JUMPI PUSH1 0x40 MLOAD PUSH4 0x32505749 PUSH1 0xE1 SHL DUP2 MSTORE PUSH1 0x0 PUSH1 0x4 DUP3 ADD MSTORE PUSH1 0x24 ADD JUMPDEST PUSH1 0x40 MLOAD DUP1 SWAP2 SUB SWAP1 REVERT JUMPDEST PUSH1 0x0 PUSH2 0x9E9 DUP4 DUP4 CALLER PUSH2 0x1172 JUMP JUMPDEST SWAP1 POP DUP4 PUSH1 0x1 PUSH1 0x1 PUSH1 0xA0 SHL SUB AND DUP2 PUSH1 0x1 PUSH1 0x1 PUSH1 0xA0 SHL SUB AND EQ PUSH2 0xA37 JUMPI PUSH1 0x40 MLOAD PUSH4 0x64283D7B PUSH1 0xE0 SHL DUP2 MSTORE PUSH1 0x1 PUSH1 0x1 PUSH1 0xA0 SHL SUB DUP1 DUP7 AND PUSH1 0x4 DUP4 ADD MSTORE PUSH1 0x24 DUP3 ADD DUP5 SWAP1 MSTORE DUP3 AND PUSH1 0x44 DUP3 ADD MSTORE PUSH1 0x64 ADD PUSH2 0x9D3 JUMP JUMPDEST POP POP POP POP JUMP JUMPDEST PUSH2 0xA45 PUSH2 0x11DE JUMP JUMPDEST PUSH1 0xD SSTORE JUMP JUMPDEST PUSH1 0xD SLOAD PUSH1 0xF SLOAD PUSH2 0xA5A SWAP2 SWAP1 PUSH2 0x21D4 JUMP JUMPDEST TIMESTAMP LT ISZERO PUSH2 0xAA9 JUMPI PUSH1 0x40 MLOAD PUSH3 0x461BCD PUSH1 0xE5 SHL DUP2 MSTORE PUSH1 0x20 PUSH1 0x4 DUP3 ADD MSTORE PUSH1 0x1A PUSH1 0x24 DUP3 ADD MSTORE PUSH32 0x45706F6368206475726174696F6E206E6F742072656163686564000000000000 PUSH1 0x44 DUP3 ADD MSTORE PUSH1 0x64 ADD PUSH2 0x9D3 JUMP JUMPDEST PUSH1 0xE DUP1 SLOAD SWAP1 PUSH1 0x0 PUSH2 0xAB9 DUP4 PUSH2 0x21BB JUMP JUMPDEST SWAP1 SWAP2 SSTORE POP POP TIMESTAMP PUSH1 0xF DUP2 SWAP1 SSTORE PUSH1 0xE SLOAD PUSH1 0x40 MLOAD PUSH32 0xACFA06CEBBAB8226F9A388BFF9F5FCF4569298028D939F4765958DC57DBB330B SWAP3 PUSH2 0xAFD SWAP3 DUP3 MSTORE PUSH1 0x20 DUP3 ADD MSTORE PUSH1 0x40 ADD SWAP1 JUMP JUMPDEST PUSH1 0x40 MLOAD DUP1 SWAP2 SUB SWAP1 LOG1 JUMP JUMPDEST PUSH2 0xB0F PUSH2 0x11DE JUMP JUMPDEST PUSH2 0xB17 PUSH2 0x120B JUMP JUMPDEST JUMP JUMPDEST PUSH2 0xB34 DUP4 DUP4 DUP4 PUSH1 0x40 MLOAD DUP1 PUSH1 0x20 ADD PUSH1 0x40 MSTORE DUP1 PUSH1 0x0 DUP2 MSTORE POP PUSH2 0xC93 JUMP JUMPDEST POP POP POP JUMP JUMPDEST PUSH2 0xB41 PUSH2 0x11DE JUMP JUMPDEST PUSH1 0x0 DUP2 DUP2 MSTORE PUSH1 0x9 PUSH1 0x20 MSTORE PUSH1 0x40 DUP1 DUP3 KECCAK256 DUP1 SLOAD PUSH2 0xFF00 NOT AND SWAP1 SSTORE MLOAD DUP3 SWAP2 PUSH32 0xF8ECC300D4504A2B49692052F138B7E697DF679CF0580522720CE405BD01BE55 SWAP2 LOG2 POP JUMP JUMPDEST PUSH1 0x0 DUP2 DUP2 MSTORE PUSH1 0x9 PUSH1 0x20 MSTORE PUSH1 0x40 DUP2 KECCAK256 SLOAD PUSH1 0xFF AND PUSH1 0x3 DUP2 GT ISZERO PUSH2 0x80A JUMPI PUSH2 0x80A PUSH2 0x21E7 JUMP JUMPDEST PUSH2 0xBAD PUSH2 0x11DE JUMP JUMPDEST PUSH1 0x13 PUSH2 0xB34 DUP3 DUP5 DUP4 PUSH2 0x224B JUMP JUMPDEST PUSH1 0x0 PUSH2 0x80A DUP3 PUSH2 0xED0 JUMP JUMPDEST PUSH1 0x0 PUSH1 0x1 PUSH1 0x1 PUSH1 0xA0 SHL SUB DUP3 AND PUSH2 0xBF1 JUMPI PUSH1 0x40 MLOAD PUSH4 0x22718AD9 PUSH1 0xE2 SHL DUP2 MSTORE PUSH1 0x0 PUSH1 0x4 DUP3 ADD MSTORE PUSH1 0x24 ADD PUSH2 0x9D3 JUMP JUMPDEST POP PUSH1 0x1 PUSH1 0x1 PUSH1 0xA0 SHL SUB AND PUSH1 0x0 SWAP1 DUP2 MSTORE PUSH1 0x3 PUSH1 0x20 MSTORE PUSH1 0x40 SWAP1 KECCAK256 SLOAD SWAP1 JUMP JUMPDEST PUSH2 0xC15 PUSH2 0x11DE JUMP JUMPDEST PUSH2 0xB17 PUSH1 0x0 PUSH2 0x125B JUMP JUMPDEST PUSH2 0xC27 PUSH2 0x11DE JUMP JUMPDEST PUSH2 0xC2F PUSH2 0xF09 JUMP JUMPDEST PUSH2 0xC39 DUP3 DUP3 PUSH2 0x12AD JUMP JUMPDEST PUSH2 0x932 PUSH1 0x1 PUSH1 0x7 SSTORE JUMP JUMPDEST PUSH2 0xC4B PUSH2 0x11DE JUMP JUMPDEST PUSH2 0xB17 PUSH2 0x14D3 JUMP JUMPDEST PUSH2 0xC5B PUSH2 0xF09 JUMP JUMPDEST PUSH2 0xC63 PUSH2 0xF33 JUMP JUMPDEST PUSH2 0xC6C DUP2 PUSH2 0xF5E JUMP JUMPDEST PUSH2 0xC76 PUSH1 0x1 PUSH1 0x7 SSTORE JUMP JUMPDEST POP JUMP JUMPDEST PUSH1 0x60 PUSH1 0x1 DUP1 SLOAD PUSH2 0x81F SWAP1 PUSH2 0x2158 JUMP JUMPDEST PUSH2 0x932 CALLER DUP4 DUP4 PUSH2 0x1516 JUMP JUMPDEST PUSH2 0xC9E DUP5 DUP5 DUP5 PUSH2 0x9AD JUMP JUMPDEST PUSH2 0xA37 DUP5 DUP5 DUP5 DUP5 PUSH2 0x15AD JUMP JUMPDEST PUSH1 0x60 PUSH2 0xCB5 DUP3 PUSH2 0xED0 JUMP JUMPDEST POP PUSH1 0x0 PUSH2 0xCC0 PUSH2 0x16D6 JUMP JUMPDEST SWAP1 POP PUSH1 0x0 DUP2 MLOAD GT PUSH2 0xCE0 JUMPI PUSH1 0x40 MLOAD DUP1 PUSH1 0x20 ADD PUSH1 0x40 MSTORE DUP1 PUSH1 0x0 DUP2 MSTORE POP PUSH2 0xD0B JUMP JUMPDEST DUP1 PUSH2 0xCEA DUP5 PUSH2 0x16E5 JUMP JUMPDEST PUSH1 0x40 MLOAD PUSH1 0x20 ADD PUSH2 0xCFB SWAP3 SWAP2 SWAP1 PUSH2 0x230B JUMP JUMPDEST PUSH1 0x40 MLOAD PUSH1 0x20 DUP2 DUP4 SUB SUB DUP2 MSTORE SWAP1 PUSH1 0x40 MSTORE JUMPDEST SWAP4 SWAP3 POP POP POP JUMP JUMPDEST PUSH1 0x1 PUSH1 0x1 PUSH1 0xA0 SHL SUB SWAP2 DUP3 AND PUSH1 0x0 SWAP1 DUP2 MSTORE PUSH1 0x5 PUSH1 0x20 SWAP1 DUP2 MSTORE PUSH1 0x40 DUP1 DUP4 KECCAK256 SWAP4 SWAP1 SWAP5 AND DUP3 MSTORE SWAP2 SWAP1 SWAP2 MSTORE KECCAK256 SLOAD PUSH1 0xFF AND SWAP1 JUMP JUMPDEST PUSH2 0xD48 PUSH2 0x11DE JUMP JUMPDEST PUSH2 0xD50 PUSH2 0xF09 JUMP JUMPDEST DUP3 DUP2 EQ PUSH2 0xD9F JUMPI PUSH1 0x40 MLOAD PUSH3 0x461BCD PUSH1 0xE5 SHL DUP2 MSTORE PUSH1 0x20 PUSH1 0x4 DUP3 ADD MSTORE PUSH1 0x18 PUSH1 0x24 DUP3 ADD MSTORE PUSH32 0x4172726179206C656E67746873206D757374206D617463680000000000000000 PUSH1 0x44 DUP3 ADD MSTORE PUSH1 0x64 ADD PUSH2 0x9D3 JUMP JUMPDEST PUSH1 0x0 JUMPDEST DUP4 DUP2 LT ISZERO PUSH2 0xE12 JUMPI PUSH2 0xE00 DUP6 DUP6 DUP4 DUP2 DUP2 LT PUSH2 0xDBF JUMPI PUSH2 0xDBF PUSH2 0x233A JUMP JUMPDEST SWAP1 POP PUSH1 0x20 MUL ADD PUSH1 0x20 DUP2 ADD SWAP1 PUSH2 0xDD4 SWAP2 SWAP1 PUSH2 0x1DBB JUMP JUMPDEST DUP5 DUP5 DUP5 DUP2 DUP2 LT PUSH2 0xDE6 JUMPI PUSH2 0xDE6 PUSH2 0x233A JUMP JUMPDEST SWAP1 POP PUSH1 0x20 MUL ADD PUSH1 0x20 DUP2 ADD SWAP1 PUSH2 0xDFB SWAP2 SWAP1 PUSH2 0x1E65 JUMP JUMPDEST PUSH2 0x12AD JUMP JUMPDEST DUP1 PUSH2 0xE0A DUP2 PUSH2 0x21BB JUMP JUMPDEST SWAP2 POP POP PUSH2 0xDA2 JUMP JUMPDEST POP PUSH2 0xA37 PUSH1 0x1 PUSH1 0x7 SSTORE JUMP JUMPDEST PUSH2 0xE25 PUSH2 0x11DE JUMP JUMPDEST PUSH1 0x1 PUSH1 0x1 PUSH1 0xA0 SHL SUB DUP2 AND PUSH2 0xE4F JUMPI PUSH1 0x40 MLOAD PUSH4 0x1E4FBDF7 PUSH1 0xE0 SHL DUP2 MSTORE PUSH1 0x0 PUSH1 0x4 DUP3 ADD MSTORE PUSH1 0x24 ADD PUSH2 0x9D3 JUMP JUMPDEST PUSH2 0xC76 DUP2 PUSH2 0x125B JUMP JUMPDEST PUSH1 0x0 PUSH1 0xB PUSH1 0x0 DUP4 PUSH1 0x3 DUP2 GT ISZERO PUSH2 0xE70 JUMPI PUSH2 0xE70 PUSH2 0x21E7 JUMP JUMPDEST PUSH1 0x3 DUP2 GT ISZERO PUSH2 0xE81 JUMPI PUSH2 0xE81 PUSH2 0x21E7 JUMP JUMPDEST DUP2 MSTORE PUSH1 0x20 ADD SWAP1 DUP2 MSTORE PUSH1 0x20 ADD PUSH1 0x0 KECCAK256 SLOAD PUSH1 0xA PUSH1 0x0 DUP5 PUSH1 0x3 DUP2 GT ISZERO PUSH2 0xEA6 JUMPI PUSH2 0xEA6 PUSH2 0x21E7 JUMP JUMPDEST PUSH1 0x3 DUP2 GT ISZERO PUSH2 0xEB7 JUMPI PUSH2 0xEB7 PUSH2 0x21E7 JUMP JUMPDEST DUP2 MSTORE PUSH1 0x20 ADD SWAP1 DUP2 MSTORE PUSH1 0x20 ADD PUSH1 0x0 KECCAK256 SLOAD PUSH2 0x80A SWAP2 SWAP1 PUSH2 0x21A8 JUMP JUMPDEST PUSH1 0x0 DUP2 DUP2 MSTORE PUSH1 0x2 PUSH1 0x20 MSTORE PUSH1 0x40 DUP2 KECCAK256 SLOAD PUSH1 0x1 PUSH1 0x1 PUSH1 0xA0 SHL SUB AND DUP1 PUSH2 0x80A JUMPI PUSH1 0x40 MLOAD PUSH4 0x7E273289 PUSH1 0xE0 SHL DUP2 MSTORE PUSH1 0x4 DUP2 ADD DUP5 SWAP1 MSTORE PUSH1 0x24 ADD PUSH2 0x9D3 JUMP JUMPDEST PUSH1 0x2 PUSH1 0x7 SLOAD SUB PUSH2 0xF2C JUMPI PUSH1 0x40 MLOAD PUSH4 0x3EE5AEB5 PUSH1 0xE0 SHL DUP2 MSTORE PUSH1 0x4 ADD PUSH1 0x40 MLOAD DUP1 SWAP2 SUB SWAP1 REVERT JUMPDEST PUSH1 0x2 PUSH1 0x7 SSTORE JUMP JUMPDEST PUSH1 0x6 SLOAD PUSH1 0x1 PUSH1 0xA0 SHL SWAP1 DIV PUSH1 0xFF AND ISZERO PUSH2 0xB17 JUMPI PUSH1 0x40 MLOAD PUSH4 0xD93C0665 PUSH1 0xE0 SHL DUP2 MSTORE PUSH1 0x4 ADD PUSH1 0x40 MLOAD DUP1 SWAP2 SUB SWAP1 REVERT JUMPDEST PUSH1 0x0 DUP2 DUP2 MSTORE PUSH1 0x9 PUSH1 0x20 MSTORE PUSH1 0x40 SWAP1 KECCAK256 SLOAD PUSH2 0x100 SWAP1 DIV PUSH1 0xFF AND PUSH2 0xF7C JUMPI POP JUMP JUMPDEST PUSH1 0x0 DUP2 DUP2 MSTORE PUSH1 0x11 PUSH1 0x20 MSTORE PUSH1 0x40 SWAP1 KECCAK256 SLOAD PUSH1 0xE SLOAD DUP2 LT PUSH2 0xF98 JUMPI POP POP JUMP JUMPDEST PUSH1 0x0 DUP2 PUSH1 0xE SLOAD PUSH2 0xFA8 SWAP2 SWAP1 PUSH2 0x21A8 JUMP JUMPDEST PUSH1 0x0 DUP5 DUP2 MSTORE PUSH1 0x9 PUSH1 0x20 MSTORE PUSH1 0x40 DUP2 KECCAK256 SLOAD SWAP2 SWAP3 POP SWAP1 PUSH1 0xFF AND PUSH1 0x3 DUP2 GT ISZERO PUSH2 0xFCF JUMPI PUSH2 0xFCF PUSH2 0x21E7 JUMP JUMPDEST PUSH1 0xFF DUP2 AND PUSH1 0x0 SWAP1 DUP2 MSTORE PUSH1 0x10 PUSH1 0x20 MSTORE PUSH1 0x40 DUP2 KECCAK256 SLOAD SWAP2 SWAP3 POP SWAP1 PUSH2 0xFF0 SWAP1 DUP5 PUSH2 0x2350 JUMP JUMPDEST SWAP1 POP DUP1 SELFBALANCE LT ISZERO PUSH2 0x103A JUMPI PUSH1 0x40 DUP1 MLOAD DUP7 DUP2 MSTORE PUSH1 0x20 DUP2 ADD DUP4 SWAP1 MSTORE PUSH32 0xCF4791818FBA6E019216EB4864093B4947F674AFADA5D305E57D598B641DAD1D SWAP2 ADD PUSH1 0x40 MLOAD DUP1 SWAP2 SUB SWAP1 LOG1 POP POP POP POP POP JUMP JUMPDEST PUSH1 0x0 PUSH2 0x1045 DUP7 PUSH2 0xBBA JUMP JUMPDEST SWAP1 POP PUSH1 0x0 DUP2 PUSH1 0x1 PUSH1 0x1 PUSH1 0xA0 SHL SUB AND DUP4 PUSH3 0x186A0 SWAP1 PUSH1 0x40 MLOAD PUSH1 0x0 PUSH1 0x40 MLOAD DUP1 DUP4 SUB DUP2 DUP6 DUP9 DUP9 CALL SWAP4 POP POP POP POP RETURNDATASIZE DUP1 PUSH1 0x0 DUP2 EQ PUSH2 0x109A JUMPI PUSH1 0x40 MLOAD SWAP2 POP PUSH1 0x1F NOT PUSH1 0x3F RETURNDATASIZE ADD AND DUP3 ADD PUSH1 0x40 MSTORE RETURNDATASIZE DUP3 MSTORE RETURNDATASIZE PUSH1 0x0 PUSH1 0x20 DUP5 ADD RETURNDATACOPY PUSH2 0x109F JUMP JUMPDEST PUSH1 0x60 SWAP2 POP JUMPDEST POP POP SWAP1 POP DUP1 PUSH2 0x10E6 JUMPI PUSH1 0x40 MLOAD PUSH3 0x461BCD PUSH1 0xE5 SHL DUP2 MSTORE PUSH1 0x20 PUSH1 0x4 DUP3 ADD MSTORE PUSH1 0x13 PUSH1 0x24 DUP3 ADD MSTORE PUSH19 0x11139488151C985B9CD9995C8811985A5B1959 PUSH1 0x6A SHL PUSH1 0x44 DUP3 ADD MSTORE PUSH1 0x64 ADD PUSH2 0x9D3 JUMP JUMPDEST PUSH1 0xE SLOAD PUSH1 0x0 DUP9 DUP2 MSTORE PUSH1 0x11 PUSH1 0x20 MSTORE PUSH1 0x40 DUP2 KECCAK256 SWAP2 SWAP1 SWAP2 SSTORE PUSH1 0x12 DUP1 SLOAD DUP6 SWAP3 SWAP1 PUSH2 0x110D SWAP1 DUP5 SWAP1 PUSH2 0x21D4 JUMP JUMPDEST SWAP1 SWAP2 SSTORE POP POP PUSH1 0xE SLOAD PUSH1 0x40 DUP1 MLOAD DUP6 DUP2 MSTORE PUSH1 0x20 DUP2 ADD SWAP3 SWAP1 SWAP3 MSTORE DUP9 SWAP2 PUSH1 0x1 PUSH1 0x1 PUSH1 0xA0 SHL SUB DUP6 AND SWAP2 PUSH32 0xF0F44087179A926066B42CE5C1720884709CD0766B995B4595A33C8E4FD3A2B2 SWAP2 ADD PUSH1 0x40 MLOAD DUP1 SWAP2 SUB SWAP1 LOG3 POP POP POP POP POP POP POP JUMP JUMPDEST PUSH2 0xB34 DUP4 DUP4 DUP4 PUSH1 0x1 PUSH2 0x1778 JUMP JUMPDEST PUSH1 0x0 DUP1 PUSH2 0x1180 DUP6 DUP6 DUP6 PUSH2 0x187E JUMP JUMPDEST SWAP1 POP PUSH1 0x1 PUSH1 0x1 PUSH1 0xA0 SHL SUB DUP2 AND ISZERO PUSH2 0x119B JUMPI PUSH2 0x119B DUP2 DUP6 PUSH2 0x1977 JUMP JUMPDEST PUSH1 0x1 PUSH1 0x1 PUSH1 0xA0 SHL SUB DUP6 AND ISZERO PUSH2 0x11D6 JUMPI PUSH1 0x1 PUSH1 0x1 PUSH1 0xA0 SHL SUB DUP6 AND PUSH1 0x0 SWAP1 DUP2 MSTORE PUSH1 0xC PUSH1 0x20 SWAP1 DUP2 MSTORE PUSH1 0x40 DUP3 KECCAK256 DUP1 SLOAD PUSH1 0x1 DUP2 ADD DUP3 SSTORE SWAP1 DUP4 MSTORE SWAP2 KECCAK256 ADD DUP5 SWAP1 SSTORE JUMPDEST SWAP5 SWAP4 POP POP POP POP JUMP JUMPDEST PUSH1 0x6 SLOAD PUSH1 0x1 PUSH1 0x1 PUSH1 0xA0 SHL SUB AND CALLER EQ PUSH2 0xB17 JUMPI PUSH1 0x40 MLOAD PUSH4 0x118CDAA7 PUSH1 0xE0 SHL DUP2 MSTORE CALLER PUSH1 0x4 DUP3 ADD MSTORE PUSH1 0x24 ADD PUSH2 0x9D3 JUMP JUMPDEST PUSH2 0x1213 PUSH2 0x1A45 JUMP JUMPDEST PUSH1 0x6 DUP1 SLOAD PUSH1 0xFF PUSH1 0xA0 SHL NOT AND SWAP1 SSTORE PUSH32 0x5DB9EE0A495BF2E6FF9C91A7834C1BA4FDD244A5E8AA4E537BD38AEAE4B073AA CALLER JUMPDEST PUSH1 0x40 MLOAD PUSH1 0x1 PUSH1 0x1 PUSH1 0xA0 SHL SUB SWAP1 SWAP2 AND DUP2 MSTORE PUSH1 0x20 ADD PUSH2 0xAFD JUMP JUMPDEST PUSH1 0x6 DUP1 SLOAD PUSH1 0x1 PUSH1 0x1 PUSH1 0xA0 SHL SUB DUP4 DUP2 AND PUSH1 0x1 PUSH1 0x1 PUSH1 0xA0 SHL SUB NOT DUP4 AND DUP2 OR SWAP1 SWAP4 SSTORE PUSH1 0x40 MLOAD SWAP2 AND SWAP2 SWAP1 DUP3 SWAP1 PUSH32 0x8BE0079C531659141344CD1FD0A4F28419497F9722A3DAAFE3B4186F6B6457E0 SWAP1 PUSH1 0x0 SWAP1 LOG3 POP POP JUMP JUMPDEST PUSH1 0xA PUSH1 0x0 DUP3 PUSH1 0x3 DUP2 GT ISZERO PUSH2 0x12C3 JUMPI PUSH2 0x12C3 PUSH2 0x21E7 JUMP JUMPDEST PUSH1 0x3 DUP2 GT ISZERO PUSH2 0x12D4 JUMPI PUSH2 0x12D4 PUSH2 0x21E7 JUMP JUMPDEST DUP2 MSTORE PUSH1 0x20 ADD SWAP1 DUP2 MSTORE PUSH1 0x20 ADD PUSH1 0x0 KECCAK256 SLOAD PUSH1 0xB PUSH1 0x0 DUP4 PUSH1 0x3 DUP2 GT ISZERO PUSH2 0x12F9 JUMPI PUSH2 0x12F9 PUSH2 0x21E7 JUMP JUMPDEST PUSH1 0x3 DUP2 GT ISZERO PUSH2 0x130A JUMPI PUSH2 0x130A PUSH2 0x21E7 JUMP JUMPDEST DUP2 MSTORE PUSH1 0x20 ADD SWAP1 DUP2 MSTORE PUSH1 0x20 ADD PUSH1 0x0 KECCAK256 SLOAD LT PUSH2 0x1366 JUMPI PUSH1 0x40 MLOAD PUSH3 0x461BCD PUSH1 0xE5 SHL DUP2 MSTORE PUSH1 0x20 PUSH1 0x4 DUP3 ADD MSTORE PUSH1 0x1D PUSH1 0x24 DUP3 ADD MSTORE PUSH32 0x537570706C7920657863656564656420666F7220746869732074696572000000 PUSH1 0x44 DUP3 ADD MSTORE PUSH1 0x64 ADD PUSH2 0x9D3 JUMP JUMPDEST PUSH1 0x8 DUP1 SLOAD PUSH1 0x0 SWAP2 DUP3 PUSH2 0x1377 DUP4 PUSH2 0x21BB JUMP JUMPDEST SWAP2 SWAP1 POP SSTORE SWAP1 POP PUSH2 0x1387 DUP4 DUP3 PUSH2 0x1A6F JUMP JUMPDEST PUSH1 0x40 MLOAD DUP1 PUSH1 0x60 ADD PUSH1 0x40 MSTORE DUP1 DUP4 PUSH1 0x3 DUP2 GT ISZERO PUSH2 0x13A4 JUMPI PUSH2 0x13A4 PUSH2 0x21E7 JUMP JUMPDEST DUP2 MSTORE PUSH1 0x1 PUSH1 0x20 DUP1 DUP4 ADD DUP3 SWAP1 MSTORE TIMESTAMP PUSH1 0x40 SWAP4 DUP5 ADD MSTORE PUSH1 0x0 DUP6 DUP2 MSTORE PUSH1 0x9 SWAP1 SWAP2 MSTORE SWAP2 SWAP1 SWAP2 KECCAK256 DUP3 MLOAD DUP2 SLOAD SWAP2 SWAP3 SWAP1 SWAP2 DUP4 SWAP2 PUSH1 0xFF NOT SWAP1 SWAP2 AND SWAP1 DUP4 PUSH1 0x3 DUP2 GT ISZERO PUSH2 0x13E8 JUMPI PUSH2 0x13E8 PUSH2 0x21E7 JUMP JUMPDEST MUL OR SWAP1 SSTORE POP PUSH1 0x20 DUP3 ADD MLOAD DUP2 SLOAD SWAP1 ISZERO ISZERO PUSH2 0x100 MUL PUSH2 0xFF00 NOT SWAP1 SWAP2 AND OR DUP2 SSTORE PUSH1 0x40 SWAP1 SWAP2 ADD MLOAD PUSH1 0x1 SWAP1 SWAP2 ADD SSTORE PUSH1 0xE SLOAD PUSH2 0x141F JUMPI PUSH1 0x0 PUSH2 0x142E JUMP JUMPDEST PUSH1 0x1 PUSH1 0xE SLOAD PUSH2 0x142E SWAP2 SWAP1 PUSH2 0x21A8 JUMP JUMPDEST PUSH1 0x0 DUP3 DUP2 MSTORE PUSH1 0x11 PUSH1 0x20 MSTORE PUSH1 0x40 DUP2 KECCAK256 SWAP2 SWAP1 SWAP2 SSTORE PUSH1 0xB SWAP1 DUP4 PUSH1 0x3 DUP2 GT ISZERO PUSH2 0x1455 JUMPI PUSH2 0x1455 PUSH2 0x21E7 JUMP JUMPDEST PUSH1 0x3 DUP2 GT ISZERO PUSH2 0x1466 JUMPI PUSH2 0x1466 PUSH2 0x21E7 JUMP JUMPDEST DUP2 MSTORE PUSH1 0x20 ADD SWAP1 DUP2 MSTORE PUSH1 0x20 ADD PUSH1 0x0 KECCAK256 PUSH1 0x0 DUP2 SLOAD DUP1 SWAP3 SWAP2 SWAP1 PUSH2 0x1485 SWAP1 PUSH2 0x21BB JUMP JUMPDEST SWAP2 SWAP1 POP SSTORE POP DUP1 DUP4 PUSH1 0x1 PUSH1 0x1 PUSH1 0xA0 SHL SUB AND PUSH32 0x86D86777613C0607B2B012890E8FD22E796DD3C9572BAF2247F7B22DE396F1B DUP5 TIMESTAMP PUSH1 0x40 MLOAD PUSH2 0x14C6 SWAP3 SWAP2 SWAP1 PUSH2 0x2367 JUMP JUMPDEST PUSH1 0x40 MLOAD DUP1 SWAP2 SUB SWAP1 LOG3 POP POP POP JUMP JUMPDEST PUSH2 0x14DB PUSH2 0xF33 JUMP JUMPDEST PUSH1 0x6 DUP1 SLOAD PUSH1 0xFF PUSH1 0xA0 SHL NOT AND PUSH1 0x1 PUSH1 0xA0 SHL OR SWAP1 SSTORE PUSH32 0x62E78CEA01BEE320CD4E420270B5EA74000D11B0C9F74754EBDBFC544B05A258 PUSH2 0x1243 CALLER SWAP1 JUMP JUMPDEST PUSH1 0x1 PUSH1 0x1 PUSH1 0xA0 SHL SUB DUP3 AND PUSH2 0x1548 JUMPI PUSH1 0x40 MLOAD PUSH4 0xB611743 PUSH1 0xE3 SHL DUP2 MSTORE PUSH1 0x1 PUSH1 0x1 PUSH1 0xA0 SHL SUB DUP4 AND PUSH1 0x4 DUP3 ADD MSTORE PUSH1 0x24 ADD PUSH2 0x9D3 JUMP JUMPDEST PUSH1 0x1 PUSH1 0x1 PUSH1 0xA0 SHL SUB DUP4 DUP2 AND PUSH1 0x0 DUP2 DUP2 MSTORE PUSH1 0x5 PUSH1 0x20 SWAP1 DUP2 MSTORE PUSH1 0x40 DUP1 DUP4 KECCAK256 SWAP5 DUP8 AND DUP1 DUP5 MSTORE SWAP5 DUP3 MSTORE SWAP2 DUP3 SWAP1 KECCAK256 DUP1 SLOAD PUSH1 0xFF NOT AND DUP7 ISZERO ISZERO SWAP1 DUP2 OR SWAP1 SWAP2 SSTORE SWAP2 MLOAD SWAP2 DUP3 MSTORE PUSH32 0x17307EAB39AB6107E8899845AD3D59BD9653F200F220920489CA2B5937696C31 SWAP2 ADD PUSH2 0x14C6 JUMP JUMPDEST PUSH1 0x1 PUSH1 0x1 PUSH1 0xA0 SHL SUB DUP4 AND EXTCODESIZE ISZERO PUSH2 0xA37 JUMPI PUSH1 0x40 MLOAD PUSH4 0xA85BD01 PUSH1 0xE1 SHL DUP2 MSTORE PUSH1 0x1 PUSH1 0x1 PUSH1 0xA0 SHL SUB DUP5 AND SWAP1 PUSH4 0x150B7A02 SWAP1 PUSH2 0x15EF SWAP1 CALLER SWAP1 DUP9 SWAP1 DUP8 SWAP1 DUP8 SWAP1 PUSH1 0x4 ADD PUSH2 0x2393 JUMP JUMPDEST PUSH1 0x20 PUSH1 0x40 MLOAD DUP1 DUP4 SUB DUP2 PUSH1 0x0 DUP8 GAS CALL SWAP3 POP POP POP DUP1 ISZERO PUSH2 0x162A JUMPI POP PUSH1 0x40 DUP1 MLOAD PUSH1 0x1F RETURNDATASIZE SWAP1 DUP2 ADD PUSH1 0x1F NOT AND DUP3 ADD SWAP1 SWAP3 MSTORE PUSH2 0x1627 SWAP2 DUP2 ADD SWAP1 PUSH2 0x23D0 JUMP JUMPDEST PUSH1 0x1 JUMPDEST PUSH2 0x1693 JUMPI RETURNDATASIZE DUP1 DUP1 ISZERO PUSH2 0x1658 JUMPI PUSH1 0x40 MLOAD SWAP2 POP PUSH1 0x1F NOT PUSH1 0x3F RETURNDATASIZE ADD AND DUP3 ADD PUSH1 0x40 MSTORE RETURNDATASIZE DUP3 MSTORE RETURNDATASIZE PUSH1 0x0 PUSH1 0x20 DUP5 ADD RETURNDATACOPY PUSH2 0x165D JUMP JUMPDEST PUSH1 0x60 SWAP2 POP JUMPDEST POP DUP1 MLOAD PUSH1 0x0 SUB PUSH2 0x168B JUMPI PUSH1 0x40 MLOAD PUSH4 0x32505749 PUSH1 0xE1 SHL DUP2 MSTORE PUSH1 0x1 PUSH1 0x1 PUSH1 0xA0 SHL SUB DUP6 AND PUSH1 0x4 DUP3 ADD MSTORE PUSH1 0x24 ADD PUSH2 0x9D3 JUMP JUMPDEST DUP1 MLOAD DUP2 PUSH1 0x20 ADD REVERT JUMPDEST PUSH1 0x1 PUSH1 0x1 PUSH1 0xE0 SHL SUB NOT DUP2 AND PUSH4 0xA85BD01 PUSH1 0xE1 SHL EQ PUSH2 0x16CF JUMPI PUSH1 0x40 MLOAD PUSH4 0x32505749 PUSH1 0xE1 SHL DUP2 MSTORE PUSH1 0x1 PUSH1 0x1 PUSH1 0xA0 SHL SUB DUP6 AND PUSH1 0x4 DUP3 ADD MSTORE PUSH1 0x24 ADD PUSH2 0x9D3 JUMP JUMPDEST POP POP POP POP POP JUMP JUMPDEST PUSH1 0x60 PUSH1 0x13 DUP1 SLOAD PUSH2 0x81F SWAP1 PUSH2 0x2158 JUMP JUMPDEST PUSH1 0x60 PUSH1 0x0 PUSH2 0x16F2 DUP4 PUSH2 0x1A89 JUMP JUMPDEST PUSH1 0x1 ADD SWAP1 POP PUSH1 0x0 DUP2 PUSH8 0xFFFFFFFFFFFFFFFF DUP2 GT ISZERO PUSH2 0x1712 JUMPI PUSH2 0x1712 PUSH2 0x1F84 JUMP JUMPDEST PUSH1 0x40 MLOAD SWAP1 DUP1 DUP3 MSTORE DUP1 PUSH1 0x1F ADD PUSH1 0x1F NOT AND PUSH1 0x20 ADD DUP3 ADD PUSH1 0x40 MSTORE DUP1 ISZERO PUSH2 0x173C JUMPI PUSH1 0x20 DUP3 ADD DUP2 DUP1 CALLDATASIZE DUP4 CALLDATACOPY ADD SWAP1 POP JUMPDEST POP SWAP1 POP DUP2 DUP2 ADD PUSH1 0x20 ADD JUMPDEST PUSH1 0x0 NOT ADD PUSH16 0x181899199A1A9B1B9C1CB0B131B232B3 PUSH1 0x81 SHL PUSH1 0xA DUP7 MOD BYTE DUP2 MSTORE8 PUSH1 0xA DUP6 DIV SWAP5 POP DUP5 PUSH2 0x1746 JUMPI POP SWAP4 SWAP3 POP POP POP JUMP JUMPDEST DUP1 DUP1 PUSH2 0x178C JUMPI POP PUSH1 0x1 PUSH1 0x1 PUSH1 0xA0 SHL SUB DUP3 AND ISZERO ISZERO JUMPDEST ISZERO PUSH2 0x184E JUMPI PUSH1 0x0 PUSH2 0x179C DUP5 PUSH2 0xED0 JUMP JUMPDEST SWAP1 POP PUSH1 0x1 PUSH1 0x1 PUSH1 0xA0 SHL SUB DUP4 AND ISZERO DUP1 ISZERO SWAP1 PUSH2 0x17C8 JUMPI POP DUP3 PUSH1 0x1 PUSH1 0x1 PUSH1 0xA0 SHL SUB AND DUP2 PUSH1 0x1 PUSH1 0x1 PUSH1 0xA0 SHL SUB AND EQ ISZERO JUMPDEST DUP1 ISZERO PUSH2 0x17DB JUMPI POP PUSH2 0x17D9 DUP2 DUP5 PUSH2 0xD12 JUMP JUMPDEST ISZERO JUMPDEST ISZERO PUSH2 0x1804 JUMPI PUSH1 0x40 MLOAD PUSH4 0xA9FBF51F PUSH1 0xE0 SHL DUP2 MSTORE PUSH1 0x1 PUSH1 0x1 PUSH1 0xA0 SHL SUB DUP5 AND PUSH1 0x4 DUP3 ADD MSTORE PUSH1 0x24 ADD PUSH2 0x9D3 JUMP JUMPDEST DUP2 ISZERO PUSH2 0x184C JUMPI DUP4 DUP6 PUSH1 0x1 PUSH1 0x1 PUSH1 0xA0 SHL SUB AND DUP3 PUSH1 0x1 PUSH1 0x1 PUSH1 0xA0 SHL SUB AND PUSH32 0x8C5BE1E5EBEC7D5BD14F71427D1E84F3DD0314C0F7B2291E5B200AC8C7C3B925 PUSH1 0x40 MLOAD PUSH1 0x40 MLOAD DUP1 SWAP2 SUB SWAP1 LOG4 JUMPDEST POP JUMPDEST POP POP PUSH1 0x0 SWAP1 DUP2 MSTORE PUSH1 0x4 PUSH1 0x20 MSTORE PUSH1 0x40 SWAP1 KECCAK256 DUP1 SLOAD PUSH1 0x1 PUSH1 0x1 PUSH1 0xA0 SHL SUB NOT AND PUSH1 0x1 PUSH1 0x1 PUSH1 0xA0 SHL SUB SWAP3 SWAP1 SWAP3 AND SWAP2 SWAP1 SWAP2 OR SWAP1 SSTORE JUMP JUMPDEST PUSH1 0x0 DUP3 DUP2 MSTORE PUSH1 0x2 PUSH1 0x20 MSTORE PUSH1 0x40 DUP2 KECCAK256 SLOAD PUSH1 0x1 PUSH1 0x1 PUSH1 0xA0 SHL SUB SWAP1 DUP2 AND SWAP1 DUP4 AND ISZERO PUSH2 0x18AB JUMPI PUSH2 0x18AB DUP2 DUP5 DUP7 PUSH2 0x1B61 JUMP JUMPDEST PUSH1 0x1 PUSH1 0x1 PUSH1 0xA0 SHL SUB DUP2 AND ISZERO PUSH2 0x18E9 JUMPI PUSH2 0x18C8 PUSH1 0x0 DUP6 PUSH1 0x0 DUP1 PUSH2 0x1778 JUMP JUMPDEST PUSH1 0x1 PUSH1 0x1 PUSH1 0xA0 SHL SUB DUP2 AND PUSH1 0x0 SWAP1 DUP2 MSTORE PUSH1 0x3 PUSH1 0x20 MSTORE PUSH1 0x40 SWAP1 KECCAK256 DUP1 SLOAD PUSH1 0x0 NOT ADD SWAP1 SSTORE JUMPDEST PUSH1 0x1 PUSH1 0x1 PUSH1 0xA0 SHL SUB DUP6 AND ISZERO PUSH2 0x1918 JUMPI PUSH1 0x1 PUSH1 0x1 PUSH1 0xA0 SHL SUB DUP6 AND PUSH1 0x0 SWAP1 DUP2 MSTORE PUSH1 0x3 PUSH1 0x20 MSTORE PUSH1 0x40 SWAP1 KECCAK256 DUP1 SLOAD PUSH1 0x1 ADD SWAP1 SSTORE JUMPDEST PUSH1 0x0 DUP5 DUP2 MSTORE PUSH1 0x2 PUSH1 0x20 MSTORE PUSH1 0x40 DUP1 DUP3 KECCAK256 DUP1 SLOAD PUSH1 0x1 PUSH1 0x1 PUSH1 0xA0 SHL SUB NOT AND PUSH1 0x1 PUSH1 0x1 PUSH1 0xA0 SHL SUB DUP10 DUP2 AND SWAP2 DUP3 OR SWAP1 SWAP3 SSTORE SWAP2 MLOAD DUP8 SWAP4 SWAP2 DUP6 AND SWAP2 PUSH32 0xDDF252AD1BE2C89B69C2B068FC378DAA952BA7F163C4A11628F55A4DF523B3EF SWAP2 LOG4 SWAP5 SWAP4 POP POP POP POP JUMP JUMPDEST PUSH1 0x1 PUSH1 0x1 PUSH1 0xA0 SHL SUB DUP3 AND PUSH1 0x0 SWAP1 DUP2 MSTORE PUSH1 0xC PUSH1 0x20 MSTORE PUSH1 0x40 DUP2 KECCAK256 SWAP1 JUMPDEST DUP2 SLOAD DUP2 LT ISZERO PUSH2 0xA37 JUMPI DUP3 DUP3 DUP3 DUP2 SLOAD DUP2 LT PUSH2 0x19AD JUMPI PUSH2 0x19AD PUSH2 0x233A JUMP JUMPDEST SWAP1 PUSH1 0x0 MSTORE PUSH1 0x20 PUSH1 0x0 KECCAK256 ADD SLOAD SUB PUSH2 0x1A33 JUMPI DUP2 SLOAD DUP3 SWAP1 PUSH2 0x19CD SWAP1 PUSH1 0x1 SWAP1 PUSH2 0x21A8 JUMP JUMPDEST DUP2 SLOAD DUP2 LT PUSH2 0x19DD JUMPI PUSH2 0x19DD PUSH2 0x233A JUMP JUMPDEST SWAP1 PUSH1 0x0 MSTORE PUSH1 0x20 PUSH1 0x0 KECCAK256 ADD SLOAD DUP3 DUP3 DUP2 SLOAD DUP2 LT PUSH2 0x19FA JUMPI PUSH2 0x19FA PUSH2 0x233A JUMP JUMPDEST SWAP1 PUSH1 0x0 MSTORE PUSH1 0x20 PUSH1 0x0 KECCAK256 ADD DUP2 SWAP1 SSTORE POP DUP2 DUP1 SLOAD DUP1 PUSH2 0x1A18 JUMPI PUSH2 0x1A18 PUSH2 0x23ED JUMP JUMPDEST PUSH1 0x1 SWAP1 SUB DUP2 DUP2 SWAP1 PUSH1 0x0 MSTORE PUSH1 0x20 PUSH1 0x0 KECCAK256 ADD PUSH1 0x0 SWAP1 SSTORE SWAP1 SSTORE PUSH2 0xA37 JUMP JUMPDEST DUP1 PUSH2 0x1A3D DUP2 PUSH2 0x21BB JUMP JUMPDEST SWAP2 POP POP PUSH2 0x1991 JUMP JUMPDEST PUSH1 0x6 SLOAD PUSH1 0x1 PUSH1 0xA0 SHL SWAP1 DIV PUSH1 0xFF AND PUSH2 0xB17 JUMPI PUSH1 0x40 MLOAD PUSH4 0x8DFC202B PUSH1 0xE0 SHL DUP2 MSTORE PUSH1 0x4 ADD PUSH1 0x40 MLOAD DUP1 SWAP2 SUB SWAP1 REVERT JUMPDEST PUSH2 0x932 DUP3 DUP3 PUSH1 0x40 MLOAD DUP1 PUSH1 0x20 ADD PUSH1 0x40 MSTORE DUP1 PUSH1 0x0 DUP2 MSTORE POP PUSH2 0x1BC5 JUMP JUMPDEST PUSH1 0x0 DUP1 PUSH19 0x184F03E93FF9F4DAA797ED6E38ED64BF6A1F01 PUSH1 0x40 SHL DUP4 LT PUSH2 0x1AC8 JUMPI PUSH19 0x184F03E93FF9F4DAA797ED6E38ED64BF6A1F01 PUSH1 0x40 SHL DUP4 DIV SWAP3 POP PUSH1 0x40 ADD JUMPDEST PUSH14 0x4EE2D6D415B85ACEF8100000000 DUP4 LT PUSH2 0x1AF4 JUMPI PUSH14 0x4EE2D6D415B85ACEF8100000000 DUP4 DIV SWAP3 POP PUSH1 0x20 ADD JUMPDEST PUSH7 0x2386F26FC10000 DUP4 LT PUSH2 0x1B12 JUMPI PUSH7 0x2386F26FC10000 DUP4 DIV SWAP3 POP PUSH1 0x10 ADD JUMPDEST PUSH4 0x5F5E100 DUP4 LT PUSH2 0x1B2A JUMPI PUSH4 0x5F5E100 DUP4 DIV SWAP3 POP PUSH1 0x8 ADD JUMPDEST PUSH2 0x2710 DUP4 LT PUSH2 0x1B3E JUMPI PUSH2 0x2710 DUP4 DIV SWAP3 POP PUSH1 0x4 ADD JUMPDEST PUSH1 0x64 DUP4 LT PUSH2 0x1B50 JUMPI PUSH1 0x64 DUP4 DIV SWAP3 POP PUSH1 0x2 ADD JUMPDEST PUSH1 0xA DUP4 LT PUSH2 0x80A JUMPI PUSH1 0x1 ADD SWAP3 SWAP2 POP POP JUMP JUMPDEST PUSH2 0x1B6C DUP4 DUP4 DUP4 PUSH2 0x1BDC JUMP JUMPDEST PUSH2 0xB34 JUMPI PUSH1 0x1 PUSH1 0x1 PUSH1 0xA0 SHL SUB DUP4 AND PUSH2 0x1B9A JUMPI PUSH1 0x40 MLOAD PUSH4 0x7E273289 PUSH1 0xE0 SHL DUP2 MSTORE PUSH1 0x4 DUP2 ADD DUP3 SWAP1 MSTORE PUSH1 0x24 ADD PUSH2 0x9D3 JUMP JUMPDEST PUSH1 0x40 MLOAD PUSH4 0x177E802F PUSH1 0xE0 SHL DUP2 MSTORE PUSH1 0x1 PUSH1 0x1 PUSH1 0xA0 SHL SUB DUP4 AND PUSH1 0x4 DUP3 ADD MSTORE PUSH1 0x24 DUP2 ADD DUP3 SWAP1 MSTORE PUSH1 0x44 ADD PUSH2 0x9D3 JUMP JUMPDEST PUSH2 0x1BCF DUP4 DUP4 PUSH2 0x1C3F JUMP JUMPDEST PUSH2 0xB34 PUSH1 0x0 DUP5 DUP5 DUP5 PUSH2 0x15AD JUMP JUMPDEST PUSH1 0x0 PUSH1 0x1 PUSH1 0x1 PUSH1 0xA0 SHL SUB DUP4 AND ISZERO DUP1 ISZERO SWAP1 PUSH2 0x11D6 JUMPI POP DUP3 PUSH1 0x1 PUSH1 0x1 PUSH1 0xA0 SHL SUB AND DUP5 PUSH1 0x1 PUSH1 0x1 PUSH1 0xA0 SHL SUB AND EQ DUP1 PUSH2 0x1C16 JUMPI POP PUSH2 0x1C16 DUP5 DUP5 PUSH2 0xD12 JUMP JUMPDEST DUP1 PUSH2 0x11D6 JUMPI POP POP PUSH1 0x0 SWAP1 DUP2 MSTORE PUSH1 0x4 PUSH1 0x20 MSTORE PUSH1 0x40 SWAP1 KECCAK256 SLOAD PUSH1 0x1 PUSH1 0x1 PUSH1 0xA0 SHL SUB SWAP1 DUP2 AND SWAP2 AND EQ SWAP2 SWAP1 POP JUMP JUMPDEST PUSH1 0x1 PUSH1 0x1 PUSH1 0xA0 SHL SUB DUP3 AND PUSH2 0x1C69 JUMPI PUSH1 0x40 MLOAD PUSH4 0x32505749 PUSH1 0xE1 SHL DUP2 MSTORE PUSH1 0x0 PUSH1 0x4 DUP3 ADD MSTORE PUSH1 0x24 ADD PUSH2 0x9D3 JUMP JUMPDEST PUSH1 0x0 PUSH2 0x1C77 DUP4 DUP4 PUSH1 0x0 PUSH2 0x1172 JUMP JUMPDEST SWAP1 POP PUSH1 0x1 PUSH1 0x1 PUSH1 0xA0 SHL SUB DUP2 AND ISZERO PUSH2 0xB34 JUMPI PUSH1 0x40 MLOAD PUSH4 0x39E35637 PUSH1 0xE1 SHL DUP2 MSTORE PUSH1 0x0 PUSH1 0x4 DUP3 ADD MSTORE PUSH1 0x24 ADD PUSH2 0x9D3 JUMP JUMPDEST PUSH1 0x1 PUSH1 0x1 PUSH1 0xE0 SHL SUB NOT DUP2 AND DUP2 EQ PUSH2 0xC76 JUMPI PUSH1 0x0 DUP1 REVERT JUMPDEST PUSH1 0x0 PUSH1 0x20 DUP3 DUP5 SUB SLT ISZERO PUSH2 0x1CCC JUMPI PUSH1 0x0 DUP1 REVERT JUMPDEST DUP2 CALLDATALOAD PUSH2 0xD0B DUP2 PUSH2 0x1CA4 JUMP JUMPDEST PUSH1 0x0 JUMPDEST DUP4 DUP2 LT ISZERO PUSH2 0x1CF2 JUMPI DUP2 DUP2 ADD MLOAD DUP4 DUP3 ADD MSTORE PUSH1 0x20 ADD PUSH2 0x1CDA JUMP JUMPDEST POP POP PUSH1 0x0 SWAP2 ADD MSTORE JUMP JUMPDEST PUSH1 0x0 DUP2 MLOAD DUP1 DUP5 MSTORE PUSH2 0x1D13 DUP2 PUSH1 0x20 DUP7 ADD PUSH1 0x20 DUP7 ADD PUSH2 0x1CD7 JUMP JUMPDEST PUSH1 0x1F ADD PUSH1 0x1F NOT AND SWAP3 SWAP1 SWAP3 ADD PUSH1 0x20 ADD SWAP3 SWAP2 POP POP JUMP JUMPDEST PUSH1 0x20 DUP2 MSTORE PUSH1 0x0 PUSH2 0xD0B PUSH1 0x20 DUP4 ADD DUP5 PUSH2 0x1CFB JUMP JUMPDEST PUSH1 0x0 PUSH1 0x20 DUP3 DUP5 SUB SLT ISZERO PUSH2 0x1D4C JUMPI PUSH1 0x0 DUP1 REVERT JUMPDEST POP CALLDATALOAD SWAP2 SWAP1 POP JUMP JUMPDEST PUSH1 0x0 DUP1 PUSH1 0x40 DUP4 DUP6 SUB SLT ISZERO PUSH2 0x1D66 JUMPI PUSH1 0x0 DUP1 REVERT JUMPDEST POP POP DUP1 CALLDATALOAD SWAP3 PUSH1 0x20 SWAP1 SWAP2 ADD CALLDATALOAD SWAP2 POP JUMP JUMPDEST DUP1 CALLDATALOAD PUSH1 0x1 PUSH1 0x1 PUSH1 0xA0 SHL SUB DUP2 AND DUP2 EQ PUSH2 0x1D8C JUMPI PUSH1 0x0 DUP1 REVERT JUMPDEST SWAP2 SWAP1 POP JUMP JUMPDEST PUSH1 0x0 DUP1 PUSH1 0x40 DUP4 DUP6 SUB SLT ISZERO PUSH2 0x1DA4 JUMPI PUSH1 0x0 DUP1 REVERT JUMPDEST PUSH2 0x1DAD DUP4 PUSH2 0x1D75 JUMP JUMPDEST SWAP5 PUSH1 0x20 SWAP4 SWAP1 SWAP4 ADD CALLDATALOAD SWAP4 POP POP POP JUMP JUMPDEST PUSH1 0x0 PUSH1 0x20 DUP3 DUP5 SUB SLT ISZERO PUSH2 0x1DCD JUMPI PUSH1 0x0 DUP1 REVERT JUMPDEST PUSH2 0xD0B DUP3 PUSH2 0x1D75 JUMP JUMPDEST PUSH1 0x20 DUP1 DUP3 MSTORE DUP3 MLOAD DUP3 DUP3 ADD DUP2 SWAP1 MSTORE PUSH1 0x0 SWAP2 SWAP1 DUP5 DUP3 ADD SWAP1 PUSH1 0x40 DUP6 ADD SWAP1 DUP5 JUMPDEST DUP2 DUP2 LT ISZERO PUSH2 0x1E0E JUMPI DUP4 MLOAD DUP4 MSTORE SWAP3 DUP5 ADD SWAP3 SWAP2 DUP5 ADD SWAP2 PUSH1 0x1 ADD PUSH2 0x1DF2 JUMP JUMPDEST POP SWAP1 SWAP7 SWAP6 POP POP POP POP POP POP JUMP JUMPDEST PUSH1 0x0 DUP1 PUSH1 0x0 PUSH1 0x60 DUP5 DUP7 SUB SLT ISZERO PUSH2 0x1E2F JUMPI PUSH1 0x0 DUP1 REVERT JUMPDEST PUSH2 0x1E38 DUP5 PUSH2 0x1D75 JUMP JUMPDEST SWAP3 POP PUSH2 0x1E46 PUSH1 0x20 DUP6 ADD PUSH2 0x1D75 JUMP JUMPDEST SWAP2 POP PUSH1 0x40 DUP5 ADD CALLDATALOAD SWAP1 POP SWAP3 POP SWAP3 POP SWAP3 JUMP JUMPDEST DUP1 CALLDATALOAD PUSH1 0x4 DUP2 LT PUSH2 0x1D8C JUMPI PUSH1 0x0 DUP1 REVERT JUMPDEST PUSH1 0x0 PUSH1 0x20 DUP3 DUP5 SUB SLT ISZERO PUSH2 0x1E77 JUMPI PUSH1 0x0 DUP1 REVERT JUMPDEST PUSH2 0xD0B DUP3 PUSH2 0x1E56 JUMP JUMPDEST PUSH1 0x0 DUP1 PUSH1 0x20 DUP4 DUP6 SUB SLT ISZERO PUSH2 0x1E93 JUMPI PUSH1 0x0 DUP1 REVERT JUMPDEST DUP3 CALLDATALOAD PUSH8 0xFFFFFFFFFFFFFFFF DUP1 DUP3 GT ISZERO PUSH2 0x1EAB JUMPI PUSH1 0x0 DUP1 REVERT JUMPDEST DUP2 DUP6 ADD SWAP2 POP DUP6 PUSH1 0x1F DUP4 ADD SLT PUSH2 0x1EBF JUMPI PUSH1 0x0 DUP1 REVERT JUMPDEST DUP2 CALLDATALOAD DUP2 DUP2 GT ISZERO PUSH2 0x1ECE JUMPI PUSH1 0x0 DUP1 REVERT JUMPDEST DUP7 PUSH1 0x20 DUP3 DUP6 ADD ADD GT ISZERO PUSH2 0x1EE0 JUMPI PUSH1 0x0 DUP1 REVERT JUMPDEST PUSH1 0x20 SWAP3 SWAP1 SWAP3 ADD SWAP7 SWAP2 SWAP6 POP SWAP1 SWAP4 POP POP POP POP JUMP JUMPDEST PUSH1 0x0 DUP1 PUSH1 0x40 DUP4 DUP6 SUB SLT ISZERO PUSH2 0x1F05 JUMPI PUSH1 0x0 DUP1 REVERT JUMPDEST PUSH2 0x1F0E DUP4 PUSH2 0x1D75 JUMP JUMPDEST SWAP2 POP PUSH2 0x1F1C PUSH1 0x20 DUP5 ADD PUSH2 0x1E56 JUMP JUMPDEST SWAP1 POP SWAP3 POP SWAP3 SWAP1 POP JUMP JUMPDEST PUSH1 0x0 PUSH1 0x20 DUP3 DUP5 SUB SLT ISZERO PUSH2 0x1F37 JUMPI PUSH1 0x0 DUP1 REVERT JUMPDEST DUP2 CALLDATALOAD PUSH1 0xFF DUP2 AND DUP2 EQ PUSH2 0xD0B JUMPI PUSH1 0x0 DUP1 REVERT JUMPDEST PUSH1 0x0 DUP1 PUSH1 0x40 DUP4 DUP6 SUB SLT ISZERO PUSH2 0x1F5B JUMPI PUSH1 0x0 DUP1 REVERT JUMPDEST PUSH2 0x1F64 DUP4 PUSH2 0x1D75 JUMP JUMPDEST SWAP2 POP PUSH1 0x20 DUP4 ADD CALLDATALOAD DUP1 ISZERO ISZERO DUP2 EQ PUSH2 0x1F79 JUMPI PUSH1 0x0 DUP1 REVERT JUMPDEST DUP1 SWAP2 POP POP SWAP3 POP SWAP3 SWAP1 POP JUMP JUMPDEST PUSH4 0x4E487B71 PUSH1 0xE0 SHL PUSH1 0x0 MSTORE PUSH1 0x41 PUSH1 0x4 MSTORE PUSH1 0x24 PUSH1 0x0 REVERT JUMPDEST PUSH1 0x0 DUP1 PUSH1 0x0 DUP1 PUSH1 0x80 DUP6 DUP8 SUB SLT ISZERO PUSH2 0x1FB0 JUMPI PUSH1 0x0 DUP1 REVERT JUMPDEST PUSH2 0x1FB9 DUP6 PUSH2 0x1D75 JUMP JUMPDEST SWAP4 POP PUSH2 0x1FC7 PUSH1 0x20 DUP7 ADD PUSH2 0x1D75 JUMP JUMPDEST SWAP3 POP PUSH1 0x40 DUP6 ADD CALLDATALOAD SWAP2 POP PUSH1 0x60 DUP6 ADD CALLDATALOAD PUSH8 0xFFFFFFFFFFFFFFFF DUP1 DUP3 GT ISZERO PUSH2 0x1FEB JUMPI PUSH1 0x0 DUP1 REVERT JUMPDEST DUP2 DUP8 ADD SWAP2 POP DUP8 PUSH1 0x1F DUP4 ADD SLT PUSH2 0x1FFF JUMPI PUSH1 0x0 DUP1 REVERT JUMPDEST DUP2 CALLDATALOAD DUP2 DUP2 GT ISZERO PUSH2 0x2011 JUMPI PUSH2 0x2011 PUSH2 0x1F84 JUMP JUMPDEST PUSH1 0x40 MLOAD PUSH1 0x1F DUP3 ADD PUSH1 0x1F NOT SWAP1 DUP2 AND PUSH1 0x3F ADD AND DUP2 ADD SWAP1 DUP4 DUP3 GT DUP2 DUP4 LT OR ISZERO PUSH2 0x2039 JUMPI PUSH2 0x2039 PUSH2 0x1F84 JUMP JUMPDEST DUP2 PUSH1 0x40 MSTORE DUP3 DUP2 MSTORE DUP11 PUSH1 0x20 DUP5 DUP8 ADD ADD GT ISZERO PUSH2 0x2052 JUMPI PUSH1 0x0 DUP1 REVERT JUMPDEST DUP3 PUSH1 0x20 DUP7 ADD PUSH1 0x20 DUP4 ADD CALLDATACOPY PUSH1 0x0 PUSH1 0x20 DUP5 DUP4 ADD ADD MSTORE DUP1 SWAP6 POP POP POP POP POP POP SWAP3 SWAP6 SWAP2 SWAP5 POP SWAP3 POP JUMP JUMPDEST PUSH1 0x0 DUP1 PUSH1 0x40 DUP4 DUP6 SUB SLT ISZERO PUSH2 0x2089 JUMPI PUSH1 0x0 DUP1 REVERT JUMPDEST PUSH2 0x2092 DUP4 PUSH2 0x1D75 JUMP JUMPDEST SWAP2 POP PUSH2 0x1F1C PUSH1 0x20 DUP5 ADD PUSH2 0x1D75 JUMP JUMPDEST PUSH1 0x0 DUP1 DUP4 PUSH1 0x1F DUP5 ADD SLT PUSH2 0x20B2 JUMPI PUSH1 0x0 DUP1 REVERT JUMPDEST POP DUP2 CALLDATALOAD PUSH8 0xFFFFFFFFFFFFFFFF DUP2 GT ISZERO PUSH2 0x20CA JUMPI PUSH1 0x0 DUP1 REVERT JUMPDEST PUSH1 0x20 DUP4 ADD SWAP2 POP DUP4 PUSH1 0x20 DUP3 PUSH1 0x5 SHL DUP6 ADD ADD GT ISZERO PUSH2 0x20E5 JUMPI PUSH1 0x0 DUP1 REVERT JUMPDEST SWAP3 POP SWAP3 SWAP1 POP JUMP JUMPDEST PUSH1 0x0 DUP1 PUSH1 0x0 DUP1 PUSH1 0x40 DUP6 DUP8 SUB SLT ISZERO PUSH2 0x2102 JUMPI PUSH1 0x0 DUP1 REVERT JUMPDEST DUP5 CALLDATALOAD PUSH8 0xFFFFFFFFFFFFFFFF DUP1 DUP3 GT ISZERO PUSH2 0x211A JUMPI PUSH1 0x0 DUP1 REVERT JUMPDEST PUSH2 0x2126 DUP9 DUP4 DUP10 ADD PUSH2 0x20A0 JUMP JUMPDEST SWAP1 SWAP7 POP SWAP5 POP PUSH1 0x20 DUP8 ADD CALLDATALOAD SWAP2 POP DUP1 DUP3 GT ISZERO PUSH2 0x213F JUMPI PUSH1 0x0 DUP1 REVERT JUMPDEST POP PUSH2 0x214C DUP8 DUP3 DUP9 ADD PUSH2 0x20A0 JUMP JUMPDEST SWAP6 SWAP9 SWAP5 SWAP8 POP SWAP6 POP POP POP POP JUMP JUMPDEST PUSH1 0x1 DUP2 DUP2 SHR SWAP1 DUP3 AND DUP1 PUSH2 0x216C JUMPI PUSH1 0x7F DUP3 AND SWAP2 POP JUMPDEST PUSH1 0x20 DUP3 LT DUP2 SUB PUSH2 0x218C JUMPI PUSH4 0x4E487B71 PUSH1 0xE0 SHL PUSH1 0x0 MSTORE PUSH1 0x22 PUSH1 0x4 MSTORE PUSH1 0x24 PUSH1 0x0 REVERT JUMPDEST POP SWAP2 SWAP1 POP JUMP JUMPDEST PUSH4 0x4E487B71 PUSH1 0xE0 SHL PUSH1 0x0 MSTORE PUSH1 0x11 PUSH1 0x4 MSTORE PUSH1 0x24 PUSH1 0x0 REVERT JUMPDEST DUP2 DUP2 SUB DUP2 DUP2 GT ISZERO PUSH2 0x80A JUMPI PUSH2 0x80A PUSH2 0x2192 JUMP JUMPDEST PUSH1 0x0 PUSH1 0x1 DUP3 ADD PUSH2 0x21CD JUMPI PUSH2 0x21CD PUSH2 0x2192 JUMP JUMPDEST POP PUSH1 0x1 ADD SWAP1 JUMP JUMPDEST DUP1 DUP3 ADD DUP1 DUP3 GT ISZERO PUSH2 0x80A JUMPI PUSH2 0x80A PUSH2 0x2192 JUMP JUMPDEST PUSH4 0x4E487B71 PUSH1 0xE0 SHL PUSH1 0x0 MSTORE PUSH1 0x21 PUSH1 0x4 MSTORE PUSH1 0x24 PUSH1 0x0 REVERT JUMPDEST PUSH1 0x1F DUP3 GT ISZERO PUSH2 0xB34 JUMPI PUSH1 0x0 DUP2 DUP2 MSTORE PUSH1 0x20 DUP2 KECCAK256 PUSH1 0x1F DUP6 ADD PUSH1 0x5 SHR DUP2 ADD PUSH1 0x20 DUP7 LT ISZERO PUSH2 0x2224 JUMPI POP DUP1 JUMPDEST PUSH1 0x1F DUP6 ADD PUSH1 0x5 SHR DUP3 ADD SWAP2 POP JUMPDEST DUP2 DUP2 LT ISZERO PUSH2 0x2243 JUMPI DUP3 DUP2 SSTORE PUSH1 0x1 ADD PUSH2 0x2230 JUMP JUMPDEST POP POP POP POP POP POP JUMP JUMPDEST PUSH8 0xFFFFFFFFFFFFFFFF DUP4 GT ISZERO PUSH2 0x2263 JUMPI PUSH2 0x2263 PUSH2 0x1F84 JUMP JUMPDEST PUSH2 0x2277 DUP4 PUSH2 0x2271 DUP4 SLOAD PUSH2 0x2158 JUMP JUMPDEST DUP4 PUSH2 0x21FD JUMP JUMPDEST PUSH1 0x0 PUSH1 0x1F DUP5 GT PUSH1 0x1 DUP2 EQ PUSH2 0x22AB JUMPI PUSH1 0x0 DUP6 ISZERO PUSH2 0x2293 JUMPI POP DUP4 DUP3 ADD CALLDATALOAD JUMPDEST PUSH1 0x0 NOT PUSH1 0x3 DUP8 SWAP1 SHL SHR NOT AND PUSH1 0x1 DUP7 SWAP1 SHL OR DUP4 SSTORE PUSH2 0x16CF JUMP JUMPDEST PUSH1 0x0 DUP4 DUP2 MSTORE PUSH1 0x20 SWAP1 KECCAK256 PUSH1 0x1F NOT DUP7 AND SWAP1 DUP4 JUMPDEST DUP3 DUP2 LT ISZERO PUSH2 0x22DC JUMPI DUP7 DUP6 ADD CALLDATALOAD DUP3 SSTORE PUSH1 0x20 SWAP5 DUP6 ADD SWAP5 PUSH1 0x1 SWAP1 SWAP3 ADD SWAP2 ADD PUSH2 0x22BC JUMP JUMPDEST POP DUP7 DUP3 LT ISZERO PUSH2 0x22F9 JUMPI PUSH1 0x0 NOT PUSH1 0xF8 DUP9 PUSH1 0x3 SHL AND SHR NOT DUP5 DUP8 ADD CALLDATALOAD AND DUP2 SSTORE JUMPDEST POP POP PUSH1 0x1 DUP6 PUSH1 0x1 SHL ADD DUP4 SSTORE POP POP POP POP POP JUMP JUMPDEST PUSH1 0x0 DUP4 MLOAD PUSH2 0x231D DUP2 DUP5 PUSH1 0x20 DUP9 ADD PUSH2 0x1CD7 JUMP JUMPDEST DUP4 MLOAD SWAP1 DUP4 ADD SWAP1 PUSH2 0x2331 DUP2 DUP4 PUSH1 0x20 DUP9 ADD PUSH2 0x1CD7 JUMP JUMPDEST ADD SWAP5 SWAP4 POP POP POP POP JUMP JUMPDEST PUSH4 0x4E487B71 PUSH1 0xE0 SHL PUSH1 0x0 MSTORE PUSH1 0x32 PUSH1 0x4 MSTORE PUSH1 0x24 PUSH1 0x0 REVERT JUMPDEST DUP1 DUP3 MUL DUP2 ISZERO DUP3 DUP3 DIV DUP5 EQ OR PUSH2 0x80A JUMPI PUSH2 0x80A PUSH2 0x2192 JUMP JUMPDEST PUSH1 0x40 DUP2 ADD PUSH1 0x4 DUP5 LT PUSH2 0x2389 JUMPI PUSH4 0x4E487B71 PUSH1 0xE0 SHL PUSH1 0x0 MSTORE PUSH1 0x21 PUSH1 0x4 MSTORE PUSH1 0x24 PUSH1 0x0 REVERT JUMPDEST SWAP3 DUP2 MSTORE PUSH1 0x20 ADD MSTORE SWAP1 JUMP JUMPDEST PUSH1 0x1 PUSH1 0x1 PUSH1 0xA0 SHL SUB DUP6 DUP2 AND DUP3 MSTORE DUP5 AND PUSH1 0x20 DUP3 ADD MSTORE PUSH1 0x40 DUP2 ADD DUP4 SWAP1 MSTORE PUSH1 0x80 PUSH1 0x60 DUP3 ADD DUP2 SWAP1 MSTORE PUSH1 0x0 SWAP1 PUSH2 0x23C6 SWAP1 DUP4 ADD DUP5 PUSH2 0x1CFB JUMP JUMPDEST SWAP7 SWAP6 POP POP POP POP POP POP JUMP JUMPDEST PUSH1 0x0 PUSH1 0x20 DUP3 DUP5 SUB SLT ISZERO PUSH2 0x23E2 JUMPI PUSH1 0x0 DUP1 REVERT JUMPDEST DUP2 MLOAD PUSH2 0xD0B DUP2 PUSH2 0x1CA4 JUMP JUMPDEST PUSH4 0x4E487B71 PUSH1 0xE0 SHL PUSH1 0x0 MSTORE PUSH1 0x31 PUSH1 0x4 MSTORE PUSH1 0x24 PUSH1 0x0 REVERT INVALID LOG2 PUSH5 0x6970667358 0x22 SLT KECCAK256 PUSH12 0x8FC07036F674833DC60EABC7 PUSH23 0xB6236394E9A6D08590AE6B03426BC97BD16864736F6C63 NUMBER STOP ADDMOD EQ STOP CALLER "},"methodIdentifiers":{"EPOCH_DURATION()":"a70b9f0c","advanceEpoch()":"3cf80e6c","approve(address,uint256)":"095ea7b3","balanceOf(address)":"70a08231","batchMintLicense(address[],uint8[])":"effa26fc","currentEpoch()":"76671808","distributeAllRewards(uint256,uint256)":"08d07bdc","distributeReward(uint256)":"940a4e45","getApproved(uint256)":"081812fc","getLicenses(address)":"14773b4f","getRemainingSupply(uint8)":"fa3f33a6","isApprovedForAll(address,address)":"e985e9c5","lastClaimedEpoch(uint256)":"216694a1","lastEpochTime()":"89c614b8","licenseActive(uint256)":"29523c5c","maxSupply(uint8)":"2d8120b5","mintLicense(address,uint8)":"7eedd90d","name()":"06fdde03","nextLicenseId()":"492f471c","owner()":"8da5cb5b","ownerOf(uint256)":"6352211e","pause()":"8456cb59","paused()":"5c975abb","renounceOwnership()":"715018a6","revokeLicense(uint256)":"439d4b5c","rewardPerEpoch(uint8)":"98dcd2ca","safeTransferFrom(address,address,uint256)":"42842e0e","safeTransferFrom(address,address,uint256,bytes)":"b88d4fde","setApprovalForAll(address,bool)":"a22cb465","setBaseURI(string)":"55f804b3","setEpochDuration(uint256)":"30024dfe","supportsInterface(bytes4)":"01ffc9a7","symbol()":"95d89b41","tierOf(uint256)":"53f96df2","tokenURI(uint256)":"c87b56dd","totalDistributed()":"efca2eed","totalMinted(uint8)":"53f47f95","transferFrom(address,address,uint256)":"23b872dd","transferOwnership(address)":"f2fde38b","unpause()":"3f4ba83a"}}}}}