{
  "_format": "hh-sol-artifact-1",
  "contractName": "NonfungiblePositionManager",
  "sourceName": "contracts/NonfungiblePositionManager.sol",
  "abi": [
    {
      "inputs": [
        {
          "internalType": "address",
          "name": "_factory",
          "type": "address"
        },
        {
          "internalType": "address",
          "name": "_wdnr",
          "type": "address"
        }
      ],
      "stateMutability": "nonpayable",
      "type": "constructor"
    },
    {
      "anonymous": false,
      "inputs": [
        {
          "indexed": true,
          "internalType": "address",
          "name": "owner",
          "type": "address"
        },
        {
          "indexed": true,
          "internalType": "address",
          "name": "approved",
          "type": "address"
        },
        {
          "indexed": true,
          "internalType": "uint256",
          "name": "tokenId",
          "type": "uint256"
        }
      ],
      "name": "Approval",
      "type": "event"
    },
    {
      "anonymous": false,
      "inputs": [
        {
          "indexed": true,
          "internalType": "address",
          "name": "owner",
          "type": "address"
        },
        {
          "indexed": true,
          "internalType": "address",
          "name": "operator",
          "type": "address"
        },
        {
          "indexed": false,
          "internalType": "bool",
          "name": "approved",
          "type": "bool"
        }
      ],
      "name": "ApprovalForAll",
      "type": "event"
    },
    {
      "anonymous": false,
      "inputs": [
        {
          "indexed": true,
          "internalType": "address",
          "name": "from",
          "type": "address"
        },
        {
          "indexed": true,
          "internalType": "address",
          "name": "to",
          "type": "address"
        },
        {
          "indexed": true,
          "internalType": "uint256",
          "name": "tokenId",
          "type": "uint256"
        }
      ],
      "name": "Transfer",
      "type": "event"
    },
    {
      "inputs": [],
      "name": "WDNR",
      "outputs": [
        {
          "internalType": "address",
          "name": "",
          "type": "address"
        }
      ],
      "stateMutability": "view",
      "type": "function"
    },
    {
      "inputs": [
        {
          "internalType": "address",
          "name": "to",
          "type": "address"
        },
        {
          "internalType": "uint256",
          "name": "tokenId",
          "type": "uint256"
        }
      ],
      "name": "approve",
      "outputs": [],
      "stateMutability": "nonpayable",
      "type": "function"
    },
    {
      "inputs": [
        {
          "internalType": "address",
          "name": "owner",
          "type": "address"
        }
      ],
      "name": "balanceOf",
      "outputs": [
        {
          "internalType": "uint256",
          "name": "",
          "type": "uint256"
        }
      ],
      "stateMutability": "view",
      "type": "function"
    },
    {
      "inputs": [],
      "name": "factory",
      "outputs": [
        {
          "internalType": "address",
          "name": "",
          "type": "address"
        }
      ],
      "stateMutability": "view",
      "type": "function"
    },
    {
      "inputs": [
        {
          "internalType": "uint256",
          "name": "tokenId",
          "type": "uint256"
        }
      ],
      "name": "getApproved",
      "outputs": [
        {
          "internalType": "address",
          "name": "",
          "type": "address"
        }
      ],
      "stateMutability": "view",
      "type": "function"
    },
    {
      "inputs": [
        {
          "internalType": "address",
          "name": "owner",
          "type": "address"
        },
        {
          "internalType": "address",
          "name": "operator",
          "type": "address"
        }
      ],
      "name": "isApprovedForAll",
      "outputs": [
        {
          "internalType": "bool",
          "name": "",
          "type": "bool"
        }
      ],
      "stateMutability": "view",
      "type": "function"
    },
    {
      "inputs": [
        {
          "internalType": "uint256",
          "name": "amount0",
          "type": "uint256"
        },
        {
          "internalType": "uint256",
          "name": "amount1",
          "type": "uint256"
        },
        {
          "internalType": "bytes",
          "name": "data",
          "type": "bytes"
        }
      ],
      "name": "kortanaMintCallback",
      "outputs": [],
      "stateMutability": "nonpayable",
      "type": "function"
    },
    {
      "inputs": [
        {
          "components": [
            {
              "internalType": "address",
              "name": "token0",
              "type": "address"
            },
            {
              "internalType": "address",
              "name": "token1",
              "type": "address"
            },
            {
              "internalType": "uint24",
              "name": "fee",
              "type": "uint24"
            },
            {
              "internalType": "int24",
              "name": "tickLower",
              "type": "int24"
            },
            {
              "internalType": "int24",
              "name": "tickUpper",
              "type": "int24"
            },
            {
              "internalType": "uint256",
              "name": "amount0Desired",
              "type": "uint256"
            },
            {
              "internalType": "uint256",
              "name": "amount1Desired",
              "type": "uint256"
            },
            {
              "internalType": "uint256",
              "name": "amount0Min",
              "type": "uint256"
            },
            {
              "internalType": "uint256",
              "name": "amount1Min",
              "type": "uint256"
            },
            {
              "internalType": "address",
              "name": "recipient",
              "type": "address"
            },
            {
              "internalType": "uint256",
              "name": "deadline",
              "type": "uint256"
            }
          ],
          "internalType": "struct NonfungiblePositionManager.MintParams",
          "name": "params",
          "type": "tuple"
        }
      ],
      "name": "mint",
      "outputs": [
        {
          "internalType": "uint256",
          "name": "tokenId",
          "type": "uint256"
        },
        {
          "internalType": "uint128",
          "name": "liquidity",
          "type": "uint128"
        },
        {
          "internalType": "uint256",
          "name": "amount0",
          "type": "uint256"
        },
        {
          "internalType": "uint256",
          "name": "amount1",
          "type": "uint256"
        }
      ],
      "stateMutability": "payable",
      "type": "function"
    },
    {
      "inputs": [],
      "name": "name",
      "outputs": [
        {
          "internalType": "string",
          "name": "",
          "type": "string"
        }
      ],
      "stateMutability": "view",
      "type": "function"
    },
    {
      "inputs": [
        {
          "internalType": "uint256",
          "name": "tokenId",
          "type": "uint256"
        }
      ],
      "name": "ownerOf",
      "outputs": [
        {
          "internalType": "address",
          "name": "",
          "type": "address"
        }
      ],
      "stateMutability": "view",
      "type": "function"
    },
    {
      "inputs": [
        {
          "internalType": "address",
          "name": "from",
          "type": "address"
        },
        {
          "internalType": "address",
          "name": "to",
          "type": "address"
        },
        {
          "internalType": "uint256",
          "name": "tokenId",
          "type": "uint256"
        }
      ],
      "name": "safeTransferFrom",
      "outputs": [],
      "stateMutability": "nonpayable",
      "type": "function"
    },
    {
      "inputs": [
        {
          "internalType": "address",
          "name": "from",
          "type": "address"
        },
        {
          "internalType": "address",
          "name": "to",
          "type": "address"
        },
        {
          "internalType": "uint256",
          "name": "tokenId",
          "type": "uint256"
        },
        {
          "internalType": "bytes",
          "name": "data",
          "type": "bytes"
        }
      ],
      "name": "safeTransferFrom",
      "outputs": [],
      "stateMutability": "nonpayable",
      "type": "function"
    },
    {
      "inputs": [
        {
          "internalType": "address",
          "name": "operator",
          "type": "address"
        },
        {
          "internalType": "bool",
          "name": "approved",
          "type": "bool"
        }
      ],
      "name": "setApprovalForAll",
      "outputs": [],
      "stateMutability": "nonpayable",
      "type": "function"
    },
    {
      "inputs": [
        {
          "internalType": "bytes4",
          "name": "interfaceId",
          "type": "bytes4"
        }
      ],
      "name": "supportsInterface",
      "outputs": [
        {
          "internalType": "bool",
          "name": "",
          "type": "bool"
        }
      ],
      "stateMutability": "view",
      "type": "function"
    },
    {
      "inputs": [],
      "name": "symbol",
      "outputs": [
        {
          "internalType": "string",
          "name": "",
          "type": "string"
        }
      ],
      "stateMutability": "view",
      "type": "function"
    },
    {
      "inputs": [
        {
          "internalType": "uint256",
          "name": "index",
          "type": "uint256"
        }
      ],
      "name": "tokenByIndex",
      "outputs": [
        {
          "internalType": "uint256",
          "name": "",
          "type": "uint256"
        }
      ],
      "stateMutability": "view",
      "type": "function"
    },
    {
      "inputs": [
        {
          "internalType": "address",
          "name": "owner",
          "type": "address"
        },
        {
          "internalType": "uint256",
          "name": "index",
          "type": "uint256"
        }
      ],
      "name": "tokenOfOwnerByIndex",
      "outputs": [
        {
          "internalType": "uint256",
          "name": "",
          "type": "uint256"
        }
      ],
      "stateMutability": "view",
      "type": "function"
    },
    {
      "inputs": [
        {
          "internalType": "uint256",
          "name": "tokenId",
          "type": "uint256"
        }
      ],
      "name": "tokenURI",
      "outputs": [
        {
          "internalType": "string",
          "name": "",
          "type": "string"
        }
      ],
      "stateMutability": "view",
      "type": "function"
    },
    {
      "inputs": [],
      "name": "totalSupply",
      "outputs": [
        {
          "internalType": "uint256",
          "name": "",
          "type": "uint256"
        }
      ],
      "stateMutability": "view",
      "type": "function"
    },
    {
      "inputs": [
        {
          "internalType": "address",
          "name": "from",
          "type": "address"
        },
        {
          "internalType": "address",
          "name": "to",
          "type": "address"
        },
        {
          "internalType": "uint256",
          "name": "tokenId",
          "type": "uint256"
        }
      ],
      "name": "transferFrom",
      "outputs": [],
      "stateMutability": "nonpayable",
      "type": "function"
    }
  ],
  "bytecode": "0x60c0604052600b80546001600160b01b031916600117905534801561002357600080fd5b50604051612813380380612813833981016040819052610042916100f1565b81816040518060400160405280601381526020017f4b6f7274616e61204c5020506f736974696f6e000000000000000000000000008152506040518060400160405280600481526020016304b2d4c560e41b81525081600090816100a691906101c3565b5060016100b382826101c3565b50506001600a55506001600160a01b039182166080521660a052506102819050565b80516001600160a01b03811681146100ec57600080fd5b919050565b6000806040838503121561010457600080fd5b61010d836100d5565b915061011b602084016100d5565b90509250929050565b634e487b7160e01b600052604160045260246000fd5b600181811c9082168061014e57607f821691505b60208210810361016e57634e487b7160e01b600052602260045260246000fd5b50919050565b601f8211156101be57806000526020600020601f840160051c8101602085101561019b5750805b601f840160051c820191505b818110156101bb57600081556001016101a7565b50505b505050565b81516001600160401b038111156101dc576101dc610124565b6101f0816101ea845461013a565b84610174565b6020601f821160018114610224576000831561020c5750848201515b600019600385901b1c1916600184901b1784556101bb565b600084815260208120601f198516915b828110156102545787850151825560209485019460019092019101610234565b50848210156102725786840151600019600387901b60f8161c191681555b50505050600190811b01905550565b60805160a05161255f6102b460003960006103ca015260008181610376015281816108d201526109b9015261255f6000f3fe60806040526004361061011f5760003560e01c806370a08231116100a0578063c1c9723611610064578063c1c9723614610344578063c45a015514610364578063c87b56dd14610398578063d2d8d32f146103b8578063e985e9c5146103ec57600080fd5b806370a082311461029457806388316456146102b457806395d89b41146102ef578063a22cb46514610304578063b88d4fde1461032457600080fd5b806323b872dd116100e757806323b872dd146101f45780632f745c591461021457806342842e0e146102345780634f6ccce7146102545780636352211e1461027457600080fd5b806301ffc9a71461012457806306fdde0314610159578063081812fc1461017b578063095ea7b3146101b357806318160ddd146101d5575b600080fd5b34801561013057600080fd5b5061014461013f366004611df0565b610435565b60405190151581526020015b60405180910390f35b34801561016557600080fd5b5061016e610446565b6040516101509190611e5d565b34801561018757600080fd5b5061019b610196366004611e70565b6104d8565b6040516001600160a01b039091168152602001610150565b3480156101bf57600080fd5b506101d36101ce366004611e9e565b6104ff565b005b3480156101e157600080fd5b506008545b604051908152602001610150565b34801561020057600080fd5b506101d361020f366004611eca565b610619565b34801561022057600080fd5b506101e661022f366004611e9e565b61064a565b34801561024057600080fd5b506101d361024f366004611eca565b6106e0565b34801561026057600080fd5b506101e661026f366004611e70565b6106fb565b34801561028057600080fd5b5061019b61028f366004611e70565b61078e565b3480156102a057600080fd5b506101e66102af366004611f0b565b6107ee565b6102c76102c2366004611f28565b610874565b604080519485526001600160801b039093166020850152918301526060820152608001610150565b3480156102fb57600080fd5b5061016e610e94565b34801561031057600080fd5b506101d361031f366004611f52565b610ea3565b34801561033057600080fd5b506101d361033f366004611fa1565b610eb2565b34801561035057600080fd5b506101d361035f366004612089565b610eea565b34801561037057600080fd5b5061019b7f000000000000000000000000000000000000000000000000000000000000000081565b3480156103a457600080fd5b5061016e6103b3366004611e70565b610fe7565b3480156103c457600080fd5b5061019b7f000000000000000000000000000000000000000000000000000000000000000081565b3480156103f857600080fd5b5061014461040736600461210c565b6001600160a01b03918216600090815260056020908152604080832093909416825291909152205460ff1690565b60006104408261105b565b92915050565b6060600080546104559061213a565b80601f01602080910402602001604051908101604052809291908181526020018280546104819061213a565b80156104ce5780601f106104a3576101008083540402835291602001916104ce565b820191906000526020600020905b8154815290600101906020018083116104b157829003601f168201915b5050505050905090565b60006104e382611080565b506000908152600460205260409020546001600160a01b031690565b600061050a8261078e565b9050806001600160a01b0316836001600160a01b03160361057c5760405162461bcd60e51b815260206004820152602160248201527f4552433732313a20617070726f76616c20746f2063757272656e74206f776e656044820152603960f91b60648201526084015b60405180910390fd5b336001600160a01b038216148061059857506105988133610407565b61060a5760405162461bcd60e51b815260206004820152603d60248201527f4552433732313a20617070726f76652063616c6c6572206973206e6f7420746f60448201527f6b656e206f776e6572206f7220617070726f76656420666f7220616c6c0000006064820152608401610573565b61061483836110e2565b505050565b6106233382611150565b61063f5760405162461bcd60e51b815260040161057390612174565b6106148383836111cf565b6000610655836107ee565b82106106b75760405162461bcd60e51b815260206004820152602b60248201527f455243373231456e756d657261626c653a206f776e657220696e646578206f7560448201526a74206f6620626f756e647360a81b6064820152608401610573565b506001600160a01b03919091166000908152600660209081526040808320938352929052205490565b61061483838360405180602001604052806000815250610eb2565b600061070660085490565b82106107695760405162461bcd60e51b815260206004820152602c60248201527f455243373231456e756d657261626c653a20676c6f62616c20696e646578206f60448201526b7574206f6620626f756e647360a01b6064820152608401610573565b6008828154811061077c5761077c6121c1565b90600052602060002001549050919050565b6000818152600260205260408120546001600160a01b0316806104405760405162461bcd60e51b8152602060048201526018602482015277115490cdcc8c4e881a5b9d985b1a59081d1bdad95b88125160421b6044820152606401610573565b60006001600160a01b0382166108585760405162461bcd60e51b815260206004820152602960248201527f4552433732313a2061646472657373207a65726f206973206e6f7420612076616044820152683634b21037bbb732b960b91b6064820152608401610573565b506001600160a01b031660009081526003602052604090205490565b600080600080846101400135804211156108c65760405162461bcd60e51b8152602060048201526013602482015272151c985b9cd858dd1a5bdb881d1bdbc81bdb19606a1b6044820152606401610573565b60006001600160a01b037f000000000000000000000000000000000000000000000000000000000000000016631698ee8261090460208a018a611f0b565b61091460408b0160208c01611f0b565b61092460608c0160408d016121d7565b6040516001600160e01b031960e086901b1681526001600160a01b03938416600482015292909116602483015262ffffff166044820152606401602060405180830381865afa15801561097b573d6000803e3d6000fd5b505050506040513d601f19601f8201168201806040525081019061099f91906121fc565b90506001600160a01b038116610a8b576001600160a01b037f00000000000000000000000000000000000000000000000000000000000000001663a16712956109eb60208a018a611f0b565b6109fb60408b0160208c01611f0b565b610a0b60608c0160408d016121d7565b6040516001600160e01b031960e086901b1681526001600160a01b03938416600482015292909116602483015262ffffff1660448201526064016020604051808303816000875af1158015610a64573d6000803e3d6000fd5b505050506040513d601f19601f82011682018060405250810190610a8891906121fc565b90505b6000816001600160a01b0316633850c7bd6040518163ffffffff1660e01b815260040160e060405180830381865afa158015610acb573d6000803e3d6000fd5b505050506040513d601f19601f82011682018060405250810190610aef919061223f565b5050505050509050806001600160a01b0316600003610b6a5760405163f637731d60e01b8152600160601b60048201819052906001600160a01b0384169063f637731d90602401600060405180830381600087803b158015610b5057600080fd5b505af1158015610b64573d6000803e3d6000fd5b50505050505b620f424095506001600160a01b038216633c8a7d8d30610b9060808c0160608d016122d7565b610ba060a08d0160808e016122d7565b604080513360208201528c91016040516020818303038152906040526040518663ffffffff1660e01b8152600401610bdc9594939291906122f4565b60408051808303816000875af1158015610bfa573d6000803e3d6000fd5b505050506040513d601f19601f82011682018060405250810190610c1e9190612341565b600b80549297509095506001600160b01b03909116906000610c3f8361237b565b91906101000a8154816001600160b01b0302191690836001600160b01b031602179055506001600160b01b03169650610c8b88610120016020810190610c859190611f0b565b88611340565b604080516101808101825260008082526020808301919091529091820190610cb5908b018b611f0b565b6001600160a01b03168152602001896020016020810190610cd69190611f0b565b6001600160a01b03168152602001610cf460608b0160408c016121d7565b62ffffff168152602001610d0e60808b0160608c016122d7565b60020b8152602001610d2660a08b0160808c016122d7565b600290810b82526001600160801b03898116602080850191909152600060408086018290526060808701839052608080880184905260a09788018490528f8452600c8552928290208851948901516bffffffffffffffffffffffff909516600160601b6001600160a01b0396871602178155918801516001830180546001600160a01b0319169186169190911790558701519481018054928801519688015160c0890151969094166001600160b81b031990931692909217600160a01b62ffffff978816021765ffffffffffff60b81b1916600160b81b9387169390930262ffffff60d01b191692909217600160d01b95909416949094029290921790925560e08301516003820180546fffffffffffffffffffffffffffffffff19169184169190911790556101008301516004820155610120830151600582015561014083015161016090930151928216600160801b939092169290920217600690910155509496939550919350919050565b6060600180546104559061213a565b610eae33838361135a565b5050565b610ebc3383611150565b610ed85760405162461bcd60e51b815260040161057390612174565b610ee484848484611428565b50505050565b6000610ef882840184611f0b565b90508415610f6d57610f6d336001600160a01b0316630dfe16816040518163ffffffff1660e01b8152600401602060405180830381865afa158015610f41573d6000803e3d6000fd5b505050506040513d601f19601f82011682018060405250810190610f6591906121fc565b82338861145b565b8315610fe057610fe0336001600160a01b031663d21220a76040518163ffffffff1660e01b8152600401602060405180830381865afa158015610fb4573d6000803e3d6000fd5b505050506040513d601f19601f82011682018060405250810190610fd891906121fc565b82338761145b565b5050505050565b6060610ff282611080565b600061100960408051602081019091526000815290565b905060008151116110295760405180602001604052806000815250611054565b8061103384611487565b6040516020016110449291906123a7565b6040516020818303038152906040525b9392505050565b60006001600160e01b0319821663780e9d6360e01b148061044057506104408261151a565b6000818152600260205260409020546001600160a01b03166110df5760405162461bcd60e51b8152602060048201526018602482015277115490cdcc8c4e881a5b9d985b1a59081d1bdad95b88125160421b6044820152606401610573565b50565b600081815260046020526040902080546001600160a01b0319166001600160a01b03841690811790915581906111178261078e565b6001600160a01b03167f8c5be1e5ebec7d5bd14f71427d1e84f3dd0314c0f7b2291e5b200ac8c7c3b92560405160405180910390a45050565b60008061115c8361078e565b9050806001600160a01b0316846001600160a01b031614806111a357506001600160a01b0380821660009081526005602090815260408083209388168352929052205460ff165b806111c75750836001600160a01b03166111bc846104d8565b6001600160a01b0316145b949350505050565b826001600160a01b03166111e28261078e565b6001600160a01b0316146112085760405162461bcd60e51b8152600401610573906123d6565b6001600160a01b03821661126a5760405162461bcd60e51b8152602060048201526024808201527f4552433732313a207472616e7366657220746f20746865207a65726f206164646044820152637265737360e01b6064820152608401610573565b611277838383600161156a565b826001600160a01b031661128a8261078e565b6001600160a01b0316146112b05760405162461bcd60e51b8152600401610573906123d6565b600081815260046020908152604080832080546001600160a01b03199081169091556001600160a01b0387811680865260038552838620805460001901905590871680865283862080546001019055868652600290945282852080549092168417909155905184937fddf252ad1be2c89b69c2b068fc378daa952ba7f163c4a11628f55a4df523b3ef91a4505050565b610eae828260405180602001604052806000815250611576565b816001600160a01b0316836001600160a01b0316036113bb5760405162461bcd60e51b815260206004820152601960248201527f4552433732313a20617070726f766520746f2063616c6c6572000000000000006044820152606401610573565b6001600160a01b03838116600081815260056020908152604080832094871680845294825291829020805460ff191686151590811790915591519182527f17307eab39ab6107e8899845ad3d59bd9653f200f220920489ca2b5937696c31910160405180910390a3505050565b6114338484846111cf565b61143f848484846115a9565b610ee45760405162461bcd60e51b81526004016105739061241b565b306001600160a01b0384160361147b576114768483836116aa565b610ee4565b610ee4848484846117a3565b60606000611494836118ac565b600101905060008167ffffffffffffffff8111156114b4576114b4611f8b565b6040519080825280601f01601f1916602001820160405280156114de576020820181803683370190505b5090508181016020015b600019016f181899199a1a9b1b9c1cb0b131b232b360811b600a86061a8153600a85049450846114e857509392505050565b60006001600160e01b031982166380ac58cd60e01b148061154b57506001600160e01b03198216635b5e139f60e01b145b8061044057506301ffc9a760e01b6001600160e01b0319831614610440565b610ee484848484611984565b6115808383611ab1565b61158d60008484846115a9565b6106145760405162461bcd60e51b81526004016105739061241b565b60006001600160a01b0384163b1561169f57604051630a85bd0160e11b81526001600160a01b0385169063150b7a02906115ed90339089908890889060040161246d565b6020604051808303816000875af1925050508015611628575060408051601f3d908101601f19168201909252611625918101906124aa565b60015b611685573d808015611656576040519150601f19603f3d011682016040523d82523d6000602084013e61165b565b606091505b50805160000361167d5760405162461bcd60e51b81526004016105739061241b565b805181602001fd5b6001600160e01b031916630a85bd0160e11b1490506111c7565b506001949350505050565b604080516001600160a01b038481166024830152604480830185905283518084039091018152606490920183526020820180516001600160e01b031663a9059cbb60e01b179052915160009283929087169161170691906124c7565b6000604051808303816000865af19150503d8060008114611743576040519150601f19603f3d011682016040523d82523d6000602084013e611748565b606091505b509150915081801561177257508051158061177257508080602001905181019061177291906124e3565b610fe05760405162461bcd60e51b81526020600482015260026024820152612a2360f11b6044820152606401610573565b604080516001600160a01b0385811660248301528481166044830152606480830185905283518084039091018152608490920183526020820180516001600160e01b03166323b872dd60e01b179052915160009283929088169161180791906124c7565b6000604051808303816000865af19150503d8060008114611844576040519150601f19603f3d011682016040523d82523d6000602084013e611849565b606091505b509150915081801561187357508051158061187357508080602001905181019061187391906124e3565b6118a45760405162461bcd60e51b81526020600482015260026024820152612a2360f11b6044820152606401610573565b505050505050565b60008072184f03e93ff9f4daa797ed6e38ed64bf6a1f0160401b83106118eb5772184f03e93ff9f4daa797ed6e38ed64bf6a1f0160401b830492506040015b6d04ee2d6d415b85acef81000000008310611917576d04ee2d6d415b85acef8100000000830492506020015b662386f26fc10000831061193557662386f26fc10000830492506010015b6305f5e100831061194d576305f5e100830492506008015b612710831061196157612710830492506004015b60648310611973576064830492506002015b600a83106104405760010192915050565b60018111156119f35760405162461bcd60e51b815260206004820152603560248201527f455243373231456e756d657261626c653a20636f6e7365637574697665207472604482015274185b9cd9995c9cc81b9bdd081cdd5c1c1bdc9d1959605a1b6064820152608401610573565b816001600160a01b038516611a4f57611a4a81600880546000838152600960205260408120829055600182018355919091527ff3f7a9fe364faab93b216da50a3214154f22a0a2b415b23a84c8169e8b636ee30155565b611a72565b836001600160a01b0316856001600160a01b031614611a7257611a728582611c4a565b6001600160a01b038416611a8e57611a8981611ce7565b610fe0565b846001600160a01b0316846001600160a01b031614610fe057610fe08482611d96565b6001600160a01b038216611b075760405162461bcd60e51b815260206004820181905260248201527f4552433732313a206d696e7420746f20746865207a65726f20616464726573736044820152606401610573565b6000818152600260205260409020546001600160a01b031615611b6c5760405162461bcd60e51b815260206004820152601c60248201527f4552433732313a20746f6b656e20616c7265616479206d696e746564000000006044820152606401610573565b611b7a60008383600161156a565b6000818152600260205260409020546001600160a01b031615611bdf5760405162461bcd60e51b815260206004820152601c60248201527f4552433732313a20746f6b656e20616c7265616479206d696e746564000000006044820152606401610573565b6001600160a01b038216600081815260036020908152604080832080546001019055848352600290915280822080546001600160a01b0319168417905551839291907fddf252ad1be2c89b69c2b068fc378daa952ba7f163c4a11628f55a4df523b3ef908290a45050565b60006001611c57846107ee565b611c619190612500565b600083815260076020526040902054909150808214611cb4576001600160a01b03841660009081526006602090815260408083208584528252808320548484528184208190558352600790915290208190555b5060009182526007602090815260408084208490556001600160a01b039094168352600681528383209183525290812055565b600854600090611cf990600190612500565b60008381526009602052604081205460088054939450909284908110611d2157611d216121c1565b906000526020600020015490508060088381548110611d4257611d426121c1565b6000918252602080832090910192909255828152600990915260408082208490558582528120556008805480611d7a57611d7a612513565b6001900381819060005260206000200160009055905550505050565b6000611da1836107ee565b6001600160a01b039093166000908152600660209081526040808320868452825280832085905593825260079052919091209190915550565b6001600160e01b0319811681146110df57600080fd5b600060208284031215611e0257600080fd5b813561105481611dda565b60005b83811015611e28578181015183820152602001611e10565b50506000910152565b60008151808452611e49816020860160208601611e0d565b601f01601f19169290920160200192915050565b6020815260006110546020830184611e31565b600060208284031215611e8257600080fd5b5035919050565b6001600160a01b03811681146110df57600080fd5b60008060408385031215611eb157600080fd5b8235611ebc81611e89565b946020939093013593505050565b600080600060608486031215611edf57600080fd5b8335611eea81611e89565b92506020840135611efa81611e89565b929592945050506040919091013590565b600060208284031215611f1d57600080fd5b813561105481611e89565b6000610160828403128015611f3c57600080fd5b509092915050565b80151581146110df57600080fd5b60008060408385031215611f6557600080fd5b8235611f7081611e89565b91506020830135611f8081611f44565b809150509250929050565b634e487b7160e01b600052604160045260246000fd5b60008060008060808587031215611fb757600080fd5b8435611fc281611e89565b93506020850135611fd281611e89565b925060408501359150606085013567ffffffffffffffff811115611ff557600080fd5b8501601f8101871361200657600080fd5b803567ffffffffffffffff81111561202057612020611f8b565b604051601f8201601f19908116603f0116810167ffffffffffffffff8111828210171561204f5761204f611f8b565b60405281815282820160200189101561206757600080fd5b8160208401602083013760006020838301015280935050505092959194509250565b6000806000806060858703121561209f57600080fd5b8435935060208501359250604085013567ffffffffffffffff8111156120c457600080fd5b8501601f810187136120d557600080fd5b803567ffffffffffffffff8111156120ec57600080fd5b8760208284010111156120fe57600080fd5b949793965060200194505050565b6000806040838503121561211f57600080fd5b823561212a81611e89565b91506020830135611f8081611e89565b600181811c9082168061214e57607f821691505b60208210810361216e57634e487b7160e01b600052602260045260246000fd5b50919050565b6020808252602d908201527f4552433732313a2063616c6c6572206973206e6f7420746f6b656e206f776e6560408201526c1c881bdc88185c1c1c9bdd9959609a1b606082015260800190565b634e487b7160e01b600052603260045260246000fd5b6000602082840312156121e957600080fd5b813562ffffff8116811461105457600080fd5b60006020828403121561220e57600080fd5b815161105481611e89565b8060020b81146110df57600080fd5b805161ffff8116811461223a57600080fd5b919050565b600080600080600080600060e0888a03121561225a57600080fd5b875161226581611e89565b602089015190975061227681612219565b955061228460408901612228565b945061229260608901612228565b93506122a060808901612228565b925060a088015160ff811681146122b657600080fd5b60c08901519092506122c781611f44565b8091505092959891949750929550565b6000602082840312156122e957600080fd5b813561105481612219565b60018060a01b03861681528460020b60208201528360020b60408201526001600160801b038316606082015260a06080820152600061233660a0830184611e31565b979650505050505050565b6000806040838503121561235457600080fd5b505080516020909101519092909150565b634e487b7160e01b600052601160045260246000fd5b60006001600160b01b0382166002600160b01b0319810161239e5761239e612365565b60010192915050565b600083516123b9818460208801611e0d565b8351908301906123cd818360208801611e0d565b01949350505050565b60208082526025908201527f4552433732313a207472616e736665722066726f6d20696e636f72726563742060408201526437bbb732b960d91b606082015260800190565b60208082526032908201527f4552433732313a207472616e7366657220746f206e6f6e20455243373231526560408201527131b2b4bb32b91034b6b83632b6b2b73a32b960711b606082015260800190565b6001600160a01b03858116825284166020820152604081018390526080606082018190526000906124a090830184611e31565b9695505050505050565b6000602082840312156124bc57600080fd5b815161105481611dda565b600082516124d9818460208701611e0d565b9190910192915050565b6000602082840312156124f557600080fd5b815161105481611f44565b8181038181111561044057610440612365565b634e487b7160e01b600052603160045260246000fdfea264697066735822122033f4c8fd32b894200ef1a1f3686dfe4b09d61d84ad634f128adc6f3f096f775664736f6c634300081a0033",
  "linkReferences": {},
  "deployedLinkReferences": {}
}